{
  "_format": "hh-sol-artifact-1",
  "contractName": "Exchange",
  "sourceName": "contracts/exchange/Exchange.sol",
  "abi": [
    {
      "inputs": [
        {
          "internalType": "address",
          "name": "_address",
          "type": "address"
        }
      ],
      "stateMutability": "nonpayable",
      "type": "constructor"
    },
    {
      "anonymous": false,
      "inputs": [
        {
          "indexed": false,
          "internalType": "uint256",
          "name": "originalFee",
          "type": "uint256"
        },
        {
          "indexed": false,
          "internalType": "uint256",
          "name": "newFee",
          "type": "uint256"
        }
      ],
      "name": "FeeChanged",
      "type": "event"
    },
    {
      "anonymous": false,
      "inputs": [
        {
          "indexed": false,
          "internalType": "bytes32",
          "name": "orderHash",
          "type": "bytes32"
        },
        {
          "indexed": true,
          "internalType": "address",
          "name": "maker",
          "type": "address"
        }
      ],
      "name": "OrderCancelled",
      "type": "event"
    },
    {
      "anonymous": false,
      "inputs": [
        {
          "indexed": false,
          "internalType": "bytes32",
          "name": "buyOrderHash",
          "type": "bytes32"
        },
        {
          "indexed": false,
          "internalType": "bytes32",
          "name": "sellOrderHash",
          "type": "bytes32"
        },
        {
          "indexed": true,
          "internalType": "address",
          "name": "buyer",
          "type": "address"
        },
        {
          "indexed": true,
          "internalType": "address",
          "name": "seller",
          "type": "address"
        },
        {
          "indexed": false,
          "internalType": "address",
          "name": "paymentToken",
          "type": "address"
        },
        {
          "indexed": false,
          "internalType": "uint256",
          "name": "value",
          "type": "uint256"
        },
        {
          "indexed": false,
          "internalType": "uint256",
          "name": "royalty",
          "type": "uint256"
        },
        {
          "indexed": false,
          "internalType": "address",
          "name": "royaltyRecipient",
          "type": "address"
        }
      ],
      "name": "OrderMatched",
      "type": "event"
    },
    {
      "anonymous": false,
      "inputs": [
        {
          "indexed": true,
          "internalType": "address",
          "name": "previousOwner",
          "type": "address"
        },
        {
          "indexed": true,
          "internalType": "address",
          "name": "newOwner",
          "type": "address"
        }
      ],
      "name": "OwnershipTransferred",
      "type": "event"
    },
    {
      "anonymous": false,
      "inputs": [
        {
          "indexed": true,
          "internalType": "address",
          "name": "originalRecipient",
          "type": "address"
        },
        {
          "indexed": true,
          "internalType": "address",
          "name": "newRecipient",
          "type": "address"
        }
      ],
      "name": "RecipientChanged",
      "type": "event"
    },
    {
      "inputs": [],
      "name": "DOMAIN_SEPARATOR",
      "outputs": [
        {
          "internalType": "bytes32",
          "name": "",
          "type": "bytes32"
        }
      ],
      "stateMutability": "view",
      "type": "function"
    },
    {
      "inputs": [
        {
          "components": [
            {
              "internalType": "bool",
              "name": "isBuySide",
              "type": "bool"
            },
            {
              "internalType": "bool",
              "name": "isAuction",
              "type": "bool"
            },
            {
              "internalType": "address",
              "name": "maker",
              "type": "address"
            },
            {
              "internalType": "address",
              "name": "paymentToken",
              "type": "address"
            },
            {
              "internalType": "uint256",
              "name": "value",
              "type": "uint256"
            },
            {
              "internalType": "address",
              "name": "royaltyRecipient",
              "type": "address"
            },
            {
              "internalType": "uint256",
              "name": "royalty",
              "type": "uint256"
            },
            {
              "internalType": "address",
              "name": "target",
              "type": "address"
            },
            {
              "internalType": "uint256",
              "name": "tokenId",
              "type": "uint256"
            },
            {
              "internalType": "bytes",
              "name": "tokenSig",
              "type": "bytes"
            },
            {
              "internalType": "uint256",
              "name": "start",
              "type": "uint256"
            },
            {
              "internalType": "uint256",
              "name": "end",
              "type": "uint256"
            },
            {
              "internalType": "uint256",
              "name": "salt",
              "type": "uint256"
            }
          ],
          "internalType": "struct OrderUtils.Order",
          "name": "order",
          "type": "tuple"
        }
      ],
      "name": "cancelOrder",
      "outputs": [],
      "stateMutability": "nonpayable",
      "type": "function"
    },
    {
      "inputs": [
        {
          "internalType": "uint256",
          "name": "fee",
          "type": "uint256"
        }
      ],
      "name": "changeFee",
      "outputs": [],
      "stateMutability": "nonpayable",
      "type": "function"
    },
    {
      "inputs": [
        {
          "internalType": "address",
          "name": "recipient",
          "type": "address"
        }
      ],
      "name": "changeRecipient",
      "outputs": [],
      "stateMutability": "nonpayable",
      "type": "function"
    },
    {
      "inputs": [
        {
          "components": [
            {
              "internalType": "bool",
              "name": "isBuySide",
              "type": "bool"
            },
            {
              "internalType": "bool",
              "name": "isAuction",
              "type": "bool"
            },
            {
              "internalType": "address",
              "name": "maker",
              "type": "address"
            },
            {
              "internalType": "address",
              "name": "paymentToken",
              "type": "address"
            },
            {
              "internalType": "uint256",
              "name": "value",
              "type": "uint256"
            },
            {
              "internalType": "address",
              "name": "royaltyRecipient",
              "type": "address"
            },
            {
              "internalType": "uint256",
              "name": "royalty",
              "type": "uint256"
            },
            {
              "internalType": "address",
              "name": "target",
              "type": "address"
            },
            {
              "internalType": "uint256",
              "name": "tokenId",
              "type": "uint256"
            },
            {
              "internalType": "bytes",
              "name": "tokenSig",
              "type": "bytes"
            },
            {
              "internalType": "uint256",
              "name": "start",
              "type": "uint256"
            },
            {
              "internalType": "uint256",
              "name": "end",
              "type": "uint256"
            },
            {
              "internalType": "uint256",
              "name": "salt",
              "type": "uint256"
            }
          ],
          "internalType": "struct OrderUtils.Order",
          "name": "order",
          "type": "tuple"
        }
      ],
      "name": "checkOrderStatus",
      "outputs": [
        {
          "internalType": "bool",
          "name": "",
          "type": "bool"
        }
      ],
      "stateMutability": "view",
      "type": "function"
    },
    {
      "inputs": [],
      "name": "getFee",
      "outputs": [
        {
          "internalType": "uint256",
          "name": "",
          "type": "uint256"
        }
      ],
      "stateMutability": "view",
      "type": "function"
    },
    {
      "inputs": [],
      "name": "getRecipient",
      "outputs": [
        {
          "internalType": "address",
          "name": "",
          "type": "address"
        }
      ],
      "stateMutability": "view",
      "type": "function"
    },
    {
      "inputs": [
        {
          "components": [
            {
              "internalType": "bool",
              "name": "isBuySide",
              "type": "bool"
            },
            {
              "internalType": "bool",
              "name": "isAuction",
              "type": "bool"
            },
            {
              "internalType": "address",
              "name": "maker",
              "type": "address"
            },
            {
              "internalType": "address",
              "name": "paymentToken",
              "type": "address"
            },
            {
              "internalType": "uint256",
              "name": "value",
              "type": "uint256"
            },
            {
              "internalType": "address",
              "name": "royaltyRecipient",
              "type": "address"
            },
            {
              "internalType": "uint256",
              "name": "royalty",
              "type": "uint256"
            },
            {
              "internalType": "address",
              "name": "target",
              "type": "address"
            },
            {
              "internalType": "uint256",
              "name": "tokenId",
              "type": "uint256"
            },
            {
              "internalType": "bytes",
              "name": "tokenSig",
              "type": "bytes"
            },
            {
              "internalType": "uint256",
              "name": "start",
              "type": "uint256"
            },
            {
              "internalType": "uint256",
              "name": "end",
              "type": "uint256"
            },
            {
              "internalType": "uint256",
              "name": "salt",
              "type": "uint256"
            }
          ],
          "internalType": "struct OrderUtils.Order",
          "name": "buyOrder",
          "type": "tuple"
        },
        {
          "internalType": "bytes",
          "name": "buyOrderSig",
          "type": "bytes"
        },
        {
          "components": [
            {
              "internalType": "bool",
              "name": "isBuySide",
              "type": "bool"
            },
            {
              "internalType": "bool",
              "name": "isAuction",
              "type": "bool"
            },
            {
              "internalType": "address",
              "name": "maker",
              "type": "address"
            },
            {
              "internalType": "address",
              "name": "paymentToken",
              "type": "address"
            },
            {
              "internalType": "uint256",
              "name": "value",
              "type": "uint256"
            },
            {
              "internalType": "address",
              "name": "royaltyRecipient",
              "type": "address"
            },
            {
              "internalType": "uint256",
              "name": "royalty",
              "type": "uint256"
            },
            {
              "internalType": "address",
              "name": "target",
              "type": "address"
            },
            {
              "internalType": "uint256",
              "name": "tokenId",
              "type": "uint256"
            },
            {
              "internalType": "bytes",
              "name": "tokenSig",
              "type": "bytes"
            },
            {
              "internalType": "uint256",
              "name": "start",
              "type": "uint256"
            },
            {
              "internalType": "uint256",
              "name": "end",
              "type": "uint256"
            },
            {
              "internalType": "uint256",
              "name": "salt",
              "type": "uint256"
            }
          ],
          "internalType": "struct OrderUtils.Order",
          "name": "sellOrder",
          "type": "tuple"
        },
        {
          "internalType": "bytes",
          "name": "sellOrderSig",
          "type": "bytes"
        }
      ],
      "name": "matchOrder",
      "outputs": [],
      "stateMutability": "payable",
      "type": "function"
    },
    {
      "inputs": [],
      "name": "name",
      "outputs": [
        {
          "internalType": "string",
          "name": "",
          "type": "string"
        }
      ],
      "stateMutability": "view",
      "type": "function"
    },
    {
      "inputs": [],
      "name": "owner",
      "outputs": [
        {
          "internalType": "address",
          "name": "",
          "type": "address"
        }
      ],
      "stateMutability": "view",
      "type": "function"
    },
    {
      "inputs": [],
      "name": "renounceOwnership",
      "outputs": [],
      "stateMutability": "nonpayable",
      "type": "function"
    },
    {
      "inputs": [
        {
          "internalType": "address",
          "name": "to",
          "type": "address"
        },
        {
          "internalType": "address",
          "name": "contractAddress",
          "type": "address"
        },
        {
          "internalType": "uint256",
          "name": "tokenId",
          "type": "uint256"
        },
        {
          "internalType": "bytes",
          "name": "tokenSig",
          "type": "bytes"
        }
      ],
      "name": "transferERC721",
      "outputs": [],
      "stateMutability": "nonpayable",
      "type": "function"
    },
    {
      "inputs": [
        {
          "internalType": "address",
          "name": "newOwner",
          "type": "address"
        }
      ],
      "name": "transferOwnership",
      "outputs": [],
      "stateMutability": "nonpayable",
      "type": "function"
    }
  ],
  "bytecode": "0x60c0604052600860808190526745786368616e676560c01b60a09081526200002b9160059190620001a3565b503480156200003957600080fd5b50604051620020f3380380620020f38339810160408190526200005c9162000249565b60016000556200006c3362000151565b60038054336001600160a01b031991821617909155600780549091166001600160a01b03831617905560405146907f8b73c3c69bb8fe3d512ecc4cf759cc79239f7b179b0ffacaa9a75d522b39400f90620000ca906005906200027b565b60408051918290038220828201825260018352603160f81b6020938401528151928301939093528101919091527fc89efdaa54c0f20c7adf612882df0950f5a951637e0307cdcb4c672f298b8bc66060820152608081018290523060a082015260c0016040516020818303038152906040528051906020012060048190555050506200035c565b600180546001600160a01b038381166001600160a01b0319831681179093556040519116919082907f8be0079c531659141344cd1fd0a4f28419497f9722a3daafe3b4186f6b6457e090600090a35050565b828054620001b1906200031f565b90600052602060002090601f016020900481019282620001d5576000855562000220565b82601f10620001f057805160ff191683800117855562000220565b8280016001018555821562000220579182015b828111156200022057825182559160200191906001019062000203565b506200022e92915062000232565b5090565b5b808211156200022e576000815560010162000233565b6000602082840312156200025c57600080fd5b81516001600160a01b03811681146200027457600080fd5b9392505050565b600080835481600182811c9150808316806200029857607f831692505b6020808410821415620002b957634e487b7160e01b86526022600452602486fd5b818015620002d05760018114620002e25762000311565b60ff1986168952848901965062000311565b60008a81526020902060005b86811015620003095781548b820152908501908301620002ee565b505084890196505b509498975050505050505050565b600181811c908216806200033457607f821691505b602082108114156200035657634e487b7160e01b600052602260045260246000fd5b50919050565b611d87806200036c6000396000f3fe6080604052600436106100d25760003560e01c80636a1db1bf1161007f57806392c2bcb41161005957806392c2bcb4146102005780639cf7c69c14610220578063ced72f8714610250578063f2fde38b1461026557600080fd5b80636a1db1bf146101ad578063715018a6146101cd5780638da5cb5b146101e257600080fd5b80633644e515116100b05780633644e51514610156578063608d8f561461017a57806363eed7d01461018d57600080fd5b806306fdde03146100d75780631b88094d146101025780633303dabd14610134575b600080fd5b3480156100e357600080fd5b506100ec610285565b6040516100f99190611be8565b60405180910390f35b34801561010e57600080fd5b506003546001600160a01b03165b6040516001600160a01b0390911681526020016100f9565b34801561014057600080fd5b5061015461014f3660046119bc565b610313565b005b34801561016257600080fd5b5061016c60045481565b6040519081526020016100f9565b6101546101883660046119f1565b61040b565b34801561019957600080fd5b506101546101a8366004611933565b61062a565b3480156101b957600080fd5b506101546101c8366004611a92565b61063d565b3480156101d957600080fd5b50610154610702565b3480156101ee57600080fd5b506001546001600160a01b031661011c565b34801561020c57600080fd5b5061015461021b3660046118f9565b610716565b34801561022c57600080fd5b5061024061023b3660046119bc565b6107de565b60405190151581526020016100f9565b34801561025c57600080fd5b5060025461016c565b34801561027157600080fd5b506101546102803660046118f9565b610808565b6005805461029290611cc7565b80601f01602080910402602001604051908101604052809291908181526020018280546102be90611cc7565b801561030b5780601f106102e05761010080835404028352916020019161030b565b820191906000526020600020905b8154815290600101906020018083116102ee57829003601f168201915b505050505081565b60408101516001600160a01b03163314801561034d57506006600061033783610898565b815260208101919091526040016000205460ff16155b61039e5760405162461bcd60e51b815260206004820152601960248201527f45786368616e67653a20696e76616c696420726571756573740000000000000060448201526064015b60405180910390fd5b6001600660006103ad84610898565b81526020810191909152604001600020805460ff1916911515919091179055337fa6eb7cdc219e1518ced964e9a34e61d68a94e4f1569db3e84256ba981ba527536103f783610898565b60405190815260200160405180910390a250565b6002600054141561045e5760405162461bcd60e51b815260206004820152601f60248201527f5265656e7472616e637947756172643a207265656e7472616e742063616c6c006044820152606401610395565b600260005561046d8484610942565b801561047e575061047e8282610942565b6104f05760405162461bcd60e51b815260206004820152602160248201527f45786368616e67653a20696e76616c6964206f72646572207369676e6174757260448201527f65000000000000000000000000000000000000000000000000000000000000006064820152608401610395565b6104fa8483610aae565b61056c5760405162461bcd60e51b815260206004820152602260248201527f45786368616e67653a20696e76616c6964206f7264657220706172616d65746560448201527f72730000000000000000000000000000000000000000000000000000000000006064820152608401610395565b6105768483610c12565b6105e85760405162461bcd60e51b815260206004820152602660248201527f45786368616e67653a206d7573742062652063616c6c6564206279206c65676960448201527f74207573657200000000000000000000000000000000000000000000000000006064820152608401610395565b6105f28483610c4a565b6105fc8483610cb0565b61061f826040015185604001518460e00151856101000151866101200151610fc8565b505060016000555050565b6106373385858585610fc8565b50505050565b6106456113a6565b6103e88111156106bd5760405162461bcd60e51b815260206004820152602560248201527f45786368616e67653a20666565206d757374206e6f206c61726765722074686160448201527f6e203130250000000000000000000000000000000000000000000000000000006064820152608401610395565b600280549082905560408051828152602081018490527f5fc463da23c1b063e66f9e352006a7fbe8db7223c455dc429e881a2dfe2f94f1910160405180910390a15050565b61070a6113a6565b6107146000611400565b565b61071e6113a6565b6001600160a01b0381166107745760405162461bcd60e51b815260206004820152601860248201527f7a65726f2061646472657373206e6f7420616c6c6f77656400000000000000006044820152606401610395565b600380546001600160a01b038381167fffffffffffffffffffffffff0000000000000000000000000000000000000000831681179093556040519116919082907f4a9d367b1b0cd787be10021f1c55cb49c9f2302334e6df35c9621005eb22251490600090a35050565b6000600660006107ed84610898565b815260208101919091526040016000205460ff161592915050565b6108106113a6565b6001600160a01b03811661088c5760405162461bcd60e51b815260206004820152602660248201527f4f776e61626c653a206e6577206f776e657220697320746865207a65726f206160448201527f64647265737300000000000000000000000000000000000000000000000000006064820152608401610395565b61089581611400565b50565b60007f27032b6564c9c203f2bd0f0ccd36b2529e0811ecf18a68db0e2c9c09315bd252826000015183602001518460400151856060015186608001518760a001518860c001518960e001518a61010001518b6101200151805190602001208c61014001518d61016001518e61018001516040516020016109259e9d9c9b9a99989796959493929190611b46565b604051602081830303815290604052805190602001209050919050565b600081516041146109bb5760405162461bcd60e51b815260206004820152602260248201527f45786368616e67653a20696e76616c6964207369676e6174757265206c656e6760448201527f74680000000000000000000000000000000000000000000000000000000000006064820152608401610395565b602082015160408301516060840151600454600091821a91906109dd88610898565b6040517f190100000000000000000000000000000000000000000000000000000000000060208201526022810192909252604282015260620160408051601f1981840301815282825280516020918201208a8301516000855291840180845281905260ff86169284019290925260608301879052608083018690529092506001600160a01b03169060019060a0016020604051602081039080840390855afa158015610a8d573d6000803e3d6000fd5b505050602060405103516001600160a01b0316149450505050505b92915050565b815160009015156001148015610ac357508151155b8015610ada57508160200151151583602001511515145b8015610aff575081606001516001600160a01b031683606001516001600160a01b0316145b8015610b1357508160800151836080015110155b8015610b2557506103e88260c0015111155b8015610b4a57508160e001516001600160a01b03168360e001516001600160a01b0316145b8015610b5f5750816101000151836101000151145b8015610b7e575042836101400151108015610b7e575042826101400151105b8015610b9b5750428361016001511180610b9b5750610160830151155b8015610bb85750428261016001511180610bb85750610160820151155b8015610c0b575060066000610bcc85610898565b815260208101919091526040016000205460ff16158015610c0b575060066000610bf584610898565b815260208101919091526040016000205460ff16155b9392505050565b6000826020015115610c34575060408101516001600160a01b03163314610aa8565b5060408201516001600160a01b03163314610aa8565b600160066000610c5985610898565b815260200190815260200160002060006101000a81548160ff021916908315150217905550600160066000610c8d84610898565b81526020810191909152604001600020805460ff19169115159190911790555050565b60a08101516060820151600254608085015160009161271091610cd39190611c47565b610cdd9190611c25565b905060006127108560c001518760800151610cf89190611c47565b610d029190611c25565b9050600081838860800151610d179190611c84565b610d219190611c84565b90506001600160a01b038416610e5c578660200151158015610d465750866080015134145b610d925760405162461bcd60e51b815260206004820152601960248201527f45786368616e67653a20696e76616c6964207061796d656e74000000000000006044820152606401610395565b8215610dd4576003546040516001600160a01b039091169084156108fc029085906000818181858888f19350505050158015610dd2573d6000803e3d6000fd5b505b8115610e12576040516001600160a01b0386169083156108fc029084906000818181858888f19350505050158015610e10573d6000803e3d6000fd5b505b8015610e575785604001516001600160a01b03166108fc829081150290604051600060405180830381858888f19350505050158015610e55573d6000803e3d6000fd5b505b610f13565b3415610eaa5760405162461bcd60e51b815260206004820152601960248201527f45786368616e67653a20696e76616c6964207061796d656e74000000000000006044820152606401610395565b8215610ecd576040870151600354610ecd9186916001600160a01b03168661146a565b8115801590610ee457506001600160a01b03851615155b15610ef957610ef9848860400151878561146a565b8015610f1357610f1384886040015188604001518461146a565b85604001516001600160a01b031687604001516001600160a01b03167f45ed35fce5e0e74f5a2b0744ab3e0bdfdb3985f3e2dccb35844ba2f9fc68addd610f598a610898565b610f628a610898565b8b606001518c608001518c60c001518d60a00151604051610fb79695949392919095865260208601949094526001600160a01b039283166040860152606085019190915260808401521660a082015260c00190565b60405180910390a350505050505050565b600754604080517ff9bf800600000000000000000000000000000000000000000000000000000000815290516000926001600160a01b03169163f9bf8006916004808301926020929190829003018186803b15801561102657600080fd5b505afa15801561103a573d6000803e3d6000fd5b505050506040513d601f19601f8201168201806040525081019061105e9190611916565b90506060600083805190602001207fbc36789e7a1e281436464229828f817d6612f7b477d66591ff96a9e064bcc98a60001b14611211578785856040516024016110aa93929190611b15565b60408051601f198184030181529181526020820180517bffffffffffffffffffffffffffffffffffffffffffffffffffffffff167f94d008ef00000000000000000000000000000000000000000000000000000000179052517fbe6d055a0000000000000000000000000000000000000000000000000000000081529092506001600160a01b0384169063be6d055a9061114a9089908690600401611af3565b602060405180830381600087803b15801561116457600080fd5b505af1158015611178573d6000803e3d6000fd5b505050506040513d601f19601f8201168201806040525081019061119c919061199f565b9050806112115760405162461bcd60e51b815260206004820152602360248201527f45786368616e67653a207472616e7366657250726f78792063616c6c2066616960448201527f6c656400000000000000000000000000000000000000000000000000000000006064820152608401610395565b6040516001600160a01b03808a166024830152881660448201526064810186905260840160408051601f198184030181529181526020820180517bffffffffffffffffffffffffffffffffffffffffffffffffffffffff167f23b872dd00000000000000000000000000000000000000000000000000000000179052517fbe6d055a0000000000000000000000000000000000000000000000000000000081529092506001600160a01b0384169063be6d055a906112d59089908690600401611af3565b602060405180830381600087803b1580156112ef57600080fd5b505af1158015611303573d6000803e3d6000fd5b505050506040513d601f19601f82011682018060405250810190611327919061199f565b90508061139c5760405162461bcd60e51b815260206004820152602360248201527f45786368616e67653a207472616e7366657250726f78792063616c6c2066616960448201527f6c656400000000000000000000000000000000000000000000000000000000006064820152608401610395565b5050505050505050565b6001546001600160a01b031633146107145760405162461bcd60e51b815260206004820181905260248201527f4f776e61626c653a2063616c6c6572206973206e6f7420746865206f776e65726044820152606401610395565b600180546001600160a01b038381167fffffffffffffffffffffffff0000000000000000000000000000000000000000831681179093556040519116919082907f8be0079c531659141344cd1fd0a4f28419497f9722a3daafe3b4186f6b6457e090600090a35050565b604080516001600160a01b038581166024830152848116604483015260648083018590528351808403909101815260849092018352602080830180517bffffffffffffffffffffffffffffffffffffffffffffffffffffffff167f23b872dd0000000000000000000000000000000000000000000000000000000017905283518085019094528084527f5361666545524332303a206c6f772d6c6576656c2063616c6c206661696c656490840152610637928792916000916115309185169084906115c5565b8051909150156115c0578080602001905181019061154e919061199f565b6115c05760405162461bcd60e51b815260206004820152602a60248201527f5361666545524332303a204552433230206f7065726174696f6e20646964206e60448201527f6f742073756363656564000000000000000000000000000000000000000000006064820152608401610395565b505050565b60606115d484846000856115dc565b949350505050565b6060824710156116545760405162461bcd60e51b815260206004820152602660248201527f416464726573733a20696e73756666696369656e742062616c616e636520666f60448201527f722063616c6c00000000000000000000000000000000000000000000000000006064820152608401610395565b6001600160a01b0385163b6116ab5760405162461bcd60e51b815260206004820152601d60248201527f416464726573733a2063616c6c20746f206e6f6e2d636f6e74726163740000006044820152606401610395565b600080866001600160a01b031685876040516116c79190611ad7565b60006040518083038185875af1925050503d8060008114611704576040519150601f19603f3d011682016040523d82523d6000602084013e611709565b606091505b5091509150611719828286611724565b979650505050505050565b60608315611733575081610c0b565b8251156117435782518084602001fd5b8160405162461bcd60e51b81526004016103959190611be8565b803561176881611d2e565b919050565b803561176881611d43565b600082601f83011261178957600080fd5b813567ffffffffffffffff808211156117a4576117a4611d18565b604051601f8301601f19908116603f011681019082821181831017156117cc576117cc611d18565b816040528381528660208588010111156117e557600080fd5b836020870160208301376000602085830101528094505050505092915050565b60006101a0828403121561181857600080fd5b611820611bfb565b905061182b8261176d565b81526118396020830161176d565b602082015261184a6040830161175d565b604082015261185b6060830161175d565b60608201526080820135608082015261187660a0830161175d565b60a082015260c082013560c082015261189160e0830161175d565b60e082015261010082810135908201526101208083013567ffffffffffffffff8111156118bd57600080fd5b6118c985828601611778565b82840152505061014080830135818301525061016080830135818301525061018080830135818301525092915050565b60006020828403121561190b57600080fd5b8135610c0b81611d2e565b60006020828403121561192857600080fd5b8151610c0b81611d2e565b6000806000806080858703121561194957600080fd5b843561195481611d2e565b9350602085013561196481611d2e565b925060408501359150606085013567ffffffffffffffff81111561198757600080fd5b61199387828801611778565b91505092959194509250565b6000602082840312156119b157600080fd5b8151610c0b81611d43565b6000602082840312156119ce57600080fd5b813567ffffffffffffffff8111156119e557600080fd5b6115d484828501611805565b60008060008060808587031215611a0757600080fd5b843567ffffffffffffffff80821115611a1f57600080fd5b611a2b88838901611805565b95506020870135915080821115611a4157600080fd5b611a4d88838901611778565b94506040870135915080821115611a6357600080fd5b611a6f88838901611805565b93506060870135915080821115611a8557600080fd5b5061199387828801611778565b600060208284031215611aa457600080fd5b5035919050565b60008151808452611ac3816020860160208601611c9b565b601f01601f19169290920160200192915050565b60008251611ae9818460208701611c9b565b9190910192915050565b6001600160a01b03831681526040602082015260006115d46040830184611aab565b6001600160a01b0384168152826020820152606060408201526000611b3d6060830184611aab565b95945050505050565b8e81528d151560208201528c151560408201526001600160a01b038c1660608201526101c081016001600160a01b038c1660808301528a60a0830152611b9760c083018b6001600160a01b03169052565b8860e0830152611bb36101008301896001600160a01b03169052565b6101208201969096526101408101949094526101608401929092526101808301526101a0909101529998505050505050505050565b602081526000610c0b6020830184611aab565b6040516101a0810167ffffffffffffffff81118282101715611c1f57611c1f611d18565b60405290565b600082611c4257634e487b7160e01b600052601260045260246000fd5b500490565b6000817fffffffffffffffffffffffffffffffffffffffffffffffffffffffffffffffff0483118215151615611c7f57611c7f611d02565b500290565b600082821015611c9657611c96611d02565b500390565b60005b83811015611cb6578181015183820152602001611c9e565b838111156106375750506000910152565b600181811c90821680611cdb57607f821691505b60208210811415611cfc57634e487b7160e01b600052602260045260246000fd5b50919050565b634e487b7160e01b600052601160045260246000fd5b634e487b7160e01b600052604160045260246000fd5b6001600160a01b038116811461089557600080fd5b801515811461089557600080fdfea26469706673582212201848f35577c001c642b8800cf9f34648fd6640d0f15e497dc1dcf815c3192ed564736f6c63430008070033",
  "linkReferences": {},
  "deployedLinkReferences": {}
}