{
  "_format": "hh-sol-artifact-1",
  "contractName": "Exchange",
  "sourceName": "contracts/exchange/Exchange.sol",
  "abi": [
    {
      "inputs": [
        {
          "internalType": "address",
          "name": "_address",
          "type": "address"
        }
      ],
      "stateMutability": "nonpayable",
      "type": "constructor"
    },
    {
      "anonymous": false,
      "inputs": [
        {
          "indexed": false,
          "internalType": "uint256",
          "name": "originalFee",
          "type": "uint256"
        },
        {
          "indexed": false,
          "internalType": "uint256",
          "name": "newFee",
          "type": "uint256"
        }
      ],
      "name": "FeeChanged",
      "type": "event"
    },
    {
      "anonymous": false,
      "inputs": [
        {
          "indexed": false,
          "internalType": "bytes32",
          "name": "orderHash",
          "type": "bytes32"
        },
        {
          "indexed": true,
          "internalType": "address",
          "name": "maker",
          "type": "address"
        }
      ],
      "name": "OrderCancelled",
      "type": "event"
    },
    {
      "anonymous": false,
      "inputs": [
        {
          "indexed": false,
          "internalType": "bytes32",
          "name": "buyOrderHash",
          "type": "bytes32"
        },
        {
          "indexed": false,
          "internalType": "bytes32",
          "name": "sellOrderHash",
          "type": "bytes32"
        },
        {
          "indexed": true,
          "internalType": "address",
          "name": "buyer",
          "type": "address"
        },
        {
          "indexed": true,
          "internalType": "address",
          "name": "seller",
          "type": "address"
        },
        {
          "indexed": false,
          "internalType": "address",
          "name": "paymentToken",
          "type": "address"
        },
        {
          "indexed": false,
          "internalType": "uint256",
          "name": "value",
          "type": "uint256"
        }
      ],
      "name": "OrderMatched",
      "type": "event"
    },
    {
      "anonymous": false,
      "inputs": [
        {
          "indexed": true,
          "internalType": "address",
          "name": "previousOwner",
          "type": "address"
        },
        {
          "indexed": true,
          "internalType": "address",
          "name": "newOwner",
          "type": "address"
        }
      ],
      "name": "OwnershipTransferred",
      "type": "event"
    },
    {
      "anonymous": false,
      "inputs": [
        {
          "indexed": true,
          "internalType": "address",
          "name": "originalRecipient",
          "type": "address"
        },
        {
          "indexed": true,
          "internalType": "address",
          "name": "newRecipient",
          "type": "address"
        }
      ],
      "name": "RecipientChanged",
      "type": "event"
    },
    {
      "inputs": [],
      "name": "DOMAIN_SEPARATOR",
      "outputs": [
        {
          "internalType": "bytes32",
          "name": "",
          "type": "bytes32"
        }
      ],
      "stateMutability": "view",
      "type": "function"
    },
    {
      "inputs": [
        {
          "components": [
            {
              "internalType": "bool",
              "name": "isBuySide",
              "type": "bool"
            },
            {
              "internalType": "bool",
              "name": "isAuction",
              "type": "bool"
            },
            {
              "internalType": "address",
              "name": "maker",
              "type": "address"
            },
            {
              "internalType": "address",
              "name": "paymentToken",
              "type": "address"
            },
            {
              "internalType": "uint256",
              "name": "value",
              "type": "uint256"
            },
            {
              "internalType": "address",
              "name": "royaltyRecipient",
              "type": "address"
            },
            {
              "internalType": "uint256",
              "name": "royalty",
              "type": "uint256"
            },
            {
              "internalType": "address",
              "name": "target",
              "type": "address"
            },
            {
              "internalType": "uint256",
              "name": "tokenId",
              "type": "uint256"
            },
            {
              "internalType": "bytes",
              "name": "tokenSig",
              "type": "bytes"
            },
            {
              "internalType": "uint256",
              "name": "start",
              "type": "uint256"
            },
            {
              "internalType": "uint256",
              "name": "end",
              "type": "uint256"
            },
            {
              "internalType": "uint256",
              "name": "salt",
              "type": "uint256"
            }
          ],
          "internalType": "struct OrderUtils.Order",
          "name": "order",
          "type": "tuple"
        }
      ],
      "name": "cancelOrder",
      "outputs": [],
      "stateMutability": "nonpayable",
      "type": "function"
    },
    {
      "inputs": [
        {
          "internalType": "uint256",
          "name": "fee",
          "type": "uint256"
        }
      ],
      "name": "changeFee",
      "outputs": [],
      "stateMutability": "nonpayable",
      "type": "function"
    },
    {
      "inputs": [
        {
          "internalType": "address",
          "name": "recipient",
          "type": "address"
        }
      ],
      "name": "changeRecipient",
      "outputs": [],
      "stateMutability": "nonpayable",
      "type": "function"
    },
    {
      "inputs": [
        {
          "components": [
            {
              "internalType": "bool",
              "name": "isBuySide",
              "type": "bool"
            },
            {
              "internalType": "bool",
              "name": "isAuction",
              "type": "bool"
            },
            {
              "internalType": "address",
              "name": "maker",
              "type": "address"
            },
            {
              "internalType": "address",
              "name": "paymentToken",
              "type": "address"
            },
            {
              "internalType": "uint256",
              "name": "value",
              "type": "uint256"
            },
            {
              "internalType": "address",
              "name": "royaltyRecipient",
              "type": "address"
            },
            {
              "internalType": "uint256",
              "name": "royalty",
              "type": "uint256"
            },
            {
              "internalType": "address",
              "name": "target",
              "type": "address"
            },
            {
              "internalType": "uint256",
              "name": "tokenId",
              "type": "uint256"
            },
            {
              "internalType": "bytes",
              "name": "tokenSig",
              "type": "bytes"
            },
            {
              "internalType": "uint256",
              "name": "start",
              "type": "uint256"
            },
            {
              "internalType": "uint256",
              "name": "end",
              "type": "uint256"
            },
            {
              "internalType": "uint256",
              "name": "salt",
              "type": "uint256"
            }
          ],
          "internalType": "struct OrderUtils.Order",
          "name": "order",
          "type": "tuple"
        }
      ],
      "name": "checkOrderStatus",
      "outputs": [
        {
          "internalType": "bool",
          "name": "",
          "type": "bool"
        }
      ],
      "stateMutability": "view",
      "type": "function"
    },
    {
      "inputs": [],
      "name": "getFee",
      "outputs": [
        {
          "internalType": "uint256",
          "name": "",
          "type": "uint256"
        }
      ],
      "stateMutability": "view",
      "type": "function"
    },
    {
      "inputs": [],
      "name": "getRecipient",
      "outputs": [
        {
          "internalType": "address",
          "name": "",
          "type": "address"
        }
      ],
      "stateMutability": "view",
      "type": "function"
    },
    {
      "inputs": [
        {
          "components": [
            {
              "internalType": "bool",
              "name": "isBuySide",
              "type": "bool"
            },
            {
              "internalType": "bool",
              "name": "isAuction",
              "type": "bool"
            },
            {
              "internalType": "address",
              "name": "maker",
              "type": "address"
            },
            {
              "internalType": "address",
              "name": "paymentToken",
              "type": "address"
            },
            {
              "internalType": "uint256",
              "name": "value",
              "type": "uint256"
            },
            {
              "internalType": "address",
              "name": "royaltyRecipient",
              "type": "address"
            },
            {
              "internalType": "uint256",
              "name": "royalty",
              "type": "uint256"
            },
            {
              "internalType": "address",
              "name": "target",
              "type": "address"
            },
            {
              "internalType": "uint256",
              "name": "tokenId",
              "type": "uint256"
            },
            {
              "internalType": "bytes",
              "name": "tokenSig",
              "type": "bytes"
            },
            {
              "internalType": "uint256",
              "name": "start",
              "type": "uint256"
            },
            {
              "internalType": "uint256",
              "name": "end",
              "type": "uint256"
            },
            {
              "internalType": "uint256",
              "name": "salt",
              "type": "uint256"
            }
          ],
          "internalType": "struct OrderUtils.Order",
          "name": "buyOrder",
          "type": "tuple"
        },
        {
          "internalType": "bytes",
          "name": "buyOrderSig",
          "type": "bytes"
        },
        {
          "components": [
            {
              "internalType": "bool",
              "name": "isBuySide",
              "type": "bool"
            },
            {
              "internalType": "bool",
              "name": "isAuction",
              "type": "bool"
            },
            {
              "internalType": "address",
              "name": "maker",
              "type": "address"
            },
            {
              "internalType": "address",
              "name": "paymentToken",
              "type": "address"
            },
            {
              "internalType": "uint256",
              "name": "value",
              "type": "uint256"
            },
            {
              "internalType": "address",
              "name": "royaltyRecipient",
              "type": "address"
            },
            {
              "internalType": "uint256",
              "name": "royalty",
              "type": "uint256"
            },
            {
              "internalType": "address",
              "name": "target",
              "type": "address"
            },
            {
              "internalType": "uint256",
              "name": "tokenId",
              "type": "uint256"
            },
            {
              "internalType": "bytes",
              "name": "tokenSig",
              "type": "bytes"
            },
            {
              "internalType": "uint256",
              "name": "start",
              "type": "uint256"
            },
            {
              "internalType": "uint256",
              "name": "end",
              "type": "uint256"
            },
            {
              "internalType": "uint256",
              "name": "salt",
              "type": "uint256"
            }
          ],
          "internalType": "struct OrderUtils.Order",
          "name": "sellOrder",
          "type": "tuple"
        },
        {
          "internalType": "bytes",
          "name": "sellOrderSig",
          "type": "bytes"
        }
      ],
      "name": "matchOrder",
      "outputs": [],
      "stateMutability": "payable",
      "type": "function"
    },
    {
      "inputs": [],
      "name": "name",
      "outputs": [
        {
          "internalType": "string",
          "name": "",
          "type": "string"
        }
      ],
      "stateMutability": "view",
      "type": "function"
    },
    {
      "inputs": [],
      "name": "owner",
      "outputs": [
        {
          "internalType": "address",
          "name": "",
          "type": "address"
        }
      ],
      "stateMutability": "view",
      "type": "function"
    },
    {
      "inputs": [],
      "name": "renounceOwnership",
      "outputs": [],
      "stateMutability": "nonpayable",
      "type": "function"
    },
    {
      "inputs": [
        {
          "internalType": "address",
          "name": "to",
          "type": "address"
        },
        {
          "internalType": "address",
          "name": "contractAddress",
          "type": "address"
        },
        {
          "internalType": "uint256",
          "name": "tokenId",
          "type": "uint256"
        },
        {
          "internalType": "bytes",
          "name": "tokenSig",
          "type": "bytes"
        }
      ],
      "name": "transferERC721",
      "outputs": [],
      "stateMutability": "nonpayable",
      "type": "function"
    },
    {
      "inputs": [
        {
          "internalType": "address",
          "name": "newOwner",
          "type": "address"
        }
      ],
      "name": "transferOwnership",
      "outputs": [],
      "stateMutability": "nonpayable",
      "type": "function"
    }
  ],
  "bytecode": "0x60c0604052600860808190526745786368616e676560c01b60a09081526200002b9160059190620001a3565b503480156200003957600080fd5b5060405162002189380380620021898339810160408190526200005c9162000249565b60016000556200006c3362000151565b60038054336001600160a01b031991821617909155600780549091166001600160a01b03831617905560405146907f8b73c3c69bb8fe3d512ecc4cf759cc79239f7b179b0ffacaa9a75d522b39400f90620000ca906005906200027b565b60408051918290038220828201825260018352603160f81b6020938401528151928301939093528101919091527fc89efdaa54c0f20c7adf612882df0950f5a951637e0307cdcb4c672f298b8bc66060820152608081018290523060a082015260c0016040516020818303038152906040528051906020012060048190555050506200035c565b600180546001600160a01b038381166001600160a01b0319831681179093556040519116919082907f8be0079c531659141344cd1fd0a4f28419497f9722a3daafe3b4186f6b6457e090600090a35050565b828054620001b1906200031f565b90600052602060002090601f016020900481019282620001d5576000855562000220565b82601f10620001f057805160ff191683800117855562000220565b8280016001018555821562000220579182015b828111156200022057825182559160200191906001019062000203565b506200022e92915062000232565b5090565b5b808211156200022e576000815560010162000233565b6000602082840312156200025c57600080fd5b81516001600160a01b03811681146200027457600080fd5b9392505050565b600080835481600182811c9150808316806200029857607f831692505b6020808410821415620002b957634e487b7160e01b86526022600452602486fd5b818015620002d05760018114620002e25762000311565b60ff1986168952848901965062000311565b60008a81526020902060005b86811015620003095781548b820152908501908301620002ee565b505084890196505b509498975050505050505050565b600181811c908216806200033457607f821691505b602082108114156200035657634e487b7160e01b600052602260045260246000fd5b50919050565b611e1d806200036c6000396000f3fe6080604052600436106100d25760003560e01c80636a1db1bf1161007f57806392c2bcb41161005957806392c2bcb4146102005780639cf7c69c14610220578063ced72f8714610250578063f2fde38b1461026557600080fd5b80636a1db1bf146101ad578063715018a6146101cd5780638da5cb5b146101e257600080fd5b80633644e515116100b05780633644e51514610156578063608d8f561461017a57806363eed7d01461018d57600080fd5b806306fdde03146100d75780631b88094d146101025780633303dabd14610134575b600080fd5b3480156100e357600080fd5b506100ec610285565b6040516100f99190611c66565b60405180910390f35b34801561010e57600080fd5b506003546001600160a01b03165b6040516001600160a01b0390911681526020016100f9565b34801561014057600080fd5b5061015461014f366004611a3a565b610313565b005b34801561016257600080fd5b5061016c60045481565b6040519081526020016100f9565b610154610188366004611a6f565b61040b565b34801561019957600080fd5b506101546101a83660046119b1565b6105b8565b3480156101b957600080fd5b506101546101c8366004611b10565b6105cb565b3480156101d957600080fd5b506101546106e2565b3480156101ee57600080fd5b506001546001600160a01b031661011c565b34801561020c57600080fd5b5061015461021b366004611977565b610748565b34801561022c57600080fd5b5061024061023b366004611a3a565b610862565b60405190151581526020016100f9565b34801561025c57600080fd5b5060025461016c565b34801561027157600080fd5b50610154610280366004611977565b61088c565b6005805461029290611d5d565b80601f01602080910402602001604051908101604052809291908181526020018280546102be90611d5d565b801561030b5780601f106102e05761010080835404028352916020019161030b565b820191906000526020600020905b8154815290600101906020018083116102ee57829003601f168201915b505050505081565b60408101516001600160a01b03163314801561034d5750600660006103378361096e565b815260208101919091526040016000205460ff16155b61039e5760405162461bcd60e51b815260206004820152600f60248201527f696e76616c69642072657175657374000000000000000000000000000000000060448201526064015b60405180910390fd5b6001600660006103ad8461096e565b81526020810191909152604001600020805460ff1916911515919091179055337fa6eb7cdc219e1518ced964e9a34e61d68a94e4f1569db3e84256ba981ba527536103f78361096e565b60405190815260200160405180910390a250565b6002600054141561045e5760405162461bcd60e51b815260206004820152601f60248201527f5265656e7472616e637947756172643a207265656e7472616e742063616c6c006044820152606401610395565b600260005561046d8484610a18565b801561047e575061047e8282610a18565b6104ca5760405162461bcd60e51b815260206004820152601760248201527f696e76616c6964206f72646572207369676e61747572650000000000000000006044820152606401610395565b6104d48483610b5e565b6105205760405162461bcd60e51b815260206004820152601860248201527f696e76616c6964206f7264657220706172616d657465727300000000000000006044820152606401610395565b61052a8483610d06565b6105765760405162461bcd60e51b815260206004820152601c60248201527f6d7573742062652063616c6c6564206279206c656769742075736572000000006044820152606401610395565b6105808483610d3e565b61058a8483610da4565b6105ad826040015185604001518460e001518561010001518661012001516110a0565b505060016000555050565b6105c533858585856110a0565b50505050565b6001546001600160a01b031633146106255760405162461bcd60e51b815260206004820181905260248201527f4f776e61626c653a2063616c6c6572206973206e6f7420746865206f776e65726044820152606401610395565b61271081111561069d5760405162461bcd60e51b815260206004820152602e60248201527f696e76616c696420706c6174666f726d206665653a206d757374206e6f206c6160448201527f72676572207468616e20313030250000000000000000000000000000000000006064820152608401610395565b600280549082905560408051828152602081018490527f5fc463da23c1b063e66f9e352006a7fbe8db7223c455dc429e881a2dfe2f94f1910160405180910390a15050565b6001546001600160a01b0316331461073c5760405162461bcd60e51b815260206004820181905260248201527f4f776e61626c653a2063616c6c6572206973206e6f7420746865206f776e65726044820152606401610395565b610746600061147e565b565b6001546001600160a01b031633146107a25760405162461bcd60e51b815260206004820181905260248201527f4f776e61626c653a2063616c6c6572206973206e6f7420746865206f776e65726044820152606401610395565b6001600160a01b0381166107f85760405162461bcd60e51b815260206004820152601860248201527f7a65726f2061646472657373206e6f7420616c6c6f77656400000000000000006044820152606401610395565b600380546001600160a01b038381167fffffffffffffffffffffffff0000000000000000000000000000000000000000831681179093556040519116919082907f4a9d367b1b0cd787be10021f1c55cb49c9f2302334e6df35c9621005eb22251490600090a35050565b6000600660006108718461096e565b815260208101919091526040016000205460ff161592915050565b6001546001600160a01b031633146108e65760405162461bcd60e51b815260206004820181905260248201527f4f776e61626c653a2063616c6c6572206973206e6f7420746865206f776e65726044820152606401610395565b6001600160a01b0381166109625760405162461bcd60e51b815260206004820152602660248201527f4f776e61626c653a206e6577206f776e657220697320746865207a65726f206160448201527f64647265737300000000000000000000000000000000000000000000000000006064820152608401610395565b61096b8161147e565b50565b60007f27032b6564c9c203f2bd0f0ccd36b2529e0811ecf18a68db0e2c9c09315bd252826000015183602001518460400151856060015186608001518760a001518860c001518960e001518a61010001518b6101200151805190602001208c61014001518d61016001518e61018001516040516020016109fb9e9d9c9b9a99989796959493929190611bc4565b604051602081830303815290604052805190602001209050919050565b60008151604114610a6b5760405162461bcd60e51b815260206004820152601f60248201527f45434453413a20696e76616c6964207369676e6174757265206c656e677468006044820152606401610395565b602082015160408301516060840151600454600091821a9190610a8d8861096e565b6040517f190100000000000000000000000000000000000000000000000000000000000060208201526022810192909252604282015260620160408051601f1981840301815282825280516020918201208a8301516000855291840180845281905260ff86169284019290925260608301879052608083018690529092506001600160a01b03169060019060a0016020604051602081039080840390855afa158015610b3d573d6000803e3d6000fd5b505050602060405103516001600160a01b0316149450505050505b92915050565b815160009015156001148015610b7357508151155b8015610b8a57508160200151151583602001511515145b8015610baf575081606001516001600160a01b031683606001516001600160a01b0316145b8015610bc357508160800151836080015110155b8015610be857508160a001516001600160a01b03168360a001516001600160a01b0316145b8015610bfb57508160c001518360c00151145b8015610c1957506127106002548460c00151610c179190611ca3565b105b8015610c3e57508160e001516001600160a01b03168360e001516001600160a01b0316145b8015610c535750816101000151836101000151145b8015610c72575042836101400151108015610c72575042826101400151105b8015610c8f5750428361016001511180610c8f5750610160830151155b8015610cac5750428261016001511180610cac5750610160820151155b8015610cff575060066000610cc08561096e565b815260208101919091526040016000205460ff16158015610cff575060066000610ce98461096e565b815260208101919091526040016000205460ff16155b9392505050565b6000826020015115610d28575060408101516001600160a01b03163314610b58565b5060408201516001600160a01b03163314610b58565b600160066000610d4d8561096e565b815260200190815260200160002060006101000a81548160ff021916908315150217905550600160066000610d818461096e565b81526020810191909152604001600020805460ff19169115159190911790555050565b60a08201516060830151600254608085015160009161271091610dc79190611cdd565b610dd19190611cbb565b905060006127108660c001518760800151610dec9190611cdd565b610df69190611cbb565b9050600081838860800151610e0b9190611d1a565b610e159190611d1a565b90506001600160a01b038416610f50578660200151158015610e3a5750866080015134145b610e865760405162461bcd60e51b815260206004820152600f60248201527f696e76616c6964207061796d656e7400000000000000000000000000000000006044820152606401610395565b8215610ec8576003546040516001600160a01b039091169084156108fc029085906000818181858888f19350505050158015610ec6573d6000803e3d6000fd5b505b8115610f06576040516001600160a01b0386169083156108fc029084906000818181858888f19350505050158015610f04573d6000803e3d6000fd5b505b8015610f4b5785604001516001600160a01b03166108fc829081150290604051600060405180830381858888f19350505050158015610f49573d6000803e3d6000fd5b505b611007565b3415610f9e5760405162461bcd60e51b815260206004820152600f60248201527f696e76616c6964207061796d656e7400000000000000000000000000000000006044820152606401610395565b8215610fc1576040870151600354610fc19186916001600160a01b0316866114e8565b8115801590610fd857506001600160a01b03851615155b15610fed57610fed84886040015187856114e8565b8015611007576110078488604001518860400151846114e8565b85604001516001600160a01b031687604001516001600160a01b03167ff21a8dc8c296a381cf3a95a7d3b72827b6d6c1ae993790bfe5d1851421f960a661104d8a61096e565b6110568a61096e565b8b606001518c6080015160405161108f949392919093845260208401929092526001600160a01b03166040830152606082015260800190565b60405180910390a350505050505050565b600754604080517ff9bf800600000000000000000000000000000000000000000000000000000000815290516000926001600160a01b03169163f9bf8006916004808301926020929190829003018186803b1580156110fe57600080fd5b505afa158015611112573d6000803e3d6000fd5b505050506040513d601f19601f820116820180604052508101906111369190611994565b90506060600083805190602001207fbc36789e7a1e281436464229828f817d6612f7b477d66591ff96a9e064bcc98a60001b146112e95787858560405160240161118293929190611b93565b60408051601f198184030181529181526020820180517bffffffffffffffffffffffffffffffffffffffffffffffffffffffff167f94d008ef00000000000000000000000000000000000000000000000000000000179052517fbe6d055a0000000000000000000000000000000000000000000000000000000081529092506001600160a01b0384169063be6d055a906112229089908690600401611b71565b602060405180830381600087803b15801561123c57600080fd5b505af1158015611250573d6000803e3d6000fd5b505050506040513d601f19601f820116820180604052508101906112749190611a1d565b9050806112e95760405162461bcd60e51b815260206004820152602360248201527f45786368616e67653a207472616e7366657250726f78792063616c6c2066616960448201527f6c656400000000000000000000000000000000000000000000000000000000006064820152608401610395565b6040516001600160a01b03808a166024830152881660448201526064810186905260840160408051601f198184030181529181526020820180517bffffffffffffffffffffffffffffffffffffffffffffffffffffffff167f23b872dd00000000000000000000000000000000000000000000000000000000179052517fbe6d055a0000000000000000000000000000000000000000000000000000000081529092506001600160a01b0384169063be6d055a906113ad9089908690600401611b71565b602060405180830381600087803b1580156113c757600080fd5b505af11580156113db573d6000803e3d6000fd5b505050506040513d601f19601f820116820180604052508101906113ff9190611a1d565b9050806114745760405162461bcd60e51b815260206004820152602360248201527f45786368616e67653a207472616e7366657250726f78792063616c6c2066616960448201527f6c656400000000000000000000000000000000000000000000000000000000006064820152608401610395565b5050505050505050565b600180546001600160a01b038381167fffffffffffffffffffffffff0000000000000000000000000000000000000000831681179093556040519116919082907f8be0079c531659141344cd1fd0a4f28419497f9722a3daafe3b4186f6b6457e090600090a35050565b604080516001600160a01b038581166024830152848116604483015260648083018590528351808403909101815260849092018352602080830180517bffffffffffffffffffffffffffffffffffffffffffffffffffffffff167f23b872dd0000000000000000000000000000000000000000000000000000000017905283518085019094528084527f5361666545524332303a206c6f772d6c6576656c2063616c6c206661696c6564908401526105c5928792916000916115ae918516908490611643565b80519091501561163e57808060200190518101906115cc9190611a1d565b61163e5760405162461bcd60e51b815260206004820152602a60248201527f5361666545524332303a204552433230206f7065726174696f6e20646964206e60448201527f6f742073756363656564000000000000000000000000000000000000000000006064820152608401610395565b505050565b6060611652848460008561165a565b949350505050565b6060824710156116d25760405162461bcd60e51b815260206004820152602660248201527f416464726573733a20696e73756666696369656e742062616c616e636520666f60448201527f722063616c6c00000000000000000000000000000000000000000000000000006064820152608401610395565b6001600160a01b0385163b6117295760405162461bcd60e51b815260206004820152601d60248201527f416464726573733a2063616c6c20746f206e6f6e2d636f6e74726163740000006044820152606401610395565b600080866001600160a01b031685876040516117459190611b55565b60006040518083038185875af1925050503d8060008114611782576040519150601f19603f3d011682016040523d82523d6000602084013e611787565b606091505b50915091506117978282866117a2565b979650505050505050565b606083156117b1575081610cff565b8251156117c15782518084602001fd5b8160405162461bcd60e51b81526004016103959190611c66565b80356117e681611dc4565b919050565b80356117e681611dd9565b600082601f83011261180757600080fd5b813567ffffffffffffffff8082111561182257611822611dae565b604051601f8301601f19908116603f0116810190828211818310171561184a5761184a611dae565b8160405283815286602085880101111561186357600080fd5b836020870160208301376000602085830101528094505050505092915050565b60006101a0828403121561189657600080fd5b61189e611c79565b90506118a9826117eb565b81526118b7602083016117eb565b60208201526118c8604083016117db565b60408201526118d9606083016117db565b6060820152608082013560808201526118f460a083016117db565b60a082015260c082013560c082015261190f60e083016117db565b60e082015261010082810135908201526101208083013567ffffffffffffffff81111561193b57600080fd5b611947858286016117f6565b82840152505061014080830135818301525061016080830135818301525061018080830135818301525092915050565b60006020828403121561198957600080fd5b8135610cff81611dc4565b6000602082840312156119a657600080fd5b8151610cff81611dc4565b600080600080608085870312156119c757600080fd5b84356119d281611dc4565b935060208501356119e281611dc4565b925060408501359150606085013567ffffffffffffffff811115611a0557600080fd5b611a11878288016117f6565b91505092959194509250565b600060208284031215611a2f57600080fd5b8151610cff81611dd9565b600060208284031215611a4c57600080fd5b813567ffffffffffffffff811115611a6357600080fd5b61165284828501611883565b60008060008060808587031215611a8557600080fd5b843567ffffffffffffffff80821115611a9d57600080fd5b611aa988838901611883565b95506020870135915080821115611abf57600080fd5b611acb888389016117f6565b94506040870135915080821115611ae157600080fd5b611aed88838901611883565b93506060870135915080821115611b0357600080fd5b50611a11878288016117f6565b600060208284031215611b2257600080fd5b5035919050565b60008151808452611b41816020860160208601611d31565b601f01601f19169290920160200192915050565b60008251611b67818460208701611d31565b9190910192915050565b6001600160a01b03831681526040602082015260006116526040830184611b29565b6001600160a01b0384168152826020820152606060408201526000611bbb6060830184611b29565b95945050505050565b8e81528d151560208201528c151560408201526001600160a01b038c1660608201526101c081016001600160a01b038c1660808301528a60a0830152611c1560c083018b6001600160a01b03169052565b8860e0830152611c316101008301896001600160a01b03169052565b6101208201969096526101408101949094526101608401929092526101808301526101a0909101529998505050505050505050565b602081526000610cff6020830184611b29565b6040516101a0810167ffffffffffffffff81118282101715611c9d57611c9d611dae565b60405290565b60008219821115611cb657611cb6611d98565b500190565b600082611cd857634e487b7160e01b600052601260045260246000fd5b500490565b6000817fffffffffffffffffffffffffffffffffffffffffffffffffffffffffffffffff0483118215151615611d1557611d15611d98565b500290565b600082821015611d2c57611d2c611d98565b500390565b60005b83811015611d4c578181015183820152602001611d34565b838111156105c55750506000910152565b600181811c90821680611d7157607f821691505b60208210811415611d9257634e487b7160e01b600052602260045260246000fd5b50919050565b634e487b7160e01b600052601160045260246000fd5b634e487b7160e01b600052604160045260246000fd5b6001600160a01b038116811461096b57600080fd5b801515811461096b57600080fdfea2646970667358221220ec2cce2821afeb70225eba45286806a8d42f82cfccbd3b1085116a6ef5cd742864736f6c63430008070033",
  "linkReferences": {},
  "deployedLinkReferences": {}
}