{
  "_format": "hh-sol-artifact-1",
  "contractName": "PayrollPool",
  "sourceName": "contracts/ecosystem/PayrollPool.sol",
  "abi": [
    {
      "anonymous": false,
      "inputs": [
        {
          "indexed": false,
          "internalType": "uint8",
          "name": "version",
          "type": "uint8"
        }
      ],
      "name": "Initialized",
      "type": "event"
    },
    {
      "anonymous": false,
      "inputs": [
        {
          "indexed": true,
          "internalType": "uint256",
          "name": "index",
          "type": "uint256"
        },
        {
          "indexed": true,
          "internalType": "address",
          "name": "rewardToken",
          "type": "address"
        },
        {
          "indexed": false,
          "internalType": "uint256",
          "name": "rewardAmount",
          "type": "uint256"
        },
        {
          "indexed": true,
          "internalType": "address",
          "name": "creator",
          "type": "address"
        },
        {
          "indexed": false,
          "internalType": "uint256",
          "name": "start",
          "type": "uint256"
        },
        {
          "indexed": false,
          "internalType": "uint256",
          "name": "end",
          "type": "uint256"
        }
      ],
      "name": "PoolCreated",
      "type": "event"
    },
    {
      "anonymous": false,
      "inputs": [
        {
          "indexed": true,
          "internalType": "uint256",
          "name": "index",
          "type": "uint256"
        },
        {
          "indexed": true,
          "internalType": "address",
          "name": "rewardToken",
          "type": "address"
        },
        {
          "indexed": false,
          "internalType": "uint256",
          "name": "rewardAmount",
          "type": "uint256"
        },
        {
          "indexed": true,
          "internalType": "address",
          "name": "user",
          "type": "address"
        }
      ],
      "name": "RewardClaimed",
      "type": "event"
    },
    {
      "inputs": [],
      "name": "DOMAIN_SEPARATOR",
      "outputs": [
        {
          "internalType": "bytes32",
          "name": "",
          "type": "bytes32"
        }
      ],
      "stateMutability": "view",
      "type": "function"
    },
    {
      "inputs": [
        {
          "internalType": "uint256",
          "name": "index",
          "type": "uint256"
        },
        {
          "internalType": "uint256",
          "name": "amount",
          "type": "uint256"
        },
        {
          "internalType": "bytes",
          "name": "signature",
          "type": "bytes"
        }
      ],
      "name": "claim",
      "outputs": [],
      "stateMutability": "nonpayable",
      "type": "function"
    },
    {
      "inputs": [
        {
          "internalType": "uint256",
          "name": "index",
          "type": "uint256"
        },
        {
          "internalType": "address",
          "name": "rewardToken",
          "type": "address"
        },
        {
          "internalType": "uint256",
          "name": "rewardAmount",
          "type": "uint256"
        },
        {
          "internalType": "uint256",
          "name": "start",
          "type": "uint256"
        },
        {
          "internalType": "uint256",
          "name": "end",
          "type": "uint256"
        }
      ],
      "name": "create",
      "outputs": [],
      "stateMutability": "payable",
      "type": "function"
    },
    {
      "inputs": [
        {
          "internalType": "uint256",
          "name": "index",
          "type": "uint256"
        }
      ],
      "name": "getPoolInfo",
      "outputs": [
        {
          "components": [
            {
              "internalType": "address",
              "name": "creator",
              "type": "address"
            },
            {
              "internalType": "address",
              "name": "rewardToken",
              "type": "address"
            },
            {
              "internalType": "uint256",
              "name": "rewardAmount",
              "type": "uint256"
            },
            {
              "internalType": "uint256",
              "name": "unclaimedAmount",
              "type": "uint256"
            },
            {
              "internalType": "uint256",
              "name": "start",
              "type": "uint256"
            },
            {
              "internalType": "uint256",
              "name": "end",
              "type": "uint256"
            }
          ],
          "internalType": "struct PayrollPool.PoolInfo",
          "name": "",
          "type": "tuple"
        }
      ],
      "stateMutability": "view",
      "type": "function"
    },
    {
      "inputs": [
        {
          "internalType": "uint256",
          "name": "index",
          "type": "uint256"
        },
        {
          "internalType": "address",
          "name": "user",
          "type": "address"
        }
      ],
      "name": "getUserInfo",
      "outputs": [
        {
          "internalType": "bool",
          "name": "",
          "type": "bool"
        }
      ],
      "stateMutability": "view",
      "type": "function"
    },
    {
      "inputs": [
        {
          "internalType": "address",
          "name": "controller",
          "type": "address"
        }
      ],
      "name": "initialize",
      "outputs": [],
      "stateMutability": "nonpayable",
      "type": "function"
    },
    {
      "inputs": [],
      "name": "name",
      "outputs": [
        {
          "internalType": "string",
          "name": "",
          "type": "string"
        }
      ],
      "stateMutability": "view",
      "type": "function"
    },
    {
      "inputs": [
        {
          "internalType": "uint256",
          "name": "",
          "type": "uint256"
        }
      ],
      "name": "poolInfo",
      "outputs": [
        {
          "internalType": "address",
          "name": "creator",
          "type": "address"
        },
        {
          "internalType": "address",
          "name": "rewardToken",
          "type": "address"
        },
        {
          "internalType": "uint256",
          "name": "rewardAmount",
          "type": "uint256"
        },
        {
          "internalType": "uint256",
          "name": "unclaimedAmount",
          "type": "uint256"
        },
        {
          "internalType": "uint256",
          "name": "start",
          "type": "uint256"
        },
        {
          "internalType": "uint256",
          "name": "end",
          "type": "uint256"
        }
      ],
      "stateMutability": "view",
      "type": "function"
    },
    {
      "inputs": [
        {
          "internalType": "uint256",
          "name": "",
          "type": "uint256"
        },
        {
          "internalType": "address",
          "name": "",
          "type": "address"
        }
      ],
      "name": "userInfo",
      "outputs": [
        {
          "internalType": "bool",
          "name": "isClaimed",
          "type": "bool"
        }
      ],
      "stateMutability": "view",
      "type": "function"
    },
    {
      "inputs": [
        {
          "internalType": "uint256",
          "name": "index",
          "type": "uint256"
        }
      ],
      "name": "withdraw",
      "outputs": [],
      "stateMutability": "nonpayable",
      "type": "function"
    }
  ],
  "bytecode": "0x608060405234801561001057600080fd5b506001600055611964806100256000396000f3fe6080604052600436106100b15760003560e01c80633644e515116100695780635eddd1571161004e5780635eddd1571461029e57806393f1a40b146102be578063c4d66de8146102f957600080fd5b80633644e51514610267578063564524071461028b57600080fd5b80631526fe271161009a5780631526fe27146101375780632e1a7d4d146101cc5780632f380b35146101ee57600080fd5b806306fdde03146100b65780631069f3b5146100e1575b600080fd5b3480156100c257600080fd5b506100cb610319565b6040516100d89190611841565b60405180910390f35b3480156100ed57600080fd5b506101276100fc36600461164d565b60009182526005602090815260408084206001600160a01b0393909316845291905290205460ff1690565b60405190151581526020016100d8565b34801561014357600080fd5b50610194610152366004611634565b6006602052600090815260409020805460018201546002830154600384015460048501546005909501546001600160a01b039485169593909416939192909186565b604080516001600160a01b039788168152969095166020870152938501929092526060840152608083015260a082015260c0016100d8565b3480156101d857600080fd5b506101ec6101e7366004611634565b6103a7565b005b3480156101fa57600080fd5b5061020e610209366004611634565b61069b565b6040516100d89190600060c0820190506001600160a01b038084511683528060208501511660208401525060408301516040830152606083015160608301526080830151608083015260a083015160a083015292915050565b34801561027357600080fd5b5061027d60025481565b6040519081526020016100d8565b6101ec61029936600461167d565b61074b565b3480156102aa57600080fd5b506101ec6102b93660046116c5565b610a34565b3480156102ca57600080fd5b506101276102d936600461164d565b600560209081526000928352604080842090915290825290205460ff1681565b34801561030557600080fd5b506101ec6103143660046115d8565b610ce1565b60038054610326906118c5565b80601f0160208091040260200160405190810160405280929190818152602001828054610352906118c5565b801561039f5780601f106103745761010080835404028352916020019161039f565b820191906000526020600020905b81548152906001019060200180831161038257829003601f168201915b505050505081565b600260005414156103ff5760405162461bcd60e51b815260206004820152601f60248201527f5265656e7472616e637947756172643a207265656e7472616e742063616c6c0060448201526064015b60405180910390fd5b60026000908155818152600660205260409020546001600160a01b031661048e5760405162461bcd60e51b815260206004820152602860248201527f506179726f6c6c506f6f6c3a207175657279206f66206e6f6e2d65786973746560448201527f6e636520706f6f6c00000000000000000000000000000000000000000000000060648201526084016103f6565b6000818152600660205260409020546001600160a01b031633146104f45760405162461bcd60e51b815260206004820152601960248201527f506179726f6c6c506f6f6c3a206f6e6c792063726561746f720000000000000060448201526064016103f6565b6000818152600660205260409020600501544210156105555760405162461bcd60e51b815260206004820152601e60248201527f506179726f6c6c506f6f6c3a20696e76616c69642074696d657374616d70000060448201526064016103f6565b6000818152600660205260409020600301546105d95760405162461bcd60e51b815260206004820152602160248201527f506179726f6c6c506f6f6c3a206e6f6e2d756e636c61696d656420746f6b656e60448201527f730000000000000000000000000000000000000000000000000000000000000060648201526084016103f6565b6000818152600660205260408120600381018054929055600101546001600160a01b031680610638576040513390819084156108fc029085906000818181858888f19350505050158015610631573d6000803e3d6000fd5b5050610643565b610643813384610f3a565b336001600160a01b0316816001600160a01b0316847f42c422b3d1b2dd27b20890a92c61d761f550e54f2983bfee95c55102ea8234a88560405161068991815260200190565b60405180910390a45050600160005550565b6106e66040518060c0016040528060006001600160a01b0316815260200160006001600160a01b03168152602001600081526020016000815260200160008152602001600081525090565b50600090815260066020908152604091829020825160c08101845281546001600160a01b03908116825260018301541692810192909252600281015492820192909252600382015460608201526004820154608082015260059091015460a082015290565b6002600054141561079e5760405162461bcd60e51b815260206004820152601f60248201527f5265656e7472616e637947756172643a207265656e7472616e742063616c6c0060448201526064016103f6565b60026000908155858152600660205260409020546001600160a01b0316156108085760405162461bcd60e51b815260206004820181905260248201527f506179726f6c6c506f6f6c3a20706f6f6c20616c72656164792065786973747360448201526064016103f6565b8082106108575760405162461bcd60e51b815260206004820152601e60248201527f506179726f6c6c506f6f6c3a20696e76616c69642074696d657374616d70000060448201526064016103f6565b6040805160c0810182523381526001600160a01b038681166020808401828152848601898152606086018a8152608087018a815260a088018a815260008f8152600690965298909420965187549087167fffffffffffffffffffffffff00000000000000000000000000000000000000009182161788559251600188018054919097169316929092179094559251600285015591516003840155905160048301559151600590910155610958578234146109535760405162461bcd60e51b815260206004820152601f60248201527f506179726f6c6c506f6f6c3a20696e73756666696369656e742065746865720060448201526064016103f6565b6109d8565b34156109cc5760405162461bcd60e51b815260206004820152603160248201527f506179726f6c6c506f6f6c3a2073656e64696e6720657468657220776974682060448201527f6572633230206e6f7420616c6c6f77656400000000000000000000000000000060648201526084016103f6565b6109d884333086610fe8565b604080518481526020810184905290810182905233906001600160a01b0386169087907fb1152d612f6b8be1b61f9a9df3bb717aafc16f866f065ba79de61e66a6618f1c9060600160405180910390a450506001600055505050565b60026000541415610a875760405162461bcd60e51b815260206004820152601f60248201527f5265656e7472616e637947756172643a207265656e7472616e742063616c6c0060448201526064016103f6565b6002600055610a9783838361103f565b6000838152600660205260409020546001600160a01b0316610afb5760405162461bcd60e51b815260206004820152601b60248201527f7175657279206f66206e6f6e2d6578697374656e636520706f6f6c000000000060448201526064016103f6565b60008381526006602052604090206004015442118015610b2b575060008381526006602052604090206005015442105b610b775760405162461bcd60e51b815260206004820152601160248201527f696e76616c69642074696d657374616d7000000000000000000000000000000060448201526064016103f6565b600083815260056020908152604080832033845290915290205460ff1615610be15760405162461bcd60e51b815260206004820152600f60248201527f636c61696d206f6e6365206f6e6c79000000000000000000000000000000000060448201526064016103f6565b60008381526005602090815260408083203384528252808320805460ff19166001179055858352600690915281206003018054849290610c22908490611874565b90915550506000838152600660205260409020600101546001600160a01b031680610c7d576040513390819085156108fc029086906000818181858888f19350505050158015610c76573d6000803e3d6000fd5b5050610c88565b610c88813385610f3a565b336001600160a01b0316816001600160a01b0316857f42c422b3d1b2dd27b20890a92c61d761f550e54f2983bfee95c55102ea8234a886604051610cce91815260200190565b60405180910390a4505060016000555050565b600154610100900460ff1615808015610cfe57506001805460ff16105b80610d175750303b158015610d1757506001805460ff16145b610d895760405162461bcd60e51b815260206004820152602e60248201527f496e697469616c697a61626c653a20636f6e747261637420697320616c72656160448201527f647920696e697469616c697a656400000000000000000000000000000000000060648201526084016103f6565b6001805460ff1916811790558015610dab576001805461ff0019166101001790555b600480547fffffffffffffffffffffffff0000000000000000000000000000000000000000166001600160a01b03841617905560408051808201909152600b8082527f506179726f6c6c506f6f6c0000000000000000000000000000000000000000006020909201918252610e229160039161153f565b5060405146907f8b73c3c69bb8fe3d512ecc4cf759cc79239f7b179b0ffacaa9a75d522b39400f90610e56906003906117a5565b604080519182900382208282018252600183527f31000000000000000000000000000000000000000000000000000000000000006020938401528151928301939093528101919091527fc89efdaa54c0f20c7adf612882df0950f5a951637e0307cdcb4c672f298b8bc66060820152608081018290523060a082015260c00160408051601f198184030181529190528051602090910120600255508015610f36576001805461ff00191681556040519081527f7f26b83ff96e1f2b6a682f133852f6798a09c465da95921460cefb38474024989060200160405180910390a15b5050565b6040516001600160a01b038316602482015260448101829052610fe39084907fa9059cbb00000000000000000000000000000000000000000000000000000000906064015b60408051601f198184030181529190526020810180517bffffffffffffffffffffffffffffffffffffffffffffffffffffffff167fffffffff00000000000000000000000000000000000000000000000000000000909316929092179091526112c0565b505050565b6040516001600160a01b03808516602483015283166044820152606481018290526110399085907f23b872dd0000000000000000000000000000000000000000000000000000000090608401610f7f565b50505050565b80516041146110905760405162461bcd60e51b815260206004820152601f60248201527f45434453413a20696e76616c6964207369676e6174757265206c656e6774680060448201526064016103f6565b60208181015160408084015160608086015160025484517f2c400e34dccd136c63692253b13cbe502fc45768c04c0584e74b7cc15fda34879781019790975293860189905290850187905233608086015292939092600090811a92909160a001604051602081830303815290604052805190602001206040516020016111489291907f190100000000000000000000000000000000000000000000000000000000000081526002810192909252602282015260420190565b60408051601f198184030181528282528051602091820120600480547f7ac3c02f00000000000000000000000000000000000000000000000000000000865293519195506001600160a01b0390931693637ac3c02f93808201939291829003018186803b1580156111b857600080fd5b505afa1580156111cc573d6000803e3d6000fd5b505050506040513d601f19601f820116820180604052508101906111f091906115f5565b6001600160a01b031660018284878760405160008152602001604052604051611235949392919093845260ff9290921660208401526040830152606082015260800190565b6020604051602081039080840390855afa158015611257573d6000803e3d6000fd5b505050602060405103516001600160a01b0316146112b75760405162461bcd60e51b815260206004820152601160248201527f696e76616c6964207369676e617475726500000000000000000000000000000060448201526064016103f6565b50505050505050565b6000611315826040518060400160405280602081526020017f5361666545524332303a206c6f772d6c6576656c2063616c6c206661696c6564815250856001600160a01b03166113a59092919063ffffffff16565b805190915015610fe357808060200190518101906113339190611612565b610fe35760405162461bcd60e51b815260206004820152602a60248201527f5361666545524332303a204552433230206f7065726174696f6e20646964206e60448201527f6f7420737563636565640000000000000000000000000000000000000000000060648201526084016103f6565b60606113b484846000856113be565b90505b9392505050565b6060824710156114365760405162461bcd60e51b815260206004820152602660248201527f416464726573733a20696e73756666696369656e742062616c616e636520666f60448201527f722063616c6c000000000000000000000000000000000000000000000000000060648201526084016103f6565b6001600160a01b0385163b61148d5760405162461bcd60e51b815260206004820152601d60248201527f416464726573733a2063616c6c20746f206e6f6e2d636f6e747261637400000060448201526064016103f6565b600080866001600160a01b031685876040516114a99190611789565b60006040518083038185875af1925050503d80600081146114e6576040519150601f19603f3d011682016040523d82523d6000602084013e6114eb565b606091505b50915091506114fb828286611506565b979650505050505050565b606083156115155750816113b7565b8251156115255782518084602001fd5b8160405162461bcd60e51b81526004016103f69190611841565b82805461154b906118c5565b90600052602060002090601f01602090048101928261156d57600085556115b3565b82601f1061158657805160ff19168380011785556115b3565b828001600101855582156115b3579182015b828111156115b3578251825591602001919060010190611598565b506115bf9291506115c3565b5090565b5b808211156115bf57600081556001016115c4565b6000602082840312156115ea57600080fd5b81356113b781611916565b60006020828403121561160757600080fd5b81516113b781611916565b60006020828403121561162457600080fd5b815180151581146113b757600080fd5b60006020828403121561164657600080fd5b5035919050565b6000806040838503121561166057600080fd5b82359150602083013561167281611916565b809150509250929050565b600080600080600060a0868803121561169557600080fd5b8535945060208601356116a781611916565b94979496505050506040830135926060810135926080909101359150565b6000806000606084860312156116da57600080fd5b8335925060208401359150604084013567ffffffffffffffff8082111561170057600080fd5b818601915086601f83011261171457600080fd5b81358181111561172657611726611900565b604051601f8201601f19908116603f0116810190838211818310171561174e5761174e611900565b8160405282815289602084870101111561176757600080fd5b8260208601602083013760006020848301015280955050505050509250925092565b6000825161179b818460208701611899565b9190910192915050565b600080835481600182811c9150808316806117c157607f831692505b60208084108214156117e157634e487b7160e01b86526022600452602486fd5b8180156117f5576001811461180657611833565b60ff19861689528489019650611833565b60008a81526020902060005b8681101561182b5781548b820152908501908301611812565b505084890196505b509498975050505050505050565b6020815260008251806020840152611860816040850160208701611899565b601f01601f19169190910160400192915050565b60008282101561189457634e487b7160e01b600052601160045260246000fd5b500390565b60005b838110156118b457818101518382015260200161189c565b838111156110395750506000910152565b600181811c908216806118d957607f821691505b602082108114156118fa57634e487b7160e01b600052602260045260246000fd5b50919050565b634e487b7160e01b600052604160045260246000fd5b6001600160a01b038116811461192b57600080fd5b5056fea2646970667358221220558b0baef838f8cf8dc7a01589c9755ec0991bc427fa18798d19fa98dddb9f7d64736f6c63430008070033",
  "linkReferences": {},
  "deployedLinkReferences": {}
}