{
  "_format": "hh-sol-artifact-1",
  "contractName": "TransferProxy",
  "sourceName": "contracts/exchange/TransferProxy.sol",
  "abi": [
    {
      "inputs": [
        {
          "internalType": "address",
          "name": "controller_",
          "type": "address"
        }
      ],
      "stateMutability": "nonpayable",
      "type": "constructor"
    },
    {
      "inputs": [],
      "name": "controller",
      "outputs": [
        {
          "internalType": "contract Controller",
          "name": "",
          "type": "address"
        }
      ],
      "stateMutability": "view",
      "type": "function"
    },
    {
      "inputs": [
        {
          "internalType": "address",
          "name": "target",
          "type": "address"
        },
        {
          "internalType": "bytes",
          "name": "data",
          "type": "bytes"
        }
      ],
      "name": "proxy",
      "outputs": [
        {
          "internalType": "bool",
          "name": "",
          "type": "bool"
        }
      ],
      "stateMutability": "nonpayable",
      "type": "function"
    }
  ],
  "bytecode": "0x608060405234801561001057600080fd5b5060405161052b38038061052b83398101604081905261002f91610054565b600080546001600160a01b0319166001600160a01b0392909216919091179055610084565b60006020828403121561006657600080fd5b81516001600160a01b038116811461007d57600080fd5b9392505050565b610498806100936000396000f3fe608060405234801561001057600080fd5b50600436106100365760003560e01c8063be6d055a1461003b578063f77c479114610063575b600080fd5b61004e6100493660046102d4565b6100a8565b60405190151581526020015b60405180910390f35b6000546100839073ffffffffffffffffffffffffffffffffffffffff1681565b60405173ffffffffffffffffffffffffffffffffffffffff909116815260200161005a565b600080546040517f673448dd00000000000000000000000000000000000000000000000000000000815233600482015273ffffffffffffffffffffffffffffffffffffffff9091169063673448dd9060240160206040518083038186803b15801561011257600080fd5b505afa158015610126573d6000803e3d6000fd5b505050506040513d601f19601f8201168201806040525081019061014a91906103cf565b15156001146101df576040517f08c379a0000000000000000000000000000000000000000000000000000000008152602060048201526024808201527f5472616e7366657250726f78793a2063616c6c6572206e6f742072656769737460448201527f657265640000000000000000000000000000000000000000000000000000000060648201526084015b60405180910390fd5b6000808473ffffffffffffffffffffffffffffffffffffffff168460405161020791906103f8565b6000604051808303816000865af19150503d8060008114610244576040519150601f19603f3d011682016040523d82523d6000602084013e610249565b606091505b5091509150811561025c575090506102ce565b80511561026c5780518082602001fd5b6040517f08c379a000000000000000000000000000000000000000000000000000000000815260206004820152601560248201527f6c6f77206c6576656c2063616c6c206661696c6564000000000000000000000060448201526064016101d6565b92915050565b600080604083850312156102e757600080fd5b823573ffffffffffffffffffffffffffffffffffffffff8116811461030b57600080fd5b9150602083013567ffffffffffffffff8082111561032857600080fd5b818501915085601f83011261033c57600080fd5b81358181111561034e5761034e610433565b604051601f82017fffffffffffffffffffffffffffffffffffffffffffffffffffffffffffffffe0908116603f0116810190838211818310171561039457610394610433565b816040528281528860208487010111156103ad57600080fd5b8260208601602083013760006020848301015280955050505050509250929050565b6000602082840312156103e157600080fd5b815180151581146103f157600080fd5b9392505050565b6000825160005b8181101561041957602081860181015185830152016103ff565b81811115610428576000828501525b509190910192915050565b7f4e487b7100000000000000000000000000000000000000000000000000000000600052604160045260246000fdfea2646970667358221220ee19c630cd05a2797fcd03ef6752d9fd95c70fe2aca59b419205bdad880775a064736f6c63430008070033",
  "linkReferences": {},
  "deployedLinkReferences": {}
}