{
  "_format": "hh-sol-artifact-1",
  "contractName": "ERC721Fundable",
  "sourceName": "contracts/ERC721/ERC721Fundable.sol",
  "abi": [
    {
      "anonymous": false,
      "inputs": [
        {
          "indexed": true,
          "internalType": "address",
          "name": "owner",
          "type": "address"
        },
        {
          "indexed": true,
          "internalType": "address",
          "name": "approved",
          "type": "address"
        },
        {
          "indexed": true,
          "internalType": "uint256",
          "name": "tokenId",
          "type": "uint256"
        }
      ],
      "name": "Approval",
      "type": "event"
    },
    {
      "anonymous": false,
      "inputs": [
        {
          "indexed": true,
          "internalType": "address",
          "name": "owner",
          "type": "address"
        },
        {
          "indexed": true,
          "internalType": "address",
          "name": "operator",
          "type": "address"
        },
        {
          "indexed": false,
          "internalType": "bool",
          "name": "approved",
          "type": "bool"
        }
      ],
      "name": "ApprovalForAll",
      "type": "event"
    },
    {
      "anonymous": false,
      "inputs": [
        {
          "indexed": true,
          "internalType": "address",
          "name": "claimer",
          "type": "address"
        },
        {
          "indexed": true,
          "internalType": "uint256",
          "name": "tokenId",
          "type": "uint256"
        },
        {
          "indexed": false,
          "internalType": "uint96",
          "name": "amount",
          "type": "uint96"
        }
      ],
      "name": "Claim",
      "type": "event"
    },
    {
      "anonymous": false,
      "inputs": [
        {
          "indexed": true,
          "internalType": "address",
          "name": "sponsor",
          "type": "address"
        },
        {
          "indexed": true,
          "internalType": "uint256",
          "name": "tokenId",
          "type": "uint256"
        },
        {
          "indexed": false,
          "internalType": "uint96",
          "name": "amount",
          "type": "uint96"
        }
      ],
      "name": "Fund",
      "type": "event"
    },
    {
      "anonymous": false,
      "inputs": [
        {
          "indexed": false,
          "internalType": "uint8",
          "name": "version",
          "type": "uint8"
        }
      ],
      "name": "Initialized",
      "type": "event"
    },
    {
      "anonymous": false,
      "inputs": [
        {
          "indexed": true,
          "internalType": "address",
          "name": "from",
          "type": "address"
        },
        {
          "indexed": true,
          "internalType": "address",
          "name": "to",
          "type": "address"
        },
        {
          "indexed": true,
          "internalType": "uint256",
          "name": "tokenId",
          "type": "uint256"
        }
      ],
      "name": "Transfer",
      "type": "event"
    },
    {
      "inputs": [
        {
          "internalType": "address",
          "name": "to",
          "type": "address"
        },
        {
          "internalType": "uint256",
          "name": "tokenId",
          "type": "uint256"
        }
      ],
      "name": "approve",
      "outputs": [],
      "stateMutability": "nonpayable",
      "type": "function"
    },
    {
      "inputs": [
        {
          "internalType": "address",
          "name": "owner",
          "type": "address"
        }
      ],
      "name": "balanceOf",
      "outputs": [
        {
          "internalType": "uint256",
          "name": "",
          "type": "uint256"
        }
      ],
      "stateMutability": "view",
      "type": "function"
    },
    {
      "inputs": [
        {
          "internalType": "uint256",
          "name": "tokenId",
          "type": "uint256"
        }
      ],
      "name": "claim",
      "outputs": [],
      "stateMutability": "nonpayable",
      "type": "function"
    },
    {
      "inputs": [
        {
          "internalType": "uint256",
          "name": "tokenId",
          "type": "uint256"
        }
      ],
      "name": "fund",
      "outputs": [],
      "stateMutability": "payable",
      "type": "function"
    },
    {
      "inputs": [
        {
          "internalType": "uint256",
          "name": "tokenId",
          "type": "uint256"
        }
      ],
      "name": "fundsOf",
      "outputs": [
        {
          "internalType": "uint96",
          "name": "",
          "type": "uint96"
        }
      ],
      "stateMutability": "view",
      "type": "function"
    },
    {
      "inputs": [
        {
          "internalType": "uint256",
          "name": "tokenId",
          "type": "uint256"
        }
      ],
      "name": "getApproved",
      "outputs": [
        {
          "internalType": "address",
          "name": "",
          "type": "address"
        }
      ],
      "stateMutability": "view",
      "type": "function"
    },
    {
      "inputs": [
        {
          "internalType": "address",
          "name": "owner",
          "type": "address"
        },
        {
          "internalType": "address",
          "name": "operator",
          "type": "address"
        }
      ],
      "name": "isApprovedForAll",
      "outputs": [
        {
          "internalType": "bool",
          "name": "",
          "type": "bool"
        }
      ],
      "stateMutability": "view",
      "type": "function"
    },
    {
      "inputs": [],
      "name": "name",
      "outputs": [
        {
          "internalType": "string",
          "name": "",
          "type": "string"
        }
      ],
      "stateMutability": "view",
      "type": "function"
    },
    {
      "inputs": [
        {
          "internalType": "uint256",
          "name": "tokenId",
          "type": "uint256"
        }
      ],
      "name": "ownerOf",
      "outputs": [
        {
          "internalType": "address",
          "name": "",
          "type": "address"
        }
      ],
      "stateMutability": "view",
      "type": "function"
    },
    {
      "inputs": [
        {
          "internalType": "address",
          "name": "from",
          "type": "address"
        },
        {
          "internalType": "address",
          "name": "to",
          "type": "address"
        },
        {
          "internalType": "uint256",
          "name": "tokenId",
          "type": "uint256"
        }
      ],
      "name": "safeTransferFrom",
      "outputs": [],
      "stateMutability": "nonpayable",
      "type": "function"
    },
    {
      "inputs": [
        {
          "internalType": "address",
          "name": "from",
          "type": "address"
        },
        {
          "internalType": "address",
          "name": "to",
          "type": "address"
        },
        {
          "internalType": "uint256",
          "name": "tokenId",
          "type": "uint256"
        },
        {
          "internalType": "bytes",
          "name": "_data",
          "type": "bytes"
        }
      ],
      "name": "safeTransferFrom",
      "outputs": [],
      "stateMutability": "nonpayable",
      "type": "function"
    },
    {
      "inputs": [
        {
          "internalType": "address",
          "name": "operator",
          "type": "address"
        },
        {
          "internalType": "bool",
          "name": "approved",
          "type": "bool"
        }
      ],
      "name": "setApprovalForAll",
      "outputs": [],
      "stateMutability": "nonpayable",
      "type": "function"
    },
    {
      "inputs": [
        {
          "internalType": "bytes4",
          "name": "interfaceId",
          "type": "bytes4"
        }
      ],
      "name": "supportsInterface",
      "outputs": [
        {
          "internalType": "bool",
          "name": "",
          "type": "bool"
        }
      ],
      "stateMutability": "view",
      "type": "function"
    },
    {
      "inputs": [],
      "name": "symbol",
      "outputs": [
        {
          "internalType": "string",
          "name": "",
          "type": "string"
        }
      ],
      "stateMutability": "view",
      "type": "function"
    },
    {
      "inputs": [
        {
          "internalType": "uint256",
          "name": "tokenId",
          "type": "uint256"
        }
      ],
      "name": "tokenURI",
      "outputs": [
        {
          "internalType": "string",
          "name": "",
          "type": "string"
        }
      ],
      "stateMutability": "view",
      "type": "function"
    },
    {
      "inputs": [
        {
          "internalType": "address",
          "name": "from",
          "type": "address"
        },
        {
          "internalType": "address",
          "name": "to",
          "type": "address"
        },
        {
          "internalType": "uint256",
          "name": "tokenId",
          "type": "uint256"
        }
      ],
      "name": "transferFrom",
      "outputs": [],
      "stateMutability": "nonpayable",
      "type": "function"
    }
  ],
  "bytecode": "0x608060405234801561001057600080fd5b50611894806100206000396000f3fe6080604052600436106100f35760003560e01c806370a082311161008a578063b88d4fde11610059578063b88d4fde1461032d578063c87b56dd1461034d578063ca1d209d1461036d578063e985e9c51461038057600080fd5b806370a082311461026b57806395d89b4114610299578063a22cb465146102ae578063b76c94e1146102ce57600080fd5b806323b872dd116100c657806323b872dd146101eb578063379607f51461020b57806342842e0e1461022b5780636352211e1461024b57600080fd5b806301ffc9a7146100f857806306fdde031461016f578063081812fc14610191578063095ea7b3146101c9575b600080fd5b34801561010457600080fd5b5061015a6101133660046115ba565b7fffffffff00000000000000000000000000000000000000000000000000000000167f01ffc9a7000000000000000000000000000000000000000000000000000000001490565b60405190151581526020015b60405180910390f35b34801561017b57600080fd5b506101846103c9565b60405161016691906116a4565b34801561019d57600080fd5b506101b16101ac3660046115f4565b61045b565b6040516001600160a01b039091168152602001610166565b3480156101d557600080fd5b506101e96101e4366004611590565b610506565b005b3480156101f757600080fd5b506101e961020636600461143c565b610638565b34801561021757600080fd5b506101e96102263660046115f4565b6106bf565b34801561023757600080fd5b506101e961024636600461143c565b610865565b34801561025757600080fd5b506101b16102663660046115f4565b610880565b34801561027757600080fd5b5061028b6102863660046113ee565b610911565b604051908152602001610166565b3480156102a557600080fd5b506101846109ab565b3480156102ba57600080fd5b506101e96102c9366004611554565b6109ba565b3480156102da57600080fd5b506103106102e93660046115f4565b600090815260676020526040902054600160a01b90046bffffffffffffffffffffffff1690565b6040516bffffffffffffffffffffffff9091168152602001610166565b34801561033957600080fd5b506101e9610348366004611478565b6109c9565b34801561035957600080fd5b506101846103683660046115f4565b610a57565b6101e961037b3660046115f4565b610b4d565b34801561038c57600080fd5b5061015a61039b366004611409565b6001600160a01b039182166000908152606a6020908152604080832093909416825291909152205460ff1690565b6060606580546103d89061174d565b80601f01602080910402602001604051908101604052809291908181526020018280546104049061174d565b80156104515780601f1061042657610100808354040283529160200191610451565b820191906000526020600020905b81548152906001019060200180831161043457829003601f168201915b5050505050905090565b6000818152606760205260408120546001600160a01b03166104ea5760405162461bcd60e51b815260206004820152602c60248201527f4552433732313a20617070726f76656420717565727920666f72206e6f6e657860448201527f697374656e7420746f6b656e000000000000000000000000000000000000000060648201526084015b60405180910390fd5b506000908152606960205260409020546001600160a01b031690565b600061051182610880565b9050806001600160a01b0316836001600160a01b0316141561059b5760405162461bcd60e51b815260206004820152602160248201527f4552433732313a20617070726f76616c20746f2063757272656e74206f776e6560448201527f720000000000000000000000000000000000000000000000000000000000000060648201526084016104e1565b336001600160a01b03821614806105b757506105b7813361039b565b6106295760405162461bcd60e51b815260206004820152603860248201527f4552433732313a20617070726f76652063616c6c6572206973206e6f74206f7760448201527f6e6572206e6f7220617070726f76656420666f7220616c6c000000000000000060648201526084016104e1565b6106338383610c0a565b505050565b6106423382610c90565b6106b45760405162461bcd60e51b815260206004820152603160248201527f4552433732313a207472616e736665722063616c6c6572206973206e6f74206f60448201527f776e6572206e6f7220617070726f76656400000000000000000000000000000060648201526084016104e1565b610633838383610d98565b6000818152606760205260409020546001600160a01b0316331461074b5760405162461bcd60e51b815260206004820152602a60248201527f45524337323146756e6461626c653a206f6e6c7920746f6b656e206f776e657260448201527f2063616e20636c61696d0000000000000000000000000000000000000000000060648201526084016104e1565b600081815260676020526040902054600160a01b90046bffffffffffffffffffffffff166107bb5760405162461bcd60e51b815260206004820152601c60248201527f45524337323146756e6461626c653a207a65726f2062616c616e63650000000060448201526064016104e1565b60008181526067602052604080822080546001600160a01b0381169091559051600160a01b9091046bffffffffffffffffffffffff169133916108fc84150291849190818181858888f1935050505015801561081b573d6000803e3d6000fd5b506040516bffffffffffffffffffffffff82168152829033907fb7d2e84663e45886a877f676edbc05d7c0fa506875267129bc57cc35bcaa9b549060200160405180910390a35050565b610633838383604051806020016040528060008152506109c9565b6000818152606760205260408120546001600160a01b03168061090b5760405162461bcd60e51b815260206004820152602960248201527f4552433732313a206f776e657220717565727920666f72206e6f6e657869737460448201527f656e7420746f6b656e000000000000000000000000000000000000000000000060648201526084016104e1565b92915050565b60006001600160a01b03821661098f5760405162461bcd60e51b815260206004820152602a60248201527f4552433732313a2062616c616e636520717565727920666f7220746865207a6560448201527f726f20616464726573730000000000000000000000000000000000000000000060648201526084016104e1565b506001600160a01b031660009081526068602052604090205490565b6060606680546103d89061174d565b6109c5338383610f7d565b5050565b6109d33383610c90565b610a455760405162461bcd60e51b815260206004820152603160248201527f4552433732313a207472616e736665722063616c6c6572206973206e6f74206f60448201527f776e6572206e6f7220617070726f76656400000000000000000000000000000060648201526084016104e1565b610a518484848461106a565b50505050565b6000818152606760205260409020546060906001600160a01b0316610ae45760405162461bcd60e51b815260206004820152602f60248201527f4552433732314d657461646174613a2055524920717565727920666f72206e6f60448201527f6e6578697374656e7420746f6b656e000000000000000000000000000000000060648201526084016104e1565b6000610afb60408051602081019091526000815290565b90506000815111610b1b5760405180602001604052806000815250610b46565b80610b25846110f3565b604051602001610b36929190611639565b6040516020818303038152906040525b9392505050565b60008181526067602052604090208054349190601490610b83908490600160a01b90046bffffffffffffffffffffffff166116cf565b92506101000a8154816bffffffffffffffffffffffff02191690836bffffffffffffffffffffffff16021790555080336001600160a01b03167fce3fdd999203ce74c1e9fab355f25be591e78bd19159ae938b0fd84f63ec828934604051610bff91906bffffffffffffffffffffffff91909116815260200190565b60405180910390a350565b600081815260696020526040902080547fffffffffffffffffffffffff0000000000000000000000000000000000000000166001600160a01b0384169081179091558190610c5782610880565b6001600160a01b03167f8c5be1e5ebec7d5bd14f71427d1e84f3dd0314c0f7b2291e5b200ac8c7c3b92560405160405180910390a45050565b6000818152606760205260408120546001600160a01b0316610d1a5760405162461bcd60e51b815260206004820152602c60248201527f4552433732313a206f70657261746f7220717565727920666f72206e6f6e657860448201527f697374656e7420746f6b656e000000000000000000000000000000000000000060648201526084016104e1565b6000610d2583610880565b9050806001600160a01b0316846001600160a01b03161480610d605750836001600160a01b0316610d558461045b565b6001600160a01b0316145b80610d9057506001600160a01b038082166000908152606a602090815260408083209388168352929052205460ff165b949350505050565b826001600160a01b0316610dab82610880565b6001600160a01b031614610e275760405162461bcd60e51b815260206004820152602560248201527f4552433732313a207472616e736665722066726f6d20696e636f72726563742060448201527f6f776e657200000000000000000000000000000000000000000000000000000060648201526084016104e1565b6001600160a01b038216610ea25760405162461bcd60e51b8152602060048201526024808201527f4552433732313a207472616e7366657220746f20746865207a65726f2061646460448201527f726573730000000000000000000000000000000000000000000000000000000060648201526084016104e1565b610ead600082610c0a565b6001600160a01b0383166000908152606860205260408120805460019290610ed690849061170a565b90915550506001600160a01b0382166000908152606860205260408120805460019290610f049084906116b7565b909155505060008181526067602052604080822080547fffffffffffffffffffffffff0000000000000000000000000000000000000000166001600160a01b0386811691821790925591518493918716917fddf252ad1be2c89b69c2b068fc378daa952ba7f163c4a11628f55a4df523b3ef91a4505050565b816001600160a01b0316836001600160a01b03161415610fdf5760405162461bcd60e51b815260206004820152601960248201527f4552433732313a20617070726f766520746f2063616c6c65720000000000000060448201526064016104e1565b6001600160a01b038381166000818152606a602090815260408083209487168084529482529182902080547fffffffffffffffffffffffffffffffffffffffffffffffffffffffffffffff001686151590811790915591519182527f17307eab39ab6107e8899845ad3d59bd9653f200f220920489ca2b5937696c31910160405180910390a3505050565b611075848484610d98565b61108184848484611225565b610a515760405162461bcd60e51b815260206004820152603260248201527f4552433732313a207472616e7366657220746f206e6f6e20455243373231526560448201527f63656976657220696d706c656d656e746572000000000000000000000000000060648201526084016104e1565b60608161113357505060408051808201909152600181527f3000000000000000000000000000000000000000000000000000000000000000602082015290565b8160005b811561115d578061114781611788565b91506111569050600a836116f6565b9150611137565b60008167ffffffffffffffff81111561117857611178611817565b6040519080825280601f01601f1916602001820160405280156111a2576020820181803683370190505b5090505b8415610d90576111b760018361170a565b91506111c4600a866117c1565b6111cf9060306116b7565b60f81b8183815181106111e4576111e4611801565b60200101907effffffffffffffffffffffffffffffffffffffffffffffffffffffffffffff1916908160001a90535061121e600a866116f6565b94506111a6565b60006001600160a01b0384163b156113c7576040517f150b7a020000000000000000000000000000000000000000000000000000000081526001600160a01b0385169063150b7a0290611282903390899088908890600401611668565b602060405180830381600087803b15801561129c57600080fd5b505af19250505080156112cc575060408051601f3d908101601f191682019092526112c9918101906115d7565b60015b61137c573d8080156112fa576040519150601f19603f3d011682016040523d82523d6000602084013e6112ff565b606091505b5080516113745760405162461bcd60e51b815260206004820152603260248201527f4552433732313a207472616e7366657220746f206e6f6e20455243373231526560448201527f63656976657220696d706c656d656e746572000000000000000000000000000060648201526084016104e1565b805181602001fd5b7fffffffff00000000000000000000000000000000000000000000000000000000167f150b7a0200000000000000000000000000000000000000000000000000000000149050610d90565b506001949350505050565b80356001600160a01b03811681146113e957600080fd5b919050565b60006020828403121561140057600080fd5b610b46826113d2565b6000806040838503121561141c57600080fd5b611425836113d2565b9150611433602084016113d2565b90509250929050565b60008060006060848603121561145157600080fd5b61145a846113d2565b9250611468602085016113d2565b9150604084013590509250925092565b6000806000806080858703121561148e57600080fd5b611497856113d2565b93506114a5602086016113d2565b925060408501359150606085013567ffffffffffffffff808211156114c957600080fd5b818701915087601f8301126114dd57600080fd5b8135818111156114ef576114ef611817565b604051601f8201601f19908116603f0116810190838211818310171561151757611517611817565b816040528281528a602084870101111561153057600080fd5b82602086016020830137600060208483010152809550505050505092959194509250565b6000806040838503121561156757600080fd5b611570836113d2565b91506020830135801515811461158557600080fd5b809150509250929050565b600080604083850312156115a357600080fd5b6115ac836113d2565b946020939093013593505050565b6000602082840312156115cc57600080fd5b8135610b468161182d565b6000602082840312156115e957600080fd5b8151610b468161182d565b60006020828403121561160657600080fd5b5035919050565b60008151808452611625816020860160208601611721565b601f01601f19169290920160200192915050565b6000835161164b818460208801611721565b83519083019061165f818360208801611721565b01949350505050565b60006001600160a01b0380871683528086166020840152508360408301526080606083015261169a608083018461160d565b9695505050505050565b602081526000610b46602083018461160d565b600082198211156116ca576116ca6117d5565b500190565b60006bffffffffffffffffffffffff80831681851680830382111561165f5761165f6117d5565b600082611705576117056117eb565b500490565b60008282101561171c5761171c6117d5565b500390565b60005b8381101561173c578181015183820152602001611724565b83811115610a515750506000910152565b600181811c9082168061176157607f821691505b6020821081141561178257634e487b7160e01b600052602260045260246000fd5b50919050565b60007fffffffffffffffffffffffffffffffffffffffffffffffffffffffffffffffff8214156117ba576117ba6117d5565b5060010190565b6000826117d0576117d06117eb565b500690565b634e487b7160e01b600052601160045260246000fd5b634e487b7160e01b600052601260045260246000fd5b634e487b7160e01b600052603260045260246000fd5b634e487b7160e01b600052604160045260246000fd5b7fffffffff000000000000000000000000000000000000000000000000000000008116811461185b57600080fd5b5056fea264697066735822122017bea0ef839ee14cf976a0ba1b381d56ac52e4fd5c0991474a0b30b50959735664736f6c63430008070033",
  "linkReferences": {},
  "deployedLinkReferences": {}
}