{
  "_format": "hh-sol-artifact-1",
  "contractName": "ERC721Fundable",
  "sourceName": "contracts/ERC721/ERC721Fundable.sol",
  "abi": [
    {
      "anonymous": false,
      "inputs": [
        {
          "indexed": true,
          "internalType": "address",
          "name": "owner",
          "type": "address"
        },
        {
          "indexed": true,
          "internalType": "address",
          "name": "approved",
          "type": "address"
        },
        {
          "indexed": true,
          "internalType": "uint256",
          "name": "tokenId",
          "type": "uint256"
        }
      ],
      "name": "Approval",
      "type": "event"
    },
    {
      "anonymous": false,
      "inputs": [
        {
          "indexed": true,
          "internalType": "address",
          "name": "owner",
          "type": "address"
        },
        {
          "indexed": true,
          "internalType": "address",
          "name": "operator",
          "type": "address"
        },
        {
          "indexed": false,
          "internalType": "bool",
          "name": "approved",
          "type": "bool"
        }
      ],
      "name": "ApprovalForAll",
      "type": "event"
    },
    {
      "anonymous": false,
      "inputs": [
        {
          "indexed": true,
          "internalType": "address",
          "name": "claimer",
          "type": "address"
        },
        {
          "indexed": true,
          "internalType": "uint256",
          "name": "tokenId",
          "type": "uint256"
        },
        {
          "indexed": false,
          "internalType": "uint96",
          "name": "amount",
          "type": "uint96"
        }
      ],
      "name": "Claim",
      "type": "event"
    },
    {
      "anonymous": false,
      "inputs": [
        {
          "indexed": true,
          "internalType": "address",
          "name": "sponsor",
          "type": "address"
        },
        {
          "indexed": true,
          "internalType": "uint256",
          "name": "tokenId",
          "type": "uint256"
        },
        {
          "indexed": false,
          "internalType": "uint96",
          "name": "amount",
          "type": "uint96"
        }
      ],
      "name": "Fund",
      "type": "event"
    },
    {
      "anonymous": false,
      "inputs": [
        {
          "indexed": true,
          "internalType": "address",
          "name": "from",
          "type": "address"
        },
        {
          "indexed": true,
          "internalType": "address",
          "name": "to",
          "type": "address"
        },
        {
          "indexed": true,
          "internalType": "uint256",
          "name": "tokenId",
          "type": "uint256"
        }
      ],
      "name": "Transfer",
      "type": "event"
    },
    {
      "inputs": [
        {
          "internalType": "address",
          "name": "to",
          "type": "address"
        },
        {
          "internalType": "uint256",
          "name": "tokenId",
          "type": "uint256"
        }
      ],
      "name": "approve",
      "outputs": [],
      "stateMutability": "nonpayable",
      "type": "function"
    },
    {
      "inputs": [
        {
          "internalType": "address",
          "name": "owner",
          "type": "address"
        }
      ],
      "name": "balanceOf",
      "outputs": [
        {
          "internalType": "uint256",
          "name": "",
          "type": "uint256"
        }
      ],
      "stateMutability": "view",
      "type": "function"
    },
    {
      "inputs": [
        {
          "internalType": "uint256",
          "name": "tokenId",
          "type": "uint256"
        }
      ],
      "name": "claim",
      "outputs": [],
      "stateMutability": "nonpayable",
      "type": "function"
    },
    {
      "inputs": [
        {
          "internalType": "uint256",
          "name": "tokenId",
          "type": "uint256"
        }
      ],
      "name": "fund",
      "outputs": [],
      "stateMutability": "payable",
      "type": "function"
    },
    {
      "inputs": [
        {
          "internalType": "uint256",
          "name": "tokenId",
          "type": "uint256"
        }
      ],
      "name": "fundsOf",
      "outputs": [
        {
          "internalType": "uint96",
          "name": "",
          "type": "uint96"
        }
      ],
      "stateMutability": "view",
      "type": "function"
    },
    {
      "inputs": [
        {
          "internalType": "uint256",
          "name": "tokenId",
          "type": "uint256"
        }
      ],
      "name": "getApproved",
      "outputs": [
        {
          "internalType": "address",
          "name": "",
          "type": "address"
        }
      ],
      "stateMutability": "view",
      "type": "function"
    },
    {
      "inputs": [
        {
          "internalType": "address",
          "name": "owner",
          "type": "address"
        },
        {
          "internalType": "address",
          "name": "operator",
          "type": "address"
        }
      ],
      "name": "isApprovedForAll",
      "outputs": [
        {
          "internalType": "bool",
          "name": "",
          "type": "bool"
        }
      ],
      "stateMutability": "view",
      "type": "function"
    },
    {
      "inputs": [],
      "name": "name",
      "outputs": [
        {
          "internalType": "string",
          "name": "",
          "type": "string"
        }
      ],
      "stateMutability": "view",
      "type": "function"
    },
    {
      "inputs": [
        {
          "internalType": "uint256",
          "name": "tokenId",
          "type": "uint256"
        }
      ],
      "name": "ownerOf",
      "outputs": [
        {
          "internalType": "address",
          "name": "",
          "type": "address"
        }
      ],
      "stateMutability": "view",
      "type": "function"
    },
    {
      "inputs": [
        {
          "internalType": "address",
          "name": "from",
          "type": "address"
        },
        {
          "internalType": "address",
          "name": "to",
          "type": "address"
        },
        {
          "internalType": "uint256",
          "name": "tokenId",
          "type": "uint256"
        }
      ],
      "name": "safeTransferFrom",
      "outputs": [],
      "stateMutability": "nonpayable",
      "type": "function"
    },
    {
      "inputs": [
        {
          "internalType": "address",
          "name": "from",
          "type": "address"
        },
        {
          "internalType": "address",
          "name": "to",
          "type": "address"
        },
        {
          "internalType": "uint256",
          "name": "tokenId",
          "type": "uint256"
        },
        {
          "internalType": "bytes",
          "name": "_data",
          "type": "bytes"
        }
      ],
      "name": "safeTransferFrom",
      "outputs": [],
      "stateMutability": "nonpayable",
      "type": "function"
    },
    {
      "inputs": [
        {
          "internalType": "address",
          "name": "operator",
          "type": "address"
        },
        {
          "internalType": "bool",
          "name": "approved",
          "type": "bool"
        }
      ],
      "name": "setApprovalForAll",
      "outputs": [],
      "stateMutability": "nonpayable",
      "type": "function"
    },
    {
      "inputs": [
        {
          "internalType": "bytes4",
          "name": "interfaceId",
          "type": "bytes4"
        }
      ],
      "name": "supportsInterface",
      "outputs": [
        {
          "internalType": "bool",
          "name": "",
          "type": "bool"
        }
      ],
      "stateMutability": "view",
      "type": "function"
    },
    {
      "inputs": [],
      "name": "symbol",
      "outputs": [
        {
          "internalType": "string",
          "name": "",
          "type": "string"
        }
      ],
      "stateMutability": "view",
      "type": "function"
    },
    {
      "inputs": [
        {
          "internalType": "uint256",
          "name": "tokenId",
          "type": "uint256"
        }
      ],
      "name": "tokenURI",
      "outputs": [
        {
          "internalType": "string",
          "name": "",
          "type": "string"
        }
      ],
      "stateMutability": "view",
      "type": "function"
    },
    {
      "inputs": [
        {
          "internalType": "address",
          "name": "from",
          "type": "address"
        },
        {
          "internalType": "address",
          "name": "to",
          "type": "address"
        },
        {
          "internalType": "uint256",
          "name": "tokenId",
          "type": "uint256"
        }
      ],
      "name": "transferFrom",
      "outputs": [],
      "stateMutability": "nonpayable",
      "type": "function"
    }
  ],
  "bytecode": "0x608060405234801561001057600080fd5b50611857806100206000396000f3fe6080604052600436106100f35760003560e01c806370a082311161008a578063b88d4fde11610059578063b88d4fde1461033e578063c87b56dd1461035e578063ca1d209d1461037e578063e985e9c51461039157600080fd5b806370a082311461026b57806395d89b4114610299578063a22cb465146102ae578063b76c94e1146102ce57600080fd5b806323b872dd116100c657806323b872dd146101eb578063379607f51461020b57806342842e0e1461022b5780636352211e1461024b57600080fd5b806301ffc9a7146100f857806306fdde031461016f578063081812fc14610191578063095ea7b3146101c9575b600080fd5b34801561010457600080fd5b5061015a61011336600461157d565b7fffffffff00000000000000000000000000000000000000000000000000000000167f01ffc9a7000000000000000000000000000000000000000000000000000000001490565b60405190151581526020015b60405180910390f35b34801561017b57600080fd5b506101846103da565b6040516101669190611667565b34801561019d57600080fd5b506101b16101ac3660046115b7565b61046c565b6040516001600160a01b039091168152602001610166565b3480156101d557600080fd5b506101e96101e4366004611553565b610517565b005b3480156101f757600080fd5b506101e96102063660046113ff565b610649565b34801561021757600080fd5b506101e96102263660046115b7565b6106d0565b34801561023757600080fd5b506101e96102463660046113ff565b610817565b34801561025757600080fd5b506101b16102663660046115b7565b610832565b34801561027757600080fd5b5061028b6102863660046113b1565b6108c3565b604051908152602001610166565b3480156102a557600080fd5b5061018461095d565b3480156102ba57600080fd5b506101e96102c9366004611517565b61096c565b3480156102da57600080fd5b506103216102e93660046115b7565b6000908152606760205260409020547401000000000000000000000000000000000000000090046bffffffffffffffffffffffff1690565b6040516bffffffffffffffffffffffff9091168152602001610166565b34801561034a57600080fd5b506101e961035936600461143b565b61097b565b34801561036a57600080fd5b506101846103793660046115b7565b610a09565b6101e961038c3660046115b7565b610aff565b34801561039d57600080fd5b5061015a6103ac3660046113cc565b6001600160a01b039182166000908152606a6020908152604080832093909416825291909152205460ff1690565b6060606580546103e990611710565b80601f016020809104026020016040519081016040528092919081815260200182805461041590611710565b80156104625780601f1061043757610100808354040283529160200191610462565b820191906000526020600020905b81548152906001019060200180831161044557829003601f168201915b5050505050905090565b6000818152606760205260408120546001600160a01b03166104fb5760405162461bcd60e51b815260206004820152602c60248201527f4552433732313a20617070726f76656420717565727920666f72206e6f6e657860448201527f697374656e7420746f6b656e000000000000000000000000000000000000000060648201526084015b60405180910390fd5b506000908152606960205260409020546001600160a01b031690565b600061052282610832565b9050806001600160a01b0316836001600160a01b031614156105ac5760405162461bcd60e51b815260206004820152602160248201527f4552433732313a20617070726f76616c20746f2063757272656e74206f776e6560448201527f720000000000000000000000000000000000000000000000000000000000000060648201526084016104f2565b336001600160a01b03821614806105c857506105c881336103ac565b61063a5760405162461bcd60e51b815260206004820152603860248201527f4552433732313a20617070726f76652063616c6c6572206973206e6f74206f7760448201527f6e6572206e6f7220617070726f76656420666f7220616c6c000000000000000060648201526084016104f2565b6106448383610bcd565b505050565b6106533382610c53565b6106c55760405162461bcd60e51b815260206004820152603160248201527f4552433732313a207472616e736665722063616c6c6572206973206e6f74206f60448201527f776e6572206e6f7220617070726f76656400000000000000000000000000000060648201526084016104f2565b610644838383610d5b565b6000818152606760205260409020546001600160a01b0316331461075c5760405162461bcd60e51b815260206004820152602a60248201527f45524337323146756e6461626c653a206f6e6c7920746f6b656e206f776e657260448201527f2063616e20636c61696d0000000000000000000000000000000000000000000060648201526084016104f2565b60008181526067602052604080822080546001600160a01b0381169091559051740100000000000000000000000000000000000000009091046bffffffffffffffffffffffff169133916108fc84150291849190818181858888f193505050501580156107cd573d6000803e3d6000fd5b506040516bffffffffffffffffffffffff82168152829033907fb7d2e84663e45886a877f676edbc05d7c0fa506875267129bc57cc35bcaa9b549060200160405180910390a35050565b6106448383836040518060200160405280600081525061097b565b6000818152606760205260408120546001600160a01b0316806108bd5760405162461bcd60e51b815260206004820152602960248201527f4552433732313a206f776e657220717565727920666f72206e6f6e657869737460448201527f656e7420746f6b656e000000000000000000000000000000000000000000000060648201526084016104f2565b92915050565b60006001600160a01b0382166109415760405162461bcd60e51b815260206004820152602a60248201527f4552433732313a2062616c616e636520717565727920666f7220746865207a6560448201527f726f20616464726573730000000000000000000000000000000000000000000060648201526084016104f2565b506001600160a01b031660009081526068602052604090205490565b6060606680546103e990611710565b610977338383610f40565b5050565b6109853383610c53565b6109f75760405162461bcd60e51b815260206004820152603160248201527f4552433732313a207472616e736665722063616c6c6572206973206e6f74206f60448201527f776e6572206e6f7220617070726f76656400000000000000000000000000000060648201526084016104f2565b610a038484848461102d565b50505050565b6000818152606760205260409020546060906001600160a01b0316610a965760405162461bcd60e51b815260206004820152602f60248201527f4552433732314d657461646174613a2055524920717565727920666f72206e6f60448201527f6e6578697374656e7420746f6b656e000000000000000000000000000000000060648201526084016104f2565b6000610aad60408051602081019091526000815290565b90506000815111610acd5760405180602001604052806000815250610af8565b80610ad7846110b6565b604051602001610ae89291906115fc565b6040516020818303038152906040525b9392505050565b60008181526067602052604090208054349190601490610b469084907401000000000000000000000000000000000000000090046bffffffffffffffffffffffff16611692565b92506101000a8154816bffffffffffffffffffffffff02191690836bffffffffffffffffffffffff16021790555080336001600160a01b03167fce3fdd999203ce74c1e9fab355f25be591e78bd19159ae938b0fd84f63ec828934604051610bc291906bffffffffffffffffffffffff91909116815260200190565b60405180910390a350565b600081815260696020526040902080547fffffffffffffffffffffffff0000000000000000000000000000000000000000166001600160a01b0384169081179091558190610c1a82610832565b6001600160a01b03167f8c5be1e5ebec7d5bd14f71427d1e84f3dd0314c0f7b2291e5b200ac8c7c3b92560405160405180910390a45050565b6000818152606760205260408120546001600160a01b0316610cdd5760405162461bcd60e51b815260206004820152602c60248201527f4552433732313a206f70657261746f7220717565727920666f72206e6f6e657860448201527f697374656e7420746f6b656e000000000000000000000000000000000000000060648201526084016104f2565b6000610ce883610832565b9050806001600160a01b0316846001600160a01b03161480610d235750836001600160a01b0316610d188461046c565b6001600160a01b0316145b80610d5357506001600160a01b038082166000908152606a602090815260408083209388168352929052205460ff165b949350505050565b826001600160a01b0316610d6e82610832565b6001600160a01b031614610dea5760405162461bcd60e51b815260206004820152602560248201527f4552433732313a207472616e736665722066726f6d20696e636f72726563742060448201527f6f776e657200000000000000000000000000000000000000000000000000000060648201526084016104f2565b6001600160a01b038216610e655760405162461bcd60e51b8152602060048201526024808201527f4552433732313a207472616e7366657220746f20746865207a65726f2061646460448201527f726573730000000000000000000000000000000000000000000000000000000060648201526084016104f2565b610e70600082610bcd565b6001600160a01b0383166000908152606860205260408120805460019290610e999084906116cd565b90915550506001600160a01b0382166000908152606860205260408120805460019290610ec790849061167a565b909155505060008181526067602052604080822080547fffffffffffffffffffffffff0000000000000000000000000000000000000000166001600160a01b0386811691821790925591518493918716917fddf252ad1be2c89b69c2b068fc378daa952ba7f163c4a11628f55a4df523b3ef91a4505050565b816001600160a01b0316836001600160a01b03161415610fa25760405162461bcd60e51b815260206004820152601960248201527f4552433732313a20617070726f766520746f2063616c6c65720000000000000060448201526064016104f2565b6001600160a01b038381166000818152606a602090815260408083209487168084529482529182902080547fffffffffffffffffffffffffffffffffffffffffffffffffffffffffffffff001686151590811790915591519182527f17307eab39ab6107e8899845ad3d59bd9653f200f220920489ca2b5937696c31910160405180910390a3505050565b611038848484610d5b565b611044848484846111e8565b610a035760405162461bcd60e51b815260206004820152603260248201527f4552433732313a207472616e7366657220746f206e6f6e20455243373231526560448201527f63656976657220696d706c656d656e746572000000000000000000000000000060648201526084016104f2565b6060816110f657505060408051808201909152600181527f3000000000000000000000000000000000000000000000000000000000000000602082015290565b8160005b8115611120578061110a8161174b565b91506111199050600a836116b9565b91506110fa565b60008167ffffffffffffffff81111561113b5761113b6117da565b6040519080825280601f01601f191660200182016040528015611165576020820181803683370190505b5090505b8415610d535761117a6001836116cd565b9150611187600a86611784565b61119290603061167a565b60f81b8183815181106111a7576111a76117c4565b60200101907effffffffffffffffffffffffffffffffffffffffffffffffffffffffffffff1916908160001a9053506111e1600a866116b9565b9450611169565b60006001600160a01b0384163b1561138a576040517f150b7a020000000000000000000000000000000000000000000000000000000081526001600160a01b0385169063150b7a029061124590339089908890889060040161162b565b602060405180830381600087803b15801561125f57600080fd5b505af192505050801561128f575060408051601f3d908101601f1916820190925261128c9181019061159a565b60015b61133f573d8080156112bd576040519150601f19603f3d011682016040523d82523d6000602084013e6112c2565b606091505b5080516113375760405162461bcd60e51b815260206004820152603260248201527f4552433732313a207472616e7366657220746f206e6f6e20455243373231526560448201527f63656976657220696d706c656d656e746572000000000000000000000000000060648201526084016104f2565b805181602001fd5b7fffffffff00000000000000000000000000000000000000000000000000000000167f150b7a0200000000000000000000000000000000000000000000000000000000149050610d53565b506001949350505050565b80356001600160a01b03811681146113ac57600080fd5b919050565b6000602082840312156113c357600080fd5b610af882611395565b600080604083850312156113df57600080fd5b6113e883611395565b91506113f660208401611395565b90509250929050565b60008060006060848603121561141457600080fd5b61141d84611395565b925061142b60208501611395565b9150604084013590509250925092565b6000806000806080858703121561145157600080fd5b61145a85611395565b935061146860208601611395565b925060408501359150606085013567ffffffffffffffff8082111561148c57600080fd5b818701915087601f8301126114a057600080fd5b8135818111156114b2576114b26117da565b604051601f8201601f19908116603f011681019083821181831017156114da576114da6117da565b816040528281528a60208487010111156114f357600080fd5b82602086016020830137600060208483010152809550505050505092959194509250565b6000806040838503121561152a57600080fd5b61153383611395565b91506020830135801515811461154857600080fd5b809150509250929050565b6000806040838503121561156657600080fd5b61156f83611395565b946020939093013593505050565b60006020828403121561158f57600080fd5b8135610af8816117f0565b6000602082840312156115ac57600080fd5b8151610af8816117f0565b6000602082840312156115c957600080fd5b5035919050565b600081518084526115e88160208601602086016116e4565b601f01601f19169290920160200192915050565b6000835161160e8184602088016116e4565b8351908301906116228183602088016116e4565b01949350505050565b60006001600160a01b0380871683528086166020840152508360408301526080606083015261165d60808301846115d0565b9695505050505050565b602081526000610af860208301846115d0565b6000821982111561168d5761168d611798565b500190565b60006bffffffffffffffffffffffff80831681851680830382111561162257611622611798565b6000826116c8576116c86117ae565b500490565b6000828210156116df576116df611798565b500390565b60005b838110156116ff5781810151838201526020016116e7565b83811115610a035750506000910152565b600181811c9082168061172457607f821691505b6020821081141561174557634e487b7160e01b600052602260045260246000fd5b50919050565b60007fffffffffffffffffffffffffffffffffffffffffffffffffffffffffffffffff82141561177d5761177d611798565b5060010190565b600082611793576117936117ae565b500690565b634e487b7160e01b600052601160045260246000fd5b634e487b7160e01b600052601260045260246000fd5b634e487b7160e01b600052603260045260246000fd5b634e487b7160e01b600052604160045260246000fd5b7fffffffff000000000000000000000000000000000000000000000000000000008116811461181e57600080fd5b5056fea264697066735822122055e33388fb354444cde32a458fc67a3ad3adc0e84ad7083037fa97243c36c18864736f6c63430008070033",
  "linkReferences": {},
  "deployedLinkReferences": {}
}