{
  "contractName": "Exchange",
  "abi": [
    {
      "inputs": [
        {
          "internalType": "address",
          "name": "_address",
          "type": "address"
        }
      ],
      "stateMutability": "nonpayable",
      "type": "constructor"
    },
    {
      "anonymous": false,
      "inputs": [
        {
          "indexed": true,
          "internalType": "address",
          "name": "previousOwner",
          "type": "address"
        },
        {
          "indexed": true,
          "internalType": "address",
          "name": "newOwner",
          "type": "address"
        }
      ],
      "name": "OwnershipTransferred",
      "type": "event"
    },
    {
      "anonymous": false,
      "inputs": [
        {
          "components": [
            {
              "internalType": "address",
              "name": "exchange",
              "type": "address"
            },
            {
              "internalType": "bool",
              "name": "isBuyer",
              "type": "bool"
            },
            {
              "internalType": "bool",
              "name": "isAuction",
              "type": "bool"
            },
            {
              "internalType": "address payable",
              "name": "maker",
              "type": "address"
            },
            {
              "components": [
                {
                  "internalType": "bytes4",
                  "name": "assetClass",
                  "type": "bytes4"
                },
                {
                  "internalType": "address",
                  "name": "contractAddress",
                  "type": "address"
                },
                {
                  "internalType": "uint256",
                  "name": "value",
                  "type": "uint256"
                }
              ],
              "internalType": "struct LibAsset.Asset",
              "name": "buyAsset",
              "type": "tuple"
            },
            {
              "components": [
                {
                  "internalType": "address",
                  "name": "contractAddress",
                  "type": "address"
                },
                {
                  "internalType": "uint256",
                  "name": "tokenId",
                  "type": "uint256"
                },
                {
                  "internalType": "uint256",
                  "name": "patentFee",
                  "type": "uint256"
                }
              ],
              "internalType": "struct LibAsset.NFT",
              "name": "nftAsset",
              "type": "tuple"
            },
            {
              "internalType": "uint256",
              "name": "salt",
              "type": "uint256"
            },
            {
              "internalType": "uint256",
              "name": "start",
              "type": "uint256"
            },
            {
              "internalType": "uint256",
              "name": "end",
              "type": "uint256"
            }
          ],
          "indexed": false,
          "internalType": "struct LibOrder.Order",
          "name": "",
          "type": "tuple"
        },
        {
          "indexed": true,
          "internalType": "address",
          "name": "maker",
          "type": "address"
        }
      ],
      "name": "orderCancelled",
      "type": "event"
    },
    {
      "anonymous": false,
      "inputs": [
        {
          "components": [
            {
              "internalType": "address",
              "name": "exchange",
              "type": "address"
            },
            {
              "internalType": "bool",
              "name": "isBuyer",
              "type": "bool"
            },
            {
              "internalType": "bool",
              "name": "isAuction",
              "type": "bool"
            },
            {
              "internalType": "address payable",
              "name": "maker",
              "type": "address"
            },
            {
              "components": [
                {
                  "internalType": "bytes4",
                  "name": "assetClass",
                  "type": "bytes4"
                },
                {
                  "internalType": "address",
                  "name": "contractAddress",
                  "type": "address"
                },
                {
                  "internalType": "uint256",
                  "name": "value",
                  "type": "uint256"
                }
              ],
              "internalType": "struct LibAsset.Asset",
              "name": "buyAsset",
              "type": "tuple"
            },
            {
              "components": [
                {
                  "internalType": "address",
                  "name": "contractAddress",
                  "type": "address"
                },
                {
                  "internalType": "uint256",
                  "name": "tokenId",
                  "type": "uint256"
                },
                {
                  "internalType": "uint256",
                  "name": "patentFee",
                  "type": "uint256"
                }
              ],
              "internalType": "struct LibAsset.NFT",
              "name": "nftAsset",
              "type": "tuple"
            },
            {
              "internalType": "uint256",
              "name": "salt",
              "type": "uint256"
            },
            {
              "internalType": "uint256",
              "name": "start",
              "type": "uint256"
            },
            {
              "internalType": "uint256",
              "name": "end",
              "type": "uint256"
            }
          ],
          "indexed": false,
          "internalType": "struct LibOrder.Order",
          "name": "buyOrder",
          "type": "tuple"
        },
        {
          "components": [
            {
              "internalType": "address",
              "name": "exchange",
              "type": "address"
            },
            {
              "internalType": "bool",
              "name": "isBuyer",
              "type": "bool"
            },
            {
              "internalType": "bool",
              "name": "isAuction",
              "type": "bool"
            },
            {
              "internalType": "address payable",
              "name": "maker",
              "type": "address"
            },
            {
              "components": [
                {
                  "internalType": "bytes4",
                  "name": "assetClass",
                  "type": "bytes4"
                },
                {
                  "internalType": "address",
                  "name": "contractAddress",
                  "type": "address"
                },
                {
                  "internalType": "uint256",
                  "name": "value",
                  "type": "uint256"
                }
              ],
              "internalType": "struct LibAsset.Asset",
              "name": "buyAsset",
              "type": "tuple"
            },
            {
              "components": [
                {
                  "internalType": "address",
                  "name": "contractAddress",
                  "type": "address"
                },
                {
                  "internalType": "uint256",
                  "name": "tokenId",
                  "type": "uint256"
                },
                {
                  "internalType": "uint256",
                  "name": "patentFee",
                  "type": "uint256"
                }
              ],
              "internalType": "struct LibAsset.NFT",
              "name": "nftAsset",
              "type": "tuple"
            },
            {
              "internalType": "uint256",
              "name": "salt",
              "type": "uint256"
            },
            {
              "internalType": "uint256",
              "name": "start",
              "type": "uint256"
            },
            {
              "internalType": "uint256",
              "name": "end",
              "type": "uint256"
            }
          ],
          "indexed": false,
          "internalType": "struct LibOrder.Order",
          "name": "sellOrder",
          "type": "tuple"
        }
      ],
      "name": "orderMatched",
      "type": "event"
    },
    {
      "inputs": [
        {
          "internalType": "uint256",
          "name": "_fee",
          "type": "uint256"
        }
      ],
      "name": "changePlatformFee",
      "outputs": [],
      "stateMutability": "nonpayable",
      "type": "function"
    },
    {
      "inputs": [
        {
          "internalType": "address",
          "name": "_recipient",
          "type": "address"
        }
      ],
      "name": "changeRecipient",
      "outputs": [],
      "stateMutability": "nonpayable",
      "type": "function"
    },
    {
      "inputs": [
        {
          "components": [
            {
              "internalType": "bytes4",
              "name": "assetClass",
              "type": "bytes4"
            },
            {
              "internalType": "address",
              "name": "contractAddress",
              "type": "address"
            },
            {
              "internalType": "uint256",
              "name": "value",
              "type": "uint256"
            }
          ],
          "internalType": "struct LibAsset.Asset",
          "name": "asset",
          "type": "tuple"
        }
      ],
      "name": "getAssetHash",
      "outputs": [
        {
          "internalType": "bytes32",
          "name": "",
          "type": "bytes32"
        }
      ],
      "stateMutability": "pure",
      "type": "function",
      "constant": true
    },
    {
      "inputs": [
        {
          "components": [
            {
              "internalType": "address",
              "name": "contractAddress",
              "type": "address"
            },
            {
              "internalType": "uint256",
              "name": "tokenId",
              "type": "uint256"
            },
            {
              "internalType": "uint256",
              "name": "patentFee",
              "type": "uint256"
            }
          ],
          "internalType": "struct LibAsset.NFT",
          "name": "nft",
          "type": "tuple"
        }
      ],
      "name": "getNftHash",
      "outputs": [
        {
          "internalType": "bytes32",
          "name": "",
          "type": "bytes32"
        }
      ],
      "stateMutability": "pure",
      "type": "function",
      "constant": true
    },
    {
      "inputs": [
        {
          "components": [
            {
              "internalType": "address",
              "name": "exchange",
              "type": "address"
            },
            {
              "internalType": "bool",
              "name": "isBuyer",
              "type": "bool"
            },
            {
              "internalType": "bool",
              "name": "isAuction",
              "type": "bool"
            },
            {
              "internalType": "address payable",
              "name": "maker",
              "type": "address"
            },
            {
              "components": [
                {
                  "internalType": "bytes4",
                  "name": "assetClass",
                  "type": "bytes4"
                },
                {
                  "internalType": "address",
                  "name": "contractAddress",
                  "type": "address"
                },
                {
                  "internalType": "uint256",
                  "name": "value",
                  "type": "uint256"
                }
              ],
              "internalType": "struct LibAsset.Asset",
              "name": "buyAsset",
              "type": "tuple"
            },
            {
              "components": [
                {
                  "internalType": "address",
                  "name": "contractAddress",
                  "type": "address"
                },
                {
                  "internalType": "uint256",
                  "name": "tokenId",
                  "type": "uint256"
                },
                {
                  "internalType": "uint256",
                  "name": "patentFee",
                  "type": "uint256"
                }
              ],
              "internalType": "struct LibAsset.NFT",
              "name": "nftAsset",
              "type": "tuple"
            },
            {
              "internalType": "uint256",
              "name": "salt",
              "type": "uint256"
            },
            {
              "internalType": "uint256",
              "name": "start",
              "type": "uint256"
            },
            {
              "internalType": "uint256",
              "name": "end",
              "type": "uint256"
            }
          ],
          "internalType": "struct LibOrder.Order",
          "name": "order",
          "type": "tuple"
        }
      ],
      "name": "getOrderHash",
      "outputs": [
        {
          "internalType": "bytes32",
          "name": "",
          "type": "bytes32"
        }
      ],
      "stateMutability": "pure",
      "type": "function",
      "constant": true
    },
    {
      "inputs": [
        {
          "internalType": "address",
          "name": "contractAddress",
          "type": "address"
        },
        {
          "internalType": "uint256",
          "name": "tokenId",
          "type": "uint256"
        }
      ],
      "name": "getPatentFee",
      "outputs": [
        {
          "internalType": "uint256",
          "name": "",
          "type": "uint256"
        }
      ],
      "stateMutability": "view",
      "type": "function",
      "constant": true
    },
    {
      "inputs": [],
      "name": "getPlatformFee",
      "outputs": [
        {
          "internalType": "uint256",
          "name": "",
          "type": "uint256"
        }
      ],
      "stateMutability": "view",
      "type": "function",
      "constant": true
    },
    {
      "inputs": [],
      "name": "getRecipient",
      "outputs": [
        {
          "internalType": "address",
          "name": "",
          "type": "address"
        }
      ],
      "stateMutability": "view",
      "type": "function",
      "constant": true
    },
    {
      "inputs": [
        {
          "components": [
            {
              "internalType": "address",
              "name": "exchange",
              "type": "address"
            },
            {
              "internalType": "bool",
              "name": "isBuyer",
              "type": "bool"
            },
            {
              "internalType": "bool",
              "name": "isAuction",
              "type": "bool"
            },
            {
              "internalType": "address payable",
              "name": "maker",
              "type": "address"
            },
            {
              "components": [
                {
                  "internalType": "bytes4",
                  "name": "assetClass",
                  "type": "bytes4"
                },
                {
                  "internalType": "address",
                  "name": "contractAddress",
                  "type": "address"
                },
                {
                  "internalType": "uint256",
                  "name": "value",
                  "type": "uint256"
                }
              ],
              "internalType": "struct LibAsset.Asset",
              "name": "buyAsset",
              "type": "tuple"
            },
            {
              "components": [
                {
                  "internalType": "address",
                  "name": "contractAddress",
                  "type": "address"
                },
                {
                  "internalType": "uint256",
                  "name": "tokenId",
                  "type": "uint256"
                },
                {
                  "internalType": "uint256",
                  "name": "patentFee",
                  "type": "uint256"
                }
              ],
              "internalType": "struct LibAsset.NFT",
              "name": "nftAsset",
              "type": "tuple"
            },
            {
              "internalType": "uint256",
              "name": "salt",
              "type": "uint256"
            },
            {
              "internalType": "uint256",
              "name": "start",
              "type": "uint256"
            },
            {
              "internalType": "uint256",
              "name": "end",
              "type": "uint256"
            }
          ],
          "internalType": "struct LibOrder.Order",
          "name": "order",
          "type": "tuple"
        },
        {
          "internalType": "bytes",
          "name": "signature",
          "type": "bytes"
        }
      ],
      "name": "getRecover",
      "outputs": [
        {
          "internalType": "address",
          "name": "",
          "type": "address"
        }
      ],
      "stateMutability": "pure",
      "type": "function",
      "constant": true
    },
    {
      "inputs": [],
      "name": "owner",
      "outputs": [
        {
          "internalType": "address",
          "name": "",
          "type": "address"
        }
      ],
      "stateMutability": "view",
      "type": "function",
      "constant": true
    },
    {
      "inputs": [],
      "name": "renounceOwnership",
      "outputs": [],
      "stateMutability": "nonpayable",
      "type": "function"
    },
    {
      "inputs": [
        {
          "internalType": "address",
          "name": "newOwner",
          "type": "address"
        }
      ],
      "name": "transferOwnership",
      "outputs": [],
      "stateMutability": "nonpayable",
      "type": "function"
    },
    {
      "inputs": [
        {
          "components": [
            {
              "internalType": "address",
              "name": "exchange",
              "type": "address"
            },
            {
              "internalType": "bool",
              "name": "isBuyer",
              "type": "bool"
            },
            {
              "internalType": "bool",
              "name": "isAuction",
              "type": "bool"
            },
            {
              "internalType": "address payable",
              "name": "maker",
              "type": "address"
            },
            {
              "components": [
                {
                  "internalType": "bytes4",
                  "name": "assetClass",
                  "type": "bytes4"
                },
                {
                  "internalType": "address",
                  "name": "contractAddress",
                  "type": "address"
                },
                {
                  "internalType": "uint256",
                  "name": "value",
                  "type": "uint256"
                }
              ],
              "internalType": "struct LibAsset.Asset",
              "name": "buyAsset",
              "type": "tuple"
            },
            {
              "components": [
                {
                  "internalType": "address",
                  "name": "contractAddress",
                  "type": "address"
                },
                {
                  "internalType": "uint256",
                  "name": "tokenId",
                  "type": "uint256"
                },
                {
                  "internalType": "uint256",
                  "name": "patentFee",
                  "type": "uint256"
                }
              ],
              "internalType": "struct LibAsset.NFT",
              "name": "nftAsset",
              "type": "tuple"
            },
            {
              "internalType": "uint256",
              "name": "salt",
              "type": "uint256"
            },
            {
              "internalType": "uint256",
              "name": "start",
              "type": "uint256"
            },
            {
              "internalType": "uint256",
              "name": "end",
              "type": "uint256"
            }
          ],
          "internalType": "struct LibOrder.Order",
          "name": "order",
          "type": "tuple"
        }
      ],
      "name": "cancelOrder",
      "outputs": [],
      "stateMutability": "nonpayable",
      "type": "function"
    },
    {
      "inputs": [
        {
          "components": [
            {
              "internalType": "address",
              "name": "exchange",
              "type": "address"
            },
            {
              "internalType": "bool",
              "name": "isBuyer",
              "type": "bool"
            },
            {
              "internalType": "bool",
              "name": "isAuction",
              "type": "bool"
            },
            {
              "internalType": "address payable",
              "name": "maker",
              "type": "address"
            },
            {
              "components": [
                {
                  "internalType": "bytes4",
                  "name": "assetClass",
                  "type": "bytes4"
                },
                {
                  "internalType": "address",
                  "name": "contractAddress",
                  "type": "address"
                },
                {
                  "internalType": "uint256",
                  "name": "value",
                  "type": "uint256"
                }
              ],
              "internalType": "struct LibAsset.Asset",
              "name": "buyAsset",
              "type": "tuple"
            },
            {
              "components": [
                {
                  "internalType": "address",
                  "name": "contractAddress",
                  "type": "address"
                },
                {
                  "internalType": "uint256",
                  "name": "tokenId",
                  "type": "uint256"
                },
                {
                  "internalType": "uint256",
                  "name": "patentFee",
                  "type": "uint256"
                }
              ],
              "internalType": "struct LibAsset.NFT",
              "name": "nftAsset",
              "type": "tuple"
            },
            {
              "internalType": "uint256",
              "name": "salt",
              "type": "uint256"
            },
            {
              "internalType": "uint256",
              "name": "start",
              "type": "uint256"
            },
            {
              "internalType": "uint256",
              "name": "end",
              "type": "uint256"
            }
          ],
          "internalType": "struct LibOrder.Order",
          "name": "order",
          "type": "tuple"
        }
      ],
      "name": "checkOrderStatus",
      "outputs": [
        {
          "internalType": "bool",
          "name": "",
          "type": "bool"
        }
      ],
      "stateMutability": "view",
      "type": "function",
      "constant": true
    },
    {
      "inputs": [
        {
          "components": [
            {
              "internalType": "address",
              "name": "exchange",
              "type": "address"
            },
            {
              "internalType": "bool",
              "name": "isBuyer",
              "type": "bool"
            },
            {
              "internalType": "bool",
              "name": "isAuction",
              "type": "bool"
            },
            {
              "internalType": "address payable",
              "name": "maker",
              "type": "address"
            },
            {
              "components": [
                {
                  "internalType": "bytes4",
                  "name": "assetClass",
                  "type": "bytes4"
                },
                {
                  "internalType": "address",
                  "name": "contractAddress",
                  "type": "address"
                },
                {
                  "internalType": "uint256",
                  "name": "value",
                  "type": "uint256"
                }
              ],
              "internalType": "struct LibAsset.Asset",
              "name": "buyAsset",
              "type": "tuple"
            },
            {
              "components": [
                {
                  "internalType": "address",
                  "name": "contractAddress",
                  "type": "address"
                },
                {
                  "internalType": "uint256",
                  "name": "tokenId",
                  "type": "uint256"
                },
                {
                  "internalType": "uint256",
                  "name": "patentFee",
                  "type": "uint256"
                }
              ],
              "internalType": "struct LibAsset.NFT",
              "name": "nftAsset",
              "type": "tuple"
            },
            {
              "internalType": "uint256",
              "name": "salt",
              "type": "uint256"
            },
            {
              "internalType": "uint256",
              "name": "start",
              "type": "uint256"
            },
            {
              "internalType": "uint256",
              "name": "end",
              "type": "uint256"
            }
          ],
          "internalType": "struct LibOrder.Order",
          "name": "buyOrder",
          "type": "tuple"
        },
        {
          "internalType": "bytes",
          "name": "buyOrderSig",
          "type": "bytes"
        },
        {
          "components": [
            {
              "internalType": "address",
              "name": "exchange",
              "type": "address"
            },
            {
              "internalType": "bool",
              "name": "isBuyer",
              "type": "bool"
            },
            {
              "internalType": "bool",
              "name": "isAuction",
              "type": "bool"
            },
            {
              "internalType": "address payable",
              "name": "maker",
              "type": "address"
            },
            {
              "components": [
                {
                  "internalType": "bytes4",
                  "name": "assetClass",
                  "type": "bytes4"
                },
                {
                  "internalType": "address",
                  "name": "contractAddress",
                  "type": "address"
                },
                {
                  "internalType": "uint256",
                  "name": "value",
                  "type": "uint256"
                }
              ],
              "internalType": "struct LibAsset.Asset",
              "name": "buyAsset",
              "type": "tuple"
            },
            {
              "components": [
                {
                  "internalType": "address",
                  "name": "contractAddress",
                  "type": "address"
                },
                {
                  "internalType": "uint256",
                  "name": "tokenId",
                  "type": "uint256"
                },
                {
                  "internalType": "uint256",
                  "name": "patentFee",
                  "type": "uint256"
                }
              ],
              "internalType": "struct LibAsset.NFT",
              "name": "nftAsset",
              "type": "tuple"
            },
            {
              "internalType": "uint256",
              "name": "salt",
              "type": "uint256"
            },
            {
              "internalType": "uint256",
              "name": "start",
              "type": "uint256"
            },
            {
              "internalType": "uint256",
              "name": "end",
              "type": "uint256"
            }
          ],
          "internalType": "struct LibOrder.Order",
          "name": "sellOrder",
          "type": "tuple"
        },
        {
          "internalType": "bytes",
          "name": "sellOrderSig",
          "type": "bytes"
        }
      ],
      "name": "matchAndExecuteOrder",
      "outputs": [],
      "stateMutability": "payable",
      "type": "function",
      "payable": true
    }
  ],
  "bytecode": "0x60806040523480156200001157600080fd5b50604051620042a1380380620042a18339818101604052810190620000379190620001cd565b60016000819055506200005f62000053620000e860201b60201c565b620000f060201b60201c565b33600460006101000a81548173ffffffffffffffffffffffffffffffffffffffff021916908373ffffffffffffffffffffffffffffffffffffffff16021790555080600660006101000a81548173ffffffffffffffffffffffffffffffffffffffff021916908373ffffffffffffffffffffffffffffffffffffffff1602179055505062000247565b600033905090565b6000600160009054906101000a900473ffffffffffffffffffffffffffffffffffffffff16905081600160006101000a81548173ffffffffffffffffffffffffffffffffffffffff021916908373ffffffffffffffffffffffffffffffffffffffff1602179055508173ffffffffffffffffffffffffffffffffffffffff168173ffffffffffffffffffffffffffffffffffffffff167f8be0079c531659141344cd1fd0a4f28419497f9722a3daafe3b4186f6b6457e060405160405180910390a35050565b600081519050620001c7816200022d565b92915050565b600060208284031215620001e057600080fd5b6000620001f084828501620001b6565b91505092915050565b600062000206826200020d565b9050919050565b600073ffffffffffffffffffffffffffffffffffffffff82169050919050565b6200023881620001f9565b81146200024457600080fd5b50565b61404a80620002576000396000f3fe6080604052600436106100e85760003560e01c80638da5cb5b1161008a578063e4f000bd11610059578063e4f000bd146102d3578063eb2ccc9714610310578063f2fde38b1461034d578063ff9637d014610376576100e8565b80638da5cb5b1461023a57806392c2bcb414610265578063c931b6211461028e578063d7a5791a146102aa576100e8565b806363e899e8116100c657806363e899e81461017e5780636ea8bc10146101bb578063715018a6146101e6578063802655a7146101fd576100e8565b80630bd72f32146100ed5780631b88094d146101165780634d88994b14610141575b600080fd5b3480156100f957600080fd5b50610114600480360381019061010f9190612509565b6103b3565b005b34801561012257600080fd5b5061012b6104aa565b6040516101389190612d44565b60405180910390f35b34801561014d57600080fd5b5061016860048036038101906101639190612452565b6104d4565b604051610175919061337a565b60405180910390f35b34801561018a57600080fd5b506101a560048036038101906101a09190612533565b61052f565b6040516101b29190612d44565b60405180910390f35b3480156101c757600080fd5b506101d061054b565b6040516101dd919061337a565b60405180910390f35b3480156101f257600080fd5b506101fb610555565b005b34801561020957600080fd5b50610224600480360381019061021f91906124e0565b6105dd565b6040516102319190612eba565b60405180910390f35b34801561024657600080fd5b5061024f6105ef565b60405161025c9190612d44565b60405180910390f35b34801561027157600080fd5b5061028c60048036038101906102879190612400565b610619565b005b6102a860048036038101906102a39190612589565b610713565b005b3480156102b657600080fd5b506102d160048036038101906102cc9190612620565b610799565b005b3480156102df57600080fd5b506102fa60048036038101906102f59190612509565b610864565b6040516103079190612e9f565b60405180910390f35b34801561031c57600080fd5b50610337600480360381019061033291906124b7565b6108a6565b6040516103449190612eba565b60405180910390f35b34801561035957600080fd5b50610374600480360381019061036f9190612400565b6108b8565b005b34801561038257600080fd5b5061039d60048036038101906103989190612509565b6109b0565b6040516103aa9190612eba565b60405180910390f35b3373ffffffffffffffffffffffffffffffffffffffff16816060015173ffffffffffffffffffffffffffffffffffffffff1614610425576040517f08c379a000000000000000000000000000000000000000000000000000000000815260040161041c90613173565b60405180910390fd5b600160056000610434846109c2565b815260200190815260200160002060006101000a81548160ff0219169083151502179055503373ffffffffffffffffffffffffffffffffffffffff167f61091d2ec918ded76b24beb4212a65f3b7384ab2cc058364d63edc2aefb8eafd8260405161049f9190613333565b60405180910390a250565b6000600460009054906101000a900473ffffffffffffffffffffffffffffffffffffffff16905090565b6000600360008473ffffffffffffffffffffffffffffffffffffffff1673ffffffffffffffffffffffffffffffffffffffff168152602001908152602001600020600083815260200190815260200160002054905092915050565b600061054361053d846109c2565b83610a37565b905092915050565b6000600254905090565b61055d610ab1565b73ffffffffffffffffffffffffffffffffffffffff1661057b6105ef565b73ffffffffffffffffffffffffffffffffffffffff16146105d1576040517f08c379a00000000000000000000000000000000000000000000000000000000081526004016105c890613193565b60405180910390fd5b6105db6000610ab9565b565b60006105e882610b7f565b9050919050565b6000600160009054906101000a900473ffffffffffffffffffffffffffffffffffffffff16905090565b610621610ab1565b73ffffffffffffffffffffffffffffffffffffffff1661063f6105ef565b73ffffffffffffffffffffffffffffffffffffffff1614610695576040517f08c379a000000000000000000000000000000000000000000000000000000000815260040161068c90613193565b60405180910390fd5b600073ffffffffffffffffffffffffffffffffffffffff168173ffffffffffffffffffffffffffffffffffffffff1614156106cf57600080fd5b80600460006101000a81548173ffffffffffffffffffffffffffffffffffffffff021916908373ffffffffffffffffffffffffffffffffffffffff16021790555050565b60026000541415610759576040517f08c379a0000000000000000000000000000000000000000000000000000000008152600401610750906132d3565b60405180910390fd5b600260008190555061076d84848484610bbf565b6107778483610cd7565b6107818483611261565b61078b8483611923565b600160008190555050505050565b6107a1610ab1565b73ffffffffffffffffffffffffffffffffffffffff166107bf6105ef565b73ffffffffffffffffffffffffffffffffffffffff1614610815576040517f08c379a000000000000000000000000000000000000000000000000000000000815260040161080c90613193565b60405180910390fd5b61271081111561085a576040517f08c379a0000000000000000000000000000000000000000000000000000000008152600401610851906130f3565b60405180910390fd5b8060028190555050565b600060056000610873846109c2565b815260200190815260200160002060009054906101000a900460ff1661089c57600190506108a1565b600090505b919050565b60006108b182611ac2565b9050919050565b6108c0610ab1565b73ffffffffffffffffffffffffffffffffffffffff166108de6105ef565b73ffffffffffffffffffffffffffffffffffffffff1614610934576040517f08c379a000000000000000000000000000000000000000000000000000000000815260040161092b90613193565b60405180910390fd5b600073ffffffffffffffffffffffffffffffffffffffff168173ffffffffffffffffffffffffffffffffffffffff1614156109a4576040517f08c379a000000000000000000000000000000000000000000000000000000000815260040161099b90613053565b60405180910390fd5b6109ad81610ab9565b50565b60006109bb826109c2565b9050919050565b600081600001518260200151836040015184606001516109e58660800151611ac2565b6109f28760a00151610b7f565b8760c001518860e00151896101000151604051602001610a1a99989796959493929190612ddb565b604051602081830303815290604052805190602001209050919050565b60006041825114610a7d576040517f08c379a0000000000000000000000000000000000000000000000000000000008152600401610a7490612ff3565b60405180910390fd5b60008060006020850151925060408501519150606085015160001a9050610aa686828585611b02565b935050505092915050565b600033905090565b6000600160009054906101000a900473ffffffffffffffffffffffffffffffffffffffff16905081600160006101000a81548173ffffffffffffffffffffffffffffffffffffffff021916908373ffffffffffffffffffffffffffffffffffffffff1602179055508173ffffffffffffffffffffffffffffffffffffffff168173ffffffffffffffffffffffffffffffffffffffff167f8be0079c531659141344cd1fd0a4f28419497f9722a3daafe3b4186f6b6457e060405160405180910390a35050565b6000816000015182602001518360400151604051602001610ba293929190612e68565b604051602081830303815290604052805190602001209050919050565b6000610bca856109c2565b90506000610bd7846109c2565b9050856060015173ffffffffffffffffffffffffffffffffffffffff16610bfe8387610a37565b73ffffffffffffffffffffffffffffffffffffffff1614610c54576040517f08c379a0000000000000000000000000000000000000000000000000000000008152600401610c4b906132f3565b60405180910390fd5b836060015173ffffffffffffffffffffffffffffffffffffffff16610c798285610a37565b73ffffffffffffffffffffffffffffffffffffffff1614610ccf576040517f08c379a0000000000000000000000000000000000000000000000000000000008152600401610cc690612fb3565b60405180910390fd5b505050505050565b3073ffffffffffffffffffffffffffffffffffffffff16826000015173ffffffffffffffffffffffffffffffffffffffff16148015610d4557503073ffffffffffffffffffffffffffffffffffffffff16816000015173ffffffffffffffffffffffffffffffffffffffff16145b610d84576040517f08c379a0000000000000000000000000000000000000000000000000000000008152600401610d7b90612fd3565b60405180910390fd5b6001151582602001511515148015610da457506000151581602001511515145b610de3576040517f08c379a0000000000000000000000000000000000000000000000000000000008152600401610dda90613073565b60405180910390fd5b806040015115158260400151151514610e31576040517f08c379a0000000000000000000000000000000000000000000000000000000008152600401610e28906132b3565b60405180910390fd5b60011515826040015115151415610eb957806060015173ffffffffffffffffffffffffffffffffffffffff163373ffffffffffffffffffffffffffffffffffffffff1614610eb4576040517f08c379a0000000000000000000000000000000000000000000000000000000008152600401610eab906131f3565b60405180910390fd5b610f2c565b816060015173ffffffffffffffffffffffffffffffffffffffff163373ffffffffffffffffffffffffffffffffffffffff1614610f2b576040517f08c379a0000000000000000000000000000000000000000000000000000000008152600401610f22906131b3565b60405180910390fd5b5b8060800151600001517bffffffffffffffffffffffffffffffffffffffffffffffffffffffff19168260800151600001517bffffffffffffffffffffffffffffffffffffffffffffffffffffffff191614610fbc576040517f08c379a0000000000000000000000000000000000000000000000000000000008152600401610fb390613113565b60405180910390fd5b80608001516020015173ffffffffffffffffffffffffffffffffffffffff1682608001516020015173ffffffffffffffffffffffffffffffffffffffff161461103a576040517f08c379a0000000000000000000000000000000000000000000000000000000008152600401611031906131d3565b60405180910390fd5b806080015160400151826080015160400151101561108d576040517f08c379a000000000000000000000000000000000000000000000000000000000815260040161108490613233565b60405180910390fd5b8060a001516000015173ffffffffffffffffffffffffffffffffffffffff168260a001516000015173ffffffffffffffffffffffffffffffffffffffff161461110b576040517f08c379a000000000000000000000000000000000000000000000000000000000815260040161110290613133565b60405180910390fd5b8060a00151602001518260a00151602001511461115d576040517f08c379a000000000000000000000000000000000000000000000000000000000815260040161115490612f93565b60405180910390fd5b428261010001511015801561117757504281610100015110155b6111b6576040517f08c379a00000000000000000000000000000000000000000000000000000000081526004016111ad906130d3565b60405180910390fd5b60001515600560006111c7856109c2565b815260200190815260200160002060009054906101000a900460ff16151514801561121e575060001515600560006111fe846109c2565b815260200190815260200160002060009054906101000a900460ff161515145b61125d576040517f08c379a000000000000000000000000000000000000000000000000000000000815260040161125490613313565b60405180910390fd5b5050565b60008160a001516000015190506000836080015160200151905060008360a0015160200151905060008373ffffffffffffffffffffffffffffffffffffffff1663589a1743836040518263ffffffff1660e01b81526004016112c3919061337a565b60206040518083038186803b1580156112db57600080fd5b505afa1580156112ef573d6000803e3d6000fd5b505050506040513d601f19601f820116820180604052508101906113139190612429565b9050600086608001516040015190506000600360008773ffffffffffffffffffffffffffffffffffffffff1673ffffffffffffffffffffffffffffffffffffffff16815260200190815260200160002060008581526020019081526020016000205490507faaaebeba3810b1e6b70781f14b2d72c1cb89c0b2b320c43bb67ff79f562f5ff47bffffffffffffffffffffffffffffffffffffffffffffffffffffffff19168860800151600001517bffffffffffffffffffffffffffffffffffffffffffffffffffffffff1916141561162c57813414611427576040517f08c379a000000000000000000000000000000000000000000000000000000000815260040161141e90613273565b60405180910390fd5b60008290506000600254146114ce57600060025461271085611449919061345f565b6114539190613490565b9050600460009054906101000a900473ffffffffffffffffffffffffffffffffffffffff1673ffffffffffffffffffffffffffffffffffffffff166108fc829081150290604051600060405180830381858888f193505050501580156114bd573d6000803e3d6000fd5b5080846114ca91906134ea565b9150505b600082146115d257600082612710856114e7919061345f565b6114f19190613490565b90508773ffffffffffffffffffffffffffffffffffffffff1663589a1743876040518263ffffffff1660e01b815260040161152c919061337a565b60206040518083038186803b15801561154457600080fd5b505afa158015611558573d6000803e3d6000fd5b505050506040513d601f19601f8201168201806040525081019061157c9190612429565b73ffffffffffffffffffffffffffffffffffffffff166108fc829081150290604051600060405180830381858888f193505050501580156115c1573d6000803e3d6000fd5b5080826115ce91906134ea565b9150505b6000811461162657876060015173ffffffffffffffffffffffffffffffffffffffff166108fc829081150290604051600060405180830381858888f19350505050158015611624573d6000803e3d6000fd5b505b506117f1565b7f8ae85d849167ff996c04040c44924fd364217285e4cad818292c7ac37c0a345b7bffffffffffffffffffffffffffffffffffffffffffffffffffffffff19168860800151600001517bffffffffffffffffffffffffffffffffffffffffffffffffffffffff191614156117b557600034146116dd576040517f08c379a00000000000000000000000000000000000000000000000000000000081526004016116d490613033565b60405180910390fd5b600082905060006002541461174d576000600254612710856116ff919061345f565b6117099190613490565b905061173d878b60600151600460009054906101000a900473ffffffffffffffffffffffffffffffffffffffff1684611da2565b808461174991906134ea565b9150505b600082146117925760008261271085611766919061345f565b6117709190613490565b9050611782878b606001518784611da2565b808261178e91906134ea565b9150505b600081146117af576117ae868a606001518a6060015184611da2565b5b506117f0565b6040517f08c379a00000000000000000000000000000000000000000000000000000000081526004016117e790613213565b60405180910390fd5b5b600660009054906101000a900473ffffffffffffffffffffffffffffffffffffffff1673ffffffffffffffffffffffffffffffffffffffff16636e667db36040518163ffffffff1660e01b815260040160206040518083038186803b15801561185957600080fd5b505afa15801561186d573d6000803e3d6000fd5b505050506040513d601f19601f820116820180604052508101906118919190612429565b73ffffffffffffffffffffffffffffffffffffffff1663d9fc4b618860a001516000015189606001518b606001518b60a00151602001516040518563ffffffff1660e01b81526004016118e79493929190612d5f565b600060405180830381600087803b15801561190157600080fd5b505af1158015611915573d6000803e3d6000fd5b505050505050505050505050565b600160056000611932856109c2565b815260200190815260200160002060006101000a81548160ff021916908315150217905550600160056000611966846109c2565b815260200190815260200160002060006101000a81548160ff02191690831515021790555060008160a001516000015173ffffffffffffffffffffffffffffffffffffffff1663589a17438360a00151602001516040518263ffffffff1660e01b81526004016119d6919061337a565b60206040518083038186803b1580156119ee57600080fd5b505afa158015611a02573d6000803e3d6000fd5b505050506040513d601f19601f82011682018060405250810190611a269190612429565b90508073ffffffffffffffffffffffffffffffffffffffff16826060015173ffffffffffffffffffffffffffffffffffffffff161415611a8457611a838260a00151600001518360a00151602001518460a0015160400151611e2b565b5b7f60c1f76374c53ae4112b8671b2aa2d44b8f909b3bc8397741358b63cbb77fe8f8383604051611ab592919061334f565b60405180910390a1505050565b6000816000015182602001518360400151604051602001611ae593929190612f1a565b604051602081830303815290604052805190602001209050919050565b60007f7fffffffffffffffffffffffffffffff5d576e7357a4501ddfe92f46681b20a08260001c1115611b6a576040517f08c379a0000000000000000000000000000000000000000000000000000000008152600401611b6190613093565b60405180910390fd5b6000601e8560ff161115611c4e57601b600486611b87919061351e565b60ff161480611ba55750601c600486611ba0919061351e565b60ff16145b611be4576040517f08c379a0000000000000000000000000000000000000000000000000000000008152600401611bdb90613153565b60405180910390fd5b6001611bef87611eca565b600487611bfc919061351e565b868660405160008152602001604052604051611c1b9493929190612ed5565b6020604051602081039080840390855afa158015611c3d573d6000803e3d6000fd5b505050602060405103519050611d26565b60008560ff161480611c63575060018560ff16145b15611c7857601b85611c759190613428565b94505b601b8560ff161480611c8d5750601c8560ff16145b611ccc576040517f08c379a0000000000000000000000000000000000000000000000000000000008152600401611cc390613153565b60405180910390fd5b6001611cd787611eca565b86868660405160008152602001604052604051611cf79493929190612ed5565b6020604051602081039080840390855afa158015611d19573d6000803e3d6000fd5b5050506020604051035190505b600073ffffffffffffffffffffffffffffffffffffffff168173ffffffffffffffffffffffffffffffffffffffff161415611d96576040517f08c379a0000000000000000000000000000000000000000000000000000000008152600401611d8d90612f73565b60405180910390fd5b80915050949350505050565b611e25846323b872dd60e01b858585604051602401611dc393929190612da4565b604051602081830303815290604052907bffffffffffffffffffffffffffffffffffffffffffffffffffffffff19166020820180517bffffffffffffffffffffffffffffffffffffffffffffffffffffffff8381831617835250505050611efa565b50505050565b612710811115611e70576040517f08c379a0000000000000000000000000000000000000000000000000000000008152600401611e6790613013565b60405180910390fd5b80600360008573ffffffffffffffffffffffffffffffffffffffff1673ffffffffffffffffffffffffffffffffffffffff168152602001908152602001600020600084815260200190815260200160002081905550505050565b600081604051602001611edd9190612d1e565b604051602081830303815290604052805190602001209050919050565b6000611f5c826040518060400160405280602081526020017f5361666545524332303a206c6f772d6c6576656c2063616c6c206661696c65648152508573ffffffffffffffffffffffffffffffffffffffff16611fc19092919063ffffffff16565b9050600081511115611fbc5780806020019051810190611f7c919061248e565b611fbb576040517f08c379a0000000000000000000000000000000000000000000000000000000008152600401611fb290613293565b60405180910390fd5b5b505050565b6060611fd08484600085611fd9565b90509392505050565b60608247101561201e576040517f08c379a0000000000000000000000000000000000000000000000000000000008152600401612015906130b3565b60405180910390fd5b612027856120ed565b612066576040517f08c379a000000000000000000000000000000000000000000000000000000000815260040161205d90613253565b60405180910390fd5b6000808673ffffffffffffffffffffffffffffffffffffffff16858760405161208f9190612d07565b60006040518083038185875af1925050503d80600081146120cc576040519150601f19603f3d011682016040523d82523d6000602084013e6120d1565b606091505b50915091506120e1828286612100565b92505050949350505050565b600080823b905060008111915050919050565b6060831561211057829050612160565b6000835111156121235782518084602001fd5b816040517f08c379a00000000000000000000000000000000000000000000000000000000081526004016121579190612f51565b60405180910390fd5b9392505050565b600061217a612175846133ba565b613395565b90508281526020810184848401111561219257600080fd5b61219d848285613625565b509392505050565b6000813590506121b481613fa1565b92915050565b6000815190506121c981613fa1565b92915050565b6000813590506121de81613fb8565b92915050565b6000813590506121f381613fcf565b92915050565b60008151905061220881613fcf565b92915050565b60008135905061221d81613fe6565b92915050565b600082601f83011261223457600080fd5b8135612244848260208601612167565b91505092915050565b60006060828403121561225f57600080fd5b6122696060613395565b905060006122798482850161220e565b600083015250602061228d848285016121a5565b60208301525060406122a1848285016123eb565b60408301525092915050565b6000606082840312156122bf57600080fd5b6122c96060613395565b905060006122d9848285016121a5565b60008301525060206122ed848285016123eb565b6020830152506040612301848285016123eb565b60408301525092915050565b60006101a0828403121561232057600080fd5b61232b610120613395565b9050600061233b848285016121a5565b600083015250602061234f848285016121e4565b6020830152506040612363848285016121e4565b6040830152506060612377848285016121cf565b606083015250608061238b8482850161224d565b60808301525060e061239f848285016122ad565b60a0830152506101406123b4848285016123eb565b60c0830152506101606123c9848285016123eb565b60e0830152506101806123de848285016123eb565b6101008301525092915050565b6000813590506123fa81613ffd565b92915050565b60006020828403121561241257600080fd5b6000612420848285016121a5565b91505092915050565b60006020828403121561243b57600080fd5b6000612449848285016121ba565b91505092915050565b6000806040838503121561246557600080fd5b6000612473858286016121a5565b9250506020612484858286016123eb565b9150509250929050565b6000602082840312156124a057600080fd5b60006124ae848285016121f9565b91505092915050565b6000606082840312156124c957600080fd5b60006124d78482850161224d565b91505092915050565b6000606082840312156124f257600080fd5b6000612500848285016122ad565b91505092915050565b60006101a0828403121561251c57600080fd5b600061252a8482850161230d565b91505092915050565b6000806101c0838503121561254757600080fd5b60006125558582860161230d565b9250506101a083013567ffffffffffffffff81111561257357600080fd5b61257f85828601612223565b9150509250929050565b60008060008061038085870312156125a057600080fd5b60006125ae8782880161230d565b9450506101a085013567ffffffffffffffff8111156125cc57600080fd5b6125d887828801612223565b9350506101c06125ea8782880161230d565b92505061036085013567ffffffffffffffff81111561260857600080fd5b61261487828801612223565b91505092959194509250565b60006020828403121561263257600080fd5b6000612640848285016123eb565b91505092915050565b612652816135ef565b82525050565b61266181613564565b82525050565b61267081613564565b82525050565b61267f81613552565b82525050565b61268e81613552565b82525050565b61269d81613576565b82525050565b6126ac81613576565b82525050565b6126bb81613582565b82525050565b6126d26126cd82613582565b613698565b82525050565b6126e18161358c565b82525050565b6126f08161358c565b82525050565b6000612701826133eb565b61270b8185613401565b935061271b818560208601613634565b80840191505092915050565b6000612732826133f6565b61273c818561340c565b935061274c818560208601613634565b6127558161372f565b840191505092915050565b600061276d60188361340c565b915061277882613740565b602082019050919050565b6000612790601c8361340c565b915061279b82613769565b602082019050919050565b60006127b360258361340c565b91506127be82613792565b604082019050919050565b60006127d6602a8361340c565b91506127e1826137e1565b604082019050919050565b60006127f9601f8361340c565b915061280482613830565b602082019050919050565b600061281c601c8361341d565b915061282782613859565b601c82019050919050565b600061283f60318361340c565b915061284a82613882565b604082019050919050565b600061286260288361340c565b915061286d826138d1565b604082019050919050565b600061288560268361340c565b915061289082613920565b604082019050919050565b60006128a860228361340c565b91506128b38261396f565b604082019050919050565b60006128cb60228361340c565b91506128d6826139be565b604082019050919050565b60006128ee60268361340c565b91506128f982613a0d565b604082019050919050565b600061291160188361340c565b915061291c82613a5c565b602082019050919050565b600061293460338361340c565b915061293f82613a85565b604082019050919050565b600061295760288361340c565b915061296282613ad4565b604082019050919050565b600061297a60288361340c565b915061298582613b23565b604082019050919050565b600061299d60228361340c565b91506129a882613b72565b604082019050919050565b60006129c060248361340c565b91506129cb82613bc1565b604082019050919050565b60006129e360208361340c565b91506129ee82613c10565b602082019050919050565b6000612a0660358361340c565b9150612a1182613c39565b604082019050919050565b6000612a29602d8361340c565b9150612a3482613c88565b604082019050919050565b6000612a4c60328361340c565b9150612a5782613cd7565b604082019050919050565b6000612a6f60268361340c565b9150612a7a82613d26565b604082019050919050565b6000612a92603e8361340c565b9150612a9d82613d75565b604082019050919050565b6000612ab5601d8361340c565b9150612ac082613dc4565b602082019050919050565b6000612ad8602b8361340c565b9150612ae382613ded565b604082019050919050565b6000612afb602a8361340c565b9150612b0682613e3c565b604082019050919050565b6000612b1e60258361340c565b9150612b2982613e8b565b604082019050919050565b6000612b41601f8361340c565b9150612b4c82613eda565b602082019050919050565b6000612b6460248361340c565b9150612b6f82613f03565b604082019050919050565b6000612b87602a8361340c565b9150612b9282613f52565b604082019050919050565b606082016000820151612bb360008501826126d8565b506020820151612bc66020850182612676565b506040820151612bd96040850182612cda565b50505050565b606082016000820151612bf56000850182612676565b506020820151612c086020850182612cda565b506040820151612c1b6040850182612cda565b50505050565b6101a082016000820151612c386000850182612676565b506020820151612c4b6020850182612694565b506040820151612c5e6040850182612694565b506060820151612c716060850182612658565b506080820151612c846080850182612b9d565b5060a0820151612c9760e0850182612bdf565b5060c0820151612cab610140850182612cda565b5060e0820151612cbf610160850182612cda565b50610100820151612cd4610180850182612cda565b50505050565b612ce3816135d8565b82525050565b612cf2816135d8565b82525050565b612d01816135e2565b82525050565b6000612d1382846126f6565b915081905092915050565b6000612d298261280f565b9150612d3582846126c1565b60208201915081905092915050565b6000602082019050612d596000830184612685565b92915050565b6000608082019050612d746000830187612685565b612d816020830186612649565b612d8e6040830185612649565b612d9b6060830184612ce9565b95945050505050565b6000606082019050612db96000830186612685565b612dc66020830185612685565b612dd36040830184612ce9565b949350505050565b600061012082019050612df1600083018c612685565b612dfe602083018b6126a3565b612e0b604083018a6126a3565b612e186060830189612667565b612e2560808301886126b2565b612e3260a08301876126b2565b612e3f60c0830186612ce9565b612e4c60e0830185612ce9565b612e5a610100830184612ce9565b9a9950505050505050505050565b6000606082019050612e7d6000830186612685565b612e8a6020830185612ce9565b612e976040830184612ce9565b949350505050565b6000602082019050612eb460008301846126a3565b92915050565b6000602082019050612ecf60008301846126b2565b92915050565b6000608082019050612eea60008301876126b2565b612ef76020830186612cf8565b612f0460408301856126b2565b612f1160608301846126b2565b95945050505050565b6000606082019050612f2f60008301866126e7565b612f3c6020830185612685565b612f496040830184612ce9565b949350505050565b60006020820190508181036000830152612f6b8184612727565b905092915050565b60006020820190508181036000830152612f8c81612760565b9050919050565b60006020820190508181036000830152612fac81612783565b9050919050565b60006020820190508181036000830152612fcc816127a6565b9050919050565b60006020820190508181036000830152612fec816127c9565b9050919050565b6000602082019050818103600083015261300c816127ec565b9050919050565b6000602082019050818103600083015261302c81612832565b9050919050565b6000602082019050818103600083015261304c81612855565b9050919050565b6000602082019050818103600083015261306c81612878565b9050919050565b6000602082019050818103600083015261308c8161289b565b9050919050565b600060208201905081810360008301526130ac816128be565b9050919050565b600060208201905081810360008301526130cc816128e1565b9050919050565b600060208201905081810360008301526130ec81612904565b9050919050565b6000602082019050818103600083015261310c81612927565b9050919050565b6000602082019050818103600083015261312c8161294a565b9050919050565b6000602082019050818103600083015261314c8161296d565b9050919050565b6000602082019050818103600083015261316c81612990565b9050919050565b6000602082019050818103600083015261318c816129b3565b9050919050565b600060208201905081810360008301526131ac816129d6565b9050919050565b600060208201905081810360008301526131cc816129f9565b9050919050565b600060208201905081810360008301526131ec81612a1c565b9050919050565b6000602082019050818103600083015261320c81612a3f565b9050919050565b6000602082019050818103600083015261322c81612a62565b9050919050565b6000602082019050818103600083015261324c81612a85565b9050919050565b6000602082019050818103600083015261326c81612aa8565b9050919050565b6000602082019050818103600083015261328c81612acb565b9050919050565b600060208201905081810360008301526132ac81612aee565b9050919050565b600060208201905081810360008301526132cc81612b11565b9050919050565b600060208201905081810360008301526132ec81612b34565b9050919050565b6000602082019050818103600083015261330c81612b57565b9050919050565b6000602082019050818103600083015261332c81612b7a565b9050919050565b60006101a0820190506133496000830184612c21565b92915050565b6000610340820190506133656000830185612c21565b6133736101a0830184612c21565b9392505050565b600060208201905061338f6000830184612ce9565b92915050565b600061339f6133b0565b90506133ab8282613667565b919050565b6000604051905090565b600067ffffffffffffffff8211156133d5576133d4613700565b5b6133de8261372f565b9050602081019050919050565b600081519050919050565b600081519050919050565b600081905092915050565b600082825260208201905092915050565b600081905092915050565b6000613433826135e2565b915061343e836135e2565b92508260ff03821115613454576134536136a2565b5b828201905092915050565b600061346a826135d8565b9150613475836135d8565b925082613485576134846136d1565b5b828204905092915050565b600061349b826135d8565b91506134a6836135d8565b9250817fffffffffffffffffffffffffffffffffffffffffffffffffffffffffffffffff04831182151516156134df576134de6136a2565b5b828202905092915050565b60006134f5826135d8565b9150613500836135d8565b925082821015613513576135126136a2565b5b828203905092915050565b6000613529826135e2565b9150613534836135e2565b925082821015613547576135466136a2565b5b828203905092915050565b600061355d826135b8565b9050919050565b600061356f826135b8565b9050919050565b60008115159050919050565b6000819050919050565b60007fffffffff0000000000000000000000000000000000000000000000000000000082169050919050565b600073ffffffffffffffffffffffffffffffffffffffff82169050919050565b6000819050919050565b600060ff82169050919050565b60006135fa82613601565b9050919050565b600061360c82613613565b9050919050565b600061361e826135b8565b9050919050565b82818337600083830152505050565b60005b83811015613652578082015181840152602081019050613637565b83811115613661576000848401525b50505050565b6136708261372f565b810181811067ffffffffffffffff8211171561368f5761368e613700565b5b80604052505050565b6000819050919050565b7f4e487b7100000000000000000000000000000000000000000000000000000000600052601160045260246000fd5b7f4e487b7100000000000000000000000000000000000000000000000000000000600052601260045260246000fd5b7f4e487b7100000000000000000000000000000000000000000000000000000000600052604160045260246000fd5b6000601f19601f8301169050919050565b7f45434453413a20696e76616c6964207369676e61747572650000000000000000600082015250565b7f6f7264657220746f6b656e496420646f6573206e6f74206d6174636800000000600082015250565b7f73656c6c4f72646572207369676e61747572652076616c69646174696f6e206660008201527f61696c6564000000000000000000000000000000000000000000000000000000602082015250565b7f6f7264657220646f657320646f6573206e6f74206d617463682065786368616e60008201527f6765206164647265737300000000000000000000000000000000000000000000602082015250565b7f45434453413a20696e76616c6964207369676e6174757265206c656e67746800600082015250565b7f19457468657265756d205369676e6564204d6573736167653a0a333200000000600082015250565b7f696e76616c696420706174656e742066656520726174653a206d757374206e6f60008201527f206c6172676572207468616e2031303025000000000000000000000000000000602082015250565b7f73656e64696e67206574686572206e6f7420616c6c6f77656420696e2045524360008201527f3230206f72646572000000000000000000000000000000000000000000000000602082015250565b7f4f776e61626c653a206e6577206f776e657220697320746865207a65726f206160008201527f6464726573730000000000000000000000000000000000000000000000000000602082015250565b7f6f72646572206275792f73656c6c207369646520646f6573206e6f74206d617460008201527f6368000000000000000000000000000000000000000000000000000000000000602082015250565b7f45434453413a20696e76616c6964207369676e6174757265202773272076616c60008201527f7565000000000000000000000000000000000000000000000000000000000000602082015250565b7f416464726573733a20696e73756666696369656e742062616c616e636520666f60008201527f722063616c6c0000000000000000000000000000000000000000000000000000602082015250565b7f656974686572206f726465722068617320657870697265640000000000000000600082015250565b7f696e76616c696420706c6174666f726d2066656520726174653a206d7573742060008201527f6e6f206c6172676572207468616e203130302500000000000000000000000000602082015250565b7f6f72646572206275794173736574206173736574436c61737320646f6573206e60008201527f6f74206d61746368000000000000000000000000000000000000000000000000602082015250565b7f6f72646572204e465420636f6e74726163744164647265737320646f6573206e60008201527f6f74206d61746368000000000000000000000000000000000000000000000000602082015250565b7f45434453413a20696e76616c6964207369676e6174757265202776272076616c60008201527f7565000000000000000000000000000000000000000000000000000000000000602082015250565b7f6f72646572206d7573742062652063616e63656c6c656420627920697473206d60008201527f616b657200000000000000000000000000000000000000000000000000000000602082015250565b7f4f776e61626c653a2063616c6c6572206973206e6f7420746865206f776e6572600082015250565b7f6e6f6e2d61756374696f6e207472616e73616374696f6e206d7573742062652060008201527f6578656375746564206279207468652062757965720000000000000000000000602082015250565b7f6f7264657220627579417373657420636f6e747261637441646472657373206460008201527f6f6573206e6f74206d6174636800000000000000000000000000000000000000602082015250565b7f61756374696f6e207472616e73616374696f6e206d757374206265206578656360008201527f75746564206279207468652073656c6c65720000000000000000000000000000602082015250565b7f756e61757468656e746963617465642061737365742074797065206e6f74206160008201527f6c6c6f7765640000000000000000000000000000000000000000000000000000602082015250565b7f6275794f7264657220626964207072696365206d757374206265206e6f206c6560008201527f7373207468616e207468652073656c6c657227732061736b2070726963650000602082015250565b7f416464726573733a2063616c6c20746f206e6f6e2d636f6e7472616374000000600082015250565b7f657468657220616d6f756e7420646f6573206e6f74206d61746368206275792060008201527f6f726465722076616c7565000000000000000000000000000000000000000000602082015250565b7f5361666545524332303a204552433230206f7065726174696f6e20646964206e60008201527f6f74207375636365656400000000000000000000000000000000000000000000602082015250565b7f6f72646572207472616e73616374696f6e207479706520646f6573206e6f742060008201527f6d61746368000000000000000000000000000000000000000000000000000000602082015250565b7f5265656e7472616e637947756172643a207265656e7472616e742063616c6c00600082015250565b7f6275794f72646572207369676e61747572652076616c69646174696f6e20666160008201527f696c656400000000000000000000000000000000000000000000000000000000602082015250565b7f656974686572206f7264657220686173206265656e2063616e63656c6c65642060008201527f6f722066696e6973686400000000000000000000000000000000000000000000602082015250565b613faa81613552565b8114613fb557600080fd5b50565b613fc181613564565b8114613fcc57600080fd5b50565b613fd881613576565b8114613fe357600080fd5b50565b613fef8161358c565b8114613ffa57600080fd5b50565b614006816135d8565b811461401157600080fd5b5056fea2646970667358221220cd10cd6b1dbcd198c23c1d4c19e1cda9250a361eab13ac63d1033f0f1997d6c164736f6c63430008020033",
  "immutableReferences": {},
  "source": "// SPDX-License-Identifier: MIT\n\npragma solidity ^0.8.0;\n\nimport \"./LibOrder.sol\";\nimport \"./LibSignature.sol\";\nimport \"./SigCheck.sol\";\nimport \"./FeePanel.sol\";\nimport \"../ProxyController.sol\";\nimport \"../TransferProxy.sol\";\nimport \"../ERC721/IOxERC721Upgradeable.sol\";\nimport \"@openzeppelin/contracts/token/ERC20/utils/SafeERC20.sol\";\nimport \"@openzeppelin/contracts/token/ERC20/IERC20.sol\";\nimport \"@openzeppelin/contracts/security/ReentrancyGuard.sol\";\n\ncontract Exchange is ReentrancyGuard, SigCheck, FeePanel {\n    mapping(bytes32 => bool) private isCancelledOrFinished;\n\n    ProxyController proxyController;\n\n    event orderMatched(LibOrder.Order buyOrder, LibOrder.Order sellOrder);\n    event orderCancelled(LibOrder.Order, address indexed maker);\n\n    constructor(address _address) {\n        proxyController = ProxyController(_address);\n    }\n\n    function cancelOrder(LibOrder.Order memory order) external {\n        require(\n            order.maker == msg.sender,\n            \"order must be cancelled by its maker\"\n        );\n        isCancelledOrFinished[LibOrder.hash(order)] = true;\n        emit orderCancelled(order, msg.sender);\n    }\n\n    // return true if order has been finished or cancelled\n    function checkOrderStatus(LibOrder.Order memory order)\n        external\n        view\n        returns (bool)\n    {\n        if (!isCancelledOrFinished[LibOrder.hash(order)]) {\n            return true;\n        } else {\n            return false;\n        }\n    }\n\n    function matchAndExecuteOrder(\n        LibOrder.Order memory buyOrder,\n        bytes memory buyOrderSig,\n        LibOrder.Order memory sellOrder,\n        bytes memory sellOrderSig\n    ) external payable nonReentrant {\n        _signatureValidation(buyOrder, buyOrderSig, sellOrder, sellOrderSig);\n        _orderValidation(buyOrder, sellOrder);\n        _executeOrder(buyOrder, sellOrder);\n        _afterExecute(buyOrder, sellOrder);\n    }\n\n    function _signatureValidation(\n        LibOrder.Order memory buyOrder,\n        bytes memory buyOrderSig,\n        LibOrder.Order memory sellOrder,\n        bytes memory sellOrderSig\n    ) internal pure {\n        bytes32 buyOrderHash = LibOrder.hash(buyOrder);\n        bytes32 sellOrderHash = LibOrder.hash(sellOrder);\n\n        require(\n            LibSignature.recover(buyOrderHash, buyOrderSig) == buyOrder.maker,\n            \"buyOrder signature validation failed\"\n        );\n        require(\n            LibSignature.recover(sellOrderHash, sellOrderSig) ==\n                sellOrder.maker,\n            \"sellOrder signature validation failed\"\n        );\n    }\n\n    function _orderValidation(\n        LibOrder.Order memory buyOrder,\n        LibOrder.Order memory sellOrder\n    ) internal view {\n        require(\n            buyOrder.exchange == address(this) &&\n                sellOrder.exchange == address(this),\n            \"order does does not match exchange address\"\n        );\n        require(\n            buyOrder.isBuyer == true && sellOrder.isBuyer == false,\n            \"order buy/sell side does not match\"\n        );\n        require(\n            buyOrder.isAuction == sellOrder.isAuction,\n            \"order transaction type does not match\"\n        );\n        if (buyOrder.isAuction == true) {\n            require(\n                msg.sender == sellOrder.maker,\n                \"auction transaction must be executed by the seller\"\n            );\n        } else {\n            require(\n                msg.sender == buyOrder.maker,\n                \"non-auction transaction must be executed by the buyer\"\n            );\n        }\n        require(\n            buyOrder.buyAsset.assetClass == sellOrder.buyAsset.assetClass,\n            \"order buyAsset assetClass does not match\"\n        );\n        require(\n            buyOrder.buyAsset.contractAddress ==\n                sellOrder.buyAsset.contractAddress,\n            \"order buyAsset contractAddress does not match\"\n        );\n        require(\n            buyOrder.buyAsset.value >= sellOrder.buyAsset.value,\n            \"buyOrder bid price must be no less than the seller's ask price\"\n        );\n        require(\n            buyOrder.nftAsset.contractAddress ==\n                sellOrder.nftAsset.contractAddress,\n            \"order NFT contractAddress does not match\"\n        );\n        require(\n            buyOrder.nftAsset.tokenId == sellOrder.nftAsset.tokenId,\n            \"order tokenId does not match\"\n        );\n        require(\n            buyOrder.end >= block.timestamp && sellOrder.end >= block.timestamp,\n            \"either order has expired\"\n        );\n        require(\n            isCancelledOrFinished[LibOrder.hash(buyOrder)] == false &&\n                isCancelledOrFinished[LibOrder.hash(sellOrder)] == false,\n            \"either order has been cancelled or finishd\"\n        );\n    }\n\n    function _afterExecute(\n        LibOrder.Order memory buyOrder,\n        LibOrder.Order memory sellOrder\n    ) internal {\n        isCancelledOrFinished[LibOrder.hash(buyOrder)] = true;\n        isCancelledOrFinished[LibOrder.hash(sellOrder)] = true;\n        // if the seller of the nft is creator, he can change the patent fee rate\n        address creator = IOxERC721Upgradeable(\n            sellOrder.nftAsset.contractAddress\n        ).creatorOf(sellOrder.nftAsset.tokenId);\n        if (sellOrder.maker == creator) {\n            _changePatentFee(\n                sellOrder.nftAsset.contractAddress,\n                sellOrder.nftAsset.tokenId,\n                sellOrder.nftAsset.patentFee\n            );\n        }\n\n        emit orderMatched(buyOrder, sellOrder);\n    }\n\n    function _executeOrder(\n        LibOrder.Order memory buyOrder,\n        LibOrder.Order memory sellOrder\n    ) internal {\n        address nftContract = sellOrder.nftAsset.contractAddress;\n        address tokenContract = buyOrder.buyAsset.contractAddress;\n        uint256 tokenId = sellOrder.nftAsset.tokenId;\n        address creator = IOxERC721Upgradeable(nftContract).creatorOf(tokenId);\n        uint256 amountToPay = buyOrder.buyAsset.value;\n        uint256 patentFee = patentFeeOf[nftContract][tokenId];\n        // pay by ether (non-auction only)\n        if (buyOrder.buyAsset.assetClass == bytes4(keccak256(\"ETH\"))) {\n            require(\n                msg.value == amountToPay,\n                \"ether amount does not match buy order value\"\n            );\n            uint256 remainValue = amountToPay;\n            // transfer platform fee\n            if (platformFee != 0) {\n                uint256 _platformFee = (amountToPay / 10000) * platformFee;\n                payable(recipient).transfer(_platformFee);\n                remainValue = amountToPay - _platformFee;\n            }\n            // transfer patent fee\n            if (patentFee != 0) {\n                uint256 _patentFee = (amountToPay / 10000) * patentFee;\n                payable(IOxERC721Upgradeable(nftContract).creatorOf(tokenId))\n                    .transfer(_patentFee);\n                remainValue = remainValue - _patentFee;\n            }\n            if (remainValue != 0) {\n                // transfer asset to the seller\n                sellOrder.maker.transfer(remainValue);\n            }\n        }\n        //  pay by erc20 (non-auction and auction)\n        else if (buyOrder.buyAsset.assetClass == bytes4(keccak256(\"ERC20\"))) {\n            require(\n                msg.value == 0,\n                \"sending ether not allowed in ERC20 order\"\n            );\n            uint256 remainValue = amountToPay;\n            // transfer platform fee\n            if (platformFee != 0) {\n                uint256 _platformFee = (amountToPay / 10000) * platformFee;\n                SafeERC20.safeTransferFrom(\n                    IERC20(tokenContract),\n                    buyOrder.maker,\n                    recipient,\n                    _platformFee\n                );\n                remainValue = amountToPay - _platformFee;\n            }\n            // transfer patent fee\n            if (patentFee != 0) {\n                uint256 _patentFee = (amountToPay / 10000) * patentFee;\n                SafeERC20.safeTransferFrom(\n                    IERC20(tokenContract),\n                    buyOrder.maker,\n                    creator,\n                    _patentFee\n                );\n                remainValue = remainValue - _patentFee;\n            }\n            if (remainValue != 0) {\n                // transfer token to the seller\n                SafeERC20.safeTransferFrom(\n                    IERC20(tokenContract),\n                    buyOrder.maker,\n                    sellOrder.maker,\n                    remainValue\n                );\n            }\n        } else {\n            revert(\"unauthenticated asset type not allowed\");\n        }\n\n        // deliver nft\n        TransferProxy(proxyController.transferProxy()).safeTransferFrom(\n            sellOrder.nftAsset.contractAddress,\n            sellOrder.maker,\n            buyOrder.maker,\n            sellOrder.nftAsset.tokenId\n        );\n    }\n}\n",
  "sourcePath": "/Users/aolin/Projects/OxERC721/contracts/exchange/Exchange.sol",
  "compiler": {
    "name": "solc",
    "version": "0.8.2+commit.661d1103.Emscripten.clang"
  },
  "schemaVersion": "3.4.1",
  "updatedAt": "2021-08-20T10:39:13.186Z",
  "networkType": "ethereum",
  "devdoc": {
    "kind": "dev",
    "methods": {
      "owner()": {
        "details": "Returns the address of the current owner."
      },
      "renounceOwnership()": {
        "details": "Leaves the contract without owner. It will not be possible to call `onlyOwner` functions anymore. Can only be called by the current owner. NOTE: Renouncing ownership will leave the contract without an owner, thereby removing any functionality that is only available to the owner."
      },
      "transferOwnership(address)": {
        "details": "Transfers ownership of the contract to a new account (`newOwner`). Can only be called by the current owner."
      }
    },
    "version": 1
  },
  "userdoc": {
    "kind": "user",
    "methods": {},
    "version": 1
  }
}