{
  "contractName": "ProxyController",
  "abi": [
    {
      "anonymous": false,
      "inputs": [
        {
          "indexed": true,
          "internalType": "address",
          "name": "previousOwner",
          "type": "address"
        },
        {
          "indexed": true,
          "internalType": "address",
          "name": "newOwner",
          "type": "address"
        }
      ],
      "name": "OwnershipTransferred",
      "type": "event"
    },
    {
      "inputs": [
        {
          "internalType": "contract TransparentUpgradeableProxy",
          "name": "proxy",
          "type": "address"
        },
        {
          "internalType": "address",
          "name": "newAdmin",
          "type": "address"
        }
      ],
      "name": "changeProxyAdmin",
      "outputs": [],
      "stateMutability": "nonpayable",
      "type": "function"
    },
    {
      "inputs": [
        {
          "internalType": "address",
          "name": "",
          "type": "address"
        }
      ],
      "name": "contracts",
      "outputs": [
        {
          "internalType": "bool",
          "name": "",
          "type": "bool"
        }
      ],
      "stateMutability": "view",
      "type": "function",
      "constant": true
    },
    {
      "inputs": [
        {
          "internalType": "contract TransparentUpgradeableProxy",
          "name": "proxy",
          "type": "address"
        }
      ],
      "name": "getProxyAdmin",
      "outputs": [
        {
          "internalType": "address",
          "name": "",
          "type": "address"
        }
      ],
      "stateMutability": "view",
      "type": "function",
      "constant": true
    },
    {
      "inputs": [
        {
          "internalType": "contract TransparentUpgradeableProxy",
          "name": "proxy",
          "type": "address"
        }
      ],
      "name": "getProxyImplementation",
      "outputs": [
        {
          "internalType": "address",
          "name": "",
          "type": "address"
        }
      ],
      "stateMutability": "view",
      "type": "function",
      "constant": true
    },
    {
      "inputs": [],
      "name": "owner",
      "outputs": [
        {
          "internalType": "address",
          "name": "",
          "type": "address"
        }
      ],
      "stateMutability": "view",
      "type": "function",
      "constant": true
    },
    {
      "inputs": [],
      "name": "renounceOwnership",
      "outputs": [],
      "stateMutability": "nonpayable",
      "type": "function"
    },
    {
      "inputs": [
        {
          "internalType": "address",
          "name": "newOwner",
          "type": "address"
        }
      ],
      "name": "transferOwnership",
      "outputs": [],
      "stateMutability": "nonpayable",
      "type": "function"
    },
    {
      "inputs": [],
      "name": "transferProxy",
      "outputs": [
        {
          "internalType": "address",
          "name": "",
          "type": "address"
        }
      ],
      "stateMutability": "view",
      "type": "function",
      "constant": true
    },
    {
      "inputs": [
        {
          "internalType": "contract TransparentUpgradeableProxy",
          "name": "proxy",
          "type": "address"
        },
        {
          "internalType": "address",
          "name": "implementation",
          "type": "address"
        }
      ],
      "name": "upgrade",
      "outputs": [],
      "stateMutability": "nonpayable",
      "type": "function"
    },
    {
      "inputs": [
        {
          "internalType": "contract TransparentUpgradeableProxy",
          "name": "proxy",
          "type": "address"
        },
        {
          "internalType": "address",
          "name": "implementation",
          "type": "address"
        },
        {
          "internalType": "bytes",
          "name": "data",
          "type": "bytes"
        }
      ],
      "name": "upgradeAndCall",
      "outputs": [],
      "stateMutability": "payable",
      "type": "function",
      "payable": true
    },
    {
      "inputs": [
        {
          "internalType": "address",
          "name": "_address",
          "type": "address"
        }
      ],
      "name": "grantAuthentication",
      "outputs": [],
      "stateMutability": "nonpayable",
      "type": "function"
    },
    {
      "inputs": [
        {
          "internalType": "address",
          "name": "_address",
          "type": "address"
        }
      ],
      "name": "revokeAuthentication",
      "outputs": [],
      "stateMutability": "nonpayable",
      "type": "function"
    },
    {
      "inputs": [
        {
          "internalType": "address",
          "name": "_transferProxy",
          "type": "address"
        }
      ],
      "name": "setProxy",
      "outputs": [],
      "stateMutability": "nonpayable",
      "type": "function"
    }
  ],
  "bytecode": "0x608060405234801561001057600080fd5b5061002d61002261003260201b60201c565b61003a60201b60201c565b6100fe565b600033905090565b60008060009054906101000a900473ffffffffffffffffffffffffffffffffffffffff169050816000806101000a81548173ffffffffffffffffffffffffffffffffffffffff021916908373ffffffffffffffffffffffffffffffffffffffff1602179055508173ffffffffffffffffffffffffffffffffffffffff168173ffffffffffffffffffffffffffffffffffffffff167f8be0079c531659141344cd1fd0a4f28419497f9722a3daafe3b4186f6b6457e060405160405180910390a35050565b6114b08061010d6000396000f3fe6080604052600436106100c25760003560e01c80638da5cb5b1161007f57806399a88ec41161005957806399a88ec414610245578063d1fcfdb81461026e578063f2fde38b14610297578063f3b7dead146102c0576100c2565b80638da5cb5b146101d55780639623609d1461020057806397107d6d1461021c576100c2565b8063204e1c7a146100c757806353376d1f1461010457806369dc9ff31461012d5780636e667db31461016a578063715018a6146101955780637eff275e146101ac575b600080fd5b3480156100d357600080fd5b506100ee60048036038101906100e99190610e25565b6102fd565b6040516100fb9190611044565b60405180910390f35b34801561011057600080fd5b5061012b60048036038101906101269190610dd3565b610391565b005b34801561013957600080fd5b50610154600480360381019061014f9190610dd3565b6104f4565b604051610161919061108f565b60405180910390f35b34801561017657600080fd5b5061017f610514565b60405161018c9190611044565b60405180910390f35b3480156101a157600080fd5b506101aa61053a565b005b3480156101b857600080fd5b506101d360048036038101906101ce9190610e4e565b6105c2565b005b3480156101e157600080fd5b506101ea6106ad565b6040516101f79190611044565b60405180910390f35b61021a60048036038101906102159190610e8a565b6106d6565b005b34801561022857600080fd5b50610243600480360381019061023e9190610dd3565b6107c5565b005b34801561025157600080fd5b5061026c60048036038101906102679190610e4e565b610885565b005b34801561027a57600080fd5b5061029560048036038101906102909190610dd3565b610970565b005b3480156102a357600080fd5b506102be60048036038101906102b99190610dd3565b610ad4565b005b3480156102cc57600080fd5b506102e760048036038101906102e29190610e25565b610bcc565b6040516102f49190611044565b60405180910390f35b60008060008373ffffffffffffffffffffffffffffffffffffffff166040516103259061101a565b600060405180830381855afa9150503d8060008114610360576040519150601f19603f3d011682016040523d82523d6000602084013e610365565b606091505b50915091508161037457600080fd5b808060200190518101906103889190610dfc565b92505050919050565b610399610c60565b73ffffffffffffffffffffffffffffffffffffffff166103b76106ad565b73ffffffffffffffffffffffffffffffffffffffff161461040d576040517f08c379a0000000000000000000000000000000000000000000000000000000008152600401610404906110ea565b60405180910390fd5b600260008273ffffffffffffffffffffffffffffffffffffffff1673ffffffffffffffffffffffffffffffffffffffff16815260200190815260200160002060009054906101000a900460ff16610499576040517f08c379a00000000000000000000000000000000000000000000000000000000081526004016104909061110a565b60405180910390fd5b6000600260008373ffffffffffffffffffffffffffffffffffffffff1673ffffffffffffffffffffffffffffffffffffffff16815260200190815260200160002060006101000a81548160ff02191690831515021790555050565b60026020528060005260406000206000915054906101000a900460ff1681565b600160009054906101000a900473ffffffffffffffffffffffffffffffffffffffff1681565b610542610c60565b73ffffffffffffffffffffffffffffffffffffffff166105606106ad565b73ffffffffffffffffffffffffffffffffffffffff16146105b6576040517f08c379a00000000000000000000000000000000000000000000000000000000081526004016105ad906110ea565b60405180910390fd5b6105c06000610c68565b565b6105ca610c60565b73ffffffffffffffffffffffffffffffffffffffff166105e86106ad565b73ffffffffffffffffffffffffffffffffffffffff161461063e576040517f08c379a0000000000000000000000000000000000000000000000000000000008152600401610635906110ea565b60405180910390fd5b8173ffffffffffffffffffffffffffffffffffffffff16638f283970826040518263ffffffff1660e01b81526004016106779190611044565b600060405180830381600087803b15801561069157600080fd5b505af11580156106a5573d6000803e3d6000fd5b505050505050565b60008060009054906101000a900473ffffffffffffffffffffffffffffffffffffffff16905090565b6106de610c60565b73ffffffffffffffffffffffffffffffffffffffff166106fc6106ad565b73ffffffffffffffffffffffffffffffffffffffff1614610752576040517f08c379a0000000000000000000000000000000000000000000000000000000008152600401610749906110ea565b60405180910390fd5b8273ffffffffffffffffffffffffffffffffffffffff16634f1ef2863484846040518463ffffffff1660e01b815260040161078e92919061105f565b6000604051808303818588803b1580156107a757600080fd5b505af11580156107bb573d6000803e3d6000fd5b5050505050505050565b6107cd610c60565b73ffffffffffffffffffffffffffffffffffffffff166107eb6106ad565b73ffffffffffffffffffffffffffffffffffffffff1614610841576040517f08c379a0000000000000000000000000000000000000000000000000000000008152600401610838906110ea565b60405180910390fd5b80600160006101000a81548173ffffffffffffffffffffffffffffffffffffffff021916908373ffffffffffffffffffffffffffffffffffffffff16021790555050565b61088d610c60565b73ffffffffffffffffffffffffffffffffffffffff166108ab6106ad565b73ffffffffffffffffffffffffffffffffffffffff1614610901576040517f08c379a00000000000000000000000000000000000000000000000000000000081526004016108f8906110ea565b60405180910390fd5b8173ffffffffffffffffffffffffffffffffffffffff16633659cfe6826040518263ffffffff1660e01b815260040161093a9190611044565b600060405180830381600087803b15801561095457600080fd5b505af1158015610968573d6000803e3d6000fd5b505050505050565b610978610c60565b73ffffffffffffffffffffffffffffffffffffffff166109966106ad565b73ffffffffffffffffffffffffffffffffffffffff16146109ec576040517f08c379a00000000000000000000000000000000000000000000000000000000081526004016109e3906110ea565b60405180910390fd5b600260008273ffffffffffffffffffffffffffffffffffffffff1673ffffffffffffffffffffffffffffffffffffffff16815260200190815260200160002060009054906101000a900460ff1615610a79576040517f08c379a0000000000000000000000000000000000000000000000000000000008152600401610a70906110aa565b60405180910390fd5b6001600260008373ffffffffffffffffffffffffffffffffffffffff1673ffffffffffffffffffffffffffffffffffffffff16815260200190815260200160002060006101000a81548160ff02191690831515021790555050565b610adc610c60565b73ffffffffffffffffffffffffffffffffffffffff16610afa6106ad565b73ffffffffffffffffffffffffffffffffffffffff1614610b50576040517f08c379a0000000000000000000000000000000000000000000000000000000008152600401610b47906110ea565b60405180910390fd5b600073ffffffffffffffffffffffffffffffffffffffff168173ffffffffffffffffffffffffffffffffffffffff161415610bc0576040517f08c379a0000000000000000000000000000000000000000000000000000000008152600401610bb7906110ca565b60405180910390fd5b610bc981610c68565b50565b60008060008373ffffffffffffffffffffffffffffffffffffffff16604051610bf49061102f565b600060405180830381855afa9150503d8060008114610c2f576040519150601f19603f3d011682016040523d82523d6000602084013e610c34565b606091505b509150915081610c4357600080fd5b80806020019051810190610c579190610dfc565b92505050919050565b600033905090565b60008060009054906101000a900473ffffffffffffffffffffffffffffffffffffffff169050816000806101000a81548173ffffffffffffffffffffffffffffffffffffffff021916908373ffffffffffffffffffffffffffffffffffffffff1602179055508173ffffffffffffffffffffffffffffffffffffffff168173ffffffffffffffffffffffffffffffffffffffff167f8be0079c531659141344cd1fd0a4f28419497f9722a3daafe3b4186f6b6457e060405160405180910390a35050565b6000610d3f610d3a8461114f565b61112a565b905082815260208101848484011115610d5757600080fd5b610d6284828561121a565b509392505050565b600081359050610d7981611435565b92915050565b600081519050610d8e8161144c565b92915050565b600082601f830112610da557600080fd5b8135610db5848260208601610d2c565b91505092915050565b600081359050610dcd81611463565b92915050565b600060208284031215610de557600080fd5b6000610df384828501610d6a565b91505092915050565b600060208284031215610e0e57600080fd5b6000610e1c84828501610d7f565b91505092915050565b600060208284031215610e3757600080fd5b6000610e4584828501610dbe565b91505092915050565b60008060408385031215610e6157600080fd5b6000610e6f85828601610dbe565b9250506020610e8085828601610d6a565b9150509250929050565b600080600060608486031215610e9f57600080fd5b6000610ead86828701610dbe565b9350506020610ebe86828701610d6a565b925050604084013567ffffffffffffffff811115610edb57600080fd5b610ee786828701610d94565b9150509250925092565b610efa816111b8565b82525050565b610f09816111dc565b82525050565b6000610f1a82611180565b610f24818561118b565b9350610f34818560208601611229565b610f3d816112bc565b840191505092915050565b6000610f55602b836111a7565b9150610f60826112cd565b604082019050919050565b6000610f786026836111a7565b9150610f838261131c565b604082019050919050565b6000610f9b60048361119c565b9150610fa68261136b565b600482019050919050565b6000610fbe6020836111a7565b9150610fc982611394565b602082019050919050565b6000610fe160048361119c565b9150610fec826113bd565b600482019050919050565b60006110046027836111a7565b915061100f826113e6565b604082019050919050565b600061102582610f8e565b9150819050919050565b600061103a82610fd4565b9150819050919050565b60006020820190506110596000830184610ef1565b92915050565b60006040820190506110746000830185610ef1565b81810360208301526110868184610f0f565b90509392505050565b60006020820190506110a46000830184610f00565b92915050565b600060208201905081810360008301526110c381610f48565b9050919050565b600060208201905081810360008301526110e381610f6b565b9050919050565b6000602082019050818103600083015261110381610fb1565b9050919050565b6000602082019050818103600083015261112381610ff7565b9050919050565b6000611134611145565b9050611140828261125c565b919050565b6000604051905090565b600067ffffffffffffffff82111561116a5761116961128d565b5b611173826112bc565b9050602081019050919050565b600081519050919050565b600082825260208201905092915050565b600081905092915050565b600082825260208201905092915050565b60006111c3826111fa565b9050919050565b60006111d5826111fa565b9050919050565b60008115159050919050565b60006111f3826111ca565b9050919050565b600073ffffffffffffffffffffffffffffffffffffffff82169050919050565b82818337600083830152505050565b60005b8381101561124757808201518184015260208101905061122c565b83811115611256576000848401525b50505050565b611265826112bc565b810181811067ffffffffffffffff821117156112845761128361128d565b5b80604052505050565b7f4e487b7100000000000000000000000000000000000000000000000000000000600052604160045260246000fd5b6000601f19601f8301169050919050565b7f7468697320616464726573732068617320616c7265616479206265656e20617560008201527f7468656e74696361746564000000000000000000000000000000000000000000602082015250565b7f4f776e61626c653a206e6577206f776e657220697320746865207a65726f206160008201527f6464726573730000000000000000000000000000000000000000000000000000602082015250565b7f5c60da1b00000000000000000000000000000000000000000000000000000000600082015250565b7f4f776e61626c653a2063616c6c6572206973206e6f7420746865206f776e6572600082015250565b7ff851a44000000000000000000000000000000000000000000000000000000000600082015250565b7f74686973206164647265737320686173206e6f74206265656e2061757468656e60008201527f7469636174656400000000000000000000000000000000000000000000000000602082015250565b61143e816111b8565b811461144957600080fd5b50565b611455816111ca565b811461146057600080fd5b50565b61146c816111e8565b811461147757600080fd5b5056fea264697066735822122076fb66dc7e4ea3bdd77576924b522b8dfdf6ec26c83675a8f7f24565d2cd40a464736f6c63430008020033",
  "immutableReferences": {},
  "source": "// SPDX-License-Identifier: MIT\n\npragma solidity ^0.8.0;\n\nimport \"@openzeppelin/contracts/access/Ownable.sol\";\nimport \"@openzeppelin/contracts/proxy/transparent/ProxyAdmin.sol\";\n \ncontract ProxyController is ProxyAdmin {\n    address public transferProxy;\n    mapping(address => bool) public contracts;\n\n    /**\n     * @dev authenticate a contract that can call transferProxy instantly.\n     * @param _address to authenticate\n     */\n    function grantAuthentication(address _address) public onlyOwner {\n        require(!contracts[_address], \"this address has already been authenticated\");\n        contracts[_address] = true;\n    }\n\n\n    function revokeAuthentication(address _address) external onlyOwner {\n        require(contracts[_address], \"this address has not been authenticated\");\n        contracts[_address] = false;\n    }\n\n    function setProxy(address _transferProxy) external onlyOwner {\n        transferProxy = _transferProxy;\n    }\n\n    \n}\n",
  "sourcePath": "/Users/aolin/Projects/OxERC721/contracts/ProxyController.sol",
  "compiler": {
    "name": "solc",
    "version": "0.8.2+commit.661d1103.Emscripten.clang"
  },
  "schemaVersion": "3.4.1",
  "updatedAt": "2021-08-20T10:39:13.156Z",
  "networkType": "ethereum",
  "devdoc": {
    "kind": "dev",
    "methods": {
      "changeProxyAdmin(address,address)": {
        "details": "Changes the admin of `proxy` to `newAdmin`. Requirements: - This contract must be the current admin of `proxy`."
      },
      "getProxyAdmin(address)": {
        "details": "Returns the current admin of `proxy`. Requirements: - This contract must be the admin of `proxy`."
      },
      "getProxyImplementation(address)": {
        "details": "Returns the current implementation of `proxy`. Requirements: - This contract must be the admin of `proxy`."
      },
      "grantAuthentication(address)": {
        "details": "authenticate a contract that can call transferProxy instantly.",
        "params": {
          "_address": "to authenticate"
        }
      },
      "owner()": {
        "details": "Returns the address of the current owner."
      },
      "renounceOwnership()": {
        "details": "Leaves the contract without owner. It will not be possible to call `onlyOwner` functions anymore. Can only be called by the current owner. NOTE: Renouncing ownership will leave the contract without an owner, thereby removing any functionality that is only available to the owner."
      },
      "transferOwnership(address)": {
        "details": "Transfers ownership of the contract to a new account (`newOwner`). Can only be called by the current owner."
      },
      "upgrade(address,address)": {
        "details": "Upgrades `proxy` to `implementation`. See {TransparentUpgradeableProxy-upgradeTo}. Requirements: - This contract must be the admin of `proxy`."
      },
      "upgradeAndCall(address,address,bytes)": {
        "details": "Upgrades `proxy` to `implementation` and calls a function on the new implementation. See {TransparentUpgradeableProxy-upgradeToAndCall}. Requirements: - This contract must be the admin of `proxy`."
      }
    },
    "version": 1
  },
  "userdoc": {
    "kind": "user",
    "methods": {},
    "version": 1
  }
}