{
  "contractName": "TransferProxy",
  "abi": [
    {
      "inputs": [
        {
          "internalType": "address",
          "name": "_address",
          "type": "address"
        }
      ],
      "stateMutability": "nonpayable",
      "type": "constructor"
    },
    {
      "anonymous": false,
      "inputs": [
        {
          "indexed": true,
          "internalType": "address",
          "name": "_address",
          "type": "address"
        },
        {
          "indexed": false,
          "internalType": "bool",
          "name": "",
          "type": "bool"
        }
      ],
      "name": "proxyDisabled",
      "type": "event"
    },
    {
      "inputs": [
        {
          "internalType": "address",
          "name": "",
          "type": "address"
        }
      ],
      "name": "isDisabled",
      "outputs": [
        {
          "internalType": "bool",
          "name": "",
          "type": "bool"
        }
      ],
      "stateMutability": "view",
      "type": "function",
      "constant": true
    },
    {
      "inputs": [],
      "name": "proxyController",
      "outputs": [
        {
          "internalType": "contract ProxyController",
          "name": "",
          "type": "address"
        }
      ],
      "stateMutability": "view",
      "type": "function",
      "constant": true
    },
    {
      "inputs": [
        {
          "internalType": "address",
          "name": "_token",
          "type": "address"
        },
        {
          "internalType": "address",
          "name": "_from",
          "type": "address"
        },
        {
          "internalType": "address",
          "name": "_to",
          "type": "address"
        },
        {
          "internalType": "uint256",
          "name": "tokenId",
          "type": "uint256"
        }
      ],
      "name": "safeTransferFrom",
      "outputs": [],
      "stateMutability": "nonpayable",
      "type": "function"
    },
    {
      "inputs": [
        {
          "internalType": "bool",
          "name": "_bool",
          "type": "bool"
        }
      ],
      "name": "disable",
      "outputs": [],
      "stateMutability": "nonpayable",
      "type": "function"
    }
  ],
  "bytecode": "0x608060405234801561001057600080fd5b506040516108d03803806108d08339818101604052810190610032919061008e565b80600160006101000a81548173ffffffffffffffffffffffffffffffffffffffff021916908373ffffffffffffffffffffffffffffffffffffffff16021790555050610100565b600081519050610088816100e9565b92915050565b6000602082840312156100a057600080fd5b60006100ae84828501610079565b91505092915050565b60006100c2826100c9565b9050919050565b600073ffffffffffffffffffffffffffffffffffffffff82169050919050565b6100f2816100b7565b81146100fd57600080fd5b50565b6107c18061010f6000396000f3fe608060405234801561001057600080fd5b506004361061004c5760003560e01c80634f6c171d14610051578063a6f2fd5c14610081578063c0a697c91461009d578063d9fc4b61146100bb575b600080fd5b61006b60048036038101906100669190610403565b6100d7565b60405161007891906105b5565b60405180910390f35b61009b6004803603810190610096919061048f565b6100f7565b005b6100a561019e565b6040516100b291906105d0565b60405180910390f35b6100d560048036038101906100d0919061042c565b6101c4565b005b60006020528060005260406000206000915054906101000a900460ff1681565b806000803373ffffffffffffffffffffffffffffffffffffffff1673ffffffffffffffffffffffffffffffffffffffff16815260200190815260200160002060006101000a81548160ff0219169083151502179055503373ffffffffffffffffffffffffffffffffffffffff167f3be54fd0f8f5bca4381495356a636b51642f3d92c805045585febdeff18dd2548260405161019391906105b5565b60405180910390a250565b600160009054906101000a900473ffffffffffffffffffffffffffffffffffffffff1681565b6000808473ffffffffffffffffffffffffffffffffffffffff1673ffffffffffffffffffffffffffffffffffffffff16815260200190815260200160002060009054906101000a900460ff1615610250576040517f08c379a00000000000000000000000000000000000000000000000000000000081526004016102479061060b565b60405180910390fd5b600160009054906101000a900473ffffffffffffffffffffffffffffffffffffffff1673ffffffffffffffffffffffffffffffffffffffff166369dc9ff3336040518263ffffffff1660e01b81526004016102ab9190610563565b60206040518083038186803b1580156102c357600080fd5b505afa1580156102d7573d6000803e3d6000fd5b505050506040513d601f19601f820116820180604052508101906102fb91906104b8565b61033a576040517f08c379a0000000000000000000000000000000000000000000000000000000008152600401610331906105eb565b60405180910390fd5b8373ffffffffffffffffffffffffffffffffffffffff166342842e0e8484846040518463ffffffff1660e01b81526004016103779392919061057e565b600060405180830381600087803b15801561039157600080fd5b505af11580156103a5573d6000803e3d6000fd5b5050505050505050565b6000813590506103be81610746565b92915050565b6000813590506103d38161075d565b92915050565b6000815190506103e88161075d565b92915050565b6000813590506103fd81610774565b92915050565b60006020828403121561041557600080fd5b6000610423848285016103af565b91505092915050565b6000806000806080858703121561044257600080fd5b6000610450878288016103af565b9450506020610461878288016103af565b9350506040610472878288016103af565b9250506060610483878288016103ee565b91505092959194509250565b6000602082840312156104a157600080fd5b60006104af848285016103c4565b91505092915050565b6000602082840312156104ca57600080fd5b60006104d8848285016103d9565b91505092915050565b6104ea8161063c565b82525050565b6104f98161064e565b82525050565b61050881610684565b82525050565b600061051b602c8361062b565b9150610526826106a8565b604082019050919050565b600061053e60278361062b565b9150610549826106f7565b604082019050919050565b61055d8161067a565b82525050565b600060208201905061057860008301846104e1565b92915050565b600060608201905061059360008301866104e1565b6105a060208301856104e1565b6105ad6040830184610554565b949350505050565b60006020820190506105ca60008301846104f0565b92915050565b60006020820190506105e560008301846104ff565b92915050565b600060208201905081810360008301526106048161050e565b9050919050565b6000602082019050818103600083015261062481610531565b9050919050565b600082825260208201905092915050565b60006106478261065a565b9050919050565b60008115159050919050565b600073ffffffffffffffffffffffffffffffffffffffff82169050919050565b6000819050919050565b600061068f82610696565b9050919050565b60006106a18261065a565b9050919050565b7f6f6e6c79207265676973746572656420616464726573732063616e207669736960008201527f7420746869732070726f78790000000000000000000000000000000000000000602082015250565b7f746f6b656e206f776e6572206861732064697361626c6564207472616e73666560008201527f722070726f787900000000000000000000000000000000000000000000000000602082015250565b61074f8161063c565b811461075a57600080fd5b50565b6107668161064e565b811461077157600080fd5b50565b61077d8161067a565b811461078857600080fd5b5056fea26469706673582212208fcf3f86c34931f0551bafc249adbca305fa53405b7c2ad7ebb2fccabf841e1564736f6c63430008020033",
  "immutableReferences": {},
  "source": "// SPDX-License-Identifier: MIT\npragma solidity ^0.8.0;\n\nimport \"./ProxyController.sol\";\nabstract contract ERC721 {\n    function safeTransferFrom(\n        address from,\n        address to,\n        uint256 tokenId\n    ) external virtual;\n}\n\ncontract TransferProxy {\n    mapping(address => bool) public isDisabled;\n    ProxyController public proxyController;\n    event proxyDisabled(address indexed _address, bool);\n\n    constructor(address _address) {\n        proxyController = ProxyController(_address);\n    }\n    \n\n    function safeTransferFrom(\n        address _token,\n        address _from,\n        address _to,\n        uint256 tokenId\n    ) external {\n        require(!isDisabled[_from], \"token owner has disabled transfer proxy\");\n        require(proxyController.contracts(msg.sender), \"only registered address can visit this proxy\");\n        ERC721(_token).safeTransferFrom(_from, _to, tokenId);\n    }\n\n    /**\n     * @dev Allow user to manage their proxy status\n     * @param _bool, transferProxy is disabled when the _bool is set to true\n     */\n    function disable(bool _bool) external {\n        isDisabled[msg.sender] = _bool;\n        emit proxyDisabled(msg.sender, _bool);\n    }\n}\n",
  "sourcePath": "/Users/aolin/Projects/OxERC721/contracts/TransferProxy.sol",
  "compiler": {
    "name": "solc",
    "version": "0.8.2+commit.661d1103.Emscripten.clang"
  },
  "schemaVersion": "3.4.1",
  "updatedAt": "2021-08-20T10:39:13.165Z",
  "networkType": "ethereum",
  "devdoc": {
    "kind": "dev",
    "methods": {
      "disable(bool)": {
        "details": "Allow user to manage their proxy status",
        "params": {
          "_bool": ", transferProxy is disabled when the _bool is set to true"
        }
      }
    },
    "version": 1
  },
  "userdoc": {
    "kind": "user",
    "methods": {},
    "version": 1
  }
}