{
  "_format": "hh-sol-artifact-1",
  "contractName": "ERC721Committable",
  "sourceName": "contracts/ERC721/ERC721Committable.sol",
  "abi": [
    {
      "anonymous": false,
      "inputs": [
        {
          "indexed": true,
          "internalType": "address",
          "name": "owner",
          "type": "address"
        },
        {
          "indexed": true,
          "internalType": "address",
          "name": "approved",
          "type": "address"
        },
        {
          "indexed": true,
          "internalType": "uint256",
          "name": "tokenId",
          "type": "uint256"
        }
      ],
      "name": "Approval",
      "type": "event"
    },
    {
      "anonymous": false,
      "inputs": [
        {
          "indexed": true,
          "internalType": "address",
          "name": "owner",
          "type": "address"
        },
        {
          "indexed": true,
          "internalType": "address",
          "name": "operator",
          "type": "address"
        },
        {
          "indexed": false,
          "internalType": "bool",
          "name": "approved",
          "type": "bool"
        }
      ],
      "name": "ApprovalForAll",
      "type": "event"
    },
    {
      "anonymous": false,
      "inputs": [
        {
          "indexed": true,
          "internalType": "address",
          "name": "claimer",
          "type": "address"
        },
        {
          "indexed": true,
          "internalType": "uint256",
          "name": "tokenId",
          "type": "uint256"
        },
        {
          "indexed": false,
          "internalType": "uint96",
          "name": "amount",
          "type": "uint96"
        }
      ],
      "name": "Claim",
      "type": "event"
    },
    {
      "anonymous": false,
      "inputs": [
        {
          "indexed": true,
          "internalType": "address",
          "name": "sponsor",
          "type": "address"
        },
        {
          "indexed": true,
          "internalType": "uint256",
          "name": "tokenId",
          "type": "uint256"
        },
        {
          "indexed": false,
          "internalType": "uint96",
          "name": "amount",
          "type": "uint96"
        }
      ],
      "name": "Fund",
      "type": "event"
    },
    {
      "anonymous": false,
      "inputs": [
        {
          "indexed": false,
          "internalType": "uint8",
          "name": "version",
          "type": "uint8"
        }
      ],
      "name": "Initialized",
      "type": "event"
    },
    {
      "anonymous": false,
      "inputs": [
        {
          "indexed": true,
          "internalType": "address",
          "name": "previousOwner",
          "type": "address"
        },
        {
          "indexed": true,
          "internalType": "address",
          "name": "newOwner",
          "type": "address"
        }
      ],
      "name": "OwnershipTransferred",
      "type": "event"
    },
    {
      "anonymous": false,
      "inputs": [
        {
          "indexed": true,
          "internalType": "address",
          "name": "from",
          "type": "address"
        },
        {
          "indexed": true,
          "internalType": "address",
          "name": "to",
          "type": "address"
        },
        {
          "indexed": true,
          "internalType": "uint256",
          "name": "tokenId",
          "type": "uint256"
        }
      ],
      "name": "Transfer",
      "type": "event"
    },
    {
      "inputs": [],
      "name": "DOMAIN_SEPARATOR",
      "outputs": [
        {
          "internalType": "bytes32",
          "name": "",
          "type": "bytes32"
        }
      ],
      "stateMutability": "view",
      "type": "function"
    },
    {
      "inputs": [
        {
          "internalType": "address",
          "name": "to",
          "type": "address"
        },
        {
          "internalType": "uint256",
          "name": "tokenId",
          "type": "uint256"
        }
      ],
      "name": "approve",
      "outputs": [],
      "stateMutability": "nonpayable",
      "type": "function"
    },
    {
      "inputs": [
        {
          "internalType": "address",
          "name": "owner",
          "type": "address"
        }
      ],
      "name": "balanceOf",
      "outputs": [
        {
          "internalType": "uint256",
          "name": "",
          "type": "uint256"
        }
      ],
      "stateMutability": "view",
      "type": "function"
    },
    {
      "inputs": [],
      "name": "baseURI",
      "outputs": [
        {
          "internalType": "string",
          "name": "",
          "type": "string"
        }
      ],
      "stateMutability": "view",
      "type": "function"
    },
    {
      "inputs": [
        {
          "internalType": "string",
          "name": "newURI",
          "type": "string"
        }
      ],
      "name": "changeBaseURI",
      "outputs": [],
      "stateMutability": "nonpayable",
      "type": "function"
    },
    {
      "inputs": [
        {
          "internalType": "uint256",
          "name": "tokenId",
          "type": "uint256"
        }
      ],
      "name": "claim",
      "outputs": [],
      "stateMutability": "nonpayable",
      "type": "function"
    },
    {
      "inputs": [
        {
          "internalType": "uint256",
          "name": "tokenId",
          "type": "uint256"
        }
      ],
      "name": "fund",
      "outputs": [],
      "stateMutability": "payable",
      "type": "function"
    },
    {
      "inputs": [
        {
          "internalType": "uint256",
          "name": "tokenId",
          "type": "uint256"
        }
      ],
      "name": "fundsOf",
      "outputs": [
        {
          "internalType": "uint96",
          "name": "",
          "type": "uint96"
        }
      ],
      "stateMutability": "view",
      "type": "function"
    },
    {
      "inputs": [
        {
          "internalType": "uint256",
          "name": "tokenId",
          "type": "uint256"
        }
      ],
      "name": "getApproved",
      "outputs": [
        {
          "internalType": "address",
          "name": "",
          "type": "address"
        }
      ],
      "stateMutability": "view",
      "type": "function"
    },
    {
      "inputs": [
        {
          "internalType": "string",
          "name": "_name",
          "type": "string"
        },
        {
          "internalType": "string",
          "name": "_symbol",
          "type": "string"
        },
        {
          "internalType": "address",
          "name": "controller",
          "type": "address"
        }
      ],
      "name": "initialize",
      "outputs": [],
      "stateMutability": "nonpayable",
      "type": "function"
    },
    {
      "inputs": [
        {
          "internalType": "address",
          "name": "tokenOwner",
          "type": "address"
        },
        {
          "internalType": "address",
          "name": "operator",
          "type": "address"
        }
      ],
      "name": "isApprovedForAll",
      "outputs": [
        {
          "internalType": "bool",
          "name": "",
          "type": "bool"
        }
      ],
      "stateMutability": "view",
      "type": "function"
    },
    {
      "inputs": [
        {
          "internalType": "address",
          "name": "creator",
          "type": "address"
        },
        {
          "internalType": "uint256",
          "name": "tokenId",
          "type": "uint256"
        },
        {
          "internalType": "bytes",
          "name": "signature",
          "type": "bytes"
        }
      ],
      "name": "mint",
      "outputs": [],
      "stateMutability": "nonpayable",
      "type": "function"
    },
    {
      "inputs": [],
      "name": "name",
      "outputs": [
        {
          "internalType": "string",
          "name": "",
          "type": "string"
        }
      ],
      "stateMutability": "view",
      "type": "function"
    },
    {
      "inputs": [],
      "name": "owner",
      "outputs": [
        {
          "internalType": "address",
          "name": "",
          "type": "address"
        }
      ],
      "stateMutability": "view",
      "type": "function"
    },
    {
      "inputs": [
        {
          "internalType": "uint256",
          "name": "tokenId",
          "type": "uint256"
        }
      ],
      "name": "ownerOf",
      "outputs": [
        {
          "internalType": "address",
          "name": "",
          "type": "address"
        }
      ],
      "stateMutability": "view",
      "type": "function"
    },
    {
      "inputs": [],
      "name": "renounceOwnership",
      "outputs": [],
      "stateMutability": "nonpayable",
      "type": "function"
    },
    {
      "inputs": [
        {
          "internalType": "address",
          "name": "from",
          "type": "address"
        },
        {
          "internalType": "address",
          "name": "to",
          "type": "address"
        },
        {
          "internalType": "uint256",
          "name": "tokenId",
          "type": "uint256"
        }
      ],
      "name": "safeTransferFrom",
      "outputs": [],
      "stateMutability": "nonpayable",
      "type": "function"
    },
    {
      "inputs": [
        {
          "internalType": "address",
          "name": "from",
          "type": "address"
        },
        {
          "internalType": "address",
          "name": "to",
          "type": "address"
        },
        {
          "internalType": "uint256",
          "name": "tokenId",
          "type": "uint256"
        },
        {
          "internalType": "bytes",
          "name": "_data",
          "type": "bytes"
        }
      ],
      "name": "safeTransferFrom",
      "outputs": [],
      "stateMutability": "nonpayable",
      "type": "function"
    },
    {
      "inputs": [
        {
          "internalType": "address",
          "name": "operator",
          "type": "address"
        },
        {
          "internalType": "bool",
          "name": "approved",
          "type": "bool"
        }
      ],
      "name": "setApprovalForAll",
      "outputs": [],
      "stateMutability": "nonpayable",
      "type": "function"
    },
    {
      "inputs": [
        {
          "internalType": "bytes4",
          "name": "interfaceId",
          "type": "bytes4"
        }
      ],
      "name": "supportsInterface",
      "outputs": [
        {
          "internalType": "bool",
          "name": "",
          "type": "bool"
        }
      ],
      "stateMutability": "view",
      "type": "function"
    },
    {
      "inputs": [],
      "name": "symbol",
      "outputs": [
        {
          "internalType": "string",
          "name": "",
          "type": "string"
        }
      ],
      "stateMutability": "view",
      "type": "function"
    },
    {
      "inputs": [
        {
          "internalType": "uint256",
          "name": "tokenId",
          "type": "uint256"
        }
      ],
      "name": "tokenURI",
      "outputs": [
        {
          "internalType": "string",
          "name": "",
          "type": "string"
        }
      ],
      "stateMutability": "view",
      "type": "function"
    },
    {
      "inputs": [],
      "name": "totalSupply",
      "outputs": [
        {
          "internalType": "uint256",
          "name": "",
          "type": "uint256"
        }
      ],
      "stateMutability": "view",
      "type": "function"
    },
    {
      "inputs": [
        {
          "internalType": "address",
          "name": "from",
          "type": "address"
        },
        {
          "internalType": "address",
          "name": "to",
          "type": "address"
        },
        {
          "internalType": "uint256",
          "name": "tokenId",
          "type": "uint256"
        }
      ],
      "name": "transferFrom",
      "outputs": [],
      "stateMutability": "nonpayable",
      "type": "function"
    },
    {
      "inputs": [
        {
          "internalType": "address",
          "name": "newOwner",
          "type": "address"
        }
      ],
      "name": "transferOwnership",
      "outputs": [],
      "stateMutability": "nonpayable",
      "type": "function"
    }
  ],
  "bytecode": "0x608060405234801561001057600080fd5b506123eb806100206000396000f3fe6080604052600436106101965760003560e01c80636c0360eb116100e1578063a22cb4651161008a578063c87b56dd11610064578063c87b56dd146104bf578063ca1d209d146104df578063e985e9c5146104f2578063f2fde38b1461051257600080fd5b8063a22cb46514610420578063b76c94e114610440578063b88d4fde1461049f57600080fd5b80638da5cb5b116100bb5780638da5cb5b146103cd57806394d008ef146103eb57806395d89b411461040b57600080fd5b80636c0360eb1461038357806370a0823114610398578063715018a6146103b857600080fd5b806323b872dd1161014357806339a0c6f91161011d57806339a0c6f91461032357806342842e0e146103435780636352211e1461036357600080fd5b806323b872dd146102cd5780633644e515146102ed578063379607f51461030357600080fd5b8063081812fc11610174578063081812fc14610256578063095ea7b31461028e57806318160ddd146102ae57600080fd5b806301ffc9a71461019b57806306fdde0314610212578063077f224a14610234575b600080fd5b3480156101a757600080fd5b506101fd6101b6366004612052565b7fffffffff00000000000000000000000000000000000000000000000000000000167f01ffc9a7000000000000000000000000000000000000000000000000000000001490565b60405190151581526020015b60405180910390f35b34801561021e57600080fd5b50610227610532565b60405161020991906121e9565b34801561024057600080fd5b5061025461024f3660046120c1565b6105c4565b005b34801561026257600080fd5b50610276610271366004612139565b6107ec565b6040516001600160a01b039091168152602001610209565b34801561029a57600080fd5b506102546102a9366004611fcd565b610892565b3480156102ba57600080fd5b5060ca545b604051908152602001610209565b3480156102d957600080fd5b506102546102e8366004611eed565b6109c4565b3480156102f957600080fd5b506102bf60cc5481565b34801561030f57600080fd5b5061025461031e366004612139565b610a4b565b34801561032f57600080fd5b5061025461033e36600461208c565b610bf1565b34801561034f57600080fd5b5061025461035e366004611eed565b610c10565b34801561036f57600080fd5b5061027661037e366004612139565b610c2b565b34801561038f57600080fd5b50610227610cbc565b3480156103a457600080fd5b506102bf6103b3366004611e7a565b610d4a565b3480156103c457600080fd5b50610254610de4565b3480156103d957600080fd5b506097546001600160a01b0316610276565b3480156103f757600080fd5b50610254610406366004611ff9565b610df8565b34801561041757600080fd5b50610227610e02565b34801561042c57600080fd5b5061025461043b366004611f9a565b610e11565b34801561044c57600080fd5b5061048261045b366004612139565b600090815260676020526040902054600160a01b90046bffffffffffffffffffffffff1690565b6040516bffffffffffffffffffffffff9091168152602001610209565b3480156104ab57600080fd5b506102546104ba366004611f2e565b610e1c565b3480156104cb57600080fd5b506102276104da366004612139565b610ea4565b6102546104ed366004612139565b610f8d565b3480156104fe57600080fd5b506101fd61050d366004611eb4565b61104a565b34801561051e57600080fd5b5061025461052d366004611e7a565b611122565b60606065805461054190612292565b80601f016020809104026020016040519081016040528092919081815260200182805461056d90612292565b80156105ba5780601f1061058f576101008083540402835291602001916105ba565b820191906000526020600020905b81548152906001019060200180831161059d57829003601f168201915b5050505050905090565b600054610100900460ff16158080156105e45750600054600160ff909116105b806105fe5750303b1580156105fe575060005460ff166001145b6106755760405162461bcd60e51b815260206004820152602e60248201527f496e697469616c697a61626c653a20636f6e747261637420697320616c72656160448201527f647920696e697469616c697a656400000000000000000000000000000000000060648201526084015b60405180910390fd5b6000805460ff191660011790558015610698576000805461ff0019166101001790555b6106a06111b2565b6106a86111b2565b6106b2848461121d565b6106ba6112af565b60c9805473ffffffffffffffffffffffffffffffffffffffff19166001600160a01b0384161790558351602080860191909120604080518082018252600181527f31000000000000000000000000000000000000000000000000000000000000009084015280517f8b73c3c69bb8fe3d512ecc4cf759cc79239f7b179b0ffacaa9a75d522b39400f938101939093528201527fc89efdaa54c0f20c7adf612882df0950f5a951637e0307cdcb4c672f298b8bc6606082015246608082018190523060a08301529060c00160408051601f19818403018152919052805160209091012060cc555080156107e6576000805461ff0019169055604051600181527f7f26b83ff96e1f2b6a682f133852f6798a09c465da95921460cefb38474024989060200160405180910390a15b50505050565b6000818152606760205260408120546001600160a01b03166108765760405162461bcd60e51b815260206004820152602c60248201527f4552433732313a20617070726f76656420717565727920666f72206e6f6e657860448201527f697374656e7420746f6b656e0000000000000000000000000000000000000000606482015260840161066c565b506000908152606960205260409020546001600160a01b031690565b600061089d82610c2b565b9050806001600160a01b0316836001600160a01b031614156109275760405162461bcd60e51b815260206004820152602160248201527f4552433732313a20617070726f76616c20746f2063757272656e74206f776e6560448201527f7200000000000000000000000000000000000000000000000000000000000000606482015260840161066c565b336001600160a01b03821614806109435750610943813361104a565b6109b55760405162461bcd60e51b815260206004820152603860248201527f4552433732313a20617070726f76652063616c6c6572206973206e6f74206f7760448201527f6e6572206e6f7220617070726f76656420666f7220616c6c0000000000000000606482015260840161066c565b6109bf8383611322565b505050565b6109ce338261139d565b610a405760405162461bcd60e51b815260206004820152603160248201527f4552433732313a207472616e736665722063616c6c6572206973206e6f74206f60448201527f776e6572206e6f7220617070726f766564000000000000000000000000000000606482015260840161066c565b6109bf838383611485565b6000818152606760205260409020546001600160a01b03163314610ad75760405162461bcd60e51b815260206004820152602a60248201527f45524337323146756e6461626c653a206f6e6c7920746f6b656e206f776e657260448201527f2063616e20636c61696d00000000000000000000000000000000000000000000606482015260840161066c565b600081815260676020526040902054600160a01b90046bffffffffffffffffffffffff16610b475760405162461bcd60e51b815260206004820152601c60248201527f45524337323146756e6461626c653a207a65726f2062616c616e636500000000604482015260640161066c565b60008181526067602052604080822080546001600160a01b0381169091559051600160a01b9091046bffffffffffffffffffffffff169133916108fc84150291849190818181858888f19350505050158015610ba7573d6000803e3d6000fd5b506040516bffffffffffffffffffffffff82168152829033907fb7d2e84663e45886a877f676edbc05d7c0fa506875267129bc57cc35bcaa9b549060200160405180910390a35050565b610bf961166a565b8051610c0c9060cb906020840190611d54565b5050565b6109bf83838360405180602001604052806000815250610e1c565b6000818152606760205260408120546001600160a01b031680610cb65760405162461bcd60e51b815260206004820152602960248201527f4552433732313a206f776e657220717565727920666f72206e6f6e657869737460448201527f656e7420746f6b656e0000000000000000000000000000000000000000000000606482015260840161066c565b92915050565b60cb8054610cc990612292565b80601f0160208091040260200160405190810160405280929190818152602001828054610cf590612292565b8015610d425780601f10610d1757610100808354040283529160200191610d42565b820191906000526020600020905b815481529060010190602001808311610d2557829003601f168201915b505050505081565b60006001600160a01b038216610dc85760405162461bcd60e51b815260206004820152602a60248201527f4552433732313a2062616c616e636520717565727920666f7220746865207a6560448201527f726f206164647265737300000000000000000000000000000000000000000000606482015260840161066c565b506001600160a01b031660009081526068602052604090205490565b610dec61166a565b610df660006116c4565b565b6109bf8383611723565b60606066805461054190612292565b610c0c33838361187e565b610e26338361139d565b610e985760405162461bcd60e51b815260206004820152603160248201527f4552433732313a207472616e736665722063616c6c6572206973206e6f74206f60448201527f776e6572206e6f7220617070726f766564000000000000000000000000000000606482015260840161066c565b6107e68484848461194d565b6000818152606760205260409020546060906001600160a01b0316610f315760405162461bcd60e51b815260206004820152602f60248201527f4552433732314d657461646174613a2055524920717565727920666f72206e6f60448201527f6e6578697374656e7420746f6b656e0000000000000000000000000000000000606482015260840161066c565b6000610f3b6119d6565b90506000815111610f5b5760405180602001604052806000815250610f86565b80610f65846119e5565b604051602001610f7692919061217e565b6040516020818303038152906040525b9392505050565b60008181526067602052604090208054349190601490610fc3908490600160a01b90046bffffffffffffffffffffffff16612214565b92506101000a8154816bffffffffffffffffffffffff02191690836bffffffffffffffffffffffff16021790555080336001600160a01b03167fce3fdd999203ce74c1e9fab355f25be591e78bd19159ae938b0fd84f63ec82893460405161103f91906bffffffffffffffffffffffff91909116815260200190565b60405180910390a350565b6000816001600160a01b031660c960009054906101000a90046001600160a01b03166001600160a01b031663f9bf80066040518163ffffffff1660e01b815260040160206040518083038186803b1580156110a457600080fd5b505afa1580156110b8573d6000803e3d6000fd5b505050506040513d601f19601f820116820180604052508101906110dc9190611e97565b6001600160a01b031614156110f357506001610cb6565b506001600160a01b039182166000908152606a6020908152604080832093909416825291909152205460ff1690565b61112a61166a565b6001600160a01b0381166111a65760405162461bcd60e51b815260206004820152602660248201527f4f776e61626c653a206e6577206f776e657220697320746865207a65726f206160448201527f6464726573730000000000000000000000000000000000000000000000000000606482015260840161066c565b6111af816116c4565b50565b600054610100900460ff16610df65760405162461bcd60e51b815260206004820152602b60248201527f496e697469616c697a61626c653a20636f6e7472616374206973206e6f74206960448201526a6e697469616c697a696e6760a81b606482015260840161066c565b600054610100900460ff166112885760405162461bcd60e51b815260206004820152602b60248201527f496e697469616c697a61626c653a20636f6e7472616374206973206e6f74206960448201526a6e697469616c697a696e6760a81b606482015260840161066c565b815161129b906065906020850190611d54565b5080516109bf906066906020840190611d54565b600054610100900460ff1661131a5760405162461bcd60e51b815260206004820152602b60248201527f496e697469616c697a61626c653a20636f6e7472616374206973206e6f74206960448201526a6e697469616c697a696e6760a81b606482015260840161066c565b610df6611b17565b6000818152606960205260409020805473ffffffffffffffffffffffffffffffffffffffff19166001600160a01b038416908117909155819061136482610c2b565b6001600160a01b03167f8c5be1e5ebec7d5bd14f71427d1e84f3dd0314c0f7b2291e5b200ac8c7c3b92560405160405180910390a45050565b6000818152606760205260408120546001600160a01b03166114275760405162461bcd60e51b815260206004820152602c60248201527f4552433732313a206f70657261746f7220717565727920666f72206e6f6e657860448201527f697374656e7420746f6b656e0000000000000000000000000000000000000000606482015260840161066c565b600061143283610c2b565b9050806001600160a01b0316846001600160a01b0316148061146d5750836001600160a01b0316611462846107ec565b6001600160a01b0316145b8061147d575061147d818561104a565b949350505050565b826001600160a01b031661149882610c2b565b6001600160a01b0316146115145760405162461bcd60e51b815260206004820152602560248201527f4552433732313a207472616e736665722066726f6d20696e636f72726563742060448201527f6f776e6572000000000000000000000000000000000000000000000000000000606482015260840161066c565b6001600160a01b03821661158f5760405162461bcd60e51b8152602060048201526024808201527f4552433732313a207472616e7366657220746f20746865207a65726f2061646460448201527f7265737300000000000000000000000000000000000000000000000000000000606482015260840161066c565b61159a838383611b8b565b6115a5600082611322565b6001600160a01b03831660009081526068602052604081208054600192906115ce90849061224f565b90915550506001600160a01b03821660009081526068602052604081208054600192906115fc9084906121fc565b9091555050600081815260676020526040808220805473ffffffffffffffffffffffffffffffffffffffff19166001600160a01b0386811691821790925591518493918716917fddf252ad1be2c89b69c2b068fc378daa952ba7f163c4a11628f55a4df523b3ef91a4505050565b6097546001600160a01b03163314610df65760405162461bcd60e51b815260206004820181905260248201527f4f776e61626c653a2063616c6c6572206973206e6f7420746865206f776e6572604482015260640161066c565b609780546001600160a01b0383811673ffffffffffffffffffffffffffffffffffffffff19831681179093556040519116919082907f8be0079c531659141344cd1fd0a4f28419497f9722a3daafe3b4186f6b6457e090600090a35050565b6001600160a01b0382166117795760405162461bcd60e51b815260206004820181905260248201527f4552433732313a206d696e7420746f20746865207a65726f2061646472657373604482015260640161066c565b6000818152606760205260409020546001600160a01b0316156117de5760405162461bcd60e51b815260206004820152601c60248201527f4552433732313a20746f6b656e20616c7265616479206d696e74656400000000604482015260640161066c565b6117ea60008383611b8b565b6001600160a01b03821660009081526068602052604081208054600192906118139084906121fc565b9091555050600081815260676020526040808220805473ffffffffffffffffffffffffffffffffffffffff19166001600160a01b03861690811790915590518392907fddf252ad1be2c89b69c2b068fc378daa952ba7f163c4a11628f55a4df523b3ef908290a45050565b816001600160a01b0316836001600160a01b031614156118e05760405162461bcd60e51b815260206004820152601960248201527f4552433732313a20617070726f766520746f2063616c6c657200000000000000604482015260640161066c565b6001600160a01b038381166000818152606a6020908152604080832094871680845294825291829020805460ff191686151590811790915591519182527f17307eab39ab6107e8899845ad3d59bd9653f200f220920489ca2b5937696c31910160405180910390a3505050565b611958848484611485565b61196484848484611ba7565b6107e65760405162461bcd60e51b815260206004820152603260248201527f4552433732313a207472616e7366657220746f206e6f6e20455243373231526560448201527f63656976657220696d706c656d656e7465720000000000000000000000000000606482015260840161066c565b606060cb805461054190612292565b606081611a2557505060408051808201909152600181527f3000000000000000000000000000000000000000000000000000000000000000602082015290565b8160005b8115611a4f5780611a39816122cd565b9150611a489050600a8361223b565b9150611a29565b60008167ffffffffffffffff811115611a6a57611a6a61235c565b6040519080825280601f01601f191660200182016040528015611a94576020820181803683370190505b5090505b841561147d57611aa960018361224f565b9150611ab6600a86612306565b611ac19060306121fc565b60f81b818381518110611ad657611ad6612346565b60200101907effffffffffffffffffffffffffffffffffffffffffffffffffffffffffffff1916908160001a905350611b10600a8661223b565b9450611a98565b600054610100900460ff16611b825760405162461bcd60e51b815260206004820152602b60248201527f496e697469616c697a61626c653a20636f6e7472616374206973206e6f74206960448201526a6e697469616c697a696e6760a81b606482015260840161066c565b610df6336116c4565b6001600160a01b0383166109bf5760ca80546001019055505050565b60006001600160a01b0384163b15611d49576040517f150b7a020000000000000000000000000000000000000000000000000000000081526001600160a01b0385169063150b7a0290611c049033908990889088906004016121ad565b602060405180830381600087803b158015611c1e57600080fd5b505af1925050508015611c4e575060408051601f3d908101601f19168201909252611c4b9181019061206f565b60015b611cfe573d808015611c7c576040519150601f19603f3d011682016040523d82523d6000602084013e611c81565b606091505b508051611cf65760405162461bcd60e51b815260206004820152603260248201527f4552433732313a207472616e7366657220746f206e6f6e20455243373231526560448201527f63656976657220696d706c656d656e7465720000000000000000000000000000606482015260840161066c565b805181602001fd5b7fffffffff00000000000000000000000000000000000000000000000000000000167f150b7a020000000000000000000000000000000000000000000000000000000014905061147d565b506001949350505050565b828054611d6090612292565b90600052602060002090601f016020900481019282611d825760008555611dc8565b82601f10611d9b57805160ff1916838001178555611dc8565b82800160010185558215611dc8579182015b82811115611dc8578251825591602001919060010190611dad565b50611dd4929150611dd8565b5090565b5b80821115611dd45760008155600101611dd9565b600082601f830112611dfe57600080fd5b813567ffffffffffffffff80821115611e1957611e1961235c565b604051601f8301601f19908116603f01168101908282118183101715611e4157611e4161235c565b81604052838152866020858801011115611e5a57600080fd5b836020870160208301376000602085830101528094505050505092915050565b600060208284031215611e8c57600080fd5b8135610f8681612372565b600060208284031215611ea957600080fd5b8151610f8681612372565b60008060408385031215611ec757600080fd5b8235611ed281612372565b91506020830135611ee281612372565b809150509250929050565b600080600060608486031215611f0257600080fd5b8335611f0d81612372565b92506020840135611f1d81612372565b929592945050506040919091013590565b60008060008060808587031215611f4457600080fd5b8435611f4f81612372565b93506020850135611f5f81612372565b925060408501359150606085013567ffffffffffffffff811115611f8257600080fd5b611f8e87828801611ded565b91505092959194509250565b60008060408385031215611fad57600080fd5b8235611fb881612372565b915060208301358015158114611ee257600080fd5b60008060408385031215611fe057600080fd5b8235611feb81612372565b946020939093013593505050565b60008060006060848603121561200e57600080fd5b833561201981612372565b925060208401359150604084013567ffffffffffffffff81111561203c57600080fd5b61204886828701611ded565b9150509250925092565b60006020828403121561206457600080fd5b8135610f8681612387565b60006020828403121561208157600080fd5b8151610f8681612387565b60006020828403121561209e57600080fd5b813567ffffffffffffffff8111156120b557600080fd5b61147d84828501611ded565b6000806000606084860312156120d657600080fd5b833567ffffffffffffffff808211156120ee57600080fd5b6120fa87838801611ded565b9450602086013591508082111561211057600080fd5b5061211d86828701611ded565b925050604084013561212e81612372565b809150509250925092565b60006020828403121561214b57600080fd5b5035919050565b6000815180845261216a816020860160208601612266565b601f01601f19169290920160200192915050565b60008351612190818460208801612266565b8351908301906121a4818360208801612266565b01949350505050565b60006001600160a01b038087168352808616602084015250836040830152608060608301526121df6080830184612152565b9695505050505050565b602081526000610f866020830184612152565b6000821982111561220f5761220f61231a565b500190565b60006bffffffffffffffffffffffff8083168185168083038211156121a4576121a461231a565b60008261224a5761224a612330565b500490565b6000828210156122615761226161231a565b500390565b60005b83811015612281578181015183820152602001612269565b838111156107e65750506000910152565b600181811c908216806122a657607f821691505b602082108114156122c757634e487b7160e01b600052602260045260246000fd5b50919050565b60007fffffffffffffffffffffffffffffffffffffffffffffffffffffffffffffffff8214156122ff576122ff61231a565b5060010190565b60008261231557612315612330565b500690565b634e487b7160e01b600052601160045260246000fd5b634e487b7160e01b600052601260045260246000fd5b634e487b7160e01b600052603260045260246000fd5b634e487b7160e01b600052604160045260246000fd5b6001600160a01b03811681146111af57600080fd5b7fffffffff00000000000000000000000000000000000000000000000000000000811681146111af57600080fdfea2646970667358221220f77d822561285825a52c2f300f4e94ecd1b9ef9e00fa91e1962f4862b214904d64736f6c63430008070033",
  "linkReferences": {},
  "deployedLinkReferences": {}
}