{
  "_format": "hh-sol-artifact-1",
  "contractName": "ERC721Committable",
  "sourceName": "contracts/ERC721/ERC721Committable.sol",
  "abi": [
    {
      "anonymous": false,
      "inputs": [
        {
          "indexed": true,
          "internalType": "address",
          "name": "owner",
          "type": "address"
        },
        {
          "indexed": true,
          "internalType": "address",
          "name": "approved",
          "type": "address"
        },
        {
          "indexed": true,
          "internalType": "uint256",
          "name": "tokenId",
          "type": "uint256"
        }
      ],
      "name": "Approval",
      "type": "event"
    },
    {
      "anonymous": false,
      "inputs": [
        {
          "indexed": true,
          "internalType": "address",
          "name": "owner",
          "type": "address"
        },
        {
          "indexed": true,
          "internalType": "address",
          "name": "operator",
          "type": "address"
        },
        {
          "indexed": false,
          "internalType": "bool",
          "name": "approved",
          "type": "bool"
        }
      ],
      "name": "ApprovalForAll",
      "type": "event"
    },
    {
      "anonymous": false,
      "inputs": [
        {
          "indexed": true,
          "internalType": "address",
          "name": "previousOwner",
          "type": "address"
        },
        {
          "indexed": true,
          "internalType": "address",
          "name": "newOwner",
          "type": "address"
        }
      ],
      "name": "OwnershipTransferred",
      "type": "event"
    },
    {
      "anonymous": false,
      "inputs": [
        {
          "indexed": true,
          "internalType": "address",
          "name": "from",
          "type": "address"
        },
        {
          "indexed": true,
          "internalType": "address",
          "name": "to",
          "type": "address"
        },
        {
          "indexed": true,
          "internalType": "uint256",
          "name": "tokenId",
          "type": "uint256"
        }
      ],
      "name": "Transfer",
      "type": "event"
    },
    {
      "inputs": [],
      "name": "DOMAIN_SEPARATOR",
      "outputs": [
        {
          "internalType": "bytes32",
          "name": "",
          "type": "bytes32"
        }
      ],
      "stateMutability": "view",
      "type": "function"
    },
    {
      "inputs": [
        {
          "internalType": "address",
          "name": "to",
          "type": "address"
        },
        {
          "internalType": "uint256",
          "name": "tokenId",
          "type": "uint256"
        }
      ],
      "name": "approve",
      "outputs": [],
      "stateMutability": "nonpayable",
      "type": "function"
    },
    {
      "inputs": [
        {
          "internalType": "address",
          "name": "owner",
          "type": "address"
        }
      ],
      "name": "balanceOf",
      "outputs": [
        {
          "internalType": "uint256",
          "name": "",
          "type": "uint256"
        }
      ],
      "stateMutability": "view",
      "type": "function"
    },
    {
      "inputs": [],
      "name": "baseURI",
      "outputs": [
        {
          "internalType": "string",
          "name": "",
          "type": "string"
        }
      ],
      "stateMutability": "view",
      "type": "function"
    },
    {
      "inputs": [
        {
          "internalType": "string",
          "name": "newURI",
          "type": "string"
        }
      ],
      "name": "changeBaseURI",
      "outputs": [],
      "stateMutability": "nonpayable",
      "type": "function"
    },
    {
      "inputs": [
        {
          "internalType": "uint256",
          "name": "tokenId",
          "type": "uint256"
        }
      ],
      "name": "getApproved",
      "outputs": [
        {
          "internalType": "address",
          "name": "",
          "type": "address"
        }
      ],
      "stateMutability": "view",
      "type": "function"
    },
    {
      "inputs": [
        {
          "internalType": "string",
          "name": "_name",
          "type": "string"
        },
        {
          "internalType": "string",
          "name": "_symbol",
          "type": "string"
        },
        {
          "internalType": "address",
          "name": "controller",
          "type": "address"
        }
      ],
      "name": "initialize",
      "outputs": [],
      "stateMutability": "nonpayable",
      "type": "function"
    },
    {
      "inputs": [
        {
          "internalType": "address",
          "name": "tokenOwner",
          "type": "address"
        },
        {
          "internalType": "address",
          "name": "operator",
          "type": "address"
        }
      ],
      "name": "isApprovedForAll",
      "outputs": [
        {
          "internalType": "bool",
          "name": "",
          "type": "bool"
        }
      ],
      "stateMutability": "view",
      "type": "function"
    },
    {
      "inputs": [
        {
          "internalType": "address",
          "name": "creator",
          "type": "address"
        },
        {
          "internalType": "uint256",
          "name": "tokenId",
          "type": "uint256"
        },
        {
          "internalType": "bytes",
          "name": "signature",
          "type": "bytes"
        }
      ],
      "name": "mint",
      "outputs": [],
      "stateMutability": "nonpayable",
      "type": "function"
    },
    {
      "inputs": [],
      "name": "name",
      "outputs": [
        {
          "internalType": "string",
          "name": "",
          "type": "string"
        }
      ],
      "stateMutability": "view",
      "type": "function"
    },
    {
      "inputs": [],
      "name": "owner",
      "outputs": [
        {
          "internalType": "address",
          "name": "",
          "type": "address"
        }
      ],
      "stateMutability": "view",
      "type": "function"
    },
    {
      "inputs": [
        {
          "internalType": "uint256",
          "name": "tokenId",
          "type": "uint256"
        }
      ],
      "name": "ownerOf",
      "outputs": [
        {
          "internalType": "address",
          "name": "",
          "type": "address"
        }
      ],
      "stateMutability": "view",
      "type": "function"
    },
    {
      "inputs": [],
      "name": "renounceOwnership",
      "outputs": [],
      "stateMutability": "nonpayable",
      "type": "function"
    },
    {
      "inputs": [
        {
          "internalType": "address",
          "name": "from",
          "type": "address"
        },
        {
          "internalType": "address",
          "name": "to",
          "type": "address"
        },
        {
          "internalType": "uint256",
          "name": "tokenId",
          "type": "uint256"
        }
      ],
      "name": "safeTransferFrom",
      "outputs": [],
      "stateMutability": "nonpayable",
      "type": "function"
    },
    {
      "inputs": [
        {
          "internalType": "address",
          "name": "from",
          "type": "address"
        },
        {
          "internalType": "address",
          "name": "to",
          "type": "address"
        },
        {
          "internalType": "uint256",
          "name": "tokenId",
          "type": "uint256"
        },
        {
          "internalType": "bytes",
          "name": "_data",
          "type": "bytes"
        }
      ],
      "name": "safeTransferFrom",
      "outputs": [],
      "stateMutability": "nonpayable",
      "type": "function"
    },
    {
      "inputs": [
        {
          "internalType": "address",
          "name": "operator",
          "type": "address"
        },
        {
          "internalType": "bool",
          "name": "approved",
          "type": "bool"
        }
      ],
      "name": "setApprovalForAll",
      "outputs": [],
      "stateMutability": "nonpayable",
      "type": "function"
    },
    {
      "inputs": [
        {
          "internalType": "bytes4",
          "name": "interfaceId",
          "type": "bytes4"
        }
      ],
      "name": "supportsInterface",
      "outputs": [
        {
          "internalType": "bool",
          "name": "",
          "type": "bool"
        }
      ],
      "stateMutability": "view",
      "type": "function"
    },
    {
      "inputs": [],
      "name": "symbol",
      "outputs": [
        {
          "internalType": "string",
          "name": "",
          "type": "string"
        }
      ],
      "stateMutability": "view",
      "type": "function"
    },
    {
      "inputs": [
        {
          "internalType": "uint256",
          "name": "tokenId",
          "type": "uint256"
        }
      ],
      "name": "tokenURI",
      "outputs": [
        {
          "internalType": "string",
          "name": "",
          "type": "string"
        }
      ],
      "stateMutability": "view",
      "type": "function"
    },
    {
      "inputs": [],
      "name": "totalSupply",
      "outputs": [
        {
          "internalType": "uint256",
          "name": "",
          "type": "uint256"
        }
      ],
      "stateMutability": "view",
      "type": "function"
    },
    {
      "inputs": [
        {
          "internalType": "address",
          "name": "from",
          "type": "address"
        },
        {
          "internalType": "address",
          "name": "to",
          "type": "address"
        },
        {
          "internalType": "uint256",
          "name": "tokenId",
          "type": "uint256"
        }
      ],
      "name": "transferFrom",
      "outputs": [],
      "stateMutability": "nonpayable",
      "type": "function"
    },
    {
      "inputs": [
        {
          "internalType": "address",
          "name": "newOwner",
          "type": "address"
        }
      ],
      "name": "transferOwnership",
      "outputs": [],
      "stateMutability": "nonpayable",
      "type": "function"
    }
  ],
  "bytecode": "0x608060405234801561001057600080fd5b5061237b806100206000396000f3fe608060405234801561001057600080fd5b50600436106101825760003560e01c80636c0360eb116100d857806395d89b411161008c578063c87b56dd11610066578063c87b56dd146102f3578063e985e9c514610306578063f2fde38b1461031957600080fd5b806395d89b41146102c5578063a22cb465146102cd578063b88d4fde146102e057600080fd5b8063715018a6116100bd578063715018a6146102995780638da5cb5b146102a157806394d008ef146102b257600080fd5b80636c0360eb1461027e57806370a082311461028657600080fd5b806318160ddd1161013a57806339a0c6f91161011457806339a0c6f91461024557806342842e0e146102585780636352211e1461026b57600080fd5b806318160ddd1461021757806323b872dd146102295780633644e5151461023c57600080fd5b8063077f224a1161016b578063077f224a146101c4578063081812fc146101d9578063095ea7b31461020457600080fd5b806301ffc9a71461018757806306fdde03146101af575b600080fd5b61019a610195366004612009565b61032c565b60405190151581526020015b60405180910390f35b6101b7610411565b6040516101a691906121a0565b6101d76101d2366004612078565b6104a3565b005b6101ec6101e73660046120f0565b6106b5565b6040516001600160a01b0390911681526020016101a6565b6101d7610212366004611f84565b61075b565b60ca545b6040519081526020016101a6565b6101d7610237366004611ea4565b61088d565b61021b60cc5481565b6101d7610253366004612043565b610914565b6101d7610266366004611ea4565b610985565b6101ec6102793660046120f0565b6109a0565b6101b7610a2b565b61021b610294366004611e31565b610ab9565b6101d7610b53565b6097546001600160a01b03166101ec565b6101d76102c0366004611fb0565b610bb9565b6101b7610bce565b6101d76102db366004611f51565b610bdd565b6101d76102ee366004611ee5565b610be8565b6101b76103013660046120f0565b610c70565b61019a610314366004611e6b565b610d59565b6101d7610327366004611e31565b610e31565b60007fffffffff0000000000000000000000000000000000000000000000000000000082167f80ac58cd0000000000000000000000000000000000000000000000000000000014806103bf57507fffffffff0000000000000000000000000000000000000000000000000000000082167f5b5e139f00000000000000000000000000000000000000000000000000000000145b8061040b57507f01ffc9a7000000000000000000000000000000000000000000000000000000007fffffffff000000000000000000000000000000000000000000000000000000008316145b92915050565b60606065805461042090612222565b80601f016020809104026020016040519081016040528092919081815260200182805461044c90612222565b80156104995780601f1061046e57610100808354040283529160200191610499565b820191906000526020600020905b81548152906001019060200180831161047c57829003601f168201915b5050505050905090565b600054610100900460ff166104be5760005460ff16156104c2565b303b155b6105395760405162461bcd60e51b815260206004820152602e60248201527f496e697469616c697a61626c653a20636f6e747261637420697320616c72656160448201527f647920696e697469616c697a656400000000000000000000000000000000000060648201526084015b60405180910390fd5b600054610100900460ff1615801561057857600080547fffffffffffffffffffffffffffffffffffffffffffffffffffffffffffff0000166101011790555b610580610f13565b610588610f13565b6105928484610f7e565b61059a611010565b60c9805473ffffffffffffffffffffffffffffffffffffffff19166001600160a01b0384161790558351602080860191909120604080518082018252600181527f31000000000000000000000000000000000000000000000000000000000000009084015280517f8b73c3c69bb8fe3d512ecc4cf759cc79239f7b179b0ffacaa9a75d522b39400f938101939093528201527fc89efdaa54c0f20c7adf612882df0950f5a951637e0307cdcb4c672f298b8bc6606082015246608082018190523060a08301529060c00160408051601f19818403018152919052805160209091012060cc555080156106af57600080547fffffffffffffffffffffffffffffffffffffffffffffffffffffffffffff00ff1690555b50505050565b6000818152606760205260408120546001600160a01b031661073f5760405162461bcd60e51b815260206004820152602c60248201527f4552433732313a20617070726f76656420717565727920666f72206e6f6e657860448201527f697374656e7420746f6b656e00000000000000000000000000000000000000006064820152608401610530565b506000908152606960205260409020546001600160a01b031690565b6000610766826109a0565b9050806001600160a01b0316836001600160a01b031614156107f05760405162461bcd60e51b815260206004820152602160248201527f4552433732313a20617070726f76616c20746f2063757272656e74206f776e6560448201527f72000000000000000000000000000000000000000000000000000000000000006064820152608401610530565b336001600160a01b038216148061080c575061080c8133610d59565b61087e5760405162461bcd60e51b815260206004820152603860248201527f4552433732313a20617070726f76652063616c6c6572206973206e6f74206f7760448201527f6e6572206e6f7220617070726f76656420666f7220616c6c00000000000000006064820152608401610530565b6108888383611083565b505050565b61089733826110fe565b6109095760405162461bcd60e51b815260206004820152603160248201527f4552433732313a207472616e736665722063616c6c6572206973206e6f74206f60448201527f776e6572206e6f7220617070726f7665640000000000000000000000000000006064820152608401610530565b6108888383836111e6565b6097546001600160a01b0316331461096e5760405162461bcd60e51b815260206004820181905260248201527f4f776e61626c653a2063616c6c6572206973206e6f7420746865206f776e65726044820152606401610530565b80516109819060cb906020840190611d0b565b5050565b61088883838360405180602001604052806000815250610be8565b6000818152606760205260408120546001600160a01b03168061040b5760405162461bcd60e51b815260206004820152602960248201527f4552433732313a206f776e657220717565727920666f72206e6f6e657869737460448201527f656e7420746f6b656e00000000000000000000000000000000000000000000006064820152608401610530565b60cb8054610a3890612222565b80601f0160208091040260200160405190810160405280929190818152602001828054610a6490612222565b8015610ab15780601f10610a8657610100808354040283529160200191610ab1565b820191906000526020600020905b815481529060010190602001808311610a9457829003601f168201915b505050505081565b60006001600160a01b038216610b375760405162461bcd60e51b815260206004820152602a60248201527f4552433732313a2062616c616e636520717565727920666f7220746865207a6560448201527f726f2061646472657373000000000000000000000000000000000000000000006064820152608401610530565b506001600160a01b031660009081526068602052604090205490565b6097546001600160a01b03163314610bad5760405162461bcd60e51b815260206004820181905260248201527f4f776e61626c653a2063616c6c6572206973206e6f7420746865206f776e65726044820152606401610530565b610bb760006113cb565b565b610bc483838361142a565b61088883836116bc565b60606066805461042090612222565b610981338383611817565b610bf233836110fe565b610c645760405162461bcd60e51b815260206004820152603160248201527f4552433732313a207472616e736665722063616c6c6572206973206e6f74206f60448201527f776e6572206e6f7220617070726f7665640000000000000000000000000000006064820152608401610530565b6106af84848484611904565b6000818152606760205260409020546060906001600160a01b0316610cfd5760405162461bcd60e51b815260206004820152602f60248201527f4552433732314d657461646174613a2055524920717565727920666f72206e6f60448201527f6e6578697374656e7420746f6b656e00000000000000000000000000000000006064820152608401610530565b6000610d0761198d565b90506000815111610d275760405180602001604052806000815250610d52565b80610d318461199c565b604051602001610d42929190612135565b6040516020818303038152906040525b9392505050565b6000816001600160a01b031660c960009054906101000a90046001600160a01b03166001600160a01b031663f9bf80066040518163ffffffff1660e01b815260040160206040518083038186803b158015610db357600080fd5b505afa158015610dc7573d6000803e3d6000fd5b505050506040513d601f19601f82011682018060405250810190610deb9190611e4e565b6001600160a01b03161415610e025750600161040b565b506001600160a01b039182166000908152606a6020908152604080832093909416825291909152205460ff1690565b6097546001600160a01b03163314610e8b5760405162461bcd60e51b815260206004820181905260248201527f4f776e61626c653a2063616c6c6572206973206e6f7420746865206f776e65726044820152606401610530565b6001600160a01b038116610f075760405162461bcd60e51b815260206004820152602660248201527f4f776e61626c653a206e6577206f776e657220697320746865207a65726f206160448201527f64647265737300000000000000000000000000000000000000000000000000006064820152608401610530565b610f10816113cb565b50565b600054610100900460ff16610bb75760405162461bcd60e51b815260206004820152602b60248201527f496e697469616c697a61626c653a20636f6e7472616374206973206e6f74206960448201526a6e697469616c697a696e6760a81b6064820152608401610530565b600054610100900460ff16610fe95760405162461bcd60e51b815260206004820152602b60248201527f496e697469616c697a61626c653a20636f6e7472616374206973206e6f74206960448201526a6e697469616c697a696e6760a81b6064820152608401610530565b8151610ffc906065906020850190611d0b565b508051610888906066906020840190611d0b565b600054610100900460ff1661107b5760405162461bcd60e51b815260206004820152602b60248201527f496e697469616c697a61626c653a20636f6e7472616374206973206e6f74206960448201526a6e697469616c697a696e6760a81b6064820152608401610530565b610bb7611ace565b6000818152606960205260409020805473ffffffffffffffffffffffffffffffffffffffff19166001600160a01b03841690811790915581906110c5826109a0565b6001600160a01b03167f8c5be1e5ebec7d5bd14f71427d1e84f3dd0314c0f7b2291e5b200ac8c7c3b92560405160405180910390a45050565b6000818152606760205260408120546001600160a01b03166111885760405162461bcd60e51b815260206004820152602c60248201527f4552433732313a206f70657261746f7220717565727920666f72206e6f6e657860448201527f697374656e7420746f6b656e00000000000000000000000000000000000000006064820152608401610530565b6000611193836109a0565b9050806001600160a01b0316846001600160a01b031614806111ce5750836001600160a01b03166111c3846106b5565b6001600160a01b0316145b806111de57506111de8185610d59565b949350505050565b826001600160a01b03166111f9826109a0565b6001600160a01b0316146112755760405162461bcd60e51b815260206004820152602560248201527f4552433732313a207472616e736665722066726f6d20696e636f72726563742060448201527f6f776e65720000000000000000000000000000000000000000000000000000006064820152608401610530565b6001600160a01b0382166112f05760405162461bcd60e51b8152602060048201526024808201527f4552433732313a207472616e7366657220746f20746865207a65726f2061646460448201527f72657373000000000000000000000000000000000000000000000000000000006064820152608401610530565b6112fb838383611b42565b611306600082611083565b6001600160a01b038316600090815260686020526040812080546001929061132f9084906121df565b90915550506001600160a01b038216600090815260686020526040812080546001929061135d9084906121b3565b9091555050600081815260676020526040808220805473ffffffffffffffffffffffffffffffffffffffff19166001600160a01b0386811691821790925591518493918716917fddf252ad1be2c89b69c2b068fc378daa952ba7f163c4a11628f55a4df523b3ef91a4505050565b609780546001600160a01b0383811673ffffffffffffffffffffffffffffffffffffffff19831681179093556040519116919082907f8be0079c531659141344cd1fd0a4f28419497f9722a3daafe3b4186f6b6457e090600090a35050565b805160411461147b5760405162461bcd60e51b815260206004820152601f60248201527f45434453413a20696e76616c6964207369676e6174757265206c656e677468006044820152606401610530565b60008060006020840151925060408401519150606084015160001a9050600060cc547fe6c296e11cbaaec3fa9033cd6f86ffb254e2601a752ff969259c9aa361b35d8988886040516020016114ec939291909283526001600160a01b03919091166020830152604082015260600190565b604051602081830303815290604052805190602001206040516020016115449291907f190100000000000000000000000000000000000000000000000000000000000081526002810192909252602282015260420190565b60408051601f19818403018152828252805160209182012060c9547f7ac3c02f00000000000000000000000000000000000000000000000000000000855292519094506001600160a01b0390921692637ac3c02f9260048083019392829003018186803b1580156115b457600080fd5b505afa1580156115c8573d6000803e3d6000fd5b505050506040513d601f19601f820116820180604052508101906115ec9190611e4e565b6001600160a01b031660018284878760405160008152602001604052604051611631949392919093845260ff9290921660208401526040830152606082015260800190565b6020604051602081039080840390855afa158015611653573d6000803e3d6000fd5b505050602060405103516001600160a01b0316146116b35760405162461bcd60e51b815260206004820152601760248201527f696e76616c696420746f6b656e207369676e61747572650000000000000000006044820152606401610530565b50505050505050565b6001600160a01b0382166117125760405162461bcd60e51b815260206004820181905260248201527f4552433732313a206d696e7420746f20746865207a65726f20616464726573736044820152606401610530565b6000818152606760205260409020546001600160a01b0316156117775760405162461bcd60e51b815260206004820152601c60248201527f4552433732313a20746f6b656e20616c7265616479206d696e746564000000006044820152606401610530565b61178360008383611b42565b6001600160a01b03821660009081526068602052604081208054600192906117ac9084906121b3565b9091555050600081815260676020526040808220805473ffffffffffffffffffffffffffffffffffffffff19166001600160a01b03861690811790915590518392907fddf252ad1be2c89b69c2b068fc378daa952ba7f163c4a11628f55a4df523b3ef908290a45050565b816001600160a01b0316836001600160a01b031614156118795760405162461bcd60e51b815260206004820152601960248201527f4552433732313a20617070726f766520746f2063616c6c6572000000000000006044820152606401610530565b6001600160a01b038381166000818152606a602090815260408083209487168084529482529182902080547fffffffffffffffffffffffffffffffffffffffffffffffffffffffffffffff001686151590811790915591519182527f17307eab39ab6107e8899845ad3d59bd9653f200f220920489ca2b5937696c31910160405180910390a3505050565b61190f8484846111e6565b61191b84848484611b5e565b6106af5760405162461bcd60e51b815260206004820152603260248201527f4552433732313a207472616e7366657220746f206e6f6e20455243373231526560448201527f63656976657220696d706c656d656e74657200000000000000000000000000006064820152608401610530565b606060cb805461042090612222565b6060816119dc57505060408051808201909152600181527f3000000000000000000000000000000000000000000000000000000000000000602082015290565b8160005b8115611a0657806119f08161225d565b91506119ff9050600a836121cb565b91506119e0565b60008167ffffffffffffffff811115611a2157611a216122ec565b6040519080825280601f01601f191660200182016040528015611a4b576020820181803683370190505b5090505b84156111de57611a606001836121df565b9150611a6d600a86612296565b611a789060306121b3565b60f81b818381518110611a8d57611a8d6122d6565b60200101907effffffffffffffffffffffffffffffffffffffffffffffffffffffffffffff1916908160001a905350611ac7600a866121cb565b9450611a4f565b600054610100900460ff16611b395760405162461bcd60e51b815260206004820152602b60248201527f496e697469616c697a61626c653a20636f6e7472616374206973206e6f74206960448201526a6e697469616c697a696e6760a81b6064820152608401610530565b610bb7336113cb565b6001600160a01b0383166108885760ca80546001019055505050565b60006001600160a01b0384163b15611d00576040517f150b7a020000000000000000000000000000000000000000000000000000000081526001600160a01b0385169063150b7a0290611bbb903390899088908890600401612164565b602060405180830381600087803b158015611bd557600080fd5b505af1925050508015611c05575060408051601f3d908101601f19168201909252611c0291810190612026565b60015b611cb5573d808015611c33576040519150601f19603f3d011682016040523d82523d6000602084013e611c38565b606091505b508051611cad5760405162461bcd60e51b815260206004820152603260248201527f4552433732313a207472616e7366657220746f206e6f6e20455243373231526560448201527f63656976657220696d706c656d656e74657200000000000000000000000000006064820152608401610530565b805181602001fd5b7fffffffff00000000000000000000000000000000000000000000000000000000167f150b7a02000000000000000000000000000000000000000000000000000000001490506111de565b506001949350505050565b828054611d1790612222565b90600052602060002090601f016020900481019282611d395760008555611d7f565b82601f10611d5257805160ff1916838001178555611d7f565b82800160010185558215611d7f579182015b82811115611d7f578251825591602001919060010190611d64565b50611d8b929150611d8f565b5090565b5b80821115611d8b5760008155600101611d90565b600082601f830112611db557600080fd5b813567ffffffffffffffff80821115611dd057611dd06122ec565b604051601f8301601f19908116603f01168101908282118183101715611df857611df86122ec565b81604052838152866020858801011115611e1157600080fd5b836020870160208301376000602085830101528094505050505092915050565b600060208284031215611e4357600080fd5b8135610d5281612302565b600060208284031215611e6057600080fd5b8151610d5281612302565b60008060408385031215611e7e57600080fd5b8235611e8981612302565b91506020830135611e9981612302565b809150509250929050565b600080600060608486031215611eb957600080fd5b8335611ec481612302565b92506020840135611ed481612302565b929592945050506040919091013590565b60008060008060808587031215611efb57600080fd5b8435611f0681612302565b93506020850135611f1681612302565b925060408501359150606085013567ffffffffffffffff811115611f3957600080fd5b611f4587828801611da4565b91505092959194509250565b60008060408385031215611f6457600080fd5b8235611f6f81612302565b915060208301358015158114611e9957600080fd5b60008060408385031215611f9757600080fd5b8235611fa281612302565b946020939093013593505050565b600080600060608486031215611fc557600080fd5b8335611fd081612302565b925060208401359150604084013567ffffffffffffffff811115611ff357600080fd5b611fff86828701611da4565b9150509250925092565b60006020828403121561201b57600080fd5b8135610d5281612317565b60006020828403121561203857600080fd5b8151610d5281612317565b60006020828403121561205557600080fd5b813567ffffffffffffffff81111561206c57600080fd5b6111de84828501611da4565b60008060006060848603121561208d57600080fd5b833567ffffffffffffffff808211156120a557600080fd5b6120b187838801611da4565b945060208601359150808211156120c757600080fd5b506120d486828701611da4565b92505060408401356120e581612302565b809150509250925092565b60006020828403121561210257600080fd5b5035919050565b600081518084526121218160208601602086016121f6565b601f01601f19169290920160200192915050565b600083516121478184602088016121f6565b83519083019061215b8183602088016121f6565b01949350505050565b60006001600160a01b038087168352808616602084015250836040830152608060608301526121966080830184612109565b9695505050505050565b602081526000610d526020830184612109565b600082198211156121c6576121c66122aa565b500190565b6000826121da576121da6122c0565b500490565b6000828210156121f1576121f16122aa565b500390565b60005b838110156122115781810151838201526020016121f9565b838111156106af5750506000910152565b600181811c9082168061223657607f821691505b6020821081141561225757634e487b7160e01b600052602260045260246000fd5b50919050565b60007fffffffffffffffffffffffffffffffffffffffffffffffffffffffffffffffff82141561228f5761228f6122aa565b5060010190565b6000826122a5576122a56122c0565b500690565b634e487b7160e01b600052601160045260246000fd5b634e487b7160e01b600052601260045260246000fd5b634e487b7160e01b600052603260045260246000fd5b634e487b7160e01b600052604160045260246000fd5b6001600160a01b0381168114610f1057600080fd5b7fffffffff0000000000000000000000000000000000000000000000000000000081168114610f1057600080fdfea264697066735822122010044471f87d6bae1a629ddd732e02b4bbc786c14b10b376c76c30d990b9899e64736f6c63430008070033",
  "linkReferences": {},
  "deployedLinkReferences": {}
}