{
  "_format": "hh-sol-artifact-1",
  "contractName": "ERC721Committable",
  "sourceName": "contracts/ERC721/ERC721Committable.sol",
  "abi": [
    {
      "anonymous": false,
      "inputs": [
        {
          "indexed": true,
          "internalType": "address",
          "name": "owner",
          "type": "address"
        },
        {
          "indexed": true,
          "internalType": "address",
          "name": "approved",
          "type": "address"
        },
        {
          "indexed": true,
          "internalType": "uint256",
          "name": "tokenId",
          "type": "uint256"
        }
      ],
      "name": "Approval",
      "type": "event"
    },
    {
      "anonymous": false,
      "inputs": [
        {
          "indexed": true,
          "internalType": "address",
          "name": "owner",
          "type": "address"
        },
        {
          "indexed": true,
          "internalType": "address",
          "name": "operator",
          "type": "address"
        },
        {
          "indexed": false,
          "internalType": "bool",
          "name": "approved",
          "type": "bool"
        }
      ],
      "name": "ApprovalForAll",
      "type": "event"
    },
    {
      "anonymous": false,
      "inputs": [
        {
          "indexed": true,
          "internalType": "address",
          "name": "claimer",
          "type": "address"
        },
        {
          "indexed": true,
          "internalType": "uint256",
          "name": "tokenId",
          "type": "uint256"
        },
        {
          "indexed": false,
          "internalType": "uint96",
          "name": "amount",
          "type": "uint96"
        }
      ],
      "name": "Claim",
      "type": "event"
    },
    {
      "anonymous": false,
      "inputs": [
        {
          "indexed": true,
          "internalType": "address",
          "name": "sponsor",
          "type": "address"
        },
        {
          "indexed": true,
          "internalType": "uint256",
          "name": "tokenId",
          "type": "uint256"
        },
        {
          "indexed": false,
          "internalType": "uint96",
          "name": "amount",
          "type": "uint96"
        }
      ],
      "name": "Fund",
      "type": "event"
    },
    {
      "anonymous": false,
      "inputs": [
        {
          "indexed": true,
          "internalType": "address",
          "name": "previousOwner",
          "type": "address"
        },
        {
          "indexed": true,
          "internalType": "address",
          "name": "newOwner",
          "type": "address"
        }
      ],
      "name": "OwnershipTransferred",
      "type": "event"
    },
    {
      "anonymous": false,
      "inputs": [
        {
          "indexed": true,
          "internalType": "address",
          "name": "from",
          "type": "address"
        },
        {
          "indexed": true,
          "internalType": "address",
          "name": "to",
          "type": "address"
        },
        {
          "indexed": true,
          "internalType": "uint256",
          "name": "tokenId",
          "type": "uint256"
        }
      ],
      "name": "Transfer",
      "type": "event"
    },
    {
      "inputs": [],
      "name": "DOMAIN_SEPARATOR",
      "outputs": [
        {
          "internalType": "bytes32",
          "name": "",
          "type": "bytes32"
        }
      ],
      "stateMutability": "view",
      "type": "function"
    },
    {
      "inputs": [
        {
          "internalType": "address",
          "name": "to",
          "type": "address"
        },
        {
          "internalType": "uint256",
          "name": "tokenId",
          "type": "uint256"
        }
      ],
      "name": "approve",
      "outputs": [],
      "stateMutability": "nonpayable",
      "type": "function"
    },
    {
      "inputs": [
        {
          "internalType": "address",
          "name": "owner",
          "type": "address"
        }
      ],
      "name": "balanceOf",
      "outputs": [
        {
          "internalType": "uint256",
          "name": "",
          "type": "uint256"
        }
      ],
      "stateMutability": "view",
      "type": "function"
    },
    {
      "inputs": [],
      "name": "baseURI",
      "outputs": [
        {
          "internalType": "string",
          "name": "",
          "type": "string"
        }
      ],
      "stateMutability": "view",
      "type": "function"
    },
    {
      "inputs": [
        {
          "internalType": "string",
          "name": "newURI",
          "type": "string"
        }
      ],
      "name": "changeBaseURI",
      "outputs": [],
      "stateMutability": "nonpayable",
      "type": "function"
    },
    {
      "inputs": [
        {
          "internalType": "uint256",
          "name": "tokenId",
          "type": "uint256"
        }
      ],
      "name": "claim",
      "outputs": [],
      "stateMutability": "nonpayable",
      "type": "function"
    },
    {
      "inputs": [
        {
          "internalType": "uint256",
          "name": "tokenId",
          "type": "uint256"
        }
      ],
      "name": "fund",
      "outputs": [],
      "stateMutability": "payable",
      "type": "function"
    },
    {
      "inputs": [
        {
          "internalType": "uint256",
          "name": "tokenId",
          "type": "uint256"
        }
      ],
      "name": "fundsOf",
      "outputs": [
        {
          "internalType": "uint96",
          "name": "",
          "type": "uint96"
        }
      ],
      "stateMutability": "view",
      "type": "function"
    },
    {
      "inputs": [
        {
          "internalType": "uint256",
          "name": "tokenId",
          "type": "uint256"
        }
      ],
      "name": "getApproved",
      "outputs": [
        {
          "internalType": "address",
          "name": "",
          "type": "address"
        }
      ],
      "stateMutability": "view",
      "type": "function"
    },
    {
      "inputs": [
        {
          "internalType": "string",
          "name": "_name",
          "type": "string"
        },
        {
          "internalType": "string",
          "name": "_symbol",
          "type": "string"
        },
        {
          "internalType": "address",
          "name": "controller",
          "type": "address"
        }
      ],
      "name": "initialize",
      "outputs": [],
      "stateMutability": "nonpayable",
      "type": "function"
    },
    {
      "inputs": [
        {
          "internalType": "address",
          "name": "tokenOwner",
          "type": "address"
        },
        {
          "internalType": "address",
          "name": "operator",
          "type": "address"
        }
      ],
      "name": "isApprovedForAll",
      "outputs": [
        {
          "internalType": "bool",
          "name": "",
          "type": "bool"
        }
      ],
      "stateMutability": "view",
      "type": "function"
    },
    {
      "inputs": [
        {
          "internalType": "address",
          "name": "creator",
          "type": "address"
        },
        {
          "internalType": "uint256",
          "name": "tokenId",
          "type": "uint256"
        },
        {
          "internalType": "bytes",
          "name": "signature",
          "type": "bytes"
        }
      ],
      "name": "mint",
      "outputs": [],
      "stateMutability": "nonpayable",
      "type": "function"
    },
    {
      "inputs": [],
      "name": "name",
      "outputs": [
        {
          "internalType": "string",
          "name": "",
          "type": "string"
        }
      ],
      "stateMutability": "view",
      "type": "function"
    },
    {
      "inputs": [],
      "name": "owner",
      "outputs": [
        {
          "internalType": "address",
          "name": "",
          "type": "address"
        }
      ],
      "stateMutability": "view",
      "type": "function"
    },
    {
      "inputs": [
        {
          "internalType": "uint256",
          "name": "tokenId",
          "type": "uint256"
        }
      ],
      "name": "ownerOf",
      "outputs": [
        {
          "internalType": "address",
          "name": "",
          "type": "address"
        }
      ],
      "stateMutability": "view",
      "type": "function"
    },
    {
      "inputs": [],
      "name": "renounceOwnership",
      "outputs": [],
      "stateMutability": "nonpayable",
      "type": "function"
    },
    {
      "inputs": [
        {
          "internalType": "address",
          "name": "from",
          "type": "address"
        },
        {
          "internalType": "address",
          "name": "to",
          "type": "address"
        },
        {
          "internalType": "uint256",
          "name": "tokenId",
          "type": "uint256"
        }
      ],
      "name": "safeTransferFrom",
      "outputs": [],
      "stateMutability": "nonpayable",
      "type": "function"
    },
    {
      "inputs": [
        {
          "internalType": "address",
          "name": "from",
          "type": "address"
        },
        {
          "internalType": "address",
          "name": "to",
          "type": "address"
        },
        {
          "internalType": "uint256",
          "name": "tokenId",
          "type": "uint256"
        },
        {
          "internalType": "bytes",
          "name": "_data",
          "type": "bytes"
        }
      ],
      "name": "safeTransferFrom",
      "outputs": [],
      "stateMutability": "nonpayable",
      "type": "function"
    },
    {
      "inputs": [
        {
          "internalType": "address",
          "name": "operator",
          "type": "address"
        },
        {
          "internalType": "bool",
          "name": "approved",
          "type": "bool"
        }
      ],
      "name": "setApprovalForAll",
      "outputs": [],
      "stateMutability": "nonpayable",
      "type": "function"
    },
    {
      "inputs": [
        {
          "internalType": "bytes4",
          "name": "interfaceId",
          "type": "bytes4"
        }
      ],
      "name": "supportsInterface",
      "outputs": [
        {
          "internalType": "bool",
          "name": "",
          "type": "bool"
        }
      ],
      "stateMutability": "view",
      "type": "function"
    },
    {
      "inputs": [],
      "name": "symbol",
      "outputs": [
        {
          "internalType": "string",
          "name": "",
          "type": "string"
        }
      ],
      "stateMutability": "view",
      "type": "function"
    },
    {
      "inputs": [
        {
          "internalType": "uint256",
          "name": "tokenId",
          "type": "uint256"
        }
      ],
      "name": "tokenURI",
      "outputs": [
        {
          "internalType": "string",
          "name": "",
          "type": "string"
        }
      ],
      "stateMutability": "view",
      "type": "function"
    },
    {
      "inputs": [],
      "name": "totalSupply",
      "outputs": [
        {
          "internalType": "uint256",
          "name": "",
          "type": "uint256"
        }
      ],
      "stateMutability": "view",
      "type": "function"
    },
    {
      "inputs": [
        {
          "internalType": "address",
          "name": "from",
          "type": "address"
        },
        {
          "internalType": "address",
          "name": "to",
          "type": "address"
        },
        {
          "internalType": "uint256",
          "name": "tokenId",
          "type": "uint256"
        }
      ],
      "name": "transferFrom",
      "outputs": [],
      "stateMutability": "nonpayable",
      "type": "function"
    },
    {
      "inputs": [
        {
          "internalType": "address",
          "name": "newOwner",
          "type": "address"
        }
      ],
      "name": "transferOwnership",
      "outputs": [],
      "stateMutability": "nonpayable",
      "type": "function"
    }
  ],
  "bytecode": "0x608060405234801561001057600080fd5b506126ef806100206000396000f3fe6080604052600436106101965760003560e01c80636c0360eb116100e1578063a22cb4651161008a578063c87b56dd11610064578063c87b56dd146104d0578063ca1d209d146104f0578063e985e9c514610503578063f2fde38b1461052357600080fd5b8063a22cb46514610420578063b76c94e114610440578063b88d4fde146104b057600080fd5b80638da5cb5b116100bb5780638da5cb5b146103cd57806394d008ef146103eb57806395d89b411461040b57600080fd5b80636c0360eb1461038357806370a0823114610398578063715018a6146103b857600080fd5b806323b872dd1161014357806339a0c6f91161011d57806339a0c6f91461032357806342842e0e146103435780636352211e1461036357600080fd5b806323b872dd146102cd5780633644e515146102ed578063379607f51461030357600080fd5b8063081812fc11610174578063081812fc14610256578063095ea7b31461028e57806318160ddd146102ae57600080fd5b806301ffc9a71461019b57806306fdde0314610212578063077f224a14610234575b600080fd5b3480156101a757600080fd5b506101fd6101b6366004612356565b7fffffffff00000000000000000000000000000000000000000000000000000000167f01ffc9a7000000000000000000000000000000000000000000000000000000001490565b60405190151581526020015b60405180910390f35b34801561021e57600080fd5b50610227610543565b60405161020991906124ed565b34801561024057600080fd5b5061025461024f3660046123c5565b6105d5565b005b34801561026257600080fd5b5061027661027136600461243d565b6107e7565b6040516001600160a01b039091168152602001610209565b34801561029a57600080fd5b506102546102a93660046122d1565b61088d565b3480156102ba57600080fd5b5060ca545b604051908152602001610209565b3480156102d957600080fd5b506102546102e83660046121f1565b6109bf565b3480156102f957600080fd5b506102bf60cc5481565b34801561030f57600080fd5b5061025461031e36600461243d565b610a46565b34801561032f57600080fd5b5061025461033e366004612390565b610b8d565b34801561034f57600080fd5b5061025461035e3660046121f1565b610bfe565b34801561036f57600080fd5b5061027661037e36600461243d565b610c19565b34801561038f57600080fd5b50610227610caa565b3480156103a457600080fd5b506102bf6103b336600461217e565b610d38565b3480156103c457600080fd5b50610254610dd2565b3480156103d957600080fd5b506097546001600160a01b0316610276565b3480156103f757600080fd5b506102546104063660046122fd565b610e38565b34801561041757600080fd5b50610227610e4d565b34801561042c57600080fd5b5061025461043b36600461229e565b610e5c565b34801561044c57600080fd5b5061049361045b36600461243d565b6000908152606760205260409020547401000000000000000000000000000000000000000090046bffffffffffffffffffffffff1690565b6040516bffffffffffffffffffffffff9091168152602001610209565b3480156104bc57600080fd5b506102546104cb366004612232565b610e67565b3480156104dc57600080fd5b506102276104eb36600461243d565b610eef565b6102546104fe36600461243d565b610fd8565b34801561050f57600080fd5b506101fd61051e3660046121b8565b6110a6565b34801561052f57600080fd5b5061025461053e36600461217e565b61117e565b60606065805461055290612596565b80601f016020809104026020016040519081016040528092919081815260200182805461057e90612596565b80156105cb5780601f106105a0576101008083540402835291602001916105cb565b820191906000526020600020905b8154815290600101906020018083116105ae57829003601f168201915b5050505050905090565b600054610100900460ff166105f05760005460ff16156105f4565b303b155b61066b5760405162461bcd60e51b815260206004820152602e60248201527f496e697469616c697a61626c653a20636f6e747261637420697320616c72656160448201527f647920696e697469616c697a656400000000000000000000000000000000000060648201526084015b60405180910390fd5b600054610100900460ff161580156106aa57600080547fffffffffffffffffffffffffffffffffffffffffffffffffffffffffffff0000166101011790555b6106b2611260565b6106ba611260565b6106c484846112cb565b6106cc61135d565b60c9805473ffffffffffffffffffffffffffffffffffffffff19166001600160a01b0384161790558351602080860191909120604080518082018252600181527f31000000000000000000000000000000000000000000000000000000000000009084015280517f8b73c3c69bb8fe3d512ecc4cf759cc79239f7b179b0ffacaa9a75d522b39400f938101939093528201527fc89efdaa54c0f20c7adf612882df0950f5a951637e0307cdcb4c672f298b8bc6606082015246608082018190523060a08301529060c00160408051601f19818403018152919052805160209091012060cc555080156107e157600080547fffffffffffffffffffffffffffffffffffffffffffffffffffffffffffff00ff1690555b50505050565b6000818152606760205260408120546001600160a01b03166108715760405162461bcd60e51b815260206004820152602c60248201527f4552433732313a20617070726f76656420717565727920666f72206e6f6e657860448201527f697374656e7420746f6b656e00000000000000000000000000000000000000006064820152608401610662565b506000908152606960205260409020546001600160a01b031690565b600061089882610c19565b9050806001600160a01b0316836001600160a01b031614156109225760405162461bcd60e51b815260206004820152602160248201527f4552433732313a20617070726f76616c20746f2063757272656e74206f776e6560448201527f72000000000000000000000000000000000000000000000000000000000000006064820152608401610662565b336001600160a01b038216148061093e575061093e81336110a6565b6109b05760405162461bcd60e51b815260206004820152603860248201527f4552433732313a20617070726f76652063616c6c6572206973206e6f74206f7760448201527f6e6572206e6f7220617070726f76656420666f7220616c6c00000000000000006064820152608401610662565b6109ba83836113d0565b505050565b6109c9338261144b565b610a3b5760405162461bcd60e51b815260206004820152603160248201527f4552433732313a207472616e736665722063616c6c6572206973206e6f74206f60448201527f776e6572206e6f7220617070726f7665640000000000000000000000000000006064820152608401610662565b6109ba838383611533565b6000818152606760205260409020546001600160a01b03163314610ad25760405162461bcd60e51b815260206004820152602a60248201527f45524337323146756e6461626c653a206f6e6c7920746f6b656e206f776e657260448201527f2063616e20636c61696d000000000000000000000000000000000000000000006064820152608401610662565b60008181526067602052604080822080546001600160a01b0381169091559051740100000000000000000000000000000000000000009091046bffffffffffffffffffffffff169133916108fc84150291849190818181858888f19350505050158015610b43573d6000803e3d6000fd5b506040516bffffffffffffffffffffffff82168152829033907fb7d2e84663e45886a877f676edbc05d7c0fa506875267129bc57cc35bcaa9b549060200160405180910390a35050565b6097546001600160a01b03163314610be75760405162461bcd60e51b815260206004820181905260248201527f4f776e61626c653a2063616c6c6572206973206e6f7420746865206f776e65726044820152606401610662565b8051610bfa9060cb906020840190612058565b5050565b6109ba83838360405180602001604052806000815250610e67565b6000818152606760205260408120546001600160a01b031680610ca45760405162461bcd60e51b815260206004820152602960248201527f4552433732313a206f776e657220717565727920666f72206e6f6e657869737460448201527f656e7420746f6b656e00000000000000000000000000000000000000000000006064820152608401610662565b92915050565b60cb8054610cb790612596565b80601f0160208091040260200160405190810160405280929190818152602001828054610ce390612596565b8015610d305780601f10610d0557610100808354040283529160200191610d30565b820191906000526020600020905b815481529060010190602001808311610d1357829003601f168201915b505050505081565b60006001600160a01b038216610db65760405162461bcd60e51b815260206004820152602a60248201527f4552433732313a2062616c616e636520717565727920666f7220746865207a6560448201527f726f2061646472657373000000000000000000000000000000000000000000006064820152608401610662565b506001600160a01b031660009081526068602052604090205490565b6097546001600160a01b03163314610e2c5760405162461bcd60e51b815260206004820181905260248201527f4f776e61626c653a2063616c6c6572206973206e6f7420746865206f776e65726044820152606401610662565b610e366000611718565b565b610e43838383611777565b6109ba8383611a09565b60606066805461055290612596565b610bfa338383611b64565b610e71338361144b565b610ee35760405162461bcd60e51b815260206004820152603160248201527f4552433732313a207472616e736665722063616c6c6572206973206e6f74206f60448201527f776e6572206e6f7220617070726f7665640000000000000000000000000000006064820152608401610662565b6107e184848484611c51565b6000818152606760205260409020546060906001600160a01b0316610f7c5760405162461bcd60e51b815260206004820152602f60248201527f4552433732314d657461646174613a2055524920717565727920666f72206e6f60448201527f6e6578697374656e7420746f6b656e00000000000000000000000000000000006064820152608401610662565b6000610f86611cda565b90506000815111610fa65760405180602001604052806000815250610fd1565b80610fb084611ce9565b604051602001610fc1929190612482565b6040516020818303038152906040525b9392505050565b6000818152606760205260409020805434919060149061101f9084907401000000000000000000000000000000000000000090046bffffffffffffffffffffffff16612518565b92506101000a8154816bffffffffffffffffffffffff02191690836bffffffffffffffffffffffff16021790555080336001600160a01b03167fce3fdd999203ce74c1e9fab355f25be591e78bd19159ae938b0fd84f63ec82893460405161109b91906bffffffffffffffffffffffff91909116815260200190565b60405180910390a350565b6000816001600160a01b031660c960009054906101000a90046001600160a01b03166001600160a01b031663f9bf80066040518163ffffffff1660e01b815260040160206040518083038186803b15801561110057600080fd5b505afa158015611114573d6000803e3d6000fd5b505050506040513d601f19601f82011682018060405250810190611138919061219b565b6001600160a01b0316141561114f57506001610ca4565b506001600160a01b039182166000908152606a6020908152604080832093909416825291909152205460ff1690565b6097546001600160a01b031633146111d85760405162461bcd60e51b815260206004820181905260248201527f4f776e61626c653a2063616c6c6572206973206e6f7420746865206f776e65726044820152606401610662565b6001600160a01b0381166112545760405162461bcd60e51b815260206004820152602660248201527f4f776e61626c653a206e6577206f776e657220697320746865207a65726f206160448201527f64647265737300000000000000000000000000000000000000000000000000006064820152608401610662565b61125d81611718565b50565b600054610100900460ff16610e365760405162461bcd60e51b815260206004820152602b60248201527f496e697469616c697a61626c653a20636f6e7472616374206973206e6f74206960448201526a6e697469616c697a696e6760a81b6064820152608401610662565b600054610100900460ff166113365760405162461bcd60e51b815260206004820152602b60248201527f496e697469616c697a61626c653a20636f6e7472616374206973206e6f74206960448201526a6e697469616c697a696e6760a81b6064820152608401610662565b8151611349906065906020850190612058565b5080516109ba906066906020840190612058565b600054610100900460ff166113c85760405162461bcd60e51b815260206004820152602b60248201527f496e697469616c697a61626c653a20636f6e7472616374206973206e6f74206960448201526a6e697469616c697a696e6760a81b6064820152608401610662565b610e36611e1b565b6000818152606960205260409020805473ffffffffffffffffffffffffffffffffffffffff19166001600160a01b038416908117909155819061141282610c19565b6001600160a01b03167f8c5be1e5ebec7d5bd14f71427d1e84f3dd0314c0f7b2291e5b200ac8c7c3b92560405160405180910390a45050565b6000818152606760205260408120546001600160a01b03166114d55760405162461bcd60e51b815260206004820152602c60248201527f4552433732313a206f70657261746f7220717565727920666f72206e6f6e657860448201527f697374656e7420746f6b656e00000000000000000000000000000000000000006064820152608401610662565b60006114e083610c19565b9050806001600160a01b0316846001600160a01b0316148061151b5750836001600160a01b0316611510846107e7565b6001600160a01b0316145b8061152b575061152b81856110a6565b949350505050565b826001600160a01b031661154682610c19565b6001600160a01b0316146115c25760405162461bcd60e51b815260206004820152602560248201527f4552433732313a207472616e736665722066726f6d20696e636f72726563742060448201527f6f776e65720000000000000000000000000000000000000000000000000000006064820152608401610662565b6001600160a01b03821661163d5760405162461bcd60e51b8152602060048201526024808201527f4552433732313a207472616e7366657220746f20746865207a65726f2061646460448201527f72657373000000000000000000000000000000000000000000000000000000006064820152608401610662565b611648838383611e8f565b6116536000826113d0565b6001600160a01b038316600090815260686020526040812080546001929061167c908490612553565b90915550506001600160a01b03821660009081526068602052604081208054600192906116aa908490612500565b9091555050600081815260676020526040808220805473ffffffffffffffffffffffffffffffffffffffff19166001600160a01b0386811691821790925591518493918716917fddf252ad1be2c89b69c2b068fc378daa952ba7f163c4a11628f55a4df523b3ef91a4505050565b609780546001600160a01b0383811673ffffffffffffffffffffffffffffffffffffffff19831681179093556040519116919082907f8be0079c531659141344cd1fd0a4f28419497f9722a3daafe3b4186f6b6457e090600090a35050565b80516041146117c85760405162461bcd60e51b815260206004820152601f60248201527f45434453413a20696e76616c6964207369676e6174757265206c656e677468006044820152606401610662565b60008060006020840151925060408401519150606084015160001a9050600060cc547fe6c296e11cbaaec3fa9033cd6f86ffb254e2601a752ff969259c9aa361b35d898888604051602001611839939291909283526001600160a01b03919091166020830152604082015260600190565b604051602081830303815290604052805190602001206040516020016118919291907f190100000000000000000000000000000000000000000000000000000000000081526002810192909252602282015260420190565b60408051601f19818403018152828252805160209182012060c9547f7ac3c02f00000000000000000000000000000000000000000000000000000000855292519094506001600160a01b0390921692637ac3c02f9260048083019392829003018186803b15801561190157600080fd5b505afa158015611915573d6000803e3d6000fd5b505050506040513d601f19601f82011682018060405250810190611939919061219b565b6001600160a01b03166001828487876040516000815260200160405260405161197e949392919093845260ff9290921660208401526040830152606082015260800190565b6020604051602081039080840390855afa1580156119a0573d6000803e3d6000fd5b505050602060405103516001600160a01b031614611a005760405162461bcd60e51b815260206004820152601760248201527f696e76616c696420746f6b656e207369676e61747572650000000000000000006044820152606401610662565b50505050505050565b6001600160a01b038216611a5f5760405162461bcd60e51b815260206004820181905260248201527f4552433732313a206d696e7420746f20746865207a65726f20616464726573736044820152606401610662565b6000818152606760205260409020546001600160a01b031615611ac45760405162461bcd60e51b815260206004820152601c60248201527f4552433732313a20746f6b656e20616c7265616479206d696e746564000000006044820152606401610662565b611ad060008383611e8f565b6001600160a01b0382166000908152606860205260408120805460019290611af9908490612500565b9091555050600081815260676020526040808220805473ffffffffffffffffffffffffffffffffffffffff19166001600160a01b03861690811790915590518392907fddf252ad1be2c89b69c2b068fc378daa952ba7f163c4a11628f55a4df523b3ef908290a45050565b816001600160a01b0316836001600160a01b03161415611bc65760405162461bcd60e51b815260206004820152601960248201527f4552433732313a20617070726f766520746f2063616c6c6572000000000000006044820152606401610662565b6001600160a01b038381166000818152606a602090815260408083209487168084529482529182902080547fffffffffffffffffffffffffffffffffffffffffffffffffffffffffffffff001686151590811790915591519182527f17307eab39ab6107e8899845ad3d59bd9653f200f220920489ca2b5937696c31910160405180910390a3505050565b611c5c848484611533565b611c6884848484611eab565b6107e15760405162461bcd60e51b815260206004820152603260248201527f4552433732313a207472616e7366657220746f206e6f6e20455243373231526560448201527f63656976657220696d706c656d656e74657200000000000000000000000000006064820152608401610662565b606060cb805461055290612596565b606081611d2957505060408051808201909152600181527f3000000000000000000000000000000000000000000000000000000000000000602082015290565b8160005b8115611d535780611d3d816125d1565b9150611d4c9050600a8361253f565b9150611d2d565b60008167ffffffffffffffff811115611d6e57611d6e612660565b6040519080825280601f01601f191660200182016040528015611d98576020820181803683370190505b5090505b841561152b57611dad600183612553565b9150611dba600a8661260a565b611dc5906030612500565b60f81b818381518110611dda57611dda61264a565b60200101907effffffffffffffffffffffffffffffffffffffffffffffffffffffffffffff1916908160001a905350611e14600a8661253f565b9450611d9c565b600054610100900460ff16611e865760405162461bcd60e51b815260206004820152602b60248201527f496e697469616c697a61626c653a20636f6e7472616374206973206e6f74206960448201526a6e697469616c697a696e6760a81b6064820152608401610662565b610e3633611718565b6001600160a01b0383166109ba5760ca80546001019055505050565b60006001600160a01b0384163b1561204d576040517f150b7a020000000000000000000000000000000000000000000000000000000081526001600160a01b0385169063150b7a0290611f089033908990889088906004016124b1565b602060405180830381600087803b158015611f2257600080fd5b505af1925050508015611f52575060408051601f3d908101601f19168201909252611f4f91810190612373565b60015b612002573d808015611f80576040519150601f19603f3d011682016040523d82523d6000602084013e611f85565b606091505b508051611ffa5760405162461bcd60e51b815260206004820152603260248201527f4552433732313a207472616e7366657220746f206e6f6e20455243373231526560448201527f63656976657220696d706c656d656e74657200000000000000000000000000006064820152608401610662565b805181602001fd5b7fffffffff00000000000000000000000000000000000000000000000000000000167f150b7a020000000000000000000000000000000000000000000000000000000014905061152b565b506001949350505050565b82805461206490612596565b90600052602060002090601f01602090048101928261208657600085556120cc565b82601f1061209f57805160ff19168380011785556120cc565b828001600101855582156120cc579182015b828111156120cc5782518255916020019190600101906120b1565b506120d89291506120dc565b5090565b5b808211156120d857600081556001016120dd565b600082601f83011261210257600080fd5b813567ffffffffffffffff8082111561211d5761211d612660565b604051601f8301601f19908116603f0116810190828211818310171561214557612145612660565b8160405283815286602085880101111561215e57600080fd5b836020870160208301376000602085830101528094505050505092915050565b60006020828403121561219057600080fd5b8135610fd181612676565b6000602082840312156121ad57600080fd5b8151610fd181612676565b600080604083850312156121cb57600080fd5b82356121d681612676565b915060208301356121e681612676565b809150509250929050565b60008060006060848603121561220657600080fd5b833561221181612676565b9250602084013561222181612676565b929592945050506040919091013590565b6000806000806080858703121561224857600080fd5b843561225381612676565b9350602085013561226381612676565b925060408501359150606085013567ffffffffffffffff81111561228657600080fd5b612292878288016120f1565b91505092959194509250565b600080604083850312156122b157600080fd5b82356122bc81612676565b9150602083013580151581146121e657600080fd5b600080604083850312156122e457600080fd5b82356122ef81612676565b946020939093013593505050565b60008060006060848603121561231257600080fd5b833561231d81612676565b925060208401359150604084013567ffffffffffffffff81111561234057600080fd5b61234c868287016120f1565b9150509250925092565b60006020828403121561236857600080fd5b8135610fd18161268b565b60006020828403121561238557600080fd5b8151610fd18161268b565b6000602082840312156123a257600080fd5b813567ffffffffffffffff8111156123b957600080fd5b61152b848285016120f1565b6000806000606084860312156123da57600080fd5b833567ffffffffffffffff808211156123f257600080fd5b6123fe878388016120f1565b9450602086013591508082111561241457600080fd5b50612421868287016120f1565b925050604084013561243281612676565b809150509250925092565b60006020828403121561244f57600080fd5b5035919050565b6000815180845261246e81602086016020860161256a565b601f01601f19169290920160200192915050565b6000835161249481846020880161256a565b8351908301906124a881836020880161256a565b01949350505050565b60006001600160a01b038087168352808616602084015250836040830152608060608301526124e36080830184612456565b9695505050505050565b602081526000610fd16020830184612456565b600082198211156125135761251361261e565b500190565b60006bffffffffffffffffffffffff8083168185168083038211156124a8576124a861261e565b60008261254e5761254e612634565b500490565b6000828210156125655761256561261e565b500390565b60005b8381101561258557818101518382015260200161256d565b838111156107e15750506000910152565b600181811c908216806125aa57607f821691505b602082108114156125cb57634e487b7160e01b600052602260045260246000fd5b50919050565b60007fffffffffffffffffffffffffffffffffffffffffffffffffffffffffffffffff8214156126035761260361261e565b5060010190565b60008261261957612619612634565b500690565b634e487b7160e01b600052601160045260246000fd5b634e487b7160e01b600052601260045260246000fd5b634e487b7160e01b600052603260045260246000fd5b634e487b7160e01b600052604160045260246000fd5b6001600160a01b038116811461125d57600080fd5b7fffffffff000000000000000000000000000000000000000000000000000000008116811461125d57600080fdfea2646970667358221220aa4e6f8b7cf00ccf9e76773d319fdcfb3ebb4d42c4125c57b92de81e355c04cd64736f6c63430008070033",
  "linkReferences": {},
  "deployedLinkReferences": {}
}