{
  "_format": "hh-sol-artifact-1",
  "contractName": "Vault",
  "sourceName": "contracts/exchange/Vault.sol",
  "abi": [
    {
      "anonymous": false,
      "inputs": [
        {
          "indexed": true,
          "internalType": "address",
          "name": "previousOwner",
          "type": "address"
        },
        {
          "indexed": true,
          "internalType": "address",
          "name": "newOwner",
          "type": "address"
        }
      ],
      "name": "OwnershipTransferred",
      "type": "event"
    },
    {
      "inputs": [],
      "name": "initialize",
      "outputs": [],
      "stateMutability": "nonpayable",
      "type": "function"
    },
    {
      "inputs": [],
      "name": "owner",
      "outputs": [
        {
          "internalType": "address",
          "name": "",
          "type": "address"
        }
      ],
      "stateMutability": "view",
      "type": "function"
    },
    {
      "inputs": [],
      "name": "renounceOwnership",
      "outputs": [],
      "stateMutability": "nonpayable",
      "type": "function"
    },
    {
      "inputs": [
        {
          "internalType": "address",
          "name": "token",
          "type": "address"
        },
        {
          "internalType": "address",
          "name": "to",
          "type": "address"
        },
        {
          "internalType": "uint256",
          "name": "amount",
          "type": "uint256"
        }
      ],
      "name": "sendERC20",
      "outputs": [],
      "stateMutability": "nonpayable",
      "type": "function"
    },
    {
      "inputs": [
        {
          "internalType": "address",
          "name": "to",
          "type": "address"
        },
        {
          "internalType": "uint256",
          "name": "amount",
          "type": "uint256"
        }
      ],
      "name": "sendEther",
      "outputs": [],
      "stateMutability": "nonpayable",
      "type": "function"
    },
    {
      "inputs": [
        {
          "internalType": "address",
          "name": "newOwner",
          "type": "address"
        }
      ],
      "name": "transferOwnership",
      "outputs": [],
      "stateMutability": "nonpayable",
      "type": "function"
    },
    {
      "stateMutability": "payable",
      "type": "receive"
    }
  ],
  "bytecode": "0x608060405234801561001057600080fd5b50610ba8806100206000396000f3fe6080604052600436106100695760003560e01c80638f975a64116100435780638f975a64146100cd578063c1756a2c146100ed578063f2fde38b1461010d57600080fd5b8063715018a6146100755780638129fc1c1461008c5780638da5cb5b146100a157600080fd5b3661007057005b600080fd5b34801561008157600080fd5b5061008a61012d565b005b34801561009857600080fd5b5061008a610198565b3480156100ad57600080fd5b50603354604080516001600160a01b039092168252519081900360200190f35b3480156100d957600080fd5b5061008a6100e8366004610a4d565b6102aa565b3480156100f957600080fd5b5061008a610108366004610a89565b610371565b34801561011957600080fd5b5061008a610128366004610a32565b610406565b6033546001600160a01b0316331461018c5760405162461bcd60e51b815260206004820181905260248201527f4f776e61626c653a2063616c6c6572206973206e6f7420746865206f776e657260448201526064015b60405180910390fd5b61019660006104e1565b565b600054610100900460ff166101b35760005460ff16156101b7565b303b155b6102295760405162461bcd60e51b815260206004820152602e60248201527f496e697469616c697a61626c653a20636f6e747261637420697320616c72656160448201527f647920696e697469616c697a65640000000000000000000000000000000000006064820152608401610183565b600054610100900460ff1615801561026857600080547fffffffffffffffffffffffffffffffffffffffffffffffffffffffffffff0000166101011790555b61027061054b565b6102786105be565b80156102a757600080547fffffffffffffffffffffffffffffffffffffffffffffffffffffffffffff00ff1690555b50565b6033546001600160a01b031633146103045760405162461bcd60e51b815260206004820181905260248201527f4f776e61626c653a2063616c6c6572206973206e6f7420746865206f776e65726044820152606401610183565b600260655414156103575760405162461bcd60e51b815260206004820152601f60248201527f5265656e7472616e637947756172643a207265656e7472616e742063616c6c006044820152606401610183565b6002606555610367838383610631565b5050600160655550565b6033546001600160a01b031633146103cb5760405162461bcd60e51b815260206004820181905260248201527f4f776e61626c653a2063616c6c6572206973206e6f7420746865206f776e65726044820152606401610183565b6040516001600160a01b0383169082156108fc029083906000818181858888f19350505050158015610401573d6000803e3d6000fd5b505050565b6033546001600160a01b031633146104605760405162461bcd60e51b815260206004820181905260248201527f4f776e61626c653a2063616c6c6572206973206e6f7420746865206f776e65726044820152606401610183565b6001600160a01b0381166104dc5760405162461bcd60e51b815260206004820152602660248201527f4f776e61626c653a206e6577206f776e657220697320746865207a65726f206160448201527f64647265737300000000000000000000000000000000000000000000000000006064820152608401610183565b6102a7815b603380546001600160a01b038381167fffffffffffffffffffffffff0000000000000000000000000000000000000000831681179093556040519116919082907f8be0079c531659141344cd1fd0a4f28419497f9722a3daafe3b4186f6b6457e090600090a35050565b600054610100900460ff166105b65760405162461bcd60e51b815260206004820152602b60248201527f496e697469616c697a61626c653a20636f6e7472616374206973206e6f74206960448201526a6e697469616c697a696e6760a81b6064820152608401610183565b6101966106b1565b600054610100900460ff166106295760405162461bcd60e51b815260206004820152602b60248201527f496e697469616c697a61626c653a20636f6e7472616374206973206e6f74206960448201526a6e697469616c697a696e6760a81b6064820152608401610183565b610196610725565b604080516001600160a01b038416602482015260448082018490528251808303909101815260649091019091526020810180517bffffffffffffffffffffffffffffffffffffffffffffffffffffffff167fa9059cbb00000000000000000000000000000000000000000000000000000000179052610401908490610797565b600054610100900460ff1661071c5760405162461bcd60e51b815260206004820152602b60248201527f496e697469616c697a61626c653a20636f6e7472616374206973206e6f74206960448201526a6e697469616c697a696e6760a81b6064820152608401610183565b610196336104e1565b600054610100900460ff166107905760405162461bcd60e51b815260206004820152602b60248201527f496e697469616c697a61626c653a20636f6e7472616374206973206e6f74206960448201526a6e697469616c697a696e6760a81b6064820152608401610183565b6001606555565b60006107ec826040518060400160405280602081526020017f5361666545524332303a206c6f772d6c6576656c2063616c6c206661696c6564815250856001600160a01b031661087c9092919063ffffffff16565b805190915015610401578080602001905181019061080a9190610ab3565b6104015760405162461bcd60e51b815260206004820152602a60248201527f5361666545524332303a204552433230206f7065726174696f6e20646964206e60448201527f6f742073756363656564000000000000000000000000000000000000000000006064820152608401610183565b606061088b8484600085610895565b90505b9392505050565b60608247101561090d5760405162461bcd60e51b815260206004820152602660248201527f416464726573733a20696e73756666696369656e742062616c616e636520666f60448201527f722063616c6c00000000000000000000000000000000000000000000000000006064820152608401610183565b6001600160a01b0385163b6109645760405162461bcd60e51b815260206004820152601d60248201527f416464726573733a2063616c6c20746f206e6f6e2d636f6e74726163740000006044820152606401610183565b600080866001600160a01b031685876040516109809190610ad5565b60006040518083038185875af1925050503d80600081146109bd576040519150601f19603f3d011682016040523d82523d6000602084013e6109c2565b606091505b50915091506109d28282866109dd565b979650505050505050565b606083156109ec57508161088e565b8251156109fc5782518084602001fd5b8160405162461bcd60e51b81526004016101839190610af1565b80356001600160a01b0381168114610a2d57600080fd5b919050565b600060208284031215610a4457600080fd5b61088e82610a16565b600080600060608486031215610a6257600080fd5b610a6b84610a16565b9250610a7960208501610a16565b9150604084013590509250925092565b60008060408385031215610a9c57600080fd5b610aa583610a16565b946020939093013593505050565b600060208284031215610ac557600080fd5b8151801515811461088e57600080fd5b60008251610ae7818460208701610b42565b9190910192915050565b6020815260008251806020840152610b10816040850160208701610b42565b601f017fffffffffffffffffffffffffffffffffffffffffffffffffffffffffffffffe0169190910160400192915050565b60005b83811015610b5d578181015183820152602001610b45565b83811115610b6c576000848401525b5050505056fea2646970667358221220fc2623c999512d791949b80c45860fb45f8de124bab9c40078ce105e11a0ab4d64736f6c63430008070033",
  "linkReferences": {},
  "deployedLinkReferences": {}
}