{
  "_format": "hh-sol-artifact-1",
  "contractName": "Vault",
  "sourceName": "contracts/exchange/Vault.sol",
  "abi": [
    {
      "anonymous": false,
      "inputs": [
        {
          "indexed": false,
          "internalType": "uint8",
          "name": "version",
          "type": "uint8"
        }
      ],
      "name": "Initialized",
      "type": "event"
    },
    {
      "anonymous": false,
      "inputs": [
        {
          "indexed": true,
          "internalType": "address",
          "name": "previousOwner",
          "type": "address"
        },
        {
          "indexed": true,
          "internalType": "address",
          "name": "newOwner",
          "type": "address"
        }
      ],
      "name": "OwnershipTransferred",
      "type": "event"
    },
    {
      "inputs": [],
      "name": "initialize",
      "outputs": [],
      "stateMutability": "nonpayable",
      "type": "function"
    },
    {
      "inputs": [],
      "name": "owner",
      "outputs": [
        {
          "internalType": "address",
          "name": "",
          "type": "address"
        }
      ],
      "stateMutability": "view",
      "type": "function"
    },
    {
      "inputs": [],
      "name": "renounceOwnership",
      "outputs": [],
      "stateMutability": "nonpayable",
      "type": "function"
    },
    {
      "inputs": [
        {
          "internalType": "address",
          "name": "token",
          "type": "address"
        },
        {
          "internalType": "address",
          "name": "to",
          "type": "address"
        },
        {
          "internalType": "uint256",
          "name": "amount",
          "type": "uint256"
        }
      ],
      "name": "sendERC20",
      "outputs": [],
      "stateMutability": "nonpayable",
      "type": "function"
    },
    {
      "inputs": [
        {
          "internalType": "address",
          "name": "to",
          "type": "address"
        },
        {
          "internalType": "uint256",
          "name": "amount",
          "type": "uint256"
        }
      ],
      "name": "sendEther",
      "outputs": [],
      "stateMutability": "nonpayable",
      "type": "function"
    },
    {
      "inputs": [
        {
          "internalType": "address",
          "name": "newOwner",
          "type": "address"
        }
      ],
      "name": "transferOwnership",
      "outputs": [],
      "stateMutability": "nonpayable",
      "type": "function"
    },
    {
      "stateMutability": "payable",
      "type": "receive"
    }
  ],
  "bytecode": "0x608060405234801561001057600080fd5b50610af2806100206000396000f3fe6080604052600436106100695760003560e01c80638f975a64116100435780638f975a64146100cd578063c1756a2c146100ed578063f2fde38b1461010d57600080fd5b8063715018a6146100755780638129fc1c1461008c5780638da5cb5b146100a157600080fd5b3661007057005b600080fd5b34801561008157600080fd5b5061008a61012d565b005b34801561009857600080fd5b5061008a610141565b3480156100ad57600080fd5b50603354604080516001600160a01b039092168252519081900360200190f35b3480156100d957600080fd5b5061008a6100e8366004610997565b61028c565b3480156100f957600080fd5b5061008a6101083660046109d3565b610301565b34801561011957600080fd5b5061008a61012836600461097c565b610344565b6101356103d1565b61013f600061042b565b565b600054610100900460ff16158080156101615750600054600160ff909116105b8061017b5750303b15801561017b575060005460ff166001145b6101f25760405162461bcd60e51b815260206004820152602e60248201527f496e697469616c697a61626c653a20636f6e747261637420697320616c72656160448201527f647920696e697469616c697a656400000000000000000000000000000000000060648201526084015b60405180910390fd5b600080547fffffffffffffffffffffffffffffffffffffffffffffffffffffffffffffff001660011790558015610233576000805461ff0019166101001790555b61023b610495565b610243610508565b8015610289576000805461ff0019169055604051600181527f7f26b83ff96e1f2b6a682f133852f6798a09c465da95921460cefb38474024989060200160405180910390a15b50565b6102946103d1565b600260655414156102e75760405162461bcd60e51b815260206004820152601f60248201527f5265656e7472616e637947756172643a207265656e7472616e742063616c6c0060448201526064016101e9565b60026065556102f783838361057b565b5050600160655550565b6103096103d1565b6040516001600160a01b0383169082156108fc029083906000818181858888f1935050505015801561033f573d6000803e3d6000fd5b505050565b61034c6103d1565b6001600160a01b0381166103c85760405162461bcd60e51b815260206004820152602660248201527f4f776e61626c653a206e6577206f776e657220697320746865207a65726f206160448201527f646472657373000000000000000000000000000000000000000000000000000060648201526084016101e9565b6102898161042b565b6033546001600160a01b0316331461013f5760405162461bcd60e51b815260206004820181905260248201527f4f776e61626c653a2063616c6c6572206973206e6f7420746865206f776e657260448201526064016101e9565b603380546001600160a01b038381167fffffffffffffffffffffffff0000000000000000000000000000000000000000831681179093556040519116919082907f8be0079c531659141344cd1fd0a4f28419497f9722a3daafe3b4186f6b6457e090600090a35050565b600054610100900460ff166105005760405162461bcd60e51b815260206004820152602b60248201527f496e697469616c697a61626c653a20636f6e7472616374206973206e6f74206960448201526a6e697469616c697a696e6760a81b60648201526084016101e9565b61013f6105fb565b600054610100900460ff166105735760405162461bcd60e51b815260206004820152602b60248201527f496e697469616c697a61626c653a20636f6e7472616374206973206e6f74206960448201526a6e697469616c697a696e6760a81b60648201526084016101e9565b61013f61066f565b604080516001600160a01b038416602482015260448082018490528251808303909101815260649091019091526020810180517bffffffffffffffffffffffffffffffffffffffffffffffffffffffff167fa9059cbb0000000000000000000000000000000000000000000000000000000017905261033f9084906106e1565b600054610100900460ff166106665760405162461bcd60e51b815260206004820152602b60248201527f496e697469616c697a61626c653a20636f6e7472616374206973206e6f74206960448201526a6e697469616c697a696e6760a81b60648201526084016101e9565b61013f3361042b565b600054610100900460ff166106da5760405162461bcd60e51b815260206004820152602b60248201527f496e697469616c697a61626c653a20636f6e7472616374206973206e6f74206960448201526a6e697469616c697a696e6760a81b60648201526084016101e9565b6001606555565b6000610736826040518060400160405280602081526020017f5361666545524332303a206c6f772d6c6576656c2063616c6c206661696c6564815250856001600160a01b03166107c69092919063ffffffff16565b80519091501561033f578080602001905181019061075491906109fd565b61033f5760405162461bcd60e51b815260206004820152602a60248201527f5361666545524332303a204552433230206f7065726174696f6e20646964206e60448201527f6f7420737563636565640000000000000000000000000000000000000000000060648201526084016101e9565b60606107d584846000856107df565b90505b9392505050565b6060824710156108575760405162461bcd60e51b815260206004820152602660248201527f416464726573733a20696e73756666696369656e742062616c616e636520666f60448201527f722063616c6c000000000000000000000000000000000000000000000000000060648201526084016101e9565b6001600160a01b0385163b6108ae5760405162461bcd60e51b815260206004820152601d60248201527f416464726573733a2063616c6c20746f206e6f6e2d636f6e747261637400000060448201526064016101e9565b600080866001600160a01b031685876040516108ca9190610a1f565b60006040518083038185875af1925050503d8060008114610907576040519150601f19603f3d011682016040523d82523d6000602084013e61090c565b606091505b509150915061091c828286610927565b979650505050505050565b606083156109365750816107d8565b8251156109465782518084602001fd5b8160405162461bcd60e51b81526004016101e99190610a3b565b80356001600160a01b038116811461097757600080fd5b919050565b60006020828403121561098e57600080fd5b6107d882610960565b6000806000606084860312156109ac57600080fd5b6109b584610960565b92506109c360208501610960565b9150604084013590509250925092565b600080604083850312156109e657600080fd5b6109ef83610960565b946020939093013593505050565b600060208284031215610a0f57600080fd5b815180151581146107d857600080fd5b60008251610a31818460208701610a8c565b9190910192915050565b6020815260008251806020840152610a5a816040850160208701610a8c565b601f017fffffffffffffffffffffffffffffffffffffffffffffffffffffffffffffffe0169190910160400192915050565b60005b83811015610aa7578181015183820152602001610a8f565b83811115610ab6576000848401525b5050505056fea2646970667358221220a4764d4512d772bfd99b563e1bdaefa0c0d6ad02c7b95966a84816732c69caa564736f6c63430008070033",
  "linkReferences": {},
  "deployedLinkReferences": {}
}