{
  "_format": "hh-sol-artifact-1",
  "contractName": "Controller",
  "sourceName": "contracts/Controller.sol",
  "abi": [
    {
      "inputs": [
        {
          "internalType": "address",
          "name": "signer",
          "type": "address"
        }
      ],
      "stateMutability": "nonpayable",
      "type": "constructor"
    },
    {
      "anonymous": false,
      "inputs": [
        {
          "indexed": true,
          "internalType": "address",
          "name": "exchange",
          "type": "address"
        },
        {
          "indexed": false,
          "internalType": "bool",
          "name": "authorized",
          "type": "bool"
        }
      ],
      "name": "ExchangeApprovedOrCancelled",
      "type": "event"
    },
    {
      "anonymous": false,
      "inputs": [
        {
          "indexed": true,
          "internalType": "address",
          "name": "previousOwner",
          "type": "address"
        },
        {
          "indexed": true,
          "internalType": "address",
          "name": "newOwner",
          "type": "address"
        }
      ],
      "name": "OwnershipTransferred",
      "type": "event"
    },
    {
      "anonymous": false,
      "inputs": [
        {
          "indexed": true,
          "internalType": "address",
          "name": "transferProxy",
          "type": "address"
        }
      ],
      "name": "TransferProxyRegistered",
      "type": "event"
    },
    {
      "inputs": [
        {
          "internalType": "address",
          "name": "exchange_",
          "type": "address"
        },
        {
          "internalType": "bool",
          "name": "bool_",
          "type": "bool"
        }
      ],
      "name": "approveOrCancel",
      "outputs": [],
      "stateMutability": "nonpayable",
      "type": "function"
    },
    {
      "inputs": [
        {
          "internalType": "contract TransparentUpgradeableProxy",
          "name": "proxy",
          "type": "address"
        },
        {
          "internalType": "address",
          "name": "newAdmin",
          "type": "address"
        }
      ],
      "name": "changeProxyAdmin",
      "outputs": [],
      "stateMutability": "nonpayable",
      "type": "function"
    },
    {
      "inputs": [
        {
          "internalType": "contract TransparentUpgradeableProxy",
          "name": "proxy",
          "type": "address"
        }
      ],
      "name": "getProxyAdmin",
      "outputs": [
        {
          "internalType": "address",
          "name": "",
          "type": "address"
        }
      ],
      "stateMutability": "view",
      "type": "function"
    },
    {
      "inputs": [
        {
          "internalType": "contract TransparentUpgradeableProxy",
          "name": "proxy",
          "type": "address"
        }
      ],
      "name": "getProxyImplementation",
      "outputs": [
        {
          "internalType": "address",
          "name": "",
          "type": "address"
        }
      ],
      "stateMutability": "view",
      "type": "function"
    },
    {
      "inputs": [],
      "name": "getSigner",
      "outputs": [
        {
          "internalType": "address",
          "name": "",
          "type": "address"
        }
      ],
      "stateMutability": "view",
      "type": "function"
    },
    {
      "inputs": [],
      "name": "getTransferProxy",
      "outputs": [
        {
          "internalType": "address",
          "name": "",
          "type": "address"
        }
      ],
      "stateMutability": "view",
      "type": "function"
    },
    {
      "inputs": [
        {
          "internalType": "address",
          "name": "exchange_",
          "type": "address"
        }
      ],
      "name": "isApproved",
      "outputs": [
        {
          "internalType": "bool",
          "name": "",
          "type": "bool"
        }
      ],
      "stateMutability": "view",
      "type": "function"
    },
    {
      "inputs": [],
      "name": "owner",
      "outputs": [
        {
          "internalType": "address",
          "name": "",
          "type": "address"
        }
      ],
      "stateMutability": "view",
      "type": "function"
    },
    {
      "inputs": [
        {
          "internalType": "address",
          "name": "transferProxy_",
          "type": "address"
        }
      ],
      "name": "registerTransferProxy",
      "outputs": [],
      "stateMutability": "nonpayable",
      "type": "function"
    },
    {
      "inputs": [],
      "name": "renounceOwnership",
      "outputs": [],
      "stateMutability": "nonpayable",
      "type": "function"
    },
    {
      "inputs": [
        {
          "internalType": "address",
          "name": "signer_",
          "type": "address"
        }
      ],
      "name": "setSigner",
      "outputs": [],
      "stateMutability": "nonpayable",
      "type": "function"
    },
    {
      "inputs": [
        {
          "internalType": "address",
          "name": "newOwner",
          "type": "address"
        }
      ],
      "name": "transferOwnership",
      "outputs": [],
      "stateMutability": "nonpayable",
      "type": "function"
    },
    {
      "inputs": [
        {
          "internalType": "contract TransparentUpgradeableProxy",
          "name": "proxy",
          "type": "address"
        },
        {
          "internalType": "address",
          "name": "implementation",
          "type": "address"
        }
      ],
      "name": "upgrade",
      "outputs": [],
      "stateMutability": "nonpayable",
      "type": "function"
    },
    {
      "inputs": [
        {
          "internalType": "contract TransparentUpgradeableProxy",
          "name": "proxy",
          "type": "address"
        },
        {
          "internalType": "address",
          "name": "implementation",
          "type": "address"
        },
        {
          "internalType": "bytes",
          "name": "data",
          "type": "bytes"
        }
      ],
      "name": "upgradeAndCall",
      "outputs": [],
      "stateMutability": "payable",
      "type": "function"
    }
  ],
  "bytecode": "0x608060405234801561001057600080fd5b50604051610b0b380380610b0b83398101604081905261002f916100ad565b6100383361005d565b600180546001600160a01b0319166001600160a01b03929092169190911790556100dd565b600080546001600160a01b038381166001600160a01b0319831681178455604051919092169283917f8be0079c531659141344cd1fd0a4f28419497f9722a3daafe3b4186f6b6457e09190a35050565b6000602082840312156100bf57600080fd5b81516001600160a01b03811681146100d657600080fd5b9392505050565b610a1f806100ec6000396000f3fe6080604052600436106100dd5760003560e01c806381bd66f71161007f57806399a88ec41161005957806399a88ec41461024e578063f2fde38b1461026e578063f3b7dead1461028e578063f9bf8006146102ae57600080fd5b806381bd66f7146101fd5780638da5cb5b1461021d5780639623609d1461023b57600080fd5b80636c19e783116100bb5780636c19e7831461018a578063715018a6146101aa5780637ac3c02f146101bf5780637eff275e146101dd57600080fd5b80630b3f804f146100e2578063204e1c7a14610104578063673448dd14610141575b600080fd5b3480156100ee57600080fd5b506101026100fd3660046107bc565b6102cc565b005b34801561011057600080fd5b5061012461011f3660046107bc565b61032b565b6040516001600160a01b0390911681526020015b60405180910390f35b34801561014d57600080fd5b5061017a61015c3660046107bc565b6001600160a01b031660009081526003602052604090205460ff1690565b6040519015158152602001610138565b34801561019657600080fd5b506101026101a53660046107bc565b6103d5565b3480156101b657600080fd5b5061010261040c565b3480156101cb57600080fd5b506001546001600160a01b0316610124565b3480156101e957600080fd5b506101026101f836600461083b565b610420565b34801561020957600080fd5b506101026102183660046107fd565b6104a1565b34801561022957600080fd5b506000546001600160a01b0316610124565b610102610249366004610869565b610526565b34801561025a57600080fd5b5061010261026936600461083b565b6105ae565b34801561027a57600080fd5b506101026102893660046107bc565b6105fd565b34801561029a57600080fd5b506101246102a93660046107bc565b6106ac565b3480156102ba57600080fd5b506002546001600160a01b0316610124565b6102d46106eb565b6002805473ffffffffffffffffffffffffffffffffffffffff19166001600160a01b0383169081179091556040517fc28638471adfe5dfb5f64eea11a9eca46276161673f518e918c7de7e8bb66c9b90600090a250565b6000806000836001600160a01b031660405161036a907f5c60da1b00000000000000000000000000000000000000000000000000000000815260040190565b600060405180830381855afa9150503d80600081146103a5576040519150601f19603f3d011682016040523d82523d6000602084013e6103aa565b606091505b5091509150816103b957600080fd5b808060200190518101906103cd91906107e0565b949350505050565b6103dd6106eb565b6001805473ffffffffffffffffffffffffffffffffffffffff19166001600160a01b0392909216919091179055565b6104146106eb565b61041e600061075f565b565b6104286106eb565b6040517f8f2839700000000000000000000000000000000000000000000000000000000081526001600160a01b038281166004830152831690638f283970906024015b600060405180830381600087803b15801561048557600080fd5b505af1158015610499573d6000803e3d6000fd5b505050505050565b6104a96106eb565b6001600160a01b03821660008181526003602090815260409182902080547fffffffffffffffffffffffffffffffffffffffffffffffffffffffffffffff001685151590811790915591519182527f30cdfa408369f045f47093f83387e1d482903ed776e3427fba87afe4f213eb7f910160405180910390a25050565b61052e6106eb565b6040517f4f1ef2860000000000000000000000000000000000000000000000000000000081526001600160a01b03841690634f1ef286903490610577908690869060040161093f565b6000604051808303818588803b15801561059057600080fd5b505af11580156105a4573d6000803e3d6000fd5b5050505050505050565b6105b66106eb565b6040517f3659cfe60000000000000000000000000000000000000000000000000000000081526001600160a01b038281166004830152831690633659cfe69060240161046b565b6106056106eb565b6001600160a01b0381166106a0576040517f08c379a000000000000000000000000000000000000000000000000000000000815260206004820152602660248201527f4f776e61626c653a206e6577206f776e657220697320746865207a65726f206160448201527f646472657373000000000000000000000000000000000000000000000000000060648201526084015b60405180910390fd5b6106a98161075f565b50565b6000806000836001600160a01b031660405161036a907ff851a44000000000000000000000000000000000000000000000000000000000815260040190565b6000546001600160a01b0316331461041e576040517f08c379a000000000000000000000000000000000000000000000000000000000815260206004820181905260248201527f4f776e61626c653a2063616c6c6572206973206e6f7420746865206f776e65726044820152606401610697565b600080546001600160a01b0383811673ffffffffffffffffffffffffffffffffffffffff19831681178455604051919092169283917f8be0079c531659141344cd1fd0a4f28419497f9722a3daafe3b4186f6b6457e09190a35050565b6000602082840312156107ce57600080fd5b81356107d9816109d4565b9392505050565b6000602082840312156107f257600080fd5b81516107d9816109d4565b6000806040838503121561081057600080fd5b823561081b816109d4565b91506020830135801515811461083057600080fd5b809150509250929050565b6000806040838503121561084e57600080fd5b8235610859816109d4565b91506020830135610830816109d4565b60008060006060848603121561087e57600080fd5b8335610889816109d4565b92506020840135610899816109d4565b9150604084013567ffffffffffffffff808211156108b657600080fd5b818601915086601f8301126108ca57600080fd5b8135818111156108dc576108dc6109a5565b604051601f8201601f19908116603f01168101908382118183101715610904576109046109a5565b8160405282815289602084870101111561091d57600080fd5b8260208601602083013760006020848301015280955050505050509250925092565b6001600160a01b038316815260006020604081840152835180604085015260005b8181101561097c57858101830151858201606001528201610960565b8181111561098e576000606083870101525b50601f01601f191692909201606001949350505050565b7f4e487b7100000000000000000000000000000000000000000000000000000000600052604160045260246000fd5b6001600160a01b03811681146106a957600080fdfea2646970667358221220024a900349791cf9096ac497fad8f7d1fd7dc21631bb00d8b6999867b65c589564736f6c63430008070033",
  "linkReferences": {},
  "deployedLinkReferences": {}
}