{
  "_format": "hh-sol-artifact-1",
  "contractName": "Controller",
  "sourceName": "contracts/Controller.sol",
  "abi": [
    {
      "inputs": [
        {
          "internalType": "address",
          "name": "signer",
          "type": "address"
        }
      ],
      "stateMutability": "nonpayable",
      "type": "constructor"
    },
    {
      "anonymous": false,
      "inputs": [
        {
          "indexed": true,
          "internalType": "address",
          "name": "exchange",
          "type": "address"
        },
        {
          "indexed": false,
          "internalType": "bool",
          "name": "authorized",
          "type": "bool"
        }
      ],
      "name": "ExchangeApprovedOrCancelled",
      "type": "event"
    },
    {
      "anonymous": false,
      "inputs": [
        {
          "indexed": true,
          "internalType": "address",
          "name": "previousOwner",
          "type": "address"
        },
        {
          "indexed": true,
          "internalType": "address",
          "name": "newOwner",
          "type": "address"
        }
      ],
      "name": "OwnershipTransferred",
      "type": "event"
    },
    {
      "anonymous": false,
      "inputs": [
        {
          "indexed": true,
          "internalType": "address",
          "name": "transferProxy",
          "type": "address"
        }
      ],
      "name": "TransferProxyRegistered",
      "type": "event"
    },
    {
      "inputs": [
        {
          "internalType": "address",
          "name": "exchange_",
          "type": "address"
        },
        {
          "internalType": "bool",
          "name": "bool_",
          "type": "bool"
        }
      ],
      "name": "approveOrCancel",
      "outputs": [],
      "stateMutability": "nonpayable",
      "type": "function"
    },
    {
      "inputs": [
        {
          "internalType": "contract TransparentUpgradeableProxy",
          "name": "proxy",
          "type": "address"
        },
        {
          "internalType": "address",
          "name": "newAdmin",
          "type": "address"
        }
      ],
      "name": "changeProxyAdmin",
      "outputs": [],
      "stateMutability": "nonpayable",
      "type": "function"
    },
    {
      "inputs": [
        {
          "internalType": "contract TransparentUpgradeableProxy",
          "name": "proxy",
          "type": "address"
        }
      ],
      "name": "getProxyAdmin",
      "outputs": [
        {
          "internalType": "address",
          "name": "",
          "type": "address"
        }
      ],
      "stateMutability": "view",
      "type": "function"
    },
    {
      "inputs": [
        {
          "internalType": "contract TransparentUpgradeableProxy",
          "name": "proxy",
          "type": "address"
        }
      ],
      "name": "getProxyImplementation",
      "outputs": [
        {
          "internalType": "address",
          "name": "",
          "type": "address"
        }
      ],
      "stateMutability": "view",
      "type": "function"
    },
    {
      "inputs": [],
      "name": "getSigner",
      "outputs": [
        {
          "internalType": "address",
          "name": "",
          "type": "address"
        }
      ],
      "stateMutability": "view",
      "type": "function"
    },
    {
      "inputs": [],
      "name": "getTransferProxy",
      "outputs": [
        {
          "internalType": "address",
          "name": "",
          "type": "address"
        }
      ],
      "stateMutability": "view",
      "type": "function"
    },
    {
      "inputs": [
        {
          "internalType": "address",
          "name": "exchange_",
          "type": "address"
        }
      ],
      "name": "isApproved",
      "outputs": [
        {
          "internalType": "bool",
          "name": "",
          "type": "bool"
        }
      ],
      "stateMutability": "view",
      "type": "function"
    },
    {
      "inputs": [],
      "name": "owner",
      "outputs": [
        {
          "internalType": "address",
          "name": "",
          "type": "address"
        }
      ],
      "stateMutability": "view",
      "type": "function"
    },
    {
      "inputs": [
        {
          "internalType": "address",
          "name": "transferProxy_",
          "type": "address"
        }
      ],
      "name": "registerTransferProxy",
      "outputs": [],
      "stateMutability": "nonpayable",
      "type": "function"
    },
    {
      "inputs": [],
      "name": "renounceOwnership",
      "outputs": [],
      "stateMutability": "nonpayable",
      "type": "function"
    },
    {
      "inputs": [
        {
          "internalType": "address",
          "name": "signer_",
          "type": "address"
        }
      ],
      "name": "setSigner",
      "outputs": [],
      "stateMutability": "nonpayable",
      "type": "function"
    },
    {
      "inputs": [
        {
          "internalType": "address",
          "name": "newOwner",
          "type": "address"
        }
      ],
      "name": "transferOwnership",
      "outputs": [],
      "stateMutability": "nonpayable",
      "type": "function"
    },
    {
      "inputs": [
        {
          "internalType": "contract TransparentUpgradeableProxy",
          "name": "proxy",
          "type": "address"
        },
        {
          "internalType": "address",
          "name": "implementation",
          "type": "address"
        }
      ],
      "name": "upgrade",
      "outputs": [],
      "stateMutability": "nonpayable",
      "type": "function"
    },
    {
      "inputs": [
        {
          "internalType": "contract TransparentUpgradeableProxy",
          "name": "proxy",
          "type": "address"
        },
        {
          "internalType": "address",
          "name": "implementation",
          "type": "address"
        },
        {
          "internalType": "bytes",
          "name": "data",
          "type": "bytes"
        }
      ],
      "name": "upgradeAndCall",
      "outputs": [],
      "stateMutability": "payable",
      "type": "function"
    }
  ],
  "bytecode": "0x608060405234801561001057600080fd5b50604051610d0d380380610d0d83398101604081905261002f916100ad565b6100383361005d565b600180546001600160a01b0319166001600160a01b03929092169190911790556100dd565b600080546001600160a01b038381166001600160a01b0319831681178455604051919092169283917f8be0079c531659141344cd1fd0a4f28419497f9722a3daafe3b4186f6b6457e09190a35050565b6000602082840312156100bf57600080fd5b81516001600160a01b03811681146100d657600080fd5b9392505050565b610c21806100ec6000396000f3fe6080604052600436106100dd5760003560e01c806381bd66f71161007f57806399a88ec41161005957806399a88ec41461024e578063f2fde38b1461026e578063f3b7dead1461028e578063f9bf8006146102ae57600080fd5b806381bd66f7146101fd5780638da5cb5b1461021d5780639623609d1461023b57600080fd5b80636c19e783116100bb5780636c19e7831461018a578063715018a6146101aa5780637ac3c02f146101bf5780637eff275e146101dd57600080fd5b80630b3f804f146100e2578063204e1c7a14610104578063673448dd14610141575b600080fd5b3480156100ee57600080fd5b506101026100fd3660046109be565b6102cc565b005b34801561011057600080fd5b5061012461011f3660046109be565b610382565b6040516001600160a01b0390911681526020015b60405180910390f35b34801561014d57600080fd5b5061017a61015c3660046109be565b6001600160a01b031660009081526003602052604090205460ff1690565b6040519015158152602001610138565b34801561019657600080fd5b506101026101a53660046109be565b61042c565b3480156101b657600080fd5b506101026104b5565b3480156101cb57600080fd5b506001546001600160a01b0316610124565b3480156101e957600080fd5b506101026101f8366004610a3d565b61051b565b34801561020957600080fd5b506101026102183660046109ff565b6105ee565b34801561022957600080fd5b506000546001600160a01b0316610124565b610102610249366004610a6b565b6106c5565b34801561025a57600080fd5b50610102610269366004610a3d565b61079f565b34801561027a57600080fd5b506101026102893660046109be565b610840565b34801561029a57600080fd5b506101246102a93660046109be565b610922565b3480156102ba57600080fd5b506002546001600160a01b0316610124565b6000546001600160a01b0316331461032b5760405162461bcd60e51b815260206004820181905260248201527f4f776e61626c653a2063616c6c6572206973206e6f7420746865206f776e657260448201526064015b60405180910390fd5b6002805473ffffffffffffffffffffffffffffffffffffffff19166001600160a01b0383169081179091556040517fc28638471adfe5dfb5f64eea11a9eca46276161673f518e918c7de7e8bb66c9b90600090a250565b6000806000836001600160a01b03166040516103c1907f5c60da1b00000000000000000000000000000000000000000000000000000000815260040190565b600060405180830381855afa9150503d80600081146103fc576040519150601f19603f3d011682016040523d82523d6000602084013e610401565b606091505b50915091508161041057600080fd5b8080602001905181019061042491906109e2565b949350505050565b6000546001600160a01b031633146104865760405162461bcd60e51b815260206004820181905260248201527f4f776e61626c653a2063616c6c6572206973206e6f7420746865206f776e65726044820152606401610322565b6001805473ffffffffffffffffffffffffffffffffffffffff19166001600160a01b0392909216919091179055565b6000546001600160a01b0316331461050f5760405162461bcd60e51b815260206004820181905260248201527f4f776e61626c653a2063616c6c6572206973206e6f7420746865206f776e65726044820152606401610322565b6105196000610961565b565b6000546001600160a01b031633146105755760405162461bcd60e51b815260206004820181905260248201527f4f776e61626c653a2063616c6c6572206973206e6f7420746865206f776e65726044820152606401610322565b6040517f8f2839700000000000000000000000000000000000000000000000000000000081526001600160a01b038281166004830152831690638f283970906024015b600060405180830381600087803b1580156105d257600080fd5b505af11580156105e6573d6000803e3d6000fd5b505050505050565b6000546001600160a01b031633146106485760405162461bcd60e51b815260206004820181905260248201527f4f776e61626c653a2063616c6c6572206973206e6f7420746865206f776e65726044820152606401610322565b6001600160a01b03821660008181526003602090815260409182902080547fffffffffffffffffffffffffffffffffffffffffffffffffffffffffffffff001685151590811790915591519182527f30cdfa408369f045f47093f83387e1d482903ed776e3427fba87afe4f213eb7f910160405180910390a25050565b6000546001600160a01b0316331461071f5760405162461bcd60e51b815260206004820181905260248201527f4f776e61626c653a2063616c6c6572206973206e6f7420746865206f776e65726044820152606401610322565b6040517f4f1ef2860000000000000000000000000000000000000000000000000000000081526001600160a01b03841690634f1ef2869034906107689086908690600401610b41565b6000604051808303818588803b15801561078157600080fd5b505af1158015610795573d6000803e3d6000fd5b5050505050505050565b6000546001600160a01b031633146107f95760405162461bcd60e51b815260206004820181905260248201527f4f776e61626c653a2063616c6c6572206973206e6f7420746865206f776e65726044820152606401610322565b6040517f3659cfe60000000000000000000000000000000000000000000000000000000081526001600160a01b038281166004830152831690633659cfe6906024016105b8565b6000546001600160a01b0316331461089a5760405162461bcd60e51b815260206004820181905260248201527f4f776e61626c653a2063616c6c6572206973206e6f7420746865206f776e65726044820152606401610322565b6001600160a01b0381166109165760405162461bcd60e51b815260206004820152602660248201527f4f776e61626c653a206e6577206f776e657220697320746865207a65726f206160448201527f64647265737300000000000000000000000000000000000000000000000000006064820152608401610322565b61091f81610961565b50565b6000806000836001600160a01b03166040516103c1907ff851a44000000000000000000000000000000000000000000000000000000000815260040190565b600080546001600160a01b0383811673ffffffffffffffffffffffffffffffffffffffff19831681178455604051919092169283917f8be0079c531659141344cd1fd0a4f28419497f9722a3daafe3b4186f6b6457e09190a35050565b6000602082840312156109d057600080fd5b81356109db81610bd6565b9392505050565b6000602082840312156109f457600080fd5b81516109db81610bd6565b60008060408385031215610a1257600080fd5b8235610a1d81610bd6565b915060208301358015158114610a3257600080fd5b809150509250929050565b60008060408385031215610a5057600080fd5b8235610a5b81610bd6565b91506020830135610a3281610bd6565b600080600060608486031215610a8057600080fd5b8335610a8b81610bd6565b92506020840135610a9b81610bd6565b9150604084013567ffffffffffffffff80821115610ab857600080fd5b818601915086601f830112610acc57600080fd5b813581811115610ade57610ade610ba7565b604051601f8201601f19908116603f01168101908382118183101715610b0657610b06610ba7565b81604052828152896020848701011115610b1f57600080fd5b8260208601602083013760006020848301015280955050505050509250925092565b6001600160a01b038316815260006020604081840152835180604085015260005b81811015610b7e57858101830151858201606001528201610b62565b81811115610b90576000606083870101525b50601f01601f191692909201606001949350505050565b7f4e487b7100000000000000000000000000000000000000000000000000000000600052604160045260246000fd5b6001600160a01b038116811461091f57600080fdfea2646970667358221220ab6902c3be2d52578c26fab33ee8468b51b99ce9bc3baf6604066b9bbf1c6f5664736f6c63430008070033",
  "linkReferences": {},
  "deployedLinkReferences": {}
}