{
  "_format": "hh-sol-artifact-1",
  "contractName": "AirdropPool",
  "sourceName": "contracts/reward/AirdropPool.sol",
  "abi": [
    {
      "inputs": [
        {
          "internalType": "address",
          "name": "controller",
          "type": "address"
        }
      ],
      "stateMutability": "nonpayable",
      "type": "constructor"
    },
    {
      "anonymous": false,
      "inputs": [
        {
          "indexed": true,
          "internalType": "address",
          "name": "previousOwner",
          "type": "address"
        },
        {
          "indexed": true,
          "internalType": "address",
          "name": "newOwner",
          "type": "address"
        }
      ],
      "name": "OwnershipTransferred",
      "type": "event"
    },
    {
      "anonymous": false,
      "inputs": [
        {
          "indexed": true,
          "internalType": "uint256",
          "name": "index",
          "type": "uint256"
        },
        {
          "indexed": true,
          "internalType": "address",
          "name": "rewardToken",
          "type": "address"
        },
        {
          "indexed": false,
          "internalType": "uint256",
          "name": "rewardAmount",
          "type": "uint256"
        },
        {
          "indexed": true,
          "internalType": "address",
          "name": "creator",
          "type": "address"
        },
        {
          "indexed": false,
          "internalType": "uint256",
          "name": "start",
          "type": "uint256"
        },
        {
          "indexed": false,
          "internalType": "uint256",
          "name": "end",
          "type": "uint256"
        }
      ],
      "name": "PoolCreated",
      "type": "event"
    },
    {
      "anonymous": false,
      "inputs": [
        {
          "indexed": true,
          "internalType": "uint256",
          "name": "index",
          "type": "uint256"
        },
        {
          "indexed": true,
          "internalType": "address",
          "name": "rewardToken",
          "type": "address"
        },
        {
          "indexed": false,
          "internalType": "uint256",
          "name": "rewardAmount",
          "type": "uint256"
        },
        {
          "indexed": true,
          "internalType": "address",
          "name": "user",
          "type": "address"
        }
      ],
      "name": "RewardClaimed",
      "type": "event"
    },
    {
      "inputs": [
        {
          "internalType": "uint256",
          "name": "index",
          "type": "uint256"
        },
        {
          "internalType": "uint256",
          "name": "amount",
          "type": "uint256"
        },
        {
          "internalType": "bytes",
          "name": "sig",
          "type": "bytes"
        }
      ],
      "name": "claim",
      "outputs": [],
      "stateMutability": "nonpayable",
      "type": "function"
    },
    {
      "inputs": [
        {
          "internalType": "uint256",
          "name": "index",
          "type": "uint256"
        },
        {
          "internalType": "address",
          "name": "rewardToken",
          "type": "address"
        },
        {
          "internalType": "uint256",
          "name": "rewardAmount",
          "type": "uint256"
        },
        {
          "internalType": "uint256",
          "name": "start",
          "type": "uint256"
        },
        {
          "internalType": "uint256",
          "name": "end",
          "type": "uint256"
        }
      ],
      "name": "create",
      "outputs": [],
      "stateMutability": "nonpayable",
      "type": "function"
    },
    {
      "inputs": [
        {
          "internalType": "uint256",
          "name": "index",
          "type": "uint256"
        }
      ],
      "name": "getPoolInfo",
      "outputs": [
        {
          "components": [
            {
              "internalType": "address",
              "name": "creator",
              "type": "address"
            },
            {
              "internalType": "contract IERC20",
              "name": "rewardToken",
              "type": "address"
            },
            {
              "internalType": "uint256",
              "name": "rewardAmount",
              "type": "uint256"
            },
            {
              "internalType": "uint256",
              "name": "unclaimedAmount",
              "type": "uint256"
            },
            {
              "internalType": "uint256",
              "name": "start",
              "type": "uint256"
            },
            {
              "internalType": "uint256",
              "name": "end",
              "type": "uint256"
            }
          ],
          "internalType": "struct AirdropPool.PoolInfo",
          "name": "",
          "type": "tuple"
        }
      ],
      "stateMutability": "view",
      "type": "function"
    },
    {
      "inputs": [
        {
          "internalType": "uint256",
          "name": "index",
          "type": "uint256"
        },
        {
          "internalType": "address",
          "name": "user",
          "type": "address"
        }
      ],
      "name": "getUserInfo",
      "outputs": [
        {
          "internalType": "bool",
          "name": "",
          "type": "bool"
        }
      ],
      "stateMutability": "view",
      "type": "function"
    },
    {
      "inputs": [],
      "name": "owner",
      "outputs": [
        {
          "internalType": "address",
          "name": "",
          "type": "address"
        }
      ],
      "stateMutability": "view",
      "type": "function"
    },
    {
      "inputs": [
        {
          "internalType": "uint256",
          "name": "",
          "type": "uint256"
        }
      ],
      "name": "poolInfo",
      "outputs": [
        {
          "internalType": "address",
          "name": "creator",
          "type": "address"
        },
        {
          "internalType": "contract IERC20",
          "name": "rewardToken",
          "type": "address"
        },
        {
          "internalType": "uint256",
          "name": "rewardAmount",
          "type": "uint256"
        },
        {
          "internalType": "uint256",
          "name": "unclaimedAmount",
          "type": "uint256"
        },
        {
          "internalType": "uint256",
          "name": "start",
          "type": "uint256"
        },
        {
          "internalType": "uint256",
          "name": "end",
          "type": "uint256"
        }
      ],
      "stateMutability": "view",
      "type": "function"
    },
    {
      "inputs": [],
      "name": "renounceOwnership",
      "outputs": [],
      "stateMutability": "nonpayable",
      "type": "function"
    },
    {
      "inputs": [
        {
          "internalType": "address",
          "name": "newOwner",
          "type": "address"
        }
      ],
      "name": "transferOwnership",
      "outputs": [],
      "stateMutability": "nonpayable",
      "type": "function"
    },
    {
      "inputs": [
        {
          "internalType": "uint256",
          "name": "",
          "type": "uint256"
        },
        {
          "internalType": "address",
          "name": "",
          "type": "address"
        }
      ],
      "name": "userInfo",
      "outputs": [
        {
          "internalType": "bool",
          "name": "isClaimed",
          "type": "bool"
        }
      ],
      "stateMutability": "view",
      "type": "function"
    },
    {
      "inputs": [
        {
          "internalType": "uint256",
          "name": "index",
          "type": "uint256"
        }
      ],
      "name": "withdraw",
      "outputs": [],
      "stateMutability": "nonpayable",
      "type": "function"
    }
  ],
  "bytecode": "0x608060405234801561001057600080fd5b506040516115fa3803806115fa83398101604081905261002f916100b1565b61003833610061565b60018055600280546001600160a01b0319166001600160a01b03929092169190911790556100e1565b600080546001600160a01b038381166001600160a01b0319831681178455604051919092169283917f8be0079c531659141344cd1fd0a4f28419497f9722a3daafe3b4186f6b6457e09190a35050565b6000602082840312156100c357600080fd5b81516001600160a01b03811681146100da57600080fd5b9392505050565b61150a806100f06000396000f3fe608060405234801561001057600080fd5b506004361061009e5760003560e01c80635eddd157116100665780635eddd15714610209578063715018a61461021c5780638da5cb5b1461022457806393f1a40b1461023f578063f2fde38b1461026d57600080fd5b80631069f3b5146100a35780631526fe27146100f15780632e1a7d4d146101795780632f380b351461018e57806356452407146101f6575b600080fd5b6100dc6100b13660046111d9565b60009182526003602090815260408084206001600160a01b0393909316845291905290205460ff1690565b60405190151581526020015b60405180910390f35b6101416100ff3660046111c0565b60046020819052600091825260409091208054600182015460028301546003840154948401546005909401546001600160a01b03938416959290931693909286565b604080516001600160a01b039788168152969095166020870152938501929092526060840152608083015260a082015260c0016100e8565b61018c6101873660046111c0565b610280565b005b6101a161019c3660046111c0565b610433565b6040516100e8919081516001600160a01b0390811682526020808401519091169082015260408083015190820152606080830151908201526080808301519082015260a0918201519181019190915260c00190565b61018c610204366004611209565b6104e2565b61018c610217366004611251565b6106d3565b61018c6109c1565b6000546040516001600160a01b0390911681526020016100e8565b6100dc61024d3660046111d9565b600360209081526000928352604080842090915290825290205460ff1681565b61018c61027b366004611164565b610a27565b600260015414156102ac5760405162461bcd60e51b81526004016102a3906113d1565b60405180910390fd5b60026001556000818152600460205260409020546001600160a01b03166103155760405162461bcd60e51b815260206004820152601b60248201527f7175657279206f66206e6f6e2d6578697374656e636520706f6f6c000000000060448201526064016102a3565b6000818152600460205260409020546001600160a01b0316331461036a5760405162461bcd60e51b815260206004820152600c60248201526b37b7363c9031b932b0ba37b960a11b60448201526064016102a3565b60008181526004602052604090206005015442101561039b5760405162461bcd60e51b81526004016102a390611364565b600081815260046020526040902060018101546003909101546001600160a01b03909116906103cb823383610af2565b336001600160a01b0316826001600160a01b0316847f42c422b3d1b2dd27b20890a92c61d761f550e54f2983bfee95c55102ea8234a88460405161041191815260200190565b60405180910390a4505060009081526004602052604081206003015560018055565b61047e6040518060c0016040528060006001600160a01b0316815260200160006001600160a01b03168152602001600081526020016000815260200160008152602001600081525090565b50600090815260046020818152604092839020835160c08101855281546001600160a01b039081168252600183015416928101929092526002810154938201939093526003830154606082015290820154608082015260059091015460a082015290565b600260015414156105055760405162461bcd60e51b81526004016102a3906113d1565b60026001556000858152600460205260409020546001600160a01b0316156105655760405162461bcd60e51b8152602060048201526013602482015272706f6f6c20616c72656164792065786973747360681b60448201526064016102a3565b8082106105845760405162461bcd60e51b81526004016102a390611364565b61059084333086610b5a565b6040518060c00160405280336001600160a01b03168152602001856001600160a01b03168152602001848152602001848152602001838152602001828152506004600087815260200190815260200160002060008201518160000160006101000a8154816001600160a01b0302191690836001600160a01b0316021790555060208201518160010160006101000a8154816001600160a01b0302191690836001600160a01b0316021790555060408201518160020155606082015181600301556080820151816004015560a08201518160050155905050336001600160a01b0316846001600160a01b0316867fb1152d612f6b8be1b61f9a9df3bb717aafc16f866f065ba79de61e66a6618f1c8686866040516106c0939291909283526020830191909152604082015260600190565b60405180910390a4505060018055505050565b600260015414156106f65760405162461bcd60e51b81526004016102a3906113d1565b60026001556000838152600460205260409020546001600160a01b031661075f5760405162461bcd60e51b815260206004820152601b60248201527f7175657279206f66206e6f6e2d6578697374656e636520706f6f6c000000000060448201526064016102a3565b6000838152600460208190526040909120015442118015610790575060008381526004602052604090206005015442105b6107ac5760405162461bcd60e51b81526004016102a390611364565b600083815260036020908152604080832033845290915290205460ff16156108085760405162461bcd60e51b815260206004820152600f60248201526e636c61696d206f6e6365206f6e6c7960881b60448201526064016102a3565b604080516020810185905290810183905233606082015260009060800160408051601f198184030181528282528051602091820120600254637ac3c02f60e01b855292519094506001600160a01b0390921692637ac3c02f9260048083019392829003018186803b15801561087c57600080fd5b505afa158015610890573d6000803e3d6000fd5b505050506040513d601f19601f820116820180604052508101906108b49190611181565b6001600160a01b03166108c78284610b98565b6001600160a01b0316146109115760405162461bcd60e51b8152602060048201526011602482015270696e76616c6964207369676e617475726560781b60448201526064016102a3565b60008481526003602081815260408084203385528252808420805460ff191660011790558784526004909152822001805485929061095090849061142d565b90915550506000848152600460205260409020600101546001600160a01b031661097b813386610af2565b336001600160a01b0316816001600160a01b0316867f42c422b3d1b2dd27b20890a92c61d761f550e54f2983bfee95c55102ea8234a8876040516106c091815260200190565b6000546001600160a01b03163314610a1b5760405162461bcd60e51b815260206004820181905260248201527f4f776e61626c653a2063616c6c6572206973206e6f7420746865206f776e657260448201526064016102a3565b610a256000610c13565b565b6000546001600160a01b03163314610a815760405162461bcd60e51b815260206004820181905260248201527f4f776e61626c653a2063616c6c6572206973206e6f7420746865206f776e657260448201526064016102a3565b6001600160a01b038116610ae65760405162461bcd60e51b815260206004820152602660248201527f4f776e61626c653a206e6577206f776e657220697320746865207a65726f206160448201526564647265737360d01b60648201526084016102a3565b610aef81610c13565b50565b6040516001600160a01b038316602482015260448101829052610b5590849063a9059cbb60e01b906064015b60408051601f198184030181529190526020810180516001600160e01b03166001600160e01b031990931692909217909152610c63565b505050565b6040516001600160a01b0380851660248301528316604482015260648101829052610b929085906323b872dd60e01b90608401610b1e565b50505050565b60008151604114610beb5760405162461bcd60e51b815260206004820152601f60248201527f45434453413a20696e76616c6964207369676e6174757265206c656e6774680060448201526064016102a3565b60208201516040830151606084015160001a610c0986828585610d35565b9695505050505050565b600080546001600160a01b038381166001600160a01b0319831681178455604051919092169283917f8be0079c531659141344cd1fd0a4f28419497f9722a3daafe3b4186f6b6457e09190a35050565b6000610cb8826040518060400160405280602081526020017f5361666545524332303a206c6f772d6c6576656c2063616c6c206661696c6564815250856001600160a01b0316610f979092919063ffffffff16565b805190915015610b555780806020019051810190610cd6919061119e565b610b555760405162461bcd60e51b815260206004820152602a60248201527f5361666545524332303a204552433230206f7065726174696f6e20646964206e6044820152691bdd081cdd58d8d9595960b21b60648201526084016102a3565b60007f7fffffffffffffffffffffffffffffff5d576e7357a4501ddfe92f46681b20a0821115610db25760405162461bcd60e51b815260206004820152602260248201527f45434453413a20696e76616c6964207369676e6174757265202773272076616c604482015261756560f01b60648201526084016102a3565b6000601e8560ff161115610e7b57610dcb600486611444565b60ff16601b1480610de95750610de2600486611444565b60ff16601c145b610e055760405162461bcd60e51b81526004016102a39061138f565b6001610e1087610fb0565b610e1b600488611444565b6040805160008152602081018083529390935260ff90911690820152606081018690526080810185905260a0016020604051602081039080840390855afa158015610e6a573d6000803e3d6000fd5b505050602060405103519050610f38565b60ff85161580610e8e57508460ff166001145b15610ea157610e9e85601b611408565b94505b8460ff16601b1480610eb657508460ff16601c145b610ed25760405162461bcd60e51b81526004016102a39061138f565b6001610edd87610fb0565b6040805160008152602081018083529290925260ff881690820152606081018690526080810185905260a0016020604051602081039080840390855afa158015610f2b573d6000803e3d6000fd5b5050506020604051035190505b6001600160a01b038116610f8e5760405162461bcd60e51b815260206004820152601860248201527f45434453413a20696e76616c6964207369676e6174757265000000000000000060448201526064016102a3565b95945050505050565b6060610fa68484600085611003565b90505b9392505050565b6040517f19457468657265756d205369676e6564204d6573736167653a0a3332000000006020820152603c8101829052600090605c01604051602081830303815290604052805190602001209050919050565b6060824710156110645760405162461bcd60e51b815260206004820152602660248201527f416464726573733a20696e73756666696369656e742062616c616e636520666f6044820152651c8818d85b1b60d21b60648201526084016102a3565b843b6110b25760405162461bcd60e51b815260206004820152601d60248201527f416464726573733a2063616c6c20746f206e6f6e2d636f6e747261637400000060448201526064016102a3565b600080866001600160a01b031685876040516110ce9190611315565b60006040518083038185875af1925050503d806000811461110b576040519150601f19603f3d011682016040523d82523d6000602084013e611110565b606091505b509150915061112082828661112b565b979650505050505050565b6060831561113a575081610fa9565b82511561114a5782518084602001fd5b8160405162461bcd60e51b81526004016102a39190611331565b60006020828403121561117657600080fd5b8135610fa9816114bf565b60006020828403121561119357600080fd5b8151610fa9816114bf565b6000602082840312156111b057600080fd5b81518015158114610fa957600080fd5b6000602082840312156111d257600080fd5b5035919050565b600080604083850312156111ec57600080fd5b8235915060208301356111fe816114bf565b809150509250929050565b600080600080600060a0868803121561122157600080fd5b853594506020860135611233816114bf565b94979496505050506040830135926060810135926080909101359150565b60008060006060848603121561126657600080fd5b8335925060208401359150604084013567ffffffffffffffff8082111561128c57600080fd5b818601915086601f8301126112a057600080fd5b8135818111156112b2576112b26114a9565b604051601f8201601f19908116603f011681019083821181831017156112da576112da6114a9565b816040528281528960208487010111156112f357600080fd5b8260208601602083013760006020848301015280955050505050509250925092565b60008251611327818460208701611467565b9190910192915050565b6020815260008251806020840152611350816040850160208701611467565b601f01601f19169190910160400192915050565b6020808252601190820152700696e76616c69642074696d657374616d7607c1b604082015260600190565b60208082526022908201527f45434453413a20696e76616c6964207369676e6174757265202776272076616c604082015261756560f01b606082015260800190565b6020808252601f908201527f5265656e7472616e637947756172643a207265656e7472616e742063616c6c00604082015260600190565b600060ff821660ff84168060ff0382111561142557611425611493565b019392505050565b60008282101561143f5761143f611493565b500390565b600060ff821660ff84168082101561145e5761145e611493565b90039392505050565b60005b8381101561148257818101518382015260200161146a565b83811115610b925750506000910152565b634e487b7160e01b600052601160045260246000fd5b634e487b7160e01b600052604160045260246000fd5b6001600160a01b0381168114610aef57600080fdfea26469706673582212204dab69eef69a5457715fe96975d3e792f23898f5e68acd0e10252642f7e7635f64736f6c63430008060033",
  "linkReferences": {},
  "deployedLinkReferences": {}
}