{
  "_format": "hh-sol-artifact-1",
  "contractName": "AirdropPool",
  "sourceName": "contracts/reward/AirdropPool.sol",
  "abi": [
    {
      "inputs": [
        {
          "internalType": "address",
          "name": "controller",
          "type": "address"
        }
      ],
      "stateMutability": "nonpayable",
      "type": "constructor"
    },
    {
      "anonymous": false,
      "inputs": [
        {
          "indexed": true,
          "internalType": "address",
          "name": "previousOwner",
          "type": "address"
        },
        {
          "indexed": true,
          "internalType": "address",
          "name": "newOwner",
          "type": "address"
        }
      ],
      "name": "OwnershipTransferred",
      "type": "event"
    },
    {
      "anonymous": false,
      "inputs": [
        {
          "indexed": true,
          "internalType": "uint256",
          "name": "index",
          "type": "uint256"
        },
        {
          "indexed": true,
          "internalType": "address",
          "name": "rewardToken",
          "type": "address"
        },
        {
          "indexed": false,
          "internalType": "uint256",
          "name": "rewardAmount",
          "type": "uint256"
        },
        {
          "indexed": true,
          "internalType": "address",
          "name": "creator",
          "type": "address"
        },
        {
          "indexed": false,
          "internalType": "uint256",
          "name": "start",
          "type": "uint256"
        },
        {
          "indexed": false,
          "internalType": "uint256",
          "name": "end",
          "type": "uint256"
        }
      ],
      "name": "PoolCreated",
      "type": "event"
    },
    {
      "anonymous": false,
      "inputs": [
        {
          "indexed": true,
          "internalType": "uint256",
          "name": "index",
          "type": "uint256"
        },
        {
          "indexed": true,
          "internalType": "address",
          "name": "rewardToken",
          "type": "address"
        },
        {
          "indexed": false,
          "internalType": "uint256",
          "name": "rewardAmount",
          "type": "uint256"
        },
        {
          "indexed": true,
          "internalType": "address",
          "name": "user",
          "type": "address"
        }
      ],
      "name": "RewardClaimed",
      "type": "event"
    },
    {
      "inputs": [
        {
          "internalType": "uint256",
          "name": "index",
          "type": "uint256"
        },
        {
          "internalType": "uint256",
          "name": "amount",
          "type": "uint256"
        },
        {
          "internalType": "bytes",
          "name": "sig",
          "type": "bytes"
        }
      ],
      "name": "claim",
      "outputs": [],
      "stateMutability": "nonpayable",
      "type": "function"
    },
    {
      "inputs": [
        {
          "internalType": "address",
          "name": "rewardToken",
          "type": "address"
        },
        {
          "internalType": "uint256",
          "name": "rewardAmount",
          "type": "uint256"
        },
        {
          "internalType": "uint256",
          "name": "start",
          "type": "uint256"
        },
        {
          "internalType": "uint256",
          "name": "end",
          "type": "uint256"
        }
      ],
      "name": "create",
      "outputs": [],
      "stateMutability": "nonpayable",
      "type": "function"
    },
    {
      "inputs": [
        {
          "internalType": "uint256",
          "name": "index",
          "type": "uint256"
        }
      ],
      "name": "getPoolInfo",
      "outputs": [
        {
          "components": [
            {
              "internalType": "address",
              "name": "creator",
              "type": "address"
            },
            {
              "internalType": "contract IERC20",
              "name": "rewardToken",
              "type": "address"
            },
            {
              "internalType": "uint256",
              "name": "rewardAmount",
              "type": "uint256"
            },
            {
              "internalType": "uint256",
              "name": "unclaimedAmount",
              "type": "uint256"
            },
            {
              "internalType": "uint256",
              "name": "start",
              "type": "uint256"
            },
            {
              "internalType": "uint256",
              "name": "end",
              "type": "uint256"
            }
          ],
          "internalType": "struct AirdropPool.PoolInfo",
          "name": "",
          "type": "tuple"
        }
      ],
      "stateMutability": "view",
      "type": "function"
    },
    {
      "inputs": [
        {
          "internalType": "uint256",
          "name": "index",
          "type": "uint256"
        },
        {
          "internalType": "address",
          "name": "user",
          "type": "address"
        }
      ],
      "name": "getUserInfo",
      "outputs": [
        {
          "internalType": "bool",
          "name": "",
          "type": "bool"
        }
      ],
      "stateMutability": "view",
      "type": "function"
    },
    {
      "inputs": [],
      "name": "owner",
      "outputs": [
        {
          "internalType": "address",
          "name": "",
          "type": "address"
        }
      ],
      "stateMutability": "view",
      "type": "function"
    },
    {
      "inputs": [
        {
          "internalType": "uint256",
          "name": "",
          "type": "uint256"
        }
      ],
      "name": "poolInfo",
      "outputs": [
        {
          "internalType": "address",
          "name": "creator",
          "type": "address"
        },
        {
          "internalType": "contract IERC20",
          "name": "rewardToken",
          "type": "address"
        },
        {
          "internalType": "uint256",
          "name": "rewardAmount",
          "type": "uint256"
        },
        {
          "internalType": "uint256",
          "name": "unclaimedAmount",
          "type": "uint256"
        },
        {
          "internalType": "uint256",
          "name": "start",
          "type": "uint256"
        },
        {
          "internalType": "uint256",
          "name": "end",
          "type": "uint256"
        }
      ],
      "stateMutability": "view",
      "type": "function"
    },
    {
      "inputs": [],
      "name": "renounceOwnership",
      "outputs": [],
      "stateMutability": "nonpayable",
      "type": "function"
    },
    {
      "inputs": [
        {
          "internalType": "address",
          "name": "newOwner",
          "type": "address"
        }
      ],
      "name": "transferOwnership",
      "outputs": [],
      "stateMutability": "nonpayable",
      "type": "function"
    },
    {
      "inputs": [
        {
          "internalType": "uint256",
          "name": "",
          "type": "uint256"
        },
        {
          "internalType": "address",
          "name": "",
          "type": "address"
        }
      ],
      "name": "userInfo",
      "outputs": [
        {
          "internalType": "bool",
          "name": "isClaimed",
          "type": "bool"
        }
      ],
      "stateMutability": "view",
      "type": "function"
    },
    {
      "inputs": [
        {
          "internalType": "uint256",
          "name": "index",
          "type": "uint256"
        }
      ],
      "name": "withdraw",
      "outputs": [],
      "stateMutability": "nonpayable",
      "type": "function"
    }
  ],
  "bytecode": "0x608060405234801561001057600080fd5b5060405161169438038061169483398101604081905261002f916100b1565b61003833610061565b60018055600280546001600160a01b0319166001600160a01b03929092169190911790556100e1565b600080546001600160a01b038381166001600160a01b0319831681178455604051919092169283917f8be0079c531659141344cd1fd0a4f28419497f9722a3daafe3b4186f6b6457e09190a35050565b6000602082840312156100c357600080fd5b81516001600160a01b03811681146100da57600080fd5b9392505050565b6115a4806100f06000396000f3fe608060405234801561001057600080fd5b506004361061009e5760003560e01c8063715018a611610066578063715018a6146101cc5780638c71ec16146101d45780638da5cb5b146101e757806393f1a40b14610202578063f2fde38b1461023057600080fd5b80631069f3b5146100a35780631526fe27146100f15780632e1a7d4d1461013c5780632f380b35146101515780635eddd157146101b9575b600080fd5b6100dc6100b13660046112d0565b60009182526004602090815260408084206001600160a01b0393909316845291905290205460ff1690565b60405190151581526020015b60405180910390f35b6101046100ff3660046112b7565b610243565b604080516001600160a01b039788168152969095166020870152938501929092526060840152608083015260a082015260c0016100e8565b61014f61014a3660046112b7565b610296565b005b61016461015f3660046112b7565b610483565b6040516100e8919081516001600160a01b0390811682526020808401519091169082015260408083015190820152606080830151908201526080808301519082015260a0918201519181019190915260c00190565b61014f6101c7366004611300565b610548565b61014f6108ac565b61014f6101e236600461125a565b610912565b6000546040516001600160a01b0390911681526020016100e8565b6100dc6102103660046112d0565b600460209081526000928352604080842090915290825290205460ff1681565b61014f61023e366004611220565b610ae3565b6003818154811061025357600080fd5b60009182526020909120600690910201805460018201546002830154600384015460048501546005909501546001600160a01b0394851696509390921693909286565b600260015414156102c25760405162461bcd60e51b81526004016102b990611455565b60405180910390fd5b600260015560038054829081106102db576102db61152d565b60009182526020909120600690910201546001600160a01b031633146103325760405162461bcd60e51b815260206004820152600c60248201526b37b7363c9031b932b0ba37b960a11b60448201526064016102b9565b600381815481106103455761034561152d565b90600052602060002090600602016005015442101561039a5760405162461bcd60e51b81526020600482015260116024820152700696e76616c69642074696d657374616d7607c1b60448201526064016102b9565b6000600382815481106103af576103af61152d565b60009182526020822060016006909202010154600380546001600160a01b03909216935090849081106103e4576103e461152d565b9060005260206000209060060201600301549050610403823383610bae565b336001600160a01b0316826001600160a01b0316847f42c422b3d1b2dd27b20890a92c61d761f550e54f2983bfee95c55102ea8234a88460405161044991815260200190565b60405180910390a46000600384815481106104665761046661152d565b600091825260209091206003600690920201015550506001805550565b6104ce6040518060c0016040528060006001600160a01b0316815260200160006001600160a01b03168152602001600081526020016000815260200160008152602001600081525090565b600382815481106104e1576104e161152d565b60009182526020918290206040805160c081018252600690930290910180546001600160a01b03908116845260018201541693830193909352600283015490820152600382015460608201526004820154608082015260059091015460a082015292915050565b6002600154141561056b5760405162461bcd60e51b81526004016102b990611455565b600260015560035483106105b75760405162461bcd60e51b8152602060048201526013602482015272696e646578206f7574206f6620626f756e647360681b60448201526064016102b9565b600383815481106105ca576105ca61152d565b9060005260206000209060060201600401544211801561060d5750600383815481106105f8576105f861152d565b90600052602060002090600602016005015442105b61064d5760405162461bcd60e51b81526020600482015260116024820152700696e76616c69642074696d657374616d7607c1b60448201526064016102b9565b600083815260046020908152604080832033845290915290205460ff16156106a95760405162461bcd60e51b815260206004820152600f60248201526e636c61696d206f6e6365206f6e6c7960881b60448201526064016102b9565b604080516020810185905290810183905233606082015260009060800160408051601f198184030181528282528051602091820120600254637ac3c02f60e01b855292519094506001600160a01b0390921692637ac3c02f9260048083019392829003018186803b15801561071d57600080fd5b505afa158015610731573d6000803e3d6000fd5b505050506040513d601f19601f82011682018060405250810190610755919061123d565b6001600160a01b03166107688284610c16565b6001600160a01b0316146107b25760405162461bcd60e51b8152602060048201526011602482015270696e76616c6964207369676e617475726560781b60448201526064016102b9565b60008481526004602090815260408083203384529091529020805460ff1916600117905560038054849190869081106107ed576107ed61152d565b9060005260206000209060060201600301600082825461080d91906114b1565b925050819055506000600385815481106108295761082961152d565b60009182526020909120600160069092020101546001600160a01b03169050610853813386610bae565b336001600160a01b0316816001600160a01b0316867f42c422b3d1b2dd27b20890a92c61d761f550e54f2983bfee95c55102ea8234a88760405161089991815260200190565b60405180910390a4505060018055505050565b6000546001600160a01b031633146109065760405162461bcd60e51b815260206004820181905260248201527f4f776e61626c653a2063616c6c6572206973206e6f7420746865206f776e657260448201526064016102b9565b6109106000610c91565b565b600260015414156109355760405162461bcd60e51b81526004016102b990611455565b600260015561094684333086610ce1565b600380546040805160c081018252338082526001600160a01b03898116602084018181528486018b8152606086018c8152608087018c815260a088018c815260018b018c5560009b909b52965160068a027fc2575a0e9e593c00f959f8c92f12db2869c3395a3b0502d05e2516446f71f85b810180549288166001600160a01b031993841617905593517fc2575a0e9e593c00f959f8c92f12db2869c3395a3b0502d05e2516446f71f85c8501805491909716911617909455517fc2575a0e9e593c00f959f8c92f12db2869c3395a3b0502d05e2516446f71f85d82015591517fc2575a0e9e593c00f959f8c92f12db2869c3395a3b0502d05e2516446f71f85e83015592517fc2575a0e9e593c00f959f8c92f12db2869c3395a3b0502d05e2516446f71f85f82015594517fc2575a0e9e593c00f959f8c92f12db2869c3395a3b0502d05e2516446f71f86090950194909455905191929183907fb1152d612f6b8be1b61f9a9df3bb717aafc16f866f065ba79de61e66a6618f1c90610899908990899089909283526020830191909152604082015260600190565b6000546001600160a01b03163314610b3d5760405162461bcd60e51b815260206004820181905260248201527f4f776e61626c653a2063616c6c6572206973206e6f7420746865206f776e657260448201526064016102b9565b6001600160a01b038116610ba25760405162461bcd60e51b815260206004820152602660248201527f4f776e61626c653a206e6577206f776e657220697320746865207a65726f206160448201526564647265737360d01b60648201526084016102b9565b610bab81610c91565b50565b6040516001600160a01b038316602482015260448101829052610c1190849063a9059cbb60e01b906064015b60408051601f198184030181529190526020810180516001600160e01b03166001600160e01b031990931692909217909152610d1f565b505050565b60008151604114610c695760405162461bcd60e51b815260206004820152601f60248201527f45434453413a20696e76616c6964207369676e6174757265206c656e6774680060448201526064016102b9565b60208201516040830151606084015160001a610c8786828585610df1565b9695505050505050565b600080546001600160a01b038381166001600160a01b0319831681178455604051919092169283917f8be0079c531659141344cd1fd0a4f28419497f9722a3daafe3b4186f6b6457e09190a35050565b6040516001600160a01b0380851660248301528316604482015260648101829052610d199085906323b872dd60e01b90608401610bda565b50505050565b6000610d74826040518060400160405280602081526020017f5361666545524332303a206c6f772d6c6576656c2063616c6c206661696c6564815250856001600160a01b03166110539092919063ffffffff16565b805190915015610c115780806020019051810190610d929190611295565b610c115760405162461bcd60e51b815260206004820152602a60248201527f5361666545524332303a204552433230206f7065726174696f6e20646964206e6044820152691bdd081cdd58d8d9595960b21b60648201526084016102b9565b60007f7fffffffffffffffffffffffffffffff5d576e7357a4501ddfe92f46681b20a0821115610e6e5760405162461bcd60e51b815260206004820152602260248201527f45434453413a20696e76616c6964207369676e6174757265202773272076616c604482015261756560f01b60648201526084016102b9565b6000601e8560ff161115610f3757610e876004866114c8565b60ff16601b1480610ea55750610e9e6004866114c8565b60ff16601c145b610ec15760405162461bcd60e51b81526004016102b990611413565b6001610ecc8761106c565b610ed76004886114c8565b6040805160008152602081018083529390935260ff90911690820152606081018690526080810185905260a0016020604051602081039080840390855afa158015610f26573d6000803e3d6000fd5b505050602060405103519050610ff4565b60ff85161580610f4a57508460ff166001145b15610f5d57610f5a85601b61148c565b94505b8460ff16601b1480610f7257508460ff16601c145b610f8e5760405162461bcd60e51b81526004016102b990611413565b6001610f998761106c565b6040805160008152602081018083529290925260ff881690820152606081018690526080810185905260a0016020604051602081039080840390855afa158015610fe7573d6000803e3d6000fd5b5050506020604051035190505b6001600160a01b03811661104a5760405162461bcd60e51b815260206004820152601860248201527f45434453413a20696e76616c6964207369676e6174757265000000000000000060448201526064016102b9565b95945050505050565b606061106284846000856110bf565b90505b9392505050565b6040517f19457468657265756d205369676e6564204d6573736167653a0a3332000000006020820152603c8101829052600090605c01604051602081830303815290604052805190602001209050919050565b6060824710156111205760405162461bcd60e51b815260206004820152602660248201527f416464726573733a20696e73756666696369656e742062616c616e636520666f6044820152651c8818d85b1b60d21b60648201526084016102b9565b843b61116e5760405162461bcd60e51b815260206004820152601d60248201527f416464726573733a2063616c6c20746f206e6f6e2d636f6e747261637400000060448201526064016102b9565b600080866001600160a01b0316858760405161118a91906113c4565b60006040518083038185875af1925050503d80600081146111c7576040519150601f19603f3d011682016040523d82523d6000602084013e6111cc565b606091505b50915091506111dc8282866111e7565b979650505050505050565b606083156111f6575081611065565b8251156112065782518084602001fd5b8160405162461bcd60e51b81526004016102b991906113e0565b60006020828403121561123257600080fd5b813561106581611559565b60006020828403121561124f57600080fd5b815161106581611559565b6000806000806080858703121561127057600080fd5b843561127b81611559565b966020860135965060408601359560600135945092505050565b6000602082840312156112a757600080fd5b8151801515811461106557600080fd5b6000602082840312156112c957600080fd5b5035919050565b600080604083850312156112e357600080fd5b8235915060208301356112f581611559565b809150509250929050565b60008060006060848603121561131557600080fd5b8335925060208401359150604084013567ffffffffffffffff8082111561133b57600080fd5b818601915086601f83011261134f57600080fd5b81358181111561136157611361611543565b604051601f8201601f19908116603f0116810190838211818310171561138957611389611543565b816040528281528960208487010111156113a257600080fd5b8260208601602083013760006020848301015280955050505050509250925092565b600082516113d68184602087016114eb565b9190910192915050565b60208152600082518060208401526113ff8160408501602087016114eb565b601f01601f19169190910160400192915050565b60208082526022908201527f45434453413a20696e76616c6964207369676e6174757265202776272076616c604082015261756560f01b606082015260800190565b6020808252601f908201527f5265656e7472616e637947756172643a207265656e7472616e742063616c6c00604082015260600190565b600060ff821660ff84168060ff038211156114a9576114a9611517565b019392505050565b6000828210156114c3576114c3611517565b500390565b600060ff821660ff8416808210156114e2576114e2611517565b90039392505050565b60005b838110156115065781810151838201526020016114ee565b83811115610d195750506000910152565b634e487b7160e01b600052601160045260246000fd5b634e487b7160e01b600052603260045260246000fd5b634e487b7160e01b600052604160045260246000fd5b6001600160a01b0381168114610bab57600080fdfea264697066735822122049a4b3b4f3a51e25a1242ef9bd6930fd051ab24d8f912e84f4d75d5c3701ffbc64736f6c63430008070033",
  "linkReferences": {},
  "deployedLinkReferences": {}
}