{
  "_format": "hh-sol-artifact-1",
  "contractName": "AirdropPool",
  "sourceName": "contracts/reward/AirdropPool.sol",
  "abi": [
    {
      "inputs": [
        {
          "internalType": "address",
          "name": "controller",
          "type": "address"
        }
      ],
      "stateMutability": "nonpayable",
      "type": "constructor"
    },
    {
      "anonymous": false,
      "inputs": [
        {
          "indexed": true,
          "internalType": "address",
          "name": "previousOwner",
          "type": "address"
        },
        {
          "indexed": true,
          "internalType": "address",
          "name": "newOwner",
          "type": "address"
        }
      ],
      "name": "OwnershipTransferred",
      "type": "event"
    },
    {
      "anonymous": false,
      "inputs": [
        {
          "indexed": true,
          "internalType": "uint256",
          "name": "index",
          "type": "uint256"
        },
        {
          "indexed": true,
          "internalType": "address",
          "name": "rewardToken",
          "type": "address"
        },
        {
          "indexed": false,
          "internalType": "uint256",
          "name": "rewardAmount",
          "type": "uint256"
        },
        {
          "indexed": true,
          "internalType": "address",
          "name": "creator",
          "type": "address"
        },
        {
          "indexed": false,
          "internalType": "uint256",
          "name": "start",
          "type": "uint256"
        },
        {
          "indexed": false,
          "internalType": "uint256",
          "name": "end",
          "type": "uint256"
        }
      ],
      "name": "PoolCreated",
      "type": "event"
    },
    {
      "anonymous": false,
      "inputs": [
        {
          "indexed": true,
          "internalType": "uint256",
          "name": "index",
          "type": "uint256"
        },
        {
          "indexed": true,
          "internalType": "address",
          "name": "rewardToken",
          "type": "address"
        },
        {
          "indexed": false,
          "internalType": "uint256",
          "name": "rewardAmount",
          "type": "uint256"
        },
        {
          "indexed": true,
          "internalType": "address",
          "name": "user",
          "type": "address"
        }
      ],
      "name": "RewardClaimed",
      "type": "event"
    },
    {
      "inputs": [
        {
          "internalType": "uint256",
          "name": "index",
          "type": "uint256"
        },
        {
          "internalType": "uint256",
          "name": "amount",
          "type": "uint256"
        },
        {
          "internalType": "bytes",
          "name": "sig",
          "type": "bytes"
        }
      ],
      "name": "claim",
      "outputs": [],
      "stateMutability": "nonpayable",
      "type": "function"
    },
    {
      "inputs": [
        {
          "internalType": "uint256",
          "name": "index",
          "type": "uint256"
        },
        {
          "internalType": "address",
          "name": "rewardToken",
          "type": "address"
        },
        {
          "internalType": "uint256",
          "name": "rewardAmount",
          "type": "uint256"
        },
        {
          "internalType": "uint256",
          "name": "start",
          "type": "uint256"
        },
        {
          "internalType": "uint256",
          "name": "end",
          "type": "uint256"
        }
      ],
      "name": "create",
      "outputs": [],
      "stateMutability": "nonpayable",
      "type": "function"
    },
    {
      "inputs": [
        {
          "internalType": "uint256",
          "name": "index",
          "type": "uint256"
        }
      ],
      "name": "getPoolInfo",
      "outputs": [
        {
          "components": [
            {
              "internalType": "address",
              "name": "creator",
              "type": "address"
            },
            {
              "internalType": "contract IERC20",
              "name": "rewardToken",
              "type": "address"
            },
            {
              "internalType": "uint256",
              "name": "rewardAmount",
              "type": "uint256"
            },
            {
              "internalType": "uint256",
              "name": "unclaimedAmount",
              "type": "uint256"
            },
            {
              "internalType": "uint256",
              "name": "start",
              "type": "uint256"
            },
            {
              "internalType": "uint256",
              "name": "end",
              "type": "uint256"
            }
          ],
          "internalType": "struct AirdropPool.PoolInfo",
          "name": "",
          "type": "tuple"
        }
      ],
      "stateMutability": "view",
      "type": "function"
    },
    {
      "inputs": [
        {
          "internalType": "uint256",
          "name": "index",
          "type": "uint256"
        },
        {
          "internalType": "address",
          "name": "user",
          "type": "address"
        }
      ],
      "name": "getUserInfo",
      "outputs": [
        {
          "internalType": "bool",
          "name": "",
          "type": "bool"
        }
      ],
      "stateMutability": "view",
      "type": "function"
    },
    {
      "inputs": [],
      "name": "owner",
      "outputs": [
        {
          "internalType": "address",
          "name": "",
          "type": "address"
        }
      ],
      "stateMutability": "view",
      "type": "function"
    },
    {
      "inputs": [
        {
          "internalType": "uint256",
          "name": "",
          "type": "uint256"
        }
      ],
      "name": "poolInfo",
      "outputs": [
        {
          "internalType": "address",
          "name": "creator",
          "type": "address"
        },
        {
          "internalType": "contract IERC20",
          "name": "rewardToken",
          "type": "address"
        },
        {
          "internalType": "uint256",
          "name": "rewardAmount",
          "type": "uint256"
        },
        {
          "internalType": "uint256",
          "name": "unclaimedAmount",
          "type": "uint256"
        },
        {
          "internalType": "uint256",
          "name": "start",
          "type": "uint256"
        },
        {
          "internalType": "uint256",
          "name": "end",
          "type": "uint256"
        }
      ],
      "stateMutability": "view",
      "type": "function"
    },
    {
      "inputs": [],
      "name": "renounceOwnership",
      "outputs": [],
      "stateMutability": "nonpayable",
      "type": "function"
    },
    {
      "inputs": [
        {
          "internalType": "address",
          "name": "newOwner",
          "type": "address"
        }
      ],
      "name": "transferOwnership",
      "outputs": [],
      "stateMutability": "nonpayable",
      "type": "function"
    },
    {
      "inputs": [
        {
          "internalType": "uint256",
          "name": "",
          "type": "uint256"
        },
        {
          "internalType": "address",
          "name": "",
          "type": "address"
        }
      ],
      "name": "userInfo",
      "outputs": [
        {
          "internalType": "bool",
          "name": "isClaimed",
          "type": "bool"
        }
      ],
      "stateMutability": "view",
      "type": "function"
    },
    {
      "inputs": [
        {
          "internalType": "uint256",
          "name": "index",
          "type": "uint256"
        }
      ],
      "name": "withdraw",
      "outputs": [],
      "stateMutability": "nonpayable",
      "type": "function"
    }
  ],
  "bytecode": "0x608060405234801561001057600080fd5b506040516115f83803806115f883398101604081905261002f916100b1565b61003833610061565b60018055600280546001600160a01b0319166001600160a01b03929092169190911790556100e1565b600080546001600160a01b038381166001600160a01b0319831681178455604051919092169283917f8be0079c531659141344cd1fd0a4f28419497f9722a3daafe3b4186f6b6457e09190a35050565b6000602082840312156100c357600080fd5b81516001600160a01b03811681146100da57600080fd5b9392505050565b611508806100f06000396000f3fe608060405234801561001057600080fd5b506004361061009e5760003560e01c80635eddd157116100665780635eddd15714610209578063715018a61461021c5780638da5cb5b1461022457806393f1a40b1461023f578063f2fde38b1461026d57600080fd5b80631069f3b5146100a35780631526fe27146100f15780632e1a7d4d146101795780632f380b351461018e57806356452407146101f6575b600080fd5b6100dc6100b1366004611202565b60009182526003602090815260408084206001600160a01b0393909316845291905290205460ff1690565b60405190151581526020015b60405180910390f35b6101416100ff3660046111e9565b60046020819052600091825260409091208054600182015460028301546003840154948401546005909401546001600160a01b03938416959290931693909286565b604080516001600160a01b039788168152969095166020870152938501929092526060840152608083015260a082015260c0016100e8565b61018c6101873660046111e9565b610280565b005b6101a161019c3660046111e9565b610457565b6040516100e8919081516001600160a01b0390811682526020808401519091169082015260408083015190820152606080830151908201526080808301519082015260a0918201519181019190915260c00190565b61018c610204366004611232565b610506565b61018c61021736600461127a565b6106d8565b61018c6109ea565b6000546040516001600160a01b0390911681526020016100e8565b6100dc61024d366004611202565b600360209081526000928352604080842090915290825290205460ff1681565b61018c61027b36600461118d565b610a50565b600260015414156102ac5760405162461bcd60e51b81526004016102a3906113cf565b60405180910390fd5b60026001556000818152600460205260409020546001600160a01b03166103155760405162461bcd60e51b815260206004820152601b60248201527f7175657279206f66206e6f6e2d6578697374656e636520706f6f6c000000000060448201526064016102a3565b6000818152600460205260409020546001600160a01b0316331461036a5760405162461bcd60e51b815260206004820152600c60248201526b37b7363c9031b932b0ba37b960a11b60448201526064016102a3565b6000818152600460205260409020600501544210156103bf5760405162461bcd60e51b81526020600482015260116024820152700696e76616c69642074696d657374616d7607c1b60448201526064016102a3565b600081815260046020526040902060018101546003909101546001600160a01b03909116906103ef823383610b1b565b336001600160a01b0316826001600160a01b0316847f42c422b3d1b2dd27b20890a92c61d761f550e54f2983bfee95c55102ea8234a88460405161043591815260200190565b60405180910390a4505060009081526004602052604081206003015560018055565b6104a26040518060c0016040528060006001600160a01b0316815260200160006001600160a01b03168152602001600081526020016000815260200160008152602001600081525090565b50600090815260046020818152604092839020835160c08101855281546001600160a01b039081168252600183015416928101929092526002810154938201939093526003830154606082015290820154608082015260059091015460a082015290565b600260015414156105295760405162461bcd60e51b81526004016102a3906113cf565b60026001556000858152600460205260409020546001600160a01b0316156105895760405162461bcd60e51b8152602060048201526013602482015272706f6f6c20616c72656164792065786973747360681b60448201526064016102a3565b61059584333086610b83565b6040518060c00160405280336001600160a01b03168152602001856001600160a01b03168152602001848152602001848152602001838152602001828152506004600087815260200190815260200160002060008201518160000160006101000a8154816001600160a01b0302191690836001600160a01b0316021790555060208201518160010160006101000a8154816001600160a01b0302191690836001600160a01b0316021790555060408201518160020155606082015181600301556080820151816004015560a08201518160050155905050336001600160a01b0316846001600160a01b0316867fb1152d612f6b8be1b61f9a9df3bb717aafc16f866f065ba79de61e66a6618f1c8686866040516106c5939291909283526020830191909152604082015260600190565b60405180910390a4505060018055505050565b600260015414156106fb5760405162461bcd60e51b81526004016102a3906113cf565b60026001556000838152600460205260409020546001600160a01b03166107645760405162461bcd60e51b815260206004820152601b60248201527f7175657279206f66206e6f6e2d6578697374656e636520706f6f6c000000000060448201526064016102a3565b6000838152600460208190526040909120015442118015610795575060008381526004602052604090206005015442105b6107d55760405162461bcd60e51b81526020600482015260116024820152700696e76616c69642074696d657374616d7607c1b60448201526064016102a3565b600083815260036020908152604080832033845290915290205460ff16156108315760405162461bcd60e51b815260206004820152600f60248201526e636c61696d206f6e6365206f6e6c7960881b60448201526064016102a3565b604080516020810185905290810183905233606082015260009060800160408051601f198184030181528282528051602091820120600254637ac3c02f60e01b855292519094506001600160a01b0390921692637ac3c02f9260048083019392829003018186803b1580156108a557600080fd5b505afa1580156108b9573d6000803e3d6000fd5b505050506040513d601f19601f820116820180604052508101906108dd91906111aa565b6001600160a01b03166108f08284610bc1565b6001600160a01b03161461093a5760405162461bcd60e51b8152602060048201526011602482015270696e76616c6964207369676e617475726560781b60448201526064016102a3565b60008481526003602081815260408084203385528252808420805460ff191660011790558784526004909152822001805485929061097990849061142b565b90915550506000848152600460205260409020600101546001600160a01b03166109a4813386610b1b565b336001600160a01b0316816001600160a01b0316867f42c422b3d1b2dd27b20890a92c61d761f550e54f2983bfee95c55102ea8234a8876040516106c591815260200190565b6000546001600160a01b03163314610a445760405162461bcd60e51b815260206004820181905260248201527f4f776e61626c653a2063616c6c6572206973206e6f7420746865206f776e657260448201526064016102a3565b610a4e6000610c3c565b565b6000546001600160a01b03163314610aaa5760405162461bcd60e51b815260206004820181905260248201527f4f776e61626c653a2063616c6c6572206973206e6f7420746865206f776e657260448201526064016102a3565b6001600160a01b038116610b0f5760405162461bcd60e51b815260206004820152602660248201527f4f776e61626c653a206e6577206f776e657220697320746865207a65726f206160448201526564647265737360d01b60648201526084016102a3565b610b1881610c3c565b50565b6040516001600160a01b038316602482015260448101829052610b7e90849063a9059cbb60e01b906064015b60408051601f198184030181529190526020810180516001600160e01b03166001600160e01b031990931692909217909152610c8c565b505050565b6040516001600160a01b0380851660248301528316604482015260648101829052610bbb9085906323b872dd60e01b90608401610b47565b50505050565b60008151604114610c145760405162461bcd60e51b815260206004820152601f60248201527f45434453413a20696e76616c6964207369676e6174757265206c656e6774680060448201526064016102a3565b60208201516040830151606084015160001a610c3286828585610d5e565b9695505050505050565b600080546001600160a01b038381166001600160a01b0319831681178455604051919092169283917f8be0079c531659141344cd1fd0a4f28419497f9722a3daafe3b4186f6b6457e09190a35050565b6000610ce1826040518060400160405280602081526020017f5361666545524332303a206c6f772d6c6576656c2063616c6c206661696c6564815250856001600160a01b0316610fc09092919063ffffffff16565b805190915015610b7e5780806020019051810190610cff91906111c7565b610b7e5760405162461bcd60e51b815260206004820152602a60248201527f5361666545524332303a204552433230206f7065726174696f6e20646964206e6044820152691bdd081cdd58d8d9595960b21b60648201526084016102a3565b60007f7fffffffffffffffffffffffffffffff5d576e7357a4501ddfe92f46681b20a0821115610ddb5760405162461bcd60e51b815260206004820152602260248201527f45434453413a20696e76616c6964207369676e6174757265202773272076616c604482015261756560f01b60648201526084016102a3565b6000601e8560ff161115610ea457610df4600486611442565b60ff16601b1480610e125750610e0b600486611442565b60ff16601c145b610e2e5760405162461bcd60e51b81526004016102a39061138d565b6001610e3987610fd9565b610e44600488611442565b6040805160008152602081018083529390935260ff90911690820152606081018690526080810185905260a0016020604051602081039080840390855afa158015610e93573d6000803e3d6000fd5b505050602060405103519050610f61565b60ff85161580610eb757508460ff166001145b15610eca57610ec785601b611406565b94505b8460ff16601b1480610edf57508460ff16601c145b610efb5760405162461bcd60e51b81526004016102a39061138d565b6001610f0687610fd9565b6040805160008152602081018083529290925260ff881690820152606081018690526080810185905260a0016020604051602081039080840390855afa158015610f54573d6000803e3d6000fd5b5050506020604051035190505b6001600160a01b038116610fb75760405162461bcd60e51b815260206004820152601860248201527f45434453413a20696e76616c6964207369676e6174757265000000000000000060448201526064016102a3565b95945050505050565b6060610fcf848460008561102c565b90505b9392505050565b6040517f19457468657265756d205369676e6564204d6573736167653a0a3332000000006020820152603c8101829052600090605c01604051602081830303815290604052805190602001209050919050565b60608247101561108d5760405162461bcd60e51b815260206004820152602660248201527f416464726573733a20696e73756666696369656e742062616c616e636520666f6044820152651c8818d85b1b60d21b60648201526084016102a3565b843b6110db5760405162461bcd60e51b815260206004820152601d60248201527f416464726573733a2063616c6c20746f206e6f6e2d636f6e747261637400000060448201526064016102a3565b600080866001600160a01b031685876040516110f7919061133e565b60006040518083038185875af1925050503d8060008114611134576040519150601f19603f3d011682016040523d82523d6000602084013e611139565b606091505b5091509150611149828286611154565b979650505050505050565b60608315611163575081610fd2565b8251156111735782518084602001fd5b8160405162461bcd60e51b81526004016102a3919061135a565b60006020828403121561119f57600080fd5b8135610fd2816114bd565b6000602082840312156111bc57600080fd5b8151610fd2816114bd565b6000602082840312156111d957600080fd5b81518015158114610fd257600080fd5b6000602082840312156111fb57600080fd5b5035919050565b6000806040838503121561121557600080fd5b823591506020830135611227816114bd565b809150509250929050565b600080600080600060a0868803121561124a57600080fd5b85359450602086013561125c816114bd565b94979496505050506040830135926060810135926080909101359150565b60008060006060848603121561128f57600080fd5b8335925060208401359150604084013567ffffffffffffffff808211156112b557600080fd5b818601915086601f8301126112c957600080fd5b8135818111156112db576112db6114a7565b604051601f8201601f19908116603f01168101908382118183101715611303576113036114a7565b8160405282815289602084870101111561131c57600080fd5b8260208601602083013760006020848301015280955050505050509250925092565b60008251611350818460208701611465565b9190910192915050565b6020815260008251806020840152611379816040850160208701611465565b601f01601f19169190910160400192915050565b60208082526022908201527f45434453413a20696e76616c6964207369676e6174757265202776272076616c604082015261756560f01b606082015260800190565b6020808252601f908201527f5265656e7472616e637947756172643a207265656e7472616e742063616c6c00604082015260600190565b600060ff821660ff84168060ff0382111561142357611423611491565b019392505050565b60008282101561143d5761143d611491565b500390565b600060ff821660ff84168082101561145c5761145c611491565b90039392505050565b60005b83811015611480578181015183820152602001611468565b83811115610bbb5750506000910152565b634e487b7160e01b600052601160045260246000fd5b634e487b7160e01b600052604160045260246000fd5b6001600160a01b0381168114610b1857600080fdfea26469706673582212203984be7c1d06d26209e4bba6499ee147d76969c55d89bae92b863d3f5c047e5864736f6c63430008070033",
  "linkReferences": {},
  "deployedLinkReferences": {}
}