{
  "_format": "hh-sol-artifact-1",
  "contractName": "CommittableV1",
  "sourceName": "contracts/ERC721/CommittableV1.sol",
  "abi": [
    {
      "anonymous": false,
      "inputs": [
        {
          "indexed": true,
          "internalType": "address",
          "name": "owner",
          "type": "address"
        },
        {
          "indexed": true,
          "internalType": "address",
          "name": "approved",
          "type": "address"
        },
        {
          "indexed": true,
          "internalType": "uint256",
          "name": "tokenId",
          "type": "uint256"
        }
      ],
      "name": "Approval",
      "type": "event"
    },
    {
      "anonymous": false,
      "inputs": [
        {
          "indexed": true,
          "internalType": "address",
          "name": "owner",
          "type": "address"
        },
        {
          "indexed": true,
          "internalType": "address",
          "name": "operator",
          "type": "address"
        },
        {
          "indexed": false,
          "internalType": "bool",
          "name": "approved",
          "type": "bool"
        }
      ],
      "name": "ApprovalForAll",
      "type": "event"
    },
    {
      "anonymous": false,
      "inputs": [
        {
          "indexed": true,
          "internalType": "address",
          "name": "from",
          "type": "address"
        },
        {
          "indexed": true,
          "internalType": "address",
          "name": "to",
          "type": "address"
        },
        {
          "indexed": true,
          "internalType": "uint256",
          "name": "tokenId",
          "type": "uint256"
        }
      ],
      "name": "Transfer",
      "type": "event"
    },
    {
      "inputs": [
        {
          "internalType": "address",
          "name": "to",
          "type": "address"
        },
        {
          "internalType": "uint256",
          "name": "tokenId",
          "type": "uint256"
        }
      ],
      "name": "approve",
      "outputs": [],
      "stateMutability": "nonpayable",
      "type": "function"
    },
    {
      "inputs": [
        {
          "internalType": "address",
          "name": "owner",
          "type": "address"
        }
      ],
      "name": "balanceOf",
      "outputs": [
        {
          "internalType": "uint256",
          "name": "",
          "type": "uint256"
        }
      ],
      "stateMutability": "view",
      "type": "function"
    },
    {
      "inputs": [
        {
          "internalType": "uint256",
          "name": "tokenId",
          "type": "uint256"
        }
      ],
      "name": "commitOf",
      "outputs": [
        {
          "internalType": "uint160",
          "name": "",
          "type": "uint160"
        }
      ],
      "stateMutability": "view",
      "type": "function"
    },
    {
      "inputs": [
        {
          "internalType": "uint256",
          "name": "tokenId",
          "type": "uint256"
        }
      ],
      "name": "getApproved",
      "outputs": [
        {
          "internalType": "address",
          "name": "",
          "type": "address"
        }
      ],
      "stateMutability": "view",
      "type": "function"
    },
    {
      "inputs": [
        {
          "internalType": "string",
          "name": "_name",
          "type": "string"
        },
        {
          "internalType": "string",
          "name": "_symbol",
          "type": "string"
        },
        {
          "internalType": "address",
          "name": "controller",
          "type": "address"
        }
      ],
      "name": "initialize",
      "outputs": [],
      "stateMutability": "nonpayable",
      "type": "function"
    },
    {
      "inputs": [
        {
          "internalType": "address",
          "name": "owner",
          "type": "address"
        },
        {
          "internalType": "address",
          "name": "operator",
          "type": "address"
        }
      ],
      "name": "isApprovedForAll",
      "outputs": [
        {
          "internalType": "bool",
          "name": "",
          "type": "bool"
        }
      ],
      "stateMutability": "view",
      "type": "function"
    },
    {
      "inputs": [
        {
          "internalType": "address",
          "name": "creator",
          "type": "address"
        },
        {
          "internalType": "uint256",
          "name": "tokenId",
          "type": "uint256"
        },
        {
          "internalType": "bytes",
          "name": "signature",
          "type": "bytes"
        }
      ],
      "name": "mint",
      "outputs": [],
      "stateMutability": "nonpayable",
      "type": "function"
    },
    {
      "inputs": [
        {
          "internalType": "address",
          "name": "creator",
          "type": "address"
        },
        {
          "internalType": "address",
          "name": "to",
          "type": "address"
        },
        {
          "internalType": "uint256",
          "name": "tokenId",
          "type": "uint256"
        },
        {
          "internalType": "bytes",
          "name": "signature",
          "type": "bytes"
        }
      ],
      "name": "mintAndTransfer",
      "outputs": [],
      "stateMutability": "nonpayable",
      "type": "function"
    },
    {
      "inputs": [],
      "name": "name",
      "outputs": [
        {
          "internalType": "string",
          "name": "",
          "type": "string"
        }
      ],
      "stateMutability": "view",
      "type": "function"
    },
    {
      "inputs": [
        {
          "internalType": "uint256",
          "name": "tokenId",
          "type": "uint256"
        }
      ],
      "name": "ownerOf",
      "outputs": [
        {
          "internalType": "address",
          "name": "",
          "type": "address"
        }
      ],
      "stateMutability": "view",
      "type": "function"
    },
    {
      "inputs": [
        {
          "internalType": "uint256",
          "name": "tokenId",
          "type": "uint256"
        }
      ],
      "name": "projectOf",
      "outputs": [
        {
          "internalType": "uint96",
          "name": "",
          "type": "uint96"
        }
      ],
      "stateMutability": "view",
      "type": "function"
    },
    {
      "inputs": [
        {
          "internalType": "address",
          "name": "from",
          "type": "address"
        },
        {
          "internalType": "address",
          "name": "to",
          "type": "address"
        },
        {
          "internalType": "uint256",
          "name": "tokenId",
          "type": "uint256"
        }
      ],
      "name": "safeTransferFrom",
      "outputs": [],
      "stateMutability": "nonpayable",
      "type": "function"
    },
    {
      "inputs": [
        {
          "internalType": "address",
          "name": "from",
          "type": "address"
        },
        {
          "internalType": "address",
          "name": "to",
          "type": "address"
        },
        {
          "internalType": "uint256",
          "name": "tokenId",
          "type": "uint256"
        },
        {
          "internalType": "bytes",
          "name": "_data",
          "type": "bytes"
        }
      ],
      "name": "safeTransferFrom",
      "outputs": [],
      "stateMutability": "nonpayable",
      "type": "function"
    },
    {
      "inputs": [
        {
          "internalType": "address",
          "name": "operator",
          "type": "address"
        },
        {
          "internalType": "bool",
          "name": "approved",
          "type": "bool"
        }
      ],
      "name": "setApprovalForAll",
      "outputs": [],
      "stateMutability": "nonpayable",
      "type": "function"
    },
    {
      "inputs": [
        {
          "internalType": "bytes4",
          "name": "interfaceId",
          "type": "bytes4"
        }
      ],
      "name": "supportsInterface",
      "outputs": [
        {
          "internalType": "bool",
          "name": "",
          "type": "bool"
        }
      ],
      "stateMutability": "view",
      "type": "function"
    },
    {
      "inputs": [],
      "name": "symbol",
      "outputs": [
        {
          "internalType": "string",
          "name": "",
          "type": "string"
        }
      ],
      "stateMutability": "view",
      "type": "function"
    },
    {
      "inputs": [
        {
          "internalType": "uint256",
          "name": "index",
          "type": "uint256"
        }
      ],
      "name": "tokenByIndex",
      "outputs": [
        {
          "internalType": "uint256",
          "name": "",
          "type": "uint256"
        }
      ],
      "stateMutability": "view",
      "type": "function"
    },
    {
      "inputs": [
        {
          "internalType": "address",
          "name": "owner",
          "type": "address"
        },
        {
          "internalType": "uint256",
          "name": "index",
          "type": "uint256"
        }
      ],
      "name": "tokenOfOwnerByIndex",
      "outputs": [
        {
          "internalType": "uint256",
          "name": "",
          "type": "uint256"
        }
      ],
      "stateMutability": "view",
      "type": "function"
    },
    {
      "inputs": [
        {
          "internalType": "uint96",
          "name": "project",
          "type": "uint96"
        },
        {
          "internalType": "uint256",
          "name": "index",
          "type": "uint256"
        }
      ],
      "name": "tokenOfProjectByIndex",
      "outputs": [
        {
          "internalType": "uint256",
          "name": "",
          "type": "uint256"
        }
      ],
      "stateMutability": "view",
      "type": "function"
    },
    {
      "inputs": [
        {
          "internalType": "uint256",
          "name": "tokenId",
          "type": "uint256"
        }
      ],
      "name": "tokenURI",
      "outputs": [
        {
          "internalType": "string",
          "name": "",
          "type": "string"
        }
      ],
      "stateMutability": "view",
      "type": "function"
    },
    {
      "inputs": [],
      "name": "totalSupply",
      "outputs": [
        {
          "internalType": "uint256",
          "name": "",
          "type": "uint256"
        }
      ],
      "stateMutability": "view",
      "type": "function"
    },
    {
      "inputs": [
        {
          "internalType": "uint96",
          "name": "project",
          "type": "uint96"
        }
      ],
      "name": "totalSupplyOfProject",
      "outputs": [
        {
          "internalType": "uint256",
          "name": "",
          "type": "uint256"
        }
      ],
      "stateMutability": "view",
      "type": "function"
    },
    {
      "inputs": [
        {
          "internalType": "address",
          "name": "from",
          "type": "address"
        },
        {
          "internalType": "address",
          "name": "to",
          "type": "address"
        },
        {
          "internalType": "uint256",
          "name": "tokenId",
          "type": "uint256"
        }
      ],
      "name": "transferFrom",
      "outputs": [],
      "stateMutability": "nonpayable",
      "type": "function"
    }
  ],
  "bytecode": "0x608060405234801561001057600080fd5b5061234c806100206000396000f3fe608060405234801561001057600080fd5b506004361061014d5760003560e01c80634f6ccce7116100c357806394d008ef1161007c57806394d008ef146102f257806395d89b4114610305578063a22cb4651461030d578063b88d4fde14610320578063c87b56dd14610333578063e985e9c51461034657600080fd5b80634f6ccce714610269578063605cc80f1461027c5780636352211e1461028f57806365e9ac33146102a25780636d645fde146102ce57806370a08231146102df57600080fd5b8063095ea7b311610115578063095ea7b3146101e257806318160ddd146101f557806323b872dd146102075780632a2951c11461021a5780632f745c591461024357806342842e0e1461025657600080fd5b806301ffc9a7146101525780630681a2901461017a57806306fdde031461018f578063077f224a146101a4578063081812fc146101b7575b600080fd5b610165610160366004611e86565b610359565b60405190151581526020015b60405180910390f35b61018d610188366004611d62565b610384565b005b6101976103a0565b6040516101719190612016565b61018d6101b2366004611ec0565b610432565b6101ca6101c5366004611f38565b6104d4565b6040516001600160a01b039091168152602001610171565b61018d6101f0366004611e01565b610569565b6099545b604051908152602001610171565b61018d610215366004611d21565b61067f565b6101f9610228366004611f51565b6001600160601b0316600090815260ca602052604090205490565b6101f9610251366004611e01565b6106b0565b61018d610264366004611d21565b610746565b6101f9610277366004611f38565b610761565b6101f961028a366004611f6c565b6107f4565b6101ca61029d366004611f38565b610831565b6102b66102b0366004611f38565b60a01c90565b6040516001600160601b039091168152602001610171565b6101ca6102dc366004611f38565b90565b6101f96102ed366004611cae565b6108a8565b61018d610300366004611e2d565b61092f565b610197610a7d565b61018d61031b366004611dce565b610a8c565b61018d61032e366004611d62565b610b51565b610197610341366004611f38565b610b83565b610165610354366004611ce8565b610c90565b60006001600160e01b031982166303bf912560e11b148061037e575061037e82610d58565b92915050565b61038f84838361092f565b61039a84848461067f565b50505050565b6060606580546103af90612213565b80601f01602080910402602001604051908101604052809291908181526020018280546103db90612213565b80156104285780601f106103fd57610100808354040283529160200191610428565b820191906000526020600020905b81548152906001019060200180831161040b57829003601f168201915b5050505050905090565b600054610100900460ff168061044b575060005460ff16155b6104705760405162461bcd60e51b81526004016104679061207b565b60405180910390fd5b600054610100900460ff16158015610492576000805461ffff19166101011790555b61049a610d7d565b6104a2610d7d565b6104ac8484610de9565b6104b4610d7d565b6104bd82610e7e565b801561039a576000805461ff001916905550505050565b6000818152606760205260408120546001600160a01b031661054d5760405162461bcd60e51b815260206004820152602c60248201527f4552433732313a20617070726f76656420717565727920666f72206e6f6e657860448201526b34b9ba32b73a103a37b5b2b760a11b6064820152608401610467565b506000908152606960205260409020546001600160a01b031690565b600061057482610831565b9050806001600160a01b0316836001600160a01b031614156105e25760405162461bcd60e51b815260206004820152602160248201527f4552433732313a20617070726f76616c20746f2063757272656e74206f776e656044820152603960f91b6064820152608401610467565b336001600160a01b03821614806105fe57506105fe8133610c90565b6106705760405162461bcd60e51b815260206004820152603860248201527f4552433732313a20617070726f76652063616c6c6572206973206e6f74206f7760448201527f6e6572206e6f7220617070726f76656420666f7220616c6c00000000000000006064820152608401610467565b61067a8383610f06565b505050565b6106893382610f74565b6106a55760405162461bcd60e51b81526004016104679061210b565b61067a83838361104b565b60006106bb836108a8565b821061071d5760405162461bcd60e51b815260206004820152602b60248201527f455243373231456e756d657261626c653a206f776e657220696e646578206f7560448201526a74206f6620626f756e647360a81b6064820152608401610467565b506001600160a01b03919091166000908152609760209081526040808320938352929052205490565b61067a83838360405180602001604052806000815250610b51565b600061076c60995490565b82106107cf5760405162461bcd60e51b815260206004820152602c60248201527f455243373231456e756d657261626c653a20676c6f62616c20696e646578206f60448201526b7574206f6620626f756e647360a01b6064820152608401610467565b609982815481106107e2576107e26122bf565b90600052602060002001549050919050565b6001600160601b038216600090815260ca6020526040812080548390811061081e5761081e6122bf565b9060005260206000200154905092915050565b6000818152606760205260408120546001600160a01b03168061037e5760405162461bcd60e51b815260206004820152602960248201527f4552433732313a206f776e657220717565727920666f72206e6f6e657869737460448201526832b73a103a37b5b2b760b91b6064820152608401610467565b60006001600160a01b0382166109135760405162461bcd60e51b815260206004820152602a60248201527f4552433732313a2062616c616e636520717565727920666f7220746865207a65604482015269726f206164647265737360b01b6064820152608401610467565b506001600160a01b031660009081526068602052604090205490565b604080516001600160a01b038516602082015290810183905260009060600160408051601f19818403018152828252805160209182012060c954637ac3c02f60e01b855292519094506001600160a01b0390921692637ac3c02f9260048083019392829003018186803b1580156109a557600080fd5b505afa1580156109b9573d6000803e3d6000fd5b505050506040513d601f19601f820116820180604052508101906109dd9190611ccb565b6001600160a01b03166109f082846111f6565b6001600160a01b031614610a465760405162461bcd60e51b815260206004820152601760248201527f696e76616c696420746f6b656e207369676e61747572650000000000000000006044820152606401610467565b60a083901c600081815260ca6020908152604082208054600181018255908352912001849055610a768585611271565b5050505050565b6060606680546103af90612213565b6001600160a01b038216331415610ae55760405162461bcd60e51b815260206004820152601960248201527f4552433732313a20617070726f766520746f2063616c6c6572000000000000006044820152606401610467565b336000818152606a602090815260408083206001600160a01b03871680855290835292819020805460ff191686151590811790915590519081529192917f17307eab39ab6107e8899845ad3d59bd9653f200f220920489ca2b5937696c31910160405180910390a35050565b610b5b3383610f74565b610b775760405162461bcd60e51b81526004016104679061210b565b61039a848484846113bf565b6000818152606760205260409020546060906001600160a01b0316610c025760405162461bcd60e51b815260206004820152602f60248201527f4552433732314d657461646174613a2055524920717565727920666f72206e6f60448201526e3732bc34b9ba32b73a103a37b5b2b760891b6064820152608401610467565b6000610c3e60408051808201909152601f81527f68747470733a2f2f6170702e636f6d6d69747461626c652e696f2f6e66742f00602082015290565b90506000815111610c5e5760405180602001604052806000815250610c89565b80610c68846113f2565b604051602001610c79929190611fb4565b6040516020818303038152906040525b9392505050565b60c954604051638369166d60e01b81526001600160a01b03848116600483015260009284821692911690638369166d9060240160206040518083038186803b158015610cdb57600080fd5b505afa158015610cef573d6000803e3d6000fd5b505050506040513d601f19601f82011682018060405250810190610d139190611ccb565b6001600160a01b03161415610d2a5750600161037e565b6001600160a01b038084166000908152606a602090815260408083209386168352929052205460ff16610c89565b60006001600160e01b0319821663342a701760e21b148061037e575061037e826114f0565b600054610100900460ff1680610d96575060005460ff16155b610db25760405162461bcd60e51b81526004016104679061207b565b600054610100900460ff16158015610dd4576000805461ffff19166101011790555b8015610de6576000805461ff00191690555b50565b600054610100900460ff1680610e02575060005460ff16155b610e1e5760405162461bcd60e51b81526004016104679061207b565b600054610100900460ff16158015610e40576000805461ffff19166101011790555b8251610e53906065906020860190611b6c565b508151610e67906066906020850190611b6c565b50801561067a576000805461ff0019169055505050565b600054610100900460ff1680610e97575060005460ff16155b610eb35760405162461bcd60e51b81526004016104679061207b565b600054610100900460ff16158015610ed5576000805461ffff19166101011790555b60c980546001600160a01b0319166001600160a01b0384161790558015610f02576000805461ff00191690555b5050565b600081815260696020526040902080546001600160a01b0319166001600160a01b0384169081179091558190610f3b82610831565b6001600160a01b03167f8c5be1e5ebec7d5bd14f71427d1e84f3dd0314c0f7b2291e5b200ac8c7c3b92560405160405180910390a45050565b6000818152606760205260408120546001600160a01b0316610fed5760405162461bcd60e51b815260206004820152602c60248201527f4552433732313a206f70657261746f7220717565727920666f72206e6f6e657860448201526b34b9ba32b73a103a37b5b2b760a11b6064820152608401610467565b6000610ff883610831565b9050806001600160a01b0316846001600160a01b031614806110335750836001600160a01b0316611028846104d4565b6001600160a01b0316145b8061104357506110438185610c90565b949350505050565b826001600160a01b031661105e82610831565b6001600160a01b0316146110c65760405162461bcd60e51b815260206004820152602960248201527f4552433732313a207472616e73666572206f6620746f6b656e2074686174206960448201526839903737ba1037bbb760b91b6064820152608401610467565b6001600160a01b0382166111285760405162461bcd60e51b8152602060048201526024808201527f4552433732313a207472616e7366657220746f20746865207a65726f206164646044820152637265737360e01b6064820152608401610467565b611133838383611515565b61113e600082610f06565b6001600160a01b03831660009081526068602052604081208054600192906111679084906121ad565b90915550506001600160a01b038216600090815260686020526040812080546001929061119590849061215c565b909155505060008181526067602052604080822080546001600160a01b0319166001600160a01b0386811691821790925591518493918716917fddf252ad1be2c89b69c2b068fc378daa952ba7f163c4a11628f55a4df523b3ef91a4505050565b600081516041146112495760405162461bcd60e51b815260206004820152601f60248201527f45434453413a20696e76616c6964207369676e6174757265206c656e677468006044820152606401610467565b60208201516040830151606084015160001a611267868285856115cd565b9695505050505050565b6001600160a01b0382166112c75760405162461bcd60e51b815260206004820181905260248201527f4552433732313a206d696e7420746f20746865207a65726f20616464726573736044820152606401610467565b6000818152606760205260409020546001600160a01b03161561132c5760405162461bcd60e51b815260206004820152601c60248201527f4552433732313a20746f6b656e20616c7265616479206d696e746564000000006044820152606401610467565b61133860008383611515565b6001600160a01b038216600090815260686020526040812080546001929061136190849061215c565b909155505060008181526067602052604080822080546001600160a01b0319166001600160a01b03861690811790915590518392907fddf252ad1be2c89b69c2b068fc378daa952ba7f163c4a11628f55a4df523b3ef908290a45050565b6113ca84848461104b565b6113d68484848461182f565b61039a5760405162461bcd60e51b815260040161046790612029565b6060816114165750506040805180820190915260018152600360fc1b602082015290565b8160005b8115611440578061142a8161224e565b91506114399050600a83612199565b915061141a565b60008167ffffffffffffffff81111561145b5761145b6122d5565b6040519080825280601f01601f191660200182016040528015611485576020820181803683370190505b5090505b84156110435761149a6001836121ad565b91506114a7600a86612269565b6114b290603061215c565b60f81b8183815181106114c7576114c76122bf565b60200101906001600160f81b031916908160001a9053506114e9600a86612199565b9450611489565b60006001600160e01b0319821663780e9d6360e01b148061037e575061037e82611939565b6001600160a01b0383166115705761156b81609980546000838152609a60205260408120829055600182018355919091527f72a152ddfb8e864297c917af52ea6c1c68aead0fee1a62673fcc7e0c94979d000155565b611593565b816001600160a01b0316836001600160a01b031614611593576115938382611989565b6001600160a01b0382166115aa5761067a81611a26565b826001600160a01b0316826001600160a01b03161461067a5761067a8282611ad5565b60007f7fffffffffffffffffffffffffffffff5d576e7357a4501ddfe92f46681b20a082111561164a5760405162461bcd60e51b815260206004820152602260248201527f45434453413a20696e76616c6964207369676e6174757265202773272076616c604482015261756560f01b6064820152608401610467565b6000601e8560ff161115611713576116636004866121c4565b60ff16601b1480611681575061167a6004866121c4565b60ff16601c145b61169d5760405162461bcd60e51b8152600401610467906120c9565b60016116a887611b19565b6116b36004886121c4565b6040805160008152602081018083529390935260ff90911690820152606081018690526080810185905260a0016020604051602081039080840390855afa158015611702573d6000803e3d6000fd5b5050506020604051035190506117d0565b60ff8516158061172657508460ff166001145b156117395761173685601b612174565b94505b8460ff16601b148061174e57508460ff16601c145b61176a5760405162461bcd60e51b8152600401610467906120c9565b600161177587611b19565b6040805160008152602081018083529290925260ff881690820152606081018690526080810185905260a0016020604051602081039080840390855afa1580156117c3573d6000803e3d6000fd5b5050506020604051035190505b6001600160a01b0381166118265760405162461bcd60e51b815260206004820152601860248201527f45434453413a20696e76616c6964207369676e617475726500000000000000006044820152606401610467565b95945050505050565b60006001600160a01b0384163b1561193157604051630a85bd0160e11b81526001600160a01b0385169063150b7a0290611873903390899088908890600401611fe3565b602060405180830381600087803b15801561188d57600080fd5b505af19250505080156118bd575060408051601f3d908101601f191682019092526118ba91810190611ea3565b60015b611917573d8080156118eb576040519150601f19603f3d011682016040523d82523d6000602084013e6118f0565b606091505b50805161190f5760405162461bcd60e51b815260040161046790612029565b805181602001fd5b6001600160e01b031916630a85bd0160e11b149050611043565b506001611043565b60006001600160e01b031982166380ac58cd60e01b148061196a57506001600160e01b03198216635b5e139f60e01b145b8061037e57506301ffc9a760e01b6001600160e01b031983161461037e565b60006001611996846108a8565b6119a091906121ad565b6000838152609860205260409020549091508082146119f3576001600160a01b03841660009081526097602090815260408083208584528252808320548484528184208190558352609890915290208190555b5060009182526098602090815260408084208490556001600160a01b039094168352609781528383209183525290812055565b609954600090611a38906001906121ad565b6000838152609a602052604081205460998054939450909284908110611a6057611a606122bf565b906000526020600020015490508060998381548110611a8157611a816122bf565b6000918252602080832090910192909255828152609a90915260408082208490558582528120556099805480611ab957611ab96122a9565b6001900381819060005260206000200160009055905550505050565b6000611ae0836108a8565b6001600160a01b039093166000908152609760209081526040808320868452825280832085905593825260989052919091209190915550565b6040517f19457468657265756d205369676e6564204d6573736167653a0a3332000000006020820152603c8101829052600090605c01604051602081830303815290604052805190602001209050919050565b828054611b7890612213565b90600052602060002090601f016020900481019282611b9a5760008555611be0565b82601f10611bb357805160ff1916838001178555611be0565b82800160010185558215611be0579182015b82811115611be0578251825591602001919060010190611bc5565b50611bec929150611bf0565b5090565b5b80821115611bec5760008155600101611bf1565b600082601f830112611c1657600080fd5b813567ffffffffffffffff80821115611c3157611c316122d5565b604051601f8301601f19908116603f01168101908282118183101715611c5957611c596122d5565b81604052838152866020858801011115611c7257600080fd5b836020870160208301376000602085830101528094505050505092915050565b80356001600160601b0381168114611ca957600080fd5b919050565b600060208284031215611cc057600080fd5b8135610c89816122eb565b600060208284031215611cdd57600080fd5b8151610c89816122eb565b60008060408385031215611cfb57600080fd5b8235611d06816122eb565b91506020830135611d16816122eb565b809150509250929050565b600080600060608486031215611d3657600080fd5b8335611d41816122eb565b92506020840135611d51816122eb565b929592945050506040919091013590565b60008060008060808587031215611d7857600080fd5b8435611d83816122eb565b93506020850135611d93816122eb565b925060408501359150606085013567ffffffffffffffff811115611db657600080fd5b611dc287828801611c05565b91505092959194509250565b60008060408385031215611de157600080fd5b8235611dec816122eb565b915060208301358015158114611d1657600080fd5b60008060408385031215611e1457600080fd5b8235611e1f816122eb565b946020939093013593505050565b600080600060608486031215611e4257600080fd5b8335611e4d816122eb565b925060208401359150604084013567ffffffffffffffff811115611e7057600080fd5b611e7c86828701611c05565b9150509250925092565b600060208284031215611e9857600080fd5b8135610c8981612300565b600060208284031215611eb557600080fd5b8151610c8981612300565b600080600060608486031215611ed557600080fd5b833567ffffffffffffffff80821115611eed57600080fd5b611ef987838801611c05565b94506020860135915080821115611f0f57600080fd5b50611f1c86828701611c05565b9250506040840135611f2d816122eb565b809150509250925092565b600060208284031215611f4a57600080fd5b5035919050565b600060208284031215611f6357600080fd5b610c8982611c92565b60008060408385031215611f7f57600080fd5b611e1f83611c92565b60008151808452611fa08160208601602086016121e7565b601f01601f19169290920160200192915050565b60008351611fc68184602088016121e7565b835190830190611fda8183602088016121e7565b01949350505050565b6001600160a01b038581168252841660208201526040810183905260806060820181905260009061126790830184611f88565b602081526000610c896020830184611f88565b60208082526032908201527f4552433732313a207472616e7366657220746f206e6f6e20455243373231526560408201527131b2b4bb32b91034b6b83632b6b2b73a32b960711b606082015260800190565b6020808252602e908201527f496e697469616c697a61626c653a20636f6e747261637420697320616c72656160408201526d191e481a5b9a5d1a585b1a5e995960921b606082015260800190565b60208082526022908201527f45434453413a20696e76616c6964207369676e6174757265202776272076616c604082015261756560f01b606082015260800190565b60208082526031908201527f4552433732313a207472616e736665722063616c6c6572206973206e6f74206f6040820152701ddb995c881b9bdc88185c1c1c9bdd9959607a1b606082015260800190565b6000821982111561216f5761216f61227d565b500190565b600060ff821660ff84168060ff038211156121915761219161227d565b019392505050565b6000826121a8576121a8612293565b500490565b6000828210156121bf576121bf61227d565b500390565b600060ff821660ff8416808210156121de576121de61227d565b90039392505050565b60005b838110156122025781810151838201526020016121ea565b8381111561039a5750506000910152565b600181811c9082168061222757607f821691505b6020821081141561224857634e487b7160e01b600052602260045260246000fd5b50919050565b60006000198214156122625761226261227d565b5060010190565b60008261227857612278612293565b500690565b634e487b7160e01b600052601160045260246000fd5b634e487b7160e01b600052601260045260246000fd5b634e487b7160e01b600052603160045260246000fd5b634e487b7160e01b600052603260045260246000fd5b634e487b7160e01b600052604160045260246000fd5b6001600160a01b0381168114610de657600080fd5b6001600160e01b031981168114610de657600080fdfea2646970667358221220cc4768d0d370d4c07c57218fe8855dac8ece6aeb9c05daab4a71ef9b3877b62a64736f6c63430008070033",
  "linkReferences": {},
  "deployedLinkReferences": {}
}