{
  "_format": "hh-sol-artifact-1",
  "contractName": "CommittableV1",
  "sourceName": "contracts/ERC721/CommittableV1.sol",
  "abi": [
    {
      "anonymous": false,
      "inputs": [
        {
          "indexed": true,
          "internalType": "address",
          "name": "owner",
          "type": "address"
        },
        {
          "indexed": true,
          "internalType": "address",
          "name": "approved",
          "type": "address"
        },
        {
          "indexed": true,
          "internalType": "uint256",
          "name": "tokenId",
          "type": "uint256"
        }
      ],
      "name": "Approval",
      "type": "event"
    },
    {
      "anonymous": false,
      "inputs": [
        {
          "indexed": true,
          "internalType": "address",
          "name": "owner",
          "type": "address"
        },
        {
          "indexed": true,
          "internalType": "address",
          "name": "operator",
          "type": "address"
        },
        {
          "indexed": false,
          "internalType": "bool",
          "name": "approved",
          "type": "bool"
        }
      ],
      "name": "ApprovalForAll",
      "type": "event"
    },
    {
      "anonymous": false,
      "inputs": [
        {
          "indexed": true,
          "internalType": "address",
          "name": "from",
          "type": "address"
        },
        {
          "indexed": true,
          "internalType": "address",
          "name": "to",
          "type": "address"
        },
        {
          "indexed": true,
          "internalType": "uint256",
          "name": "tokenId",
          "type": "uint256"
        }
      ],
      "name": "Transfer",
      "type": "event"
    },
    {
      "inputs": [
        {
          "internalType": "address",
          "name": "to",
          "type": "address"
        },
        {
          "internalType": "uint256",
          "name": "tokenId",
          "type": "uint256"
        }
      ],
      "name": "approve",
      "outputs": [],
      "stateMutability": "nonpayable",
      "type": "function"
    },
    {
      "inputs": [
        {
          "internalType": "address",
          "name": "owner",
          "type": "address"
        }
      ],
      "name": "balanceOf",
      "outputs": [
        {
          "internalType": "uint256",
          "name": "",
          "type": "uint256"
        }
      ],
      "stateMutability": "view",
      "type": "function"
    },
    {
      "inputs": [
        {
          "internalType": "uint256",
          "name": "tokenId",
          "type": "uint256"
        }
      ],
      "name": "getApproved",
      "outputs": [
        {
          "internalType": "address",
          "name": "",
          "type": "address"
        }
      ],
      "stateMutability": "view",
      "type": "function"
    },
    {
      "inputs": [
        {
          "internalType": "string",
          "name": "_name",
          "type": "string"
        },
        {
          "internalType": "string",
          "name": "_symbol",
          "type": "string"
        },
        {
          "internalType": "address",
          "name": "controller",
          "type": "address"
        }
      ],
      "name": "initialize",
      "outputs": [],
      "stateMutability": "nonpayable",
      "type": "function"
    },
    {
      "inputs": [
        {
          "internalType": "address",
          "name": "owner",
          "type": "address"
        },
        {
          "internalType": "address",
          "name": "operator",
          "type": "address"
        }
      ],
      "name": "isApprovedForAll",
      "outputs": [
        {
          "internalType": "bool",
          "name": "",
          "type": "bool"
        }
      ],
      "stateMutability": "view",
      "type": "function"
    },
    {
      "inputs": [
        {
          "internalType": "address",
          "name": "creator",
          "type": "address"
        },
        {
          "internalType": "uint256",
          "name": "tokenId",
          "type": "uint256"
        },
        {
          "internalType": "bytes",
          "name": "signature",
          "type": "bytes"
        }
      ],
      "name": "mint",
      "outputs": [],
      "stateMutability": "nonpayable",
      "type": "function"
    },
    {
      "inputs": [],
      "name": "name",
      "outputs": [
        {
          "internalType": "string",
          "name": "",
          "type": "string"
        }
      ],
      "stateMutability": "view",
      "type": "function"
    },
    {
      "inputs": [
        {
          "internalType": "uint256",
          "name": "tokenId",
          "type": "uint256"
        }
      ],
      "name": "ownerOf",
      "outputs": [
        {
          "internalType": "address",
          "name": "",
          "type": "address"
        }
      ],
      "stateMutability": "view",
      "type": "function"
    },
    {
      "inputs": [
        {
          "internalType": "address",
          "name": "from",
          "type": "address"
        },
        {
          "internalType": "address",
          "name": "to",
          "type": "address"
        },
        {
          "internalType": "uint256",
          "name": "tokenId",
          "type": "uint256"
        }
      ],
      "name": "safeTransferFrom",
      "outputs": [],
      "stateMutability": "nonpayable",
      "type": "function"
    },
    {
      "inputs": [
        {
          "internalType": "address",
          "name": "from",
          "type": "address"
        },
        {
          "internalType": "address",
          "name": "to",
          "type": "address"
        },
        {
          "internalType": "uint256",
          "name": "tokenId",
          "type": "uint256"
        },
        {
          "internalType": "bytes",
          "name": "_data",
          "type": "bytes"
        }
      ],
      "name": "safeTransferFrom",
      "outputs": [],
      "stateMutability": "nonpayable",
      "type": "function"
    },
    {
      "inputs": [
        {
          "internalType": "address",
          "name": "operator",
          "type": "address"
        },
        {
          "internalType": "bool",
          "name": "approved",
          "type": "bool"
        }
      ],
      "name": "setApprovalForAll",
      "outputs": [],
      "stateMutability": "nonpayable",
      "type": "function"
    },
    {
      "inputs": [
        {
          "internalType": "bytes4",
          "name": "interfaceId",
          "type": "bytes4"
        }
      ],
      "name": "supportsInterface",
      "outputs": [
        {
          "internalType": "bool",
          "name": "",
          "type": "bool"
        }
      ],
      "stateMutability": "view",
      "type": "function"
    },
    {
      "inputs": [],
      "name": "symbol",
      "outputs": [
        {
          "internalType": "string",
          "name": "",
          "type": "string"
        }
      ],
      "stateMutability": "view",
      "type": "function"
    },
    {
      "inputs": [
        {
          "internalType": "uint256",
          "name": "tokenId",
          "type": "uint256"
        }
      ],
      "name": "tokenURI",
      "outputs": [
        {
          "internalType": "string",
          "name": "",
          "type": "string"
        }
      ],
      "stateMutability": "view",
      "type": "function"
    },
    {
      "inputs": [],
      "name": "totalSupply",
      "outputs": [
        {
          "internalType": "uint256",
          "name": "",
          "type": "uint256"
        }
      ],
      "stateMutability": "view",
      "type": "function"
    },
    {
      "inputs": [
        {
          "internalType": "address",
          "name": "from",
          "type": "address"
        },
        {
          "internalType": "address",
          "name": "to",
          "type": "address"
        },
        {
          "internalType": "uint256",
          "name": "tokenId",
          "type": "uint256"
        }
      ],
      "name": "transferFrom",
      "outputs": [],
      "stateMutability": "nonpayable",
      "type": "function"
    }
  ],
  "bytecode": "0x608060405234801561001057600080fd5b50611edc806100206000396000f3fe608060405234801561001057600080fd5b50600436106101005760003560e01c80636352211e11610097578063a22cb46511610066578063a22cb4651461020e578063b88d4fde14610221578063c87b56dd14610234578063e985e9c51461024757600080fd5b80636352211e146101cd57806370a08231146101e057806394d008ef146101f357806395d89b411461020657600080fd5b8063095ea7b3116100d3578063095ea7b31461018257806318160ddd1461019557806323b872dd146101a757806342842e0e146101ba57600080fd5b806301ffc9a71461010557806306fdde031461012d578063077f224a14610142578063081812fc14610157575b600080fd5b610118610113366004611b7e565b61025a565b60405190151581526020015b60405180910390f35b61013561029e565b6040516101249190611ce0565b610155610150366004611bb8565b610330565b005b61016a610165366004611c30565b610423565b6040516001600160a01b039091168152602001610124565b610155610190366004611af9565b6104c9565b6098545b604051908152602001610124565b6101556101b5366004611a19565b6105fb565b6101556101c8366004611a19565b610682565b61016a6101db366004611c30565b61069d565b6101996101ee3660046119a6565b610728565b610155610201366004611b25565b6107c2565b6101356107d7565b61015561021c366004611ac6565b6107e6565b61015561022f366004611a5a565b6107f5565b610135610242366004611c30565b61087d565b6101186102553660046119e0565b610966565b60006001600160e01b031982167f077f224a000000000000000000000000000000000000000000000000000000001480610298575061029882610a3e565b92915050565b6060606580546102ad90611d62565b80601f01602080910402602001604051908101604052809291908181526020018280546102d990611d62565b80156103265780601f106102fb57610100808354040283529160200191610326565b820191906000526020600020905b81548152906001019060200180831161030957829003601f168201915b5050505050905090565b600054610100900460ff1661034b5760005460ff161561034f565b303b155b6103c65760405162461bcd60e51b815260206004820152602e60248201527f496e697469616c697a61626c653a20636f6e747261637420697320616c72656160448201527f647920696e697469616c697a656400000000000000000000000000000000000060648201526084015b60405180910390fd5b600054610100900460ff161580156103e8576000805461ffff19166101011790555b6103f0610a7c565b6103f8610a7c565b6104028484610afb565b61040b82610b9f565b801561041d576000805461ff00191690555b50505050565b6000818152606760205260408120546001600160a01b03166104ad5760405162461bcd60e51b815260206004820152602c60248201527f4552433732313a20617070726f76656420717565727920666f72206e6f6e657860448201527f697374656e7420746f6b656e000000000000000000000000000000000000000060648201526084016103bd565b506000908152606960205260409020546001600160a01b031690565b60006104d48261069d565b9050806001600160a01b0316836001600160a01b0316141561055e5760405162461bcd60e51b815260206004820152602160248201527f4552433732313a20617070726f76616c20746f2063757272656e74206f776e6560448201527f720000000000000000000000000000000000000000000000000000000000000060648201526084016103bd565b336001600160a01b038216148061057a575061057a8133610966565b6105ec5760405162461bcd60e51b815260206004820152603860248201527f4552433732313a20617070726f76652063616c6c6572206973206e6f74206f7760448201527f6e6572206e6f7220617070726f76656420666f7220616c6c000000000000000060648201526084016103bd565b6105f68383610c8f565b505050565b6106053382610d0a565b6106775760405162461bcd60e51b815260206004820152603160248201527f4552433732313a207472616e736665722063616c6c6572206973206e6f74206f60448201527f776e6572206e6f7220617070726f76656400000000000000000000000000000060648201526084016103bd565b6105f6838383610df2565b6105f6838383604051806020016040528060008152506107f5565b6000818152606760205260408120546001600160a01b0316806102985760405162461bcd60e51b815260206004820152602960248201527f4552433732313a206f776e657220717565727920666f72206e6f6e657869737460448201527f656e7420746f6b656e000000000000000000000000000000000000000000000060648201526084016103bd565b60006001600160a01b0382166107a65760405162461bcd60e51b815260206004820152602a60248201527f4552433732313a2062616c616e636520717565727920666f7220746865207a6560448201527f726f20616464726573730000000000000000000000000000000000000000000060648201526084016103bd565b506001600160a01b031660009081526068602052604090205490565b6107cd838383610fd7565b6105f68383611211565b6060606680546102ad90611d62565b6107f133838361136c565b5050565b6107ff3383610d0a565b6108715760405162461bcd60e51b815260206004820152603160248201527f4552433732313a207472616e736665722063616c6c6572206973206e6f74206f60448201527f776e6572206e6f7220617070726f76656400000000000000000000000000000060648201526084016103bd565b61041d84848484611459565b6000818152606760205260409020546060906001600160a01b031661090a5760405162461bcd60e51b815260206004820152602f60248201527f4552433732314d657461646174613a2055524920717565727920666f72206e6f60448201527f6e6578697374656e7420746f6b656e000000000000000000000000000000000060648201526084016103bd565b60006109146114e2565b90506000815111610934576040518060200160405280600081525061095f565b8061093e84611502565b60405160200161094f929190611c75565b6040516020818303038152906040525b9392505050565b6000816001600160a01b0316609760009054906101000a90046001600160a01b03166001600160a01b031663f9bf80066040518163ffffffff1660e01b815260040160206040518083038186803b1580156109c057600080fd5b505afa1580156109d4573d6000803e3d6000fd5b505050506040513d601f19601f820116820180604052508101906109f891906119c3565b6001600160a01b03161415610a0f57506001610298565b506001600160a01b039182166000908152606a6020908152604080832093909416825291909152205460ff1690565b60006001600160e01b031982167f8cc60532000000000000000000000000000000000000000000000000000000001480610298575061029882611634565b600054610100900460ff16610af95760405162461bcd60e51b815260206004820152602b60248201527f496e697469616c697a61626c653a20636f6e7472616374206973206e6f74206960448201527f6e697469616c697a696e6700000000000000000000000000000000000000000060648201526084016103bd565b565b600054610100900460ff16610b785760405162461bcd60e51b815260206004820152602b60248201527f496e697469616c697a61626c653a20636f6e7472616374206973206e6f74206960448201527f6e697469616c697a696e6700000000000000000000000000000000000000000060648201526084016103bd565b8151610b8b906065906020850190611880565b5080516105f6906066906020840190611880565b600054610100900460ff16610bba5760005460ff1615610bbe565b303b155b610c305760405162461bcd60e51b815260206004820152602e60248201527f496e697469616c697a61626c653a20636f6e747261637420697320616c72656160448201527f647920696e697469616c697a656400000000000000000000000000000000000060648201526084016103bd565b600054610100900460ff16158015610c52576000805461ffff19166101011790555b6097805473ffffffffffffffffffffffffffffffffffffffff19166001600160a01b03841617905580156107f1576000805461ff00191690555050565b6000818152606960205260409020805473ffffffffffffffffffffffffffffffffffffffff19166001600160a01b0384169081179091558190610cd18261069d565b6001600160a01b03167f8c5be1e5ebec7d5bd14f71427d1e84f3dd0314c0f7b2291e5b200ac8c7c3b92560405160405180910390a45050565b6000818152606760205260408120546001600160a01b0316610d945760405162461bcd60e51b815260206004820152602c60248201527f4552433732313a206f70657261746f7220717565727920666f72206e6f6e657860448201527f697374656e7420746f6b656e000000000000000000000000000000000000000060648201526084016103bd565b6000610d9f8361069d565b9050806001600160a01b0316846001600160a01b03161480610dda5750836001600160a01b0316610dcf84610423565b6001600160a01b0316145b80610dea5750610dea8185610966565b949350505050565b826001600160a01b0316610e058261069d565b6001600160a01b031614610e815760405162461bcd60e51b815260206004820152602560248201527f4552433732313a207472616e736665722066726f6d20696e636f72726563742060448201527f6f776e657200000000000000000000000000000000000000000000000000000060648201526084016103bd565b6001600160a01b038216610efc5760405162461bcd60e51b8152602060048201526024808201527f4552433732313a207472616e7366657220746f20746865207a65726f2061646460448201527f726573730000000000000000000000000000000000000000000000000000000060648201526084016103bd565b610f078383836116cf565b610f12600082610c8f565b6001600160a01b0383166000908152606860205260408120805460019290610f3b908490611d1f565b90915550506001600160a01b0382166000908152606860205260408120805460019290610f69908490611cf3565b9091555050600081815260676020526040808220805473ffffffffffffffffffffffffffffffffffffffff19166001600160a01b0386811691821790925591518493918716917fddf252ad1be2c89b69c2b068fc378daa952ba7f163c4a11628f55a4df523b3ef91a4505050565b80516041146110285760405162461bcd60e51b815260206004820152601f60248201527f45434453413a20696e76616c6964207369676e6174757265206c656e6774680060448201526064016103bd565b60208181015160408084015160608086015183516001600160a01b038a8116828901528186018a905285518083038701815293820186528351938801939093207f19457468657265756d205369676e6564204d6573736167653a0a3332000000006080830152609c808301919091528551808303909101815260bc82018087528151918901919091206097547f7ac3c02f0000000000000000000000000000000000000000000000000000000090925295519697949660009390931a9594931692637ac3c02f9260c080840193829003018186803b15801561110957600080fd5b505afa15801561111d573d6000803e3d6000fd5b505050506040513d601f19601f8201168201806040525081019061114191906119c3565b6001600160a01b031660018284878760405160008152602001604052604051611186949392919093845260ff9290921660208401526040830152606082015260800190565b6020604051602081039080840390855afa1580156111a8573d6000803e3d6000fd5b505050602060405103516001600160a01b0316146112085760405162461bcd60e51b815260206004820152601760248201527f696e76616c696420746f6b656e207369676e617475726500000000000000000060448201526064016103bd565b50505050505050565b6001600160a01b0382166112675760405162461bcd60e51b815260206004820181905260248201527f4552433732313a206d696e7420746f20746865207a65726f206164647265737360448201526064016103bd565b6000818152606760205260409020546001600160a01b0316156112cc5760405162461bcd60e51b815260206004820152601c60248201527f4552433732313a20746f6b656e20616c7265616479206d696e7465640000000060448201526064016103bd565b6112d8600083836116cf565b6001600160a01b0382166000908152606860205260408120805460019290611301908490611cf3565b9091555050600081815260676020526040808220805473ffffffffffffffffffffffffffffffffffffffff19166001600160a01b03861690811790915590518392907fddf252ad1be2c89b69c2b068fc378daa952ba7f163c4a11628f55a4df523b3ef908290a45050565b816001600160a01b0316836001600160a01b031614156113ce5760405162461bcd60e51b815260206004820152601960248201527f4552433732313a20617070726f766520746f2063616c6c65720000000000000060448201526064016103bd565b6001600160a01b038381166000818152606a602090815260408083209487168084529482529182902080547fffffffffffffffffffffffffffffffffffffffffffffffffffffffffffffff001686151590811790915591519182527f17307eab39ab6107e8899845ad3d59bd9653f200f220920489ca2b5937696c31910160405180910390a3505050565b611464848484610df2565b611470848484846116eb565b61041d5760405162461bcd60e51b815260206004820152603260248201527f4552433732313a207472616e7366657220746f206e6f6e20455243373231526560448201527f63656976657220696d706c656d656e746572000000000000000000000000000060648201526084016103bd565b6060604051806060016040528060368152602001611e7160369139905090565b60608161154257505060408051808201909152600181527f3000000000000000000000000000000000000000000000000000000000000000602082015290565b8160005b811561156c578061155681611d9d565b91506115659050600a83611d0b565b9150611546565b60008167ffffffffffffffff81111561158757611587611e2c565b6040519080825280601f01601f1916602001820160405280156115b1576020820181803683370190505b5090505b8415610dea576115c6600183611d1f565b91506115d3600a86611dd6565b6115de906030611cf3565b60f81b8183815181106115f3576115f3611e16565b60200101907effffffffffffffffffffffffffffffffffffffffffffffffffffffffffffff1916908160001a90535061162d600a86611d0b565b94506115b5565b60006001600160e01b031982167f80ac58cd00000000000000000000000000000000000000000000000000000000148061169757506001600160e01b031982167f5b5e139f00000000000000000000000000000000000000000000000000000000145b8061029857507f01ffc9a7000000000000000000000000000000000000000000000000000000006001600160e01b0319831614610298565b6001600160a01b0383166105f657609880546001019055505050565b60006001600160a01b0384163b15611875576040517f150b7a020000000000000000000000000000000000000000000000000000000081526001600160a01b0385169063150b7a0290611748903390899088908890600401611ca4565b602060405180830381600087803b15801561176257600080fd5b505af1925050508015611792575060408051601f3d908101601f1916820190925261178f91810190611b9b565b60015b611842573d8080156117c0576040519150601f19603f3d011682016040523d82523d6000602084013e6117c5565b606091505b50805161183a5760405162461bcd60e51b815260206004820152603260248201527f4552433732313a207472616e7366657220746f206e6f6e20455243373231526560448201527f63656976657220696d706c656d656e746572000000000000000000000000000060648201526084016103bd565b805181602001fd5b6001600160e01b0319167f150b7a0200000000000000000000000000000000000000000000000000000000149050610dea565b506001949350505050565b82805461188c90611d62565b90600052602060002090601f0160209004810192826118ae57600085556118f4565b82601f106118c757805160ff19168380011785556118f4565b828001600101855582156118f4579182015b828111156118f45782518255916020019190600101906118d9565b50611900929150611904565b5090565b5b808211156119005760008155600101611905565b600082601f83011261192a57600080fd5b813567ffffffffffffffff8082111561194557611945611e2c565b604051601f8301601f19908116603f0116810190828211818310171561196d5761196d611e2c565b8160405283815286602085880101111561198657600080fd5b836020870160208301376000602085830101528094505050505092915050565b6000602082840312156119b857600080fd5b813561095f81611e42565b6000602082840312156119d557600080fd5b815161095f81611e42565b600080604083850312156119f357600080fd5b82356119fe81611e42565b91506020830135611a0e81611e42565b809150509250929050565b600080600060608486031215611a2e57600080fd5b8335611a3981611e42565b92506020840135611a4981611e42565b929592945050506040919091013590565b60008060008060808587031215611a7057600080fd5b8435611a7b81611e42565b93506020850135611a8b81611e42565b925060408501359150606085013567ffffffffffffffff811115611aae57600080fd5b611aba87828801611919565b91505092959194509250565b60008060408385031215611ad957600080fd5b8235611ae481611e42565b915060208301358015158114611a0e57600080fd5b60008060408385031215611b0c57600080fd5b8235611b1781611e42565b946020939093013593505050565b600080600060608486031215611b3a57600080fd5b8335611b4581611e42565b925060208401359150604084013567ffffffffffffffff811115611b6857600080fd5b611b7486828701611919565b9150509250925092565b600060208284031215611b9057600080fd5b813561095f81611e5a565b600060208284031215611bad57600080fd5b815161095f81611e5a565b600080600060608486031215611bcd57600080fd5b833567ffffffffffffffff80821115611be557600080fd5b611bf187838801611919565b94506020860135915080821115611c0757600080fd5b50611c1486828701611919565b9250506040840135611c2581611e42565b809150509250925092565b600060208284031215611c4257600080fd5b5035919050565b60008151808452611c61816020860160208601611d36565b601f01601f19169290920160200192915050565b60008351611c87818460208801611d36565b835190830190611c9b818360208801611d36565b01949350505050565b60006001600160a01b03808716835280861660208401525083604083015260806060830152611cd66080830184611c49565b9695505050505050565b60208152600061095f6020830184611c49565b60008219821115611d0657611d06611dea565b500190565b600082611d1a57611d1a611e00565b500490565b600082821015611d3157611d31611dea565b500390565b60005b83811015611d51578181015183820152602001611d39565b8381111561041d5750506000910152565b600181811c90821680611d7657607f821691505b60208210811415611d9757634e487b7160e01b600052602260045260246000fd5b50919050565b60007fffffffffffffffffffffffffffffffffffffffffffffffffffffffffffffffff821415611dcf57611dcf611dea565b5060010190565b600082611de557611de5611e00565b500690565b634e487b7160e01b600052601160045260246000fd5b634e487b7160e01b600052601260045260246000fd5b634e487b7160e01b600052603260045260246000fd5b634e487b7160e01b600052604160045260246000fd5b6001600160a01b0381168114611e5757600080fd5b50565b6001600160e01b031981168114611e5757600080fdfe687474703a2f2f33342e3132362e3133362e3232383a393039312f6170692f6d61696e2f6d696e742f6d6574612d646174613f69643da26469706673582212200703ba71718c1bdcc0b3f4e316256ab44bfd22d2219a9fb306d78dcfe261819964736f6c63430008070033",
  "linkReferences": {},
  "deployedLinkReferences": {}
}