{
  "_format": "hh-sol-artifact-1",
  "contractName": "CommittableV1",
  "sourceName": "contracts/ERC721/CommittableV1.sol",
  "abi": [
    {
      "anonymous": false,
      "inputs": [
        {
          "indexed": true,
          "internalType": "address",
          "name": "owner",
          "type": "address"
        },
        {
          "indexed": true,
          "internalType": "address",
          "name": "approved",
          "type": "address"
        },
        {
          "indexed": true,
          "internalType": "uint256",
          "name": "tokenId",
          "type": "uint256"
        }
      ],
      "name": "Approval",
      "type": "event"
    },
    {
      "anonymous": false,
      "inputs": [
        {
          "indexed": true,
          "internalType": "address",
          "name": "owner",
          "type": "address"
        },
        {
          "indexed": true,
          "internalType": "address",
          "name": "operator",
          "type": "address"
        },
        {
          "indexed": false,
          "internalType": "bool",
          "name": "approved",
          "type": "bool"
        }
      ],
      "name": "ApprovalForAll",
      "type": "event"
    },
    {
      "anonymous": false,
      "inputs": [
        {
          "indexed": true,
          "internalType": "address",
          "name": "from",
          "type": "address"
        },
        {
          "indexed": true,
          "internalType": "address",
          "name": "to",
          "type": "address"
        },
        {
          "indexed": true,
          "internalType": "uint256",
          "name": "tokenId",
          "type": "uint256"
        }
      ],
      "name": "Transfer",
      "type": "event"
    },
    {
      "inputs": [
        {
          "internalType": "address",
          "name": "to",
          "type": "address"
        },
        {
          "internalType": "uint256",
          "name": "tokenId",
          "type": "uint256"
        }
      ],
      "name": "approve",
      "outputs": [],
      "stateMutability": "nonpayable",
      "type": "function"
    },
    {
      "inputs": [
        {
          "internalType": "address",
          "name": "owner",
          "type": "address"
        }
      ],
      "name": "balanceOf",
      "outputs": [
        {
          "internalType": "uint256",
          "name": "",
          "type": "uint256"
        }
      ],
      "stateMutability": "view",
      "type": "function"
    },
    {
      "inputs": [
        {
          "internalType": "uint256",
          "name": "tokenId",
          "type": "uint256"
        }
      ],
      "name": "commitOf",
      "outputs": [
        {
          "internalType": "uint160",
          "name": "",
          "type": "uint160"
        }
      ],
      "stateMutability": "view",
      "type": "function"
    },
    {
      "inputs": [
        {
          "internalType": "uint256",
          "name": "tokenId",
          "type": "uint256"
        }
      ],
      "name": "getApproved",
      "outputs": [
        {
          "internalType": "address",
          "name": "",
          "type": "address"
        }
      ],
      "stateMutability": "view",
      "type": "function"
    },
    {
      "inputs": [
        {
          "internalType": "string",
          "name": "_name",
          "type": "string"
        },
        {
          "internalType": "string",
          "name": "_symbol",
          "type": "string"
        },
        {
          "internalType": "address",
          "name": "controller",
          "type": "address"
        }
      ],
      "name": "initialize",
      "outputs": [],
      "stateMutability": "nonpayable",
      "type": "function"
    },
    {
      "inputs": [
        {
          "internalType": "address",
          "name": "owner",
          "type": "address"
        },
        {
          "internalType": "address",
          "name": "operator",
          "type": "address"
        }
      ],
      "name": "isApprovedForAll",
      "outputs": [
        {
          "internalType": "bool",
          "name": "",
          "type": "bool"
        }
      ],
      "stateMutability": "view",
      "type": "function"
    },
    {
      "inputs": [
        {
          "internalType": "address",
          "name": "to",
          "type": "address"
        },
        {
          "internalType": "uint256",
          "name": "tokenId",
          "type": "uint256"
        },
        {
          "internalType": "bytes",
          "name": "signature",
          "type": "bytes"
        }
      ],
      "name": "mint",
      "outputs": [],
      "stateMutability": "nonpayable",
      "type": "function"
    },
    {
      "inputs": [],
      "name": "name",
      "outputs": [
        {
          "internalType": "string",
          "name": "",
          "type": "string"
        }
      ],
      "stateMutability": "view",
      "type": "function"
    },
    {
      "inputs": [
        {
          "internalType": "address",
          "name": "",
          "type": "address"
        }
      ],
      "name": "nonces",
      "outputs": [
        {
          "internalType": "uint256",
          "name": "",
          "type": "uint256"
        }
      ],
      "stateMutability": "view",
      "type": "function"
    },
    {
      "inputs": [
        {
          "internalType": "uint256",
          "name": "tokenId",
          "type": "uint256"
        }
      ],
      "name": "ownerOf",
      "outputs": [
        {
          "internalType": "address",
          "name": "",
          "type": "address"
        }
      ],
      "stateMutability": "view",
      "type": "function"
    },
    {
      "inputs": [
        {
          "internalType": "address",
          "name": "operator",
          "type": "address"
        },
        {
          "internalType": "uint256",
          "name": "tokenId",
          "type": "uint256"
        },
        {
          "internalType": "uint256",
          "name": "deadline",
          "type": "uint256"
        },
        {
          "internalType": "bytes",
          "name": "signature",
          "type": "bytes"
        }
      ],
      "name": "permit",
      "outputs": [],
      "stateMutability": "nonpayable",
      "type": "function"
    },
    {
      "inputs": [
        {
          "internalType": "uint256",
          "name": "tokenId",
          "type": "uint256"
        }
      ],
      "name": "projectOf",
      "outputs": [
        {
          "internalType": "uint96",
          "name": "",
          "type": "uint96"
        }
      ],
      "stateMutability": "view",
      "type": "function"
    },
    {
      "inputs": [
        {
          "internalType": "address",
          "name": "from",
          "type": "address"
        },
        {
          "internalType": "address",
          "name": "to",
          "type": "address"
        },
        {
          "internalType": "uint256",
          "name": "tokenId",
          "type": "uint256"
        }
      ],
      "name": "safeTransferFrom",
      "outputs": [],
      "stateMutability": "nonpayable",
      "type": "function"
    },
    {
      "inputs": [
        {
          "internalType": "address",
          "name": "from",
          "type": "address"
        },
        {
          "internalType": "address",
          "name": "to",
          "type": "address"
        },
        {
          "internalType": "uint256",
          "name": "tokenId",
          "type": "uint256"
        },
        {
          "internalType": "bytes",
          "name": "_data",
          "type": "bytes"
        }
      ],
      "name": "safeTransferFrom",
      "outputs": [],
      "stateMutability": "nonpayable",
      "type": "function"
    },
    {
      "inputs": [
        {
          "internalType": "address",
          "name": "operator",
          "type": "address"
        },
        {
          "internalType": "bool",
          "name": "approved",
          "type": "bool"
        }
      ],
      "name": "setApprovalForAll",
      "outputs": [],
      "stateMutability": "nonpayable",
      "type": "function"
    },
    {
      "inputs": [
        {
          "internalType": "bytes4",
          "name": "interfaceId",
          "type": "bytes4"
        }
      ],
      "name": "supportsInterface",
      "outputs": [
        {
          "internalType": "bool",
          "name": "",
          "type": "bool"
        }
      ],
      "stateMutability": "view",
      "type": "function"
    },
    {
      "inputs": [],
      "name": "symbol",
      "outputs": [
        {
          "internalType": "string",
          "name": "",
          "type": "string"
        }
      ],
      "stateMutability": "view",
      "type": "function"
    },
    {
      "inputs": [
        {
          "internalType": "uint256",
          "name": "index",
          "type": "uint256"
        }
      ],
      "name": "tokenByIndex",
      "outputs": [
        {
          "internalType": "uint256",
          "name": "",
          "type": "uint256"
        }
      ],
      "stateMutability": "view",
      "type": "function"
    },
    {
      "inputs": [
        {
          "internalType": "address",
          "name": "owner",
          "type": "address"
        },
        {
          "internalType": "uint256",
          "name": "index",
          "type": "uint256"
        }
      ],
      "name": "tokenOfOwnerByIndex",
      "outputs": [
        {
          "internalType": "uint256",
          "name": "",
          "type": "uint256"
        }
      ],
      "stateMutability": "view",
      "type": "function"
    },
    {
      "inputs": [
        {
          "internalType": "uint96",
          "name": "project",
          "type": "uint96"
        },
        {
          "internalType": "uint256",
          "name": "index",
          "type": "uint256"
        }
      ],
      "name": "tokenOfProjectByIndex",
      "outputs": [
        {
          "internalType": "uint256",
          "name": "",
          "type": "uint256"
        }
      ],
      "stateMutability": "view",
      "type": "function"
    },
    {
      "inputs": [
        {
          "internalType": "uint256",
          "name": "tokenId",
          "type": "uint256"
        }
      ],
      "name": "tokenURI",
      "outputs": [
        {
          "internalType": "string",
          "name": "",
          "type": "string"
        }
      ],
      "stateMutability": "view",
      "type": "function"
    },
    {
      "inputs": [],
      "name": "totalSupply",
      "outputs": [
        {
          "internalType": "uint256",
          "name": "",
          "type": "uint256"
        }
      ],
      "stateMutability": "view",
      "type": "function"
    },
    {
      "inputs": [
        {
          "internalType": "uint96",
          "name": "project",
          "type": "uint96"
        }
      ],
      "name": "totalSupplyOfProject",
      "outputs": [
        {
          "internalType": "uint256",
          "name": "",
          "type": "uint256"
        }
      ],
      "stateMutability": "view",
      "type": "function"
    },
    {
      "inputs": [
        {
          "internalType": "address",
          "name": "from",
          "type": "address"
        },
        {
          "internalType": "address",
          "name": "to",
          "type": "address"
        },
        {
          "internalType": "uint256",
          "name": "tokenId",
          "type": "uint256"
        }
      ],
      "name": "transferFrom",
      "outputs": [],
      "stateMutability": "nonpayable",
      "type": "function"
    }
  ],
  "bytecode": "0x608060405234801561001057600080fd5b50612453806100206000396000f3fe608060405234801561001057600080fd5b50600436106101585760003560e01c80636352211e116100c357806394d008ef1161007c57806394d008ef1461031d57806395d89b4114610330578063a22cb46514610338578063b88d4fde1461034b578063c87b56dd1461035e578063e985e9c51461037157600080fd5b80636352211e1461028757806365e9ac331461029a5780636d645fde146102c657806370a08231146102d7578063745a41bc146102ea5780637ecebe00146102fd57600080fd5b806323b872dd1161011557806323b872dd146101ff5780632a2951c1146102125780632f745c591461023b57806342842e0e1461024e5780634f6ccce714610261578063605cc80f1461027457600080fd5b806301ffc9a71461015d57806306fdde0314610185578063077f224a1461019a578063081812fc146101af578063095ea7b3146101da57806318160ddd146101ed575b600080fd5b61017061016b366004611f8d565b6103ad565b60405190151581526020015b60405180910390f35b61018d6103d8565b60405161017c919061211d565b6101ad6101a8366004611fc7565b61046a565b005b6101c26101bd36600461203f565b61050d565b6040516001600160a01b03909116815260200161017c565b6101ad6101e8366004611ebd565b6105a2565b6099545b60405190815260200161017c565b6101ad61020d366004611ddd565b6106b8565b6101f1610220366004612058565b6001600160601b0316600090815260ca602052604090205490565b6101f1610249366004611ebd565b6106e9565b6101ad61025c366004611ddd565b61077f565b6101f161026f36600461203f565b61079a565b6101f1610282366004612073565b61082d565b6101c261029536600461203f565b61086a565b6102ae6102a836600461203f565b60a01c90565b6040516001600160601b03909116815260200161017c565b6101c26102d436600461203f565b90565b6101f16102e5366004611d6a565b6108e1565b6101ad6102f8366004611f42565b610968565b6101f161030b366004611d6a565b60cb6020526000908152604090205481565b6101ad61032b366004611ee9565b610ac2565b61018d610be1565b6101ad610346366004611e8a565b610bf0565b6101ad610359366004611e1e565b610cb5565b61018d61036c36600461203f565b610ce7565b61017061037f366004611da4565b6001600160a01b039182166000908152606a6020908152604080832093909416825291909152205460ff1690565b60006001600160e01b031982166303bf912560e11b14806103d257506103d282610df4565b92915050565b6060606580546103e79061231a565b80601f01602080910402602001604051908101604052809291908181526020018280546104139061231a565b80156104605780601f1061043557610100808354040283529160200191610460565b820191906000526020600020905b81548152906001019060200180831161044357829003601f168201915b5050505050905090565b600054610100900460ff1680610483575060005460ff16155b6104a85760405162461bcd60e51b815260040161049f90612182565b60405180910390fd5b600054610100900460ff161580156104ca576000805461ffff19166101011790555b6104d2610e19565b6104da610e19565b6104e48484610e85565b6104ec610e19565b6104f582610f1a565b8015610507576000805461ff00191690555b50505050565b6000818152606760205260408120546001600160a01b03166105865760405162461bcd60e51b815260206004820152602c60248201527f4552433732313a20617070726f76656420717565727920666f72206e6f6e657860448201526b34b9ba32b73a103a37b5b2b760a11b606482015260840161049f565b506000908152606960205260409020546001600160a01b031690565b60006105ad8261086a565b9050806001600160a01b0316836001600160a01b0316141561061b5760405162461bcd60e51b815260206004820152602160248201527f4552433732313a20617070726f76616c20746f2063757272656e74206f776e656044820152603960f91b606482015260840161049f565b336001600160a01b03821614806106375750610637813361037f565b6106a95760405162461bcd60e51b815260206004820152603860248201527f4552433732313a20617070726f76652063616c6c6572206973206e6f74206f7760448201527f6e6572206e6f7220617070726f76656420666f7220616c6c0000000000000000606482015260840161049f565b6106b38383610fa2565b505050565b6106c23382611010565b6106de5760405162461bcd60e51b815260040161049f90612212565b6106b3838383611107565b60006106f4836108e1565b82106107565760405162461bcd60e51b815260206004820152602b60248201527f455243373231456e756d657261626c653a206f776e657220696e646578206f7560448201526a74206f6620626f756e647360a81b606482015260840161049f565b506001600160a01b03919091166000908152609760209081526040808320938352929052205490565b6106b383838360405180602001604052806000815250610cb5565b60006107a560995490565b82106108085760405162461bcd60e51b815260206004820152602c60248201527f455243373231456e756d657261626c653a20676c6f62616c20696e646578206f60448201526b7574206f6620626f756e647360a01b606482015260840161049f565b6099828154811061081b5761081b6123c6565b90600052602060002001549050919050565b6001600160601b038216600090815260ca60205260408120805483908110610857576108576123c6565b9060005260206000200154905092915050565b6000818152606760205260408120546001600160a01b0316806103d25760405162461bcd60e51b815260206004820152602960248201527f4552433732313a206f776e657220717565727920666f72206e6f6e657869737460448201526832b73a103a37b5b2b760b91b606482015260840161049f565b60006001600160a01b03821661094c5760405162461bcd60e51b815260206004820152602a60248201527f4552433732313a2062616c616e636520717565727920666f7220746865207a65604482015269726f206164647265737360b01b606482015260840161049f565b506001600160a01b031660009081526068602052604090205490565b81158061097457508142105b6109c05760405162461bcd60e51b815260206004820152601860248201527f65787069726564207065726d6974207369676e61747572650000000000000000604482015260640161049f565b60006109cb8461086a565b6001600160a01b038116600090815260cb60205260408120805492935090918791879190846109f983612355565b90915550604080516001600160a01b03909416602085015283019190915260608201526080810185905260a001604051602081830303815290604052805190602001209050610a478561086a565b6001600160a01b0316610a5a82856112b2565b6001600160a01b031614610ab05760405162461bcd60e51b815260206004820152601860248201527f696e76616c6964207065726d6974207369676e61747572650000000000000000604482015260640161049f565b610aba8686610fa2565b505050505050565b60c960009054906101000a90046001600160a01b03166001600160a01b031663238ac9336040518163ffffffff1660e01b815260040160206040518083038186803b158015610b1057600080fd5b505afa158015610b24573d6000803e3d6000fd5b505050506040513d601f19601f82011682018060405250810190610b489190611d87565b6001600160a01b0316610b5b83836112b2565b6001600160a01b031614610bb15760405162461bcd60e51b815260206004820152601760248201527f696e76616c696420746f6b656e207369676e6174757265000000000000000000604482015260640161049f565b60a082901c600081815260ca6020908152604082208054600181018255908352912001839055610507848461132d565b6060606680546103e79061231a565b6001600160a01b038216331415610c495760405162461bcd60e51b815260206004820152601960248201527f4552433732313a20617070726f766520746f2063616c6c657200000000000000604482015260640161049f565b336000818152606a602090815260408083206001600160a01b03871680855290835292819020805460ff191686151590811790915590519081529192917f17307eab39ab6107e8899845ad3d59bd9653f200f220920489ca2b5937696c31910160405180910390a35050565b610cbf3383611010565b610cdb5760405162461bcd60e51b815260040161049f90612212565b6105078484848461147b565b6000818152606760205260409020546060906001600160a01b0316610d665760405162461bcd60e51b815260206004820152602f60248201527f4552433732314d657461646174613a2055524920717565727920666f72206e6f60448201526e3732bc34b9ba32b73a103a37b5b2b760891b606482015260840161049f565b6000610da260408051808201909152601f81527f68747470733a2f2f6170702e636f6d6d69747461626c652e696f2f6e66742f00602082015290565b90506000815111610dc25760405180602001604052806000815250610ded565b80610dcc846114ae565b604051602001610ddd9291906120bb565b6040516020818303038152906040525b9392505050565b60006001600160e01b03198216630a27223760e41b14806103d257506103d2826115ac565b600054610100900460ff1680610e32575060005460ff16155b610e4e5760405162461bcd60e51b815260040161049f90612182565b600054610100900460ff16158015610e70576000805461ffff19166101011790555b8015610e82576000805461ff00191690555b50565b600054610100900460ff1680610e9e575060005460ff16155b610eba5760405162461bcd60e51b815260040161049f90612182565b600054610100900460ff16158015610edc576000805461ffff19166101011790555b8251610eef906065906020860190611c28565b508151610f03906066906020850190611c28565b5080156106b3576000805461ff0019169055505050565b600054610100900460ff1680610f33575060005460ff16155b610f4f5760405162461bcd60e51b815260040161049f90612182565b600054610100900460ff16158015610f71576000805461ffff19166101011790555b60c980546001600160a01b0319166001600160a01b0384161790558015610f9e576000805461ff00191690555b5050565b600081815260696020526040902080546001600160a01b0319166001600160a01b0384169081179091558190610fd78261086a565b6001600160a01b03167f8c5be1e5ebec7d5bd14f71427d1e84f3dd0314c0f7b2291e5b200ac8c7c3b92560405160405180910390a45050565b6000818152606760205260408120546001600160a01b03166110895760405162461bcd60e51b815260206004820152602c60248201527f4552433732313a206f70657261746f7220717565727920666f72206e6f6e657860448201526b34b9ba32b73a103a37b5b2b760a11b606482015260840161049f565b60006110948361086a565b9050806001600160a01b0316846001600160a01b031614806110cf5750836001600160a01b03166110c48461050d565b6001600160a01b0316145b806110ff57506001600160a01b038082166000908152606a602090815260408083209388168352929052205460ff165b949350505050565b826001600160a01b031661111a8261086a565b6001600160a01b0316146111825760405162461bcd60e51b815260206004820152602960248201527f4552433732313a207472616e73666572206f6620746f6b656e2074686174206960448201526839903737ba1037bbb760b91b606482015260840161049f565b6001600160a01b0382166111e45760405162461bcd60e51b8152602060048201526024808201527f4552433732313a207472616e7366657220746f20746865207a65726f206164646044820152637265737360e01b606482015260840161049f565b6111ef8383836115d1565b6111fa600082610fa2565b6001600160a01b03831660009081526068602052604081208054600192906112239084906122b4565b90915550506001600160a01b0382166000908152606860205260408120805460019290611251908490612263565b909155505060008181526067602052604080822080546001600160a01b0319166001600160a01b0386811691821790925591518493918716917fddf252ad1be2c89b69c2b068fc378daa952ba7f163c4a11628f55a4df523b3ef91a4505050565b600081516041146113055760405162461bcd60e51b815260206004820152601f60248201527f45434453413a20696e76616c6964207369676e6174757265206c656e67746800604482015260640161049f565b60208201516040830151606084015160001a61132386828585611689565b9695505050505050565b6001600160a01b0382166113835760405162461bcd60e51b815260206004820181905260248201527f4552433732313a206d696e7420746f20746865207a65726f2061646472657373604482015260640161049f565b6000818152606760205260409020546001600160a01b0316156113e85760405162461bcd60e51b815260206004820152601c60248201527f4552433732313a20746f6b656e20616c7265616479206d696e74656400000000604482015260640161049f565b6113f4600083836115d1565b6001600160a01b038216600090815260686020526040812080546001929061141d908490612263565b909155505060008181526067602052604080822080546001600160a01b0319166001600160a01b03861690811790915590518392907fddf252ad1be2c89b69c2b068fc378daa952ba7f163c4a11628f55a4df523b3ef908290a45050565b611486848484611107565b611492848484846118eb565b6105075760405162461bcd60e51b815260040161049f90612130565b6060816114d25750506040805180820190915260018152600360fc1b602082015290565b8160005b81156114fc57806114e681612355565b91506114f59050600a836122a0565b91506114d6565b60008167ffffffffffffffff811115611517576115176123dc565b6040519080825280601f01601f191660200182016040528015611541576020820181803683370190505b5090505b84156110ff576115566001836122b4565b9150611563600a86612370565b61156e906030612263565b60f81b818381518110611583576115836123c6565b60200101906001600160f81b031916908160001a9053506115a5600a866122a0565b9450611545565b60006001600160e01b0319821663780e9d6360e01b14806103d257506103d2826119f5565b6001600160a01b03831661162c5761162781609980546000838152609a60205260408120829055600182018355919091527f72a152ddfb8e864297c917af52ea6c1c68aead0fee1a62673fcc7e0c94979d000155565b61164f565b816001600160a01b0316836001600160a01b03161461164f5761164f8382611a45565b6001600160a01b038216611666576106b381611ae2565b826001600160a01b0316826001600160a01b0316146106b3576106b38282611b91565b60007f7fffffffffffffffffffffffffffffff5d576e7357a4501ddfe92f46681b20a08211156117065760405162461bcd60e51b815260206004820152602260248201527f45434453413a20696e76616c6964207369676e6174757265202773272076616c604482015261756560f01b606482015260840161049f565b6000601e8560ff1611156117cf5761171f6004866122cb565b60ff16601b148061173d57506117366004866122cb565b60ff16601c145b6117595760405162461bcd60e51b815260040161049f906121d0565b600161176487611bd5565b61176f6004886122cb565b6040805160008152602081018083529390935260ff90911690820152606081018690526080810185905260a0016020604051602081039080840390855afa1580156117be573d6000803e3d6000fd5b50505060206040510351905061188c565b60ff851615806117e257508460ff166001145b156117f5576117f285601b61227b565b94505b8460ff16601b148061180a57508460ff16601c145b6118265760405162461bcd60e51b815260040161049f906121d0565b600161183187611bd5565b6040805160008152602081018083529290925260ff881690820152606081018690526080810185905260a0016020604051602081039080840390855afa15801561187f573d6000803e3d6000fd5b5050506020604051035190505b6001600160a01b0381166118e25760405162461bcd60e51b815260206004820152601860248201527f45434453413a20696e76616c6964207369676e61747572650000000000000000604482015260640161049f565b95945050505050565b60006001600160a01b0384163b156119ed57604051630a85bd0160e11b81526001600160a01b0385169063150b7a029061192f9033908990889088906004016120ea565b602060405180830381600087803b15801561194957600080fd5b505af1925050508015611979575060408051601f3d908101601f1916820190925261197691810190611faa565b60015b6119d3573d8080156119a7576040519150601f19603f3d011682016040523d82523d6000602084013e6119ac565b606091505b5080516119cb5760405162461bcd60e51b815260040161049f90612130565b805181602001fd5b6001600160e01b031916630a85bd0160e11b1490506110ff565b5060016110ff565b60006001600160e01b031982166380ac58cd60e01b1480611a2657506001600160e01b03198216635b5e139f60e01b145b806103d257506301ffc9a760e01b6001600160e01b03198316146103d2565b60006001611a52846108e1565b611a5c91906122b4565b600083815260986020526040902054909150808214611aaf576001600160a01b03841660009081526097602090815260408083208584528252808320548484528184208190558352609890915290208190555b5060009182526098602090815260408084208490556001600160a01b039094168352609781528383209183525290812055565b609954600090611af4906001906122b4565b6000838152609a602052604081205460998054939450909284908110611b1c57611b1c6123c6565b906000526020600020015490508060998381548110611b3d57611b3d6123c6565b6000918252602080832090910192909255828152609a90915260408082208490558582528120556099805480611b7557611b756123b0565b6001900381819060005260206000200160009055905550505050565b6000611b9c836108e1565b6001600160a01b039093166000908152609760209081526040808320868452825280832085905593825260989052919091209190915550565b6040517f19457468657265756d205369676e6564204d6573736167653a0a3332000000006020820152603c8101829052600090605c01604051602081830303815290604052805190602001209050919050565b828054611c349061231a565b90600052602060002090601f016020900481019282611c565760008555611c9c565b82601f10611c6f57805160ff1916838001178555611c9c565b82800160010185558215611c9c579182015b82811115611c9c578251825591602001919060010190611c81565b50611ca8929150611cac565b5090565b5b80821115611ca85760008155600101611cad565b600082601f830112611cd257600080fd5b813567ffffffffffffffff80821115611ced57611ced6123dc565b604051601f8301601f19908116603f01168101908282118183101715611d1557611d156123dc565b81604052838152866020858801011115611d2e57600080fd5b836020870160208301376000602085830101528094505050505092915050565b80356001600160601b0381168114611d6557600080fd5b919050565b600060208284031215611d7c57600080fd5b8135610ded816123f2565b600060208284031215611d9957600080fd5b8151610ded816123f2565b60008060408385031215611db757600080fd5b8235611dc2816123f2565b91506020830135611dd2816123f2565b809150509250929050565b600080600060608486031215611df257600080fd5b8335611dfd816123f2565b92506020840135611e0d816123f2565b929592945050506040919091013590565b60008060008060808587031215611e3457600080fd5b8435611e3f816123f2565b93506020850135611e4f816123f2565b925060408501359150606085013567ffffffffffffffff811115611e7257600080fd5b611e7e87828801611cc1565b91505092959194509250565b60008060408385031215611e9d57600080fd5b8235611ea8816123f2565b915060208301358015158114611dd257600080fd5b60008060408385031215611ed057600080fd5b8235611edb816123f2565b946020939093013593505050565b600080600060608486031215611efe57600080fd5b8335611f09816123f2565b925060208401359150604084013567ffffffffffffffff811115611f2c57600080fd5b611f3886828701611cc1565b9150509250925092565b60008060008060808587031215611f5857600080fd5b8435611f63816123f2565b93506020850135925060408501359150606085013567ffffffffffffffff811115611e7257600080fd5b600060208284031215611f9f57600080fd5b8135610ded81612407565b600060208284031215611fbc57600080fd5b8151610ded81612407565b600080600060608486031215611fdc57600080fd5b833567ffffffffffffffff80821115611ff457600080fd5b61200087838801611cc1565b9450602086013591508082111561201657600080fd5b5061202386828701611cc1565b9250506040840135612034816123f2565b809150509250925092565b60006020828403121561205157600080fd5b5035919050565b60006020828403121561206a57600080fd5b610ded82611d4e565b6000806040838503121561208657600080fd5b611edb83611d4e565b600081518084526120a78160208601602086016122ee565b601f01601f19169290920160200192915050565b600083516120cd8184602088016122ee565b8351908301906120e18183602088016122ee565b01949350505050565b6001600160a01b03858116825284166020820152604081018390526080606082018190526000906113239083018461208f565b602081526000610ded602083018461208f565b60208082526032908201527f4552433732313a207472616e7366657220746f206e6f6e20455243373231526560408201527131b2b4bb32b91034b6b83632b6b2b73a32b960711b606082015260800190565b6020808252602e908201527f496e697469616c697a61626c653a20636f6e747261637420697320616c72656160408201526d191e481a5b9a5d1a585b1a5e995960921b606082015260800190565b60208082526022908201527f45434453413a20696e76616c6964207369676e6174757265202776272076616c604082015261756560f01b606082015260800190565b60208082526031908201527f4552433732313a207472616e736665722063616c6c6572206973206e6f74206f6040820152701ddb995c881b9bdc88185c1c1c9bdd9959607a1b606082015260800190565b6000821982111561227657612276612384565b500190565b600060ff821660ff84168060ff0382111561229857612298612384565b019392505050565b6000826122af576122af61239a565b500490565b6000828210156122c6576122c6612384565b500390565b600060ff821660ff8416808210156122e5576122e5612384565b90039392505050565b60005b838110156123095781810151838201526020016122f1565b838111156105075750506000910152565b600181811c9082168061232e57607f821691505b6020821081141561234f57634e487b7160e01b600052602260045260246000fd5b50919050565b600060001982141561236957612369612384565b5060010190565b60008261237f5761237f61239a565b500690565b634e487b7160e01b600052601160045260246000fd5b634e487b7160e01b600052601260045260246000fd5b634e487b7160e01b600052603160045260246000fd5b634e487b7160e01b600052603260045260246000fd5b634e487b7160e01b600052604160045260246000fd5b6001600160a01b0381168114610e8257600080fd5b6001600160e01b031981168114610e8257600080fdfea2646970667358221220c772186e0ad378be2ff1ed4b2ff9b62af2d80a0104dd619168811c2c9ed36e8264736f6c63430008070033",
  "linkReferences": {},
  "deployedLinkReferences": {}
}