{
  "_format": "hh-sol-artifact-1",
  "contractName": "CommittableV1",
  "sourceName": "contracts/ERC721/CommittableV1.sol",
  "abi": [
    {
      "anonymous": false,
      "inputs": [
        {
          "indexed": true,
          "internalType": "address",
          "name": "owner",
          "type": "address"
        },
        {
          "indexed": true,
          "internalType": "address",
          "name": "approved",
          "type": "address"
        },
        {
          "indexed": true,
          "internalType": "uint256",
          "name": "tokenId",
          "type": "uint256"
        }
      ],
      "name": "Approval",
      "type": "event"
    },
    {
      "anonymous": false,
      "inputs": [
        {
          "indexed": true,
          "internalType": "address",
          "name": "owner",
          "type": "address"
        },
        {
          "indexed": true,
          "internalType": "address",
          "name": "operator",
          "type": "address"
        },
        {
          "indexed": false,
          "internalType": "bool",
          "name": "approved",
          "type": "bool"
        }
      ],
      "name": "ApprovalForAll",
      "type": "event"
    },
    {
      "anonymous": false,
      "inputs": [
        {
          "indexed": true,
          "internalType": "address",
          "name": "from",
          "type": "address"
        },
        {
          "indexed": true,
          "internalType": "address",
          "name": "to",
          "type": "address"
        },
        {
          "indexed": true,
          "internalType": "uint256",
          "name": "tokenId",
          "type": "uint256"
        }
      ],
      "name": "Transfer",
      "type": "event"
    },
    {
      "inputs": [
        {
          "internalType": "address",
          "name": "to",
          "type": "address"
        },
        {
          "internalType": "uint256",
          "name": "tokenId",
          "type": "uint256"
        }
      ],
      "name": "approve",
      "outputs": [],
      "stateMutability": "nonpayable",
      "type": "function"
    },
    {
      "inputs": [
        {
          "internalType": "address",
          "name": "owner",
          "type": "address"
        }
      ],
      "name": "balanceOf",
      "outputs": [
        {
          "internalType": "uint256",
          "name": "",
          "type": "uint256"
        }
      ],
      "stateMutability": "view",
      "type": "function"
    },
    {
      "inputs": [
        {
          "internalType": "uint256",
          "name": "tokenId",
          "type": "uint256"
        }
      ],
      "name": "commitOf",
      "outputs": [
        {
          "internalType": "uint160",
          "name": "",
          "type": "uint160"
        }
      ],
      "stateMutability": "view",
      "type": "function"
    },
    {
      "inputs": [
        {
          "internalType": "uint256",
          "name": "tokenId",
          "type": "uint256"
        }
      ],
      "name": "getApproved",
      "outputs": [
        {
          "internalType": "address",
          "name": "",
          "type": "address"
        }
      ],
      "stateMutability": "view",
      "type": "function"
    },
    {
      "inputs": [
        {
          "internalType": "string",
          "name": "_name",
          "type": "string"
        },
        {
          "internalType": "string",
          "name": "_symbol",
          "type": "string"
        },
        {
          "internalType": "address",
          "name": "controller",
          "type": "address"
        }
      ],
      "name": "initialize",
      "outputs": [],
      "stateMutability": "nonpayable",
      "type": "function"
    },
    {
      "inputs": [
        {
          "internalType": "address",
          "name": "owner",
          "type": "address"
        },
        {
          "internalType": "address",
          "name": "operator",
          "type": "address"
        }
      ],
      "name": "isApprovedForAll",
      "outputs": [
        {
          "internalType": "bool",
          "name": "",
          "type": "bool"
        }
      ],
      "stateMutability": "view",
      "type": "function"
    },
    {
      "inputs": [
        {
          "internalType": "address",
          "name": "to",
          "type": "address"
        },
        {
          "internalType": "uint256",
          "name": "tokenId",
          "type": "uint256"
        },
        {
          "internalType": "bytes",
          "name": "signature",
          "type": "bytes"
        }
      ],
      "name": "mint",
      "outputs": [],
      "stateMutability": "nonpayable",
      "type": "function"
    },
    {
      "inputs": [],
      "name": "name",
      "outputs": [
        {
          "internalType": "string",
          "name": "",
          "type": "string"
        }
      ],
      "stateMutability": "view",
      "type": "function"
    },
    {
      "inputs": [
        {
          "internalType": "uint256",
          "name": "tokenId",
          "type": "uint256"
        }
      ],
      "name": "ownerOf",
      "outputs": [
        {
          "internalType": "address",
          "name": "",
          "type": "address"
        }
      ],
      "stateMutability": "view",
      "type": "function"
    },
    {
      "inputs": [
        {
          "internalType": "uint256",
          "name": "tokenId",
          "type": "uint256"
        }
      ],
      "name": "projectOf",
      "outputs": [
        {
          "internalType": "uint96",
          "name": "",
          "type": "uint96"
        }
      ],
      "stateMutability": "view",
      "type": "function"
    },
    {
      "inputs": [
        {
          "internalType": "address",
          "name": "from",
          "type": "address"
        },
        {
          "internalType": "address",
          "name": "to",
          "type": "address"
        },
        {
          "internalType": "uint256",
          "name": "tokenId",
          "type": "uint256"
        }
      ],
      "name": "safeTransferFrom",
      "outputs": [],
      "stateMutability": "nonpayable",
      "type": "function"
    },
    {
      "inputs": [
        {
          "internalType": "address",
          "name": "from",
          "type": "address"
        },
        {
          "internalType": "address",
          "name": "to",
          "type": "address"
        },
        {
          "internalType": "uint256",
          "name": "tokenId",
          "type": "uint256"
        },
        {
          "internalType": "bytes",
          "name": "_data",
          "type": "bytes"
        }
      ],
      "name": "safeTransferFrom",
      "outputs": [],
      "stateMutability": "nonpayable",
      "type": "function"
    },
    {
      "inputs": [
        {
          "internalType": "address",
          "name": "operator",
          "type": "address"
        },
        {
          "internalType": "bool",
          "name": "approved",
          "type": "bool"
        }
      ],
      "name": "setApprovalForAll",
      "outputs": [],
      "stateMutability": "nonpayable",
      "type": "function"
    },
    {
      "inputs": [
        {
          "internalType": "bytes4",
          "name": "interfaceId",
          "type": "bytes4"
        }
      ],
      "name": "supportsInterface",
      "outputs": [
        {
          "internalType": "bool",
          "name": "",
          "type": "bool"
        }
      ],
      "stateMutability": "view",
      "type": "function"
    },
    {
      "inputs": [],
      "name": "symbol",
      "outputs": [
        {
          "internalType": "string",
          "name": "",
          "type": "string"
        }
      ],
      "stateMutability": "view",
      "type": "function"
    },
    {
      "inputs": [
        {
          "internalType": "uint256",
          "name": "index",
          "type": "uint256"
        }
      ],
      "name": "tokenByIndex",
      "outputs": [
        {
          "internalType": "uint256",
          "name": "",
          "type": "uint256"
        }
      ],
      "stateMutability": "view",
      "type": "function"
    },
    {
      "inputs": [
        {
          "internalType": "address",
          "name": "owner",
          "type": "address"
        },
        {
          "internalType": "uint256",
          "name": "index",
          "type": "uint256"
        }
      ],
      "name": "tokenOfOwnerByIndex",
      "outputs": [
        {
          "internalType": "uint256",
          "name": "",
          "type": "uint256"
        }
      ],
      "stateMutability": "view",
      "type": "function"
    },
    {
      "inputs": [
        {
          "internalType": "uint96",
          "name": "project",
          "type": "uint96"
        },
        {
          "internalType": "uint256",
          "name": "index",
          "type": "uint256"
        }
      ],
      "name": "tokenOfProjectByIndex",
      "outputs": [
        {
          "internalType": "uint256",
          "name": "",
          "type": "uint256"
        }
      ],
      "stateMutability": "view",
      "type": "function"
    },
    {
      "inputs": [
        {
          "internalType": "uint256",
          "name": "tokenId",
          "type": "uint256"
        }
      ],
      "name": "tokenURI",
      "outputs": [
        {
          "internalType": "string",
          "name": "",
          "type": "string"
        }
      ],
      "stateMutability": "view",
      "type": "function"
    },
    {
      "inputs": [],
      "name": "totalSupply",
      "outputs": [
        {
          "internalType": "uint256",
          "name": "",
          "type": "uint256"
        }
      ],
      "stateMutability": "view",
      "type": "function"
    },
    {
      "inputs": [
        {
          "internalType": "uint96",
          "name": "project",
          "type": "uint96"
        }
      ],
      "name": "totalSupplyOfProject",
      "outputs": [
        {
          "internalType": "uint256",
          "name": "",
          "type": "uint256"
        }
      ],
      "stateMutability": "view",
      "type": "function"
    },
    {
      "inputs": [
        {
          "internalType": "address",
          "name": "from",
          "type": "address"
        },
        {
          "internalType": "address",
          "name": "to",
          "type": "address"
        },
        {
          "internalType": "uint256",
          "name": "tokenId",
          "type": "uint256"
        }
      ],
      "name": "transferFrom",
      "outputs": [],
      "stateMutability": "nonpayable",
      "type": "function"
    }
  ],
  "bytecode": "0x608060405234801561001057600080fd5b506122e4806100206000396000f3fe608060405234801561001057600080fd5b50600436106101425760003560e01c8063605cc80f116100b857806394d008ef1161007c57806394d008ef146102d457806395d89b41146102e7578063a22cb465146102ef578063b88d4fde14610302578063c87b56dd14610315578063e985e9c51461032857600080fd5b8063605cc80f1461025e5780636352211e1461027157806365e9ac33146102845780636d645fde146102b057806370a08231146102c157600080fd5b806318160ddd1161010a57806318160ddd146101d757806323b872dd146101e95780632a2951c1146101fc5780632f745c591461022557806342842e0e146102385780634f6ccce71461024b57600080fd5b806301ffc9a71461014757806306fdde031461016f578063077f224a14610184578063081812fc14610199578063095ea7b3146101c4575b600080fd5b61015a610155366004611e1e565b61033b565b60405190151581526020015b60405180910390f35b610177610366565b6040516101669190611fae565b610197610192366004611e58565b6103f8565b005b6101ac6101a7366004611ed0565b61049b565b6040516001600160a01b039091168152602001610166565b6101976101d2366004611d99565b610530565b6099545b604051908152602001610166565b6101976101f7366004611cb9565b610646565b6101db61020a366004611ee9565b6001600160601b0316600090815260ca602052604090205490565b6101db610233366004611d99565b610677565b610197610246366004611cb9565b61070d565b6101db610259366004611ed0565b610728565b6101db61026c366004611f04565b6107bb565b6101ac61027f366004611ed0565b6107f8565b610298610292366004611ed0565b60a01c90565b6040516001600160601b039091168152602001610166565b6101ac6102be366004611ed0565b90565b6101db6102cf366004611c46565b61086f565b6101976102e2366004611dc5565b6108f6565b610177610a15565b6101976102fd366004611d66565b610a24565b610197610310366004611cfa565b610ae9565b610177610323366004611ed0565b610b1b565b61015a610336366004611c80565b610c28565b60006001600160e01b031982166303bf912560e11b1480610360575061036082610cf0565b92915050565b606060658054610375906121ab565b80601f01602080910402602001604051908101604052809291908181526020018280546103a1906121ab565b80156103ee5780601f106103c3576101008083540402835291602001916103ee565b820191906000526020600020905b8154815290600101906020018083116103d157829003601f168201915b5050505050905090565b600054610100900460ff1680610411575060005460ff16155b6104365760405162461bcd60e51b815260040161042d90612013565b60405180910390fd5b600054610100900460ff16158015610458576000805461ffff19166101011790555b610460610d15565b610468610d15565b6104728484610d81565b61047a610d15565b61048382610e16565b8015610495576000805461ff00191690555b50505050565b6000818152606760205260408120546001600160a01b03166105145760405162461bcd60e51b815260206004820152602c60248201527f4552433732313a20617070726f76656420717565727920666f72206e6f6e657860448201526b34b9ba32b73a103a37b5b2b760a11b606482015260840161042d565b506000908152606960205260409020546001600160a01b031690565b600061053b826107f8565b9050806001600160a01b0316836001600160a01b031614156105a95760405162461bcd60e51b815260206004820152602160248201527f4552433732313a20617070726f76616c20746f2063757272656e74206f776e656044820152603960f91b606482015260840161042d565b336001600160a01b03821614806105c557506105c58133610c28565b6106375760405162461bcd60e51b815260206004820152603860248201527f4552433732313a20617070726f76652063616c6c6572206973206e6f74206f7760448201527f6e6572206e6f7220617070726f76656420666f7220616c6c0000000000000000606482015260840161042d565b6106418383610e9e565b505050565b6106503382610f0c565b61066c5760405162461bcd60e51b815260040161042d906120a3565b610641838383610fe3565b60006106828361086f565b82106106e45760405162461bcd60e51b815260206004820152602b60248201527f455243373231456e756d657261626c653a206f776e657220696e646578206f7560448201526a74206f6620626f756e647360a81b606482015260840161042d565b506001600160a01b03919091166000908152609760209081526040808320938352929052205490565b61064183838360405180602001604052806000815250610ae9565b600061073360995490565b82106107965760405162461bcd60e51b815260206004820152602c60248201527f455243373231456e756d657261626c653a20676c6f62616c20696e646578206f60448201526b7574206f6620626f756e647360a01b606482015260840161042d565b609982815481106107a9576107a9612257565b90600052602060002001549050919050565b6001600160601b038216600090815260ca602052604081208054839081106107e5576107e5612257565b9060005260206000200154905092915050565b6000818152606760205260408120546001600160a01b0316806103605760405162461bcd60e51b815260206004820152602960248201527f4552433732313a206f776e657220717565727920666f72206e6f6e657869737460448201526832b73a103a37b5b2b760b91b606482015260840161042d565b60006001600160a01b0382166108da5760405162461bcd60e51b815260206004820152602a60248201527f4552433732313a2062616c616e636520717565727920666f7220746865207a65604482015269726f206164647265737360b01b606482015260840161042d565b506001600160a01b031660009081526068602052604090205490565b60c960009054906101000a90046001600160a01b03166001600160a01b0316637ac3c02f6040518163ffffffff1660e01b815260040160206040518083038186803b15801561094457600080fd5b505afa158015610958573d6000803e3d6000fd5b505050506040513d601f19601f8201168201806040525081019061097c9190611c63565b6001600160a01b031661098f838361118e565b6001600160a01b0316146109e55760405162461bcd60e51b815260206004820152601760248201527f696e76616c696420746f6b656e207369676e6174757265000000000000000000604482015260640161042d565b60a082901c600081815260ca60209081526040822080546001810182559083529120018390556104958484611209565b606060668054610375906121ab565b6001600160a01b038216331415610a7d5760405162461bcd60e51b815260206004820152601960248201527f4552433732313a20617070726f766520746f2063616c6c657200000000000000604482015260640161042d565b336000818152606a602090815260408083206001600160a01b03871680855290835292819020805460ff191686151590811790915590519081529192917f17307eab39ab6107e8899845ad3d59bd9653f200f220920489ca2b5937696c31910160405180910390a35050565b610af33383610f0c565b610b0f5760405162461bcd60e51b815260040161042d906120a3565b61049584848484611357565b6000818152606760205260409020546060906001600160a01b0316610b9a5760405162461bcd60e51b815260206004820152602f60248201527f4552433732314d657461646174613a2055524920717565727920666f72206e6f60448201526e3732bc34b9ba32b73a103a37b5b2b760891b606482015260840161042d565b6000610bd660408051808201909152601f81527f68747470733a2f2f6170702e636f6d6d69747461626c652e696f2f6e66742f00602082015290565b90506000815111610bf65760405180602001604052806000815250610c21565b80610c008461138a565b604051602001610c11929190611f4c565b6040516020818303038152906040525b9392505050565b60c954604051638369166d60e01b81526001600160a01b03848116600483015260009284821692911690638369166d9060240160206040518083038186803b158015610c7357600080fd5b505afa158015610c87573d6000803e3d6000fd5b505050506040513d601f19601f82011682018060405250810190610cab9190611c63565b6001600160a01b03161415610cc257506001610360565b6001600160a01b038084166000908152606a602090815260408083209386168352929052205460ff16610c21565b60006001600160e01b0319821663358a18b360e21b1480610360575061036082611488565b600054610100900460ff1680610d2e575060005460ff16155b610d4a5760405162461bcd60e51b815260040161042d90612013565b600054610100900460ff16158015610d6c576000805461ffff19166101011790555b8015610d7e576000805461ff00191690555b50565b600054610100900460ff1680610d9a575060005460ff16155b610db65760405162461bcd60e51b815260040161042d90612013565b600054610100900460ff16158015610dd8576000805461ffff19166101011790555b8251610deb906065906020860190611b04565b508151610dff906066906020850190611b04565b508015610641576000805461ff0019169055505050565b600054610100900460ff1680610e2f575060005460ff16155b610e4b5760405162461bcd60e51b815260040161042d90612013565b600054610100900460ff16158015610e6d576000805461ffff19166101011790555b60c980546001600160a01b0319166001600160a01b0384161790558015610e9a576000805461ff00191690555b5050565b600081815260696020526040902080546001600160a01b0319166001600160a01b0384169081179091558190610ed3826107f8565b6001600160a01b03167f8c5be1e5ebec7d5bd14f71427d1e84f3dd0314c0f7b2291e5b200ac8c7c3b92560405160405180910390a45050565b6000818152606760205260408120546001600160a01b0316610f855760405162461bcd60e51b815260206004820152602c60248201527f4552433732313a206f70657261746f7220717565727920666f72206e6f6e657860448201526b34b9ba32b73a103a37b5b2b760a11b606482015260840161042d565b6000610f90836107f8565b9050806001600160a01b0316846001600160a01b03161480610fcb5750836001600160a01b0316610fc08461049b565b6001600160a01b0316145b80610fdb5750610fdb8185610c28565b949350505050565b826001600160a01b0316610ff6826107f8565b6001600160a01b03161461105e5760405162461bcd60e51b815260206004820152602960248201527f4552433732313a207472616e73666572206f6620746f6b656e2074686174206960448201526839903737ba1037bbb760b91b606482015260840161042d565b6001600160a01b0382166110c05760405162461bcd60e51b8152602060048201526024808201527f4552433732313a207472616e7366657220746f20746865207a65726f206164646044820152637265737360e01b606482015260840161042d565b6110cb8383836114ad565b6110d6600082610e9e565b6001600160a01b03831660009081526068602052604081208054600192906110ff908490612145565b90915550506001600160a01b038216600090815260686020526040812080546001929061112d9084906120f4565b909155505060008181526067602052604080822080546001600160a01b0319166001600160a01b0386811691821790925591518493918716917fddf252ad1be2c89b69c2b068fc378daa952ba7f163c4a11628f55a4df523b3ef91a4505050565b600081516041146111e15760405162461bcd60e51b815260206004820152601f60248201527f45434453413a20696e76616c6964207369676e6174757265206c656e67746800604482015260640161042d565b60208201516040830151606084015160001a6111ff86828585611565565b9695505050505050565b6001600160a01b03821661125f5760405162461bcd60e51b815260206004820181905260248201527f4552433732313a206d696e7420746f20746865207a65726f2061646472657373604482015260640161042d565b6000818152606760205260409020546001600160a01b0316156112c45760405162461bcd60e51b815260206004820152601c60248201527f4552433732313a20746f6b656e20616c7265616479206d696e74656400000000604482015260640161042d565b6112d0600083836114ad565b6001600160a01b03821660009081526068602052604081208054600192906112f99084906120f4565b909155505060008181526067602052604080822080546001600160a01b0319166001600160a01b03861690811790915590518392907fddf252ad1be2c89b69c2b068fc378daa952ba7f163c4a11628f55a4df523b3ef908290a45050565b611362848484610fe3565b61136e848484846117c7565b6104955760405162461bcd60e51b815260040161042d90611fc1565b6060816113ae5750506040805180820190915260018152600360fc1b602082015290565b8160005b81156113d857806113c2816121e6565b91506113d19050600a83612131565b91506113b2565b60008167ffffffffffffffff8111156113f3576113f361226d565b6040519080825280601f01601f19166020018201604052801561141d576020820181803683370190505b5090505b8415610fdb57611432600183612145565b915061143f600a86612201565b61144a9060306120f4565b60f81b81838151811061145f5761145f612257565b60200101906001600160f81b031916908160001a905350611481600a86612131565b9450611421565b60006001600160e01b0319821663780e9d6360e01b14806103605750610360826118d1565b6001600160a01b0383166115085761150381609980546000838152609a60205260408120829055600182018355919091527f72a152ddfb8e864297c917af52ea6c1c68aead0fee1a62673fcc7e0c94979d000155565b61152b565b816001600160a01b0316836001600160a01b03161461152b5761152b8382611921565b6001600160a01b03821661154257610641816119be565b826001600160a01b0316826001600160a01b031614610641576106418282611a6d565b60007f7fffffffffffffffffffffffffffffff5d576e7357a4501ddfe92f46681b20a08211156115e25760405162461bcd60e51b815260206004820152602260248201527f45434453413a20696e76616c6964207369676e6174757265202773272076616c604482015261756560f01b606482015260840161042d565b6000601e8560ff1611156116ab576115fb60048661215c565b60ff16601b1480611619575061161260048661215c565b60ff16601c145b6116355760405162461bcd60e51b815260040161042d90612061565b600161164087611ab1565b61164b60048861215c565b6040805160008152602081018083529390935260ff90911690820152606081018690526080810185905260a0016020604051602081039080840390855afa15801561169a573d6000803e3d6000fd5b505050602060405103519050611768565b60ff851615806116be57508460ff166001145b156116d1576116ce85601b61210c565b94505b8460ff16601b14806116e657508460ff16601c145b6117025760405162461bcd60e51b815260040161042d90612061565b600161170d87611ab1565b6040805160008152602081018083529290925260ff881690820152606081018690526080810185905260a0016020604051602081039080840390855afa15801561175b573d6000803e3d6000fd5b5050506020604051035190505b6001600160a01b0381166117be5760405162461bcd60e51b815260206004820152601860248201527f45434453413a20696e76616c6964207369676e61747572650000000000000000604482015260640161042d565b95945050505050565b60006001600160a01b0384163b156118c957604051630a85bd0160e11b81526001600160a01b0385169063150b7a029061180b903390899088908890600401611f7b565b602060405180830381600087803b15801561182557600080fd5b505af1925050508015611855575060408051601f3d908101601f1916820190925261185291810190611e3b565b60015b6118af573d808015611883576040519150601f19603f3d011682016040523d82523d6000602084013e611888565b606091505b5080516118a75760405162461bcd60e51b815260040161042d90611fc1565b805181602001fd5b6001600160e01b031916630a85bd0160e11b149050610fdb565b506001610fdb565b60006001600160e01b031982166380ac58cd60e01b148061190257506001600160e01b03198216635b5e139f60e01b145b8061036057506301ffc9a760e01b6001600160e01b0319831614610360565b6000600161192e8461086f565b6119389190612145565b60008381526098602052604090205490915080821461198b576001600160a01b03841660009081526097602090815260408083208584528252808320548484528184208190558352609890915290208190555b5060009182526098602090815260408084208490556001600160a01b039094168352609781528383209183525290812055565b6099546000906119d090600190612145565b6000838152609a6020526040812054609980549394509092849081106119f8576119f8612257565b906000526020600020015490508060998381548110611a1957611a19612257565b6000918252602080832090910192909255828152609a90915260408082208490558582528120556099805480611a5157611a51612241565b6001900381819060005260206000200160009055905550505050565b6000611a788361086f565b6001600160a01b039093166000908152609760209081526040808320868452825280832085905593825260989052919091209190915550565b6040517f19457468657265756d205369676e6564204d6573736167653a0a3332000000006020820152603c8101829052600090605c01604051602081830303815290604052805190602001209050919050565b828054611b10906121ab565b90600052602060002090601f016020900481019282611b325760008555611b78565b82601f10611b4b57805160ff1916838001178555611b78565b82800160010185558215611b78579182015b82811115611b78578251825591602001919060010190611b5d565b50611b84929150611b88565b5090565b5b80821115611b845760008155600101611b89565b600082601f830112611bae57600080fd5b813567ffffffffffffffff80821115611bc957611bc961226d565b604051601f8301601f19908116603f01168101908282118183101715611bf157611bf161226d565b81604052838152866020858801011115611c0a57600080fd5b836020870160208301376000602085830101528094505050505092915050565b80356001600160601b0381168114611c4157600080fd5b919050565b600060208284031215611c5857600080fd5b8135610c2181612283565b600060208284031215611c7557600080fd5b8151610c2181612283565b60008060408385031215611c9357600080fd5b8235611c9e81612283565b91506020830135611cae81612283565b809150509250929050565b600080600060608486031215611cce57600080fd5b8335611cd981612283565b92506020840135611ce981612283565b929592945050506040919091013590565b60008060008060808587031215611d1057600080fd5b8435611d1b81612283565b93506020850135611d2b81612283565b925060408501359150606085013567ffffffffffffffff811115611d4e57600080fd5b611d5a87828801611b9d565b91505092959194509250565b60008060408385031215611d7957600080fd5b8235611d8481612283565b915060208301358015158114611cae57600080fd5b60008060408385031215611dac57600080fd5b8235611db781612283565b946020939093013593505050565b600080600060608486031215611dda57600080fd5b8335611de581612283565b925060208401359150604084013567ffffffffffffffff811115611e0857600080fd5b611e1486828701611b9d565b9150509250925092565b600060208284031215611e3057600080fd5b8135610c2181612298565b600060208284031215611e4d57600080fd5b8151610c2181612298565b600080600060608486031215611e6d57600080fd5b833567ffffffffffffffff80821115611e8557600080fd5b611e9187838801611b9d565b94506020860135915080821115611ea757600080fd5b50611eb486828701611b9d565b9250506040840135611ec581612283565b809150509250925092565b600060208284031215611ee257600080fd5b5035919050565b600060208284031215611efb57600080fd5b610c2182611c2a565b60008060408385031215611f1757600080fd5b611db783611c2a565b60008151808452611f3881602086016020860161217f565b601f01601f19169290920160200192915050565b60008351611f5e81846020880161217f565b835190830190611f7281836020880161217f565b01949350505050565b6001600160a01b03858116825284166020820152604081018390526080606082018190526000906111ff90830184611f20565b602081526000610c216020830184611f20565b60208082526032908201527f4552433732313a207472616e7366657220746f206e6f6e20455243373231526560408201527131b2b4bb32b91034b6b83632b6b2b73a32b960711b606082015260800190565b6020808252602e908201527f496e697469616c697a61626c653a20636f6e747261637420697320616c72656160408201526d191e481a5b9a5d1a585b1a5e995960921b606082015260800190565b60208082526022908201527f45434453413a20696e76616c6964207369676e6174757265202776272076616c604082015261756560f01b606082015260800190565b60208082526031908201527f4552433732313a207472616e736665722063616c6c6572206973206e6f74206f6040820152701ddb995c881b9bdc88185c1c1c9bdd9959607a1b606082015260800190565b6000821982111561210757612107612215565b500190565b600060ff821660ff84168060ff0382111561212957612129612215565b019392505050565b6000826121405761214061222b565b500490565b60008282101561215757612157612215565b500390565b600060ff821660ff84168082101561217657612176612215565b90039392505050565b60005b8381101561219a578181015183820152602001612182565b838111156104955750506000910152565b600181811c908216806121bf57607f821691505b602082108114156121e057634e487b7160e01b600052602260045260246000fd5b50919050565b60006000198214156121fa576121fa612215565b5060010190565b6000826122105761221061222b565b500690565b634e487b7160e01b600052601160045260246000fd5b634e487b7160e01b600052601260045260246000fd5b634e487b7160e01b600052603160045260246000fd5b634e487b7160e01b600052603260045260246000fd5b634e487b7160e01b600052604160045260246000fd5b6001600160a01b0381168114610d7e57600080fd5b6001600160e01b031981168114610d7e57600080fdfea2646970667358221220ce35aee97bfdb3a69da3626c20b26970ab91c748bababd0a81377597c04ccdac64736f6c63430008070033",
  "linkReferences": {},
  "deployedLinkReferences": {}
}