{
  "_format": "hh-sol-artifact-1",
  "contractName": "Controller",
  "sourceName": "contracts/Controller.sol",
  "abi": [
    {
      "inputs": [],
      "stateMutability": "nonpayable",
      "type": "constructor"
    },
    {
      "anonymous": false,
      "inputs": [
        {
          "indexed": true,
          "internalType": "address",
          "name": "exchange",
          "type": "address"
        },
        {
          "indexed": false,
          "internalType": "bool",
          "name": "authorized",
          "type": "bool"
        }
      ],
      "name": "ExchangeApprovedOrCancelled",
      "type": "event"
    },
    {
      "anonymous": false,
      "inputs": [
        {
          "indexed": true,
          "internalType": "address",
          "name": "previousOwner",
          "type": "address"
        },
        {
          "indexed": true,
          "internalType": "address",
          "name": "newOwner",
          "type": "address"
        }
      ],
      "name": "OwnershipTransferred",
      "type": "event"
    },
    {
      "anonymous": false,
      "inputs": [
        {
          "indexed": true,
          "internalType": "address",
          "name": "user",
          "type": "address"
        },
        {
          "indexed": true,
          "internalType": "address",
          "name": "router",
          "type": "address"
        }
      ],
      "name": "RouterRegistered",
      "type": "event"
    },
    {
      "inputs": [
        {
          "internalType": "address",
          "name": "exchange_",
          "type": "address"
        },
        {
          "internalType": "bool",
          "name": "bool_",
          "type": "bool"
        }
      ],
      "name": "approveOrCancel",
      "outputs": [],
      "stateMutability": "nonpayable",
      "type": "function"
    },
    {
      "inputs": [
        {
          "internalType": "contract TransparentUpgradeableProxy",
          "name": "proxy",
          "type": "address"
        },
        {
          "internalType": "address",
          "name": "newAdmin",
          "type": "address"
        }
      ],
      "name": "changeProxyAdmin",
      "outputs": [],
      "stateMutability": "nonpayable",
      "type": "function"
    },
    {
      "inputs": [
        {
          "internalType": "contract TransparentUpgradeableProxy",
          "name": "proxy",
          "type": "address"
        }
      ],
      "name": "getProxyAdmin",
      "outputs": [
        {
          "internalType": "address",
          "name": "",
          "type": "address"
        }
      ],
      "stateMutability": "view",
      "type": "function"
    },
    {
      "inputs": [
        {
          "internalType": "contract TransparentUpgradeableProxy",
          "name": "proxy",
          "type": "address"
        }
      ],
      "name": "getProxyImplementation",
      "outputs": [
        {
          "internalType": "address",
          "name": "",
          "type": "address"
        }
      ],
      "stateMutability": "view",
      "type": "function"
    },
    {
      "inputs": [
        {
          "internalType": "address",
          "name": "user_",
          "type": "address"
        }
      ],
      "name": "getRouter",
      "outputs": [
        {
          "internalType": "address",
          "name": "",
          "type": "address"
        }
      ],
      "stateMutability": "view",
      "type": "function"
    },
    {
      "inputs": [],
      "name": "getSigner",
      "outputs": [
        {
          "internalType": "address",
          "name": "",
          "type": "address"
        }
      ],
      "stateMutability": "view",
      "type": "function"
    },
    {
      "inputs": [
        {
          "internalType": "address",
          "name": "exchange_",
          "type": "address"
        }
      ],
      "name": "isApproved",
      "outputs": [
        {
          "internalType": "bool",
          "name": "",
          "type": "bool"
        }
      ],
      "stateMutability": "view",
      "type": "function"
    },
    {
      "inputs": [],
      "name": "owner",
      "outputs": [
        {
          "internalType": "address",
          "name": "",
          "type": "address"
        }
      ],
      "stateMutability": "view",
      "type": "function"
    },
    {
      "inputs": [],
      "name": "registerRouter",
      "outputs": [],
      "stateMutability": "nonpayable",
      "type": "function"
    },
    {
      "inputs": [],
      "name": "renounceOwnership",
      "outputs": [],
      "stateMutability": "nonpayable",
      "type": "function"
    },
    {
      "inputs": [
        {
          "internalType": "address",
          "name": "signer_",
          "type": "address"
        }
      ],
      "name": "setSigner",
      "outputs": [],
      "stateMutability": "nonpayable",
      "type": "function"
    },
    {
      "inputs": [
        {
          "internalType": "address",
          "name": "newOwner",
          "type": "address"
        }
      ],
      "name": "transferOwnership",
      "outputs": [],
      "stateMutability": "nonpayable",
      "type": "function"
    },
    {
      "inputs": [
        {
          "internalType": "contract TransparentUpgradeableProxy",
          "name": "proxy",
          "type": "address"
        },
        {
          "internalType": "address",
          "name": "implementation",
          "type": "address"
        }
      ],
      "name": "upgrade",
      "outputs": [],
      "stateMutability": "nonpayable",
      "type": "function"
    },
    {
      "inputs": [
        {
          "internalType": "contract TransparentUpgradeableProxy",
          "name": "proxy",
          "type": "address"
        },
        {
          "internalType": "address",
          "name": "implementation",
          "type": "address"
        },
        {
          "internalType": "bytes",
          "name": "data",
          "type": "bytes"
        }
      ],
      "name": "upgradeAndCall",
      "outputs": [],
      "stateMutability": "payable",
      "type": "function"
    }
  ],
  "bytecode": "0x608060405234801561001057600080fd5b5061001a33610031565b600180546001600160a01b03191633179055610081565b600080546001600160a01b038381166001600160a01b0319831681178455604051919092169283917f8be0079c531659141344cd1fd0a4f28419497f9722a3daafe3b4186f6b6457e09190a35050565b610ef8806100906000396000f3fe6080604052600436106100dd5760003560e01c806381bd66f71161007f5780639623609d116100595780639623609d1461026957806399a88ec41461027c578063f2fde38b1461029c578063f3b7dead146102bc57600080fd5b806381bd66f7146101f25780638369166d146102125780638da5cb5b1461024b57600080fd5b80636c19e783116100bb5780636c19e7831461017f578063715018a61461019f5780637ac3c02f146101b45780637eff275e146101d257600080fd5b8063204e1c7a146100e257806324f277d21461011f578063673448dd14610136575b600080fd5b3480156100ee57600080fd5b506101026100fd3660046107af565b6102dc565b6040516001600160a01b0390911681526020015b60405180910390f35b34801561012b57600080fd5b5061013461036d565b005b34801561014257600080fd5b5061016f6101513660046107af565b6001600160a01b031660009081526003602052604090205460ff1690565b6040519015158152602001610116565b34801561018b57600080fd5b5061013461019a3660046107af565b61040a565b3480156101ab57600080fd5b5061013461045f565b3480156101c057600080fd5b506001546001600160a01b0316610102565b3480156101de57600080fd5b506101346101ed36600461082e565b610495565b3480156101fe57600080fd5b5061013461020d3660046107f0565b61051f565b34801561021e57600080fd5b5061010261022d3660046107af565b6001600160a01b039081166000908152600260205260409020541690565b34801561025757600080fd5b506000546001600160a01b0316610102565b61013461027736600461085c565b6105a8565b34801561028857600080fd5b5061013461029736600461082e565b610639565b3480156102a857600080fd5b506101346102b73660046107af565b610691565b3480156102c857600080fd5b506101026102d73660046107af565b61072c565b6000806000836001600160a01b031660405161030290635c60da1b60e01b815260040190565b600060405180830381855afa9150503d806000811461033d576040519150601f19603f3d011682016040523d82523d6000602084013e610342565b606091505b50915091508161035157600080fd5b8080602001905181019061036591906107d3565b949350505050565b6000303360405161037d906107a2565b6001600160a01b03928316815291166020820152604001604051809103906000f0801580156103b0573d6000803e3d6000fd5b503360008181526002602052604080822080546001600160a01b0319166001600160a01b0386169081179091559051939450927f8bc99c7faea2057ffcbebc0713a6f001a26571cc4090ee585e95f4b86fd5b7639190a350565b6000546001600160a01b0316331461043d5760405162461bcd60e51b815260040161043490610997565b60405180910390fd5b600180546001600160a01b0319166001600160a01b0392909216919091179055565b6000546001600160a01b031633146104895760405162461bcd60e51b815260040161043490610997565b6104936000610752565b565b6000546001600160a01b031633146104bf5760405162461bcd60e51b815260040161043490610997565b6040516308f2839760e41b81526001600160a01b038281166004830152831690638f283970906024015b600060405180830381600087803b15801561050357600080fd5b505af1158015610517573d6000803e3d6000fd5b505050505050565b6000546001600160a01b031633146105495760405162461bcd60e51b815260040161043490610997565b6001600160a01b038216600081815260036020908152604091829020805460ff191685151590811790915591519182527f30cdfa408369f045f47093f83387e1d482903ed776e3427fba87afe4f213eb7f910160405180910390a25050565b6000546001600160a01b031633146105d25760405162461bcd60e51b815260040161043490610997565b60405163278f794360e11b81526001600160a01b03841690634f1ef2869034906106029086908690600401610932565b6000604051808303818588803b15801561061b57600080fd5b505af115801561062f573d6000803e3d6000fd5b5050505050505050565b6000546001600160a01b031633146106635760405162461bcd60e51b815260040161043490610997565b604051631b2ce7f360e11b81526001600160a01b038281166004830152831690633659cfe6906024016104e9565b6000546001600160a01b031633146106bb5760405162461bcd60e51b815260040161043490610997565b6001600160a01b0381166107205760405162461bcd60e51b815260206004820152602660248201527f4f776e61626c653a206e6577206f776e657220697320746865207a65726f206160448201526564647265737360d01b6064820152608401610434565b61072981610752565b50565b6000806000836001600160a01b0316604051610302906303e1469160e61b815260040190565b600080546001600160a01b038381166001600160a01b0319831681178455604051919092169283917f8be0079c531659141344cd1fd0a4f28419497f9722a3daafe3b4186f6b6457e09190a35050565b6104cb806109f883390190565b6000602082840312156107c157600080fd5b81356107cc816109e2565b9392505050565b6000602082840312156107e557600080fd5b81516107cc816109e2565b6000806040838503121561080357600080fd5b823561080e816109e2565b91506020830135801515811461082357600080fd5b809150509250929050565b6000806040838503121561084157600080fd5b823561084c816109e2565b91506020830135610823816109e2565b60008060006060848603121561087157600080fd5b833561087c816109e2565b9250602084013561088c816109e2565b9150604084013567ffffffffffffffff808211156108a957600080fd5b818601915086601f8301126108bd57600080fd5b8135818111156108cf576108cf6109cc565b604051601f8201601f19908116603f011681019083821181831017156108f7576108f76109cc565b8160405282815289602084870101111561091057600080fd5b8260208601602083013760006020848301015280955050505050509250925092565b60018060a01b038316815260006020604081840152835180604085015260005b8181101561096e57858101830151858201606001528201610952565b81811115610980576000606083870101525b50601f01601f191692909201606001949350505050565b6020808252818101527f4f776e61626c653a2063616c6c6572206973206e6f7420746865206f776e6572604082015260600190565b634e487b7160e01b600052604160045260246000fd5b6001600160a01b038116811461072957600080fdfe608060405234801561001057600080fd5b506040516104cb3803806104cb83398101604081905261002f9161007c565b600180546001600160a01b039384166001600160a01b031991821617909155600080549290931691161790556100af565b80516001600160a01b038116811461007757600080fd5b919050565b6000806040838503121561008f57600080fd5b61009883610060565b91506100a660208401610060565b90509250929050565b61040d806100be6000396000f3fe608060405234801561001057600080fd5b50600436106100415760003560e01c80634f8632ba14610046578063be6d055a14610076578063f77c479114610096575b600080fd5b600054610059906001600160a01b031681565b6040516001600160a01b0390911681526020015b60405180910390f35b610089610084366004610249565b6100a9565b60405161006d919061035e565b600154610059906001600160a01b031681565b60015460405163673448dd60e01b81523360048201526060916001600160a01b03169063673448dd9060240160206040518083038186803b1580156100ed57600080fd5b505afa158015610101573d6000803e3d6000fd5b505050506040513d601f19601f820116820180604052508101906101259190610319565b15156001148061013f57506000546001600160a01b031633145b6101825760405162461bcd60e51b815260206004820152600f60248201526e1a5b9d985b1a59081c995c5d595cdd608a1b60448201526064015b60405180910390fd5b600080846001600160a01b03168460405161019d9190610342565b6000604051808303816000865af19150503d80600081146101da576040519150601f19603f3d011682016040523d82523d6000602084013e6101df565b606091505b509150915081156101f35791506102439050565b8051156102035780518082602001fd5b60405162461bcd60e51b81526020600482015260156024820152741b1bddc81b195d995b0818d85b1b0819985a5b1959605a1b6044820152606401610179565b92915050565b6000806040838503121561025c57600080fd5b82356001600160a01b038116811461027357600080fd5b9150602083013567ffffffffffffffff8082111561029057600080fd5b818501915085601f8301126102a457600080fd5b8135818111156102b6576102b66103c1565b604051601f8201601f19908116603f011681019083821181831017156102de576102de6103c1565b816040528281528860208487010111156102f757600080fd5b8260208601602083013760006020848301015280955050505050509250929050565b60006020828403121561032b57600080fd5b8151801515811461033b57600080fd5b9392505050565b60008251610354818460208701610391565b9190910192915050565b602081526000825180602084015261037d816040850160208701610391565b601f01601f19169190910160400192915050565b60005b838110156103ac578181015183820152602001610394565b838111156103bb576000848401525b50505050565b634e487b7160e01b600052604160045260246000fdfea2646970667358221220a876f207c08de8f88cf26466bd04cd4892594676f16ba70af0415ce65411f9c164736f6c63430008070033a2646970667358221220fe7f869fea65f365e5e7ac0b16217537dc4f07129376134524bf4169106fbd3c64736f6c63430008070033",
  "linkReferences": {},
  "deployedLinkReferences": {}
}