{
  "_format": "hh-sol-artifact-1",
  "contractName": "Controller",
  "sourceName": "contracts/Controller.sol",
  "abi": [
    {
      "inputs": [],
      "stateMutability": "nonpayable",
      "type": "constructor"
    },
    {
      "anonymous": false,
      "inputs": [
        {
          "indexed": true,
          "internalType": "address",
          "name": "exchange",
          "type": "address"
        },
        {
          "indexed": false,
          "internalType": "bool",
          "name": "authorized",
          "type": "bool"
        }
      ],
      "name": "ExchangeApprovedOrCancelled",
      "type": "event"
    },
    {
      "anonymous": false,
      "inputs": [
        {
          "indexed": true,
          "internalType": "address",
          "name": "previousOwner",
          "type": "address"
        },
        {
          "indexed": true,
          "internalType": "address",
          "name": "newOwner",
          "type": "address"
        }
      ],
      "name": "OwnershipTransferred",
      "type": "event"
    },
    {
      "anonymous": false,
      "inputs": [
        {
          "indexed": true,
          "internalType": "address",
          "name": "user",
          "type": "address"
        },
        {
          "indexed": true,
          "internalType": "address",
          "name": "router",
          "type": "address"
        }
      ],
      "name": "RouterRegistered",
      "type": "event"
    },
    {
      "inputs": [
        {
          "internalType": "address",
          "name": "exchange_",
          "type": "address"
        },
        {
          "internalType": "bool",
          "name": "bool_",
          "type": "bool"
        }
      ],
      "name": "approveOrCancel",
      "outputs": [],
      "stateMutability": "nonpayable",
      "type": "function"
    },
    {
      "inputs": [
        {
          "internalType": "contract TransparentUpgradeableProxy",
          "name": "proxy",
          "type": "address"
        },
        {
          "internalType": "address",
          "name": "newAdmin",
          "type": "address"
        }
      ],
      "name": "changeProxyAdmin",
      "outputs": [],
      "stateMutability": "nonpayable",
      "type": "function"
    },
    {
      "inputs": [
        {
          "internalType": "contract TransparentUpgradeableProxy",
          "name": "proxy",
          "type": "address"
        }
      ],
      "name": "getProxyAdmin",
      "outputs": [
        {
          "internalType": "address",
          "name": "",
          "type": "address"
        }
      ],
      "stateMutability": "view",
      "type": "function"
    },
    {
      "inputs": [
        {
          "internalType": "contract TransparentUpgradeableProxy",
          "name": "proxy",
          "type": "address"
        }
      ],
      "name": "getProxyImplementation",
      "outputs": [
        {
          "internalType": "address",
          "name": "",
          "type": "address"
        }
      ],
      "stateMutability": "view",
      "type": "function"
    },
    {
      "inputs": [
        {
          "internalType": "address",
          "name": "user_",
          "type": "address"
        }
      ],
      "name": "getRouter",
      "outputs": [
        {
          "internalType": "address",
          "name": "",
          "type": "address"
        }
      ],
      "stateMutability": "view",
      "type": "function"
    },
    {
      "inputs": [],
      "name": "getSigner",
      "outputs": [
        {
          "internalType": "address",
          "name": "",
          "type": "address"
        }
      ],
      "stateMutability": "view",
      "type": "function"
    },
    {
      "inputs": [
        {
          "internalType": "address",
          "name": "exchange_",
          "type": "address"
        }
      ],
      "name": "isApproved",
      "outputs": [
        {
          "internalType": "bool",
          "name": "",
          "type": "bool"
        }
      ],
      "stateMutability": "view",
      "type": "function"
    },
    {
      "inputs": [],
      "name": "owner",
      "outputs": [
        {
          "internalType": "address",
          "name": "",
          "type": "address"
        }
      ],
      "stateMutability": "view",
      "type": "function"
    },
    {
      "inputs": [],
      "name": "registerRouter",
      "outputs": [],
      "stateMutability": "nonpayable",
      "type": "function"
    },
    {
      "inputs": [],
      "name": "renounceOwnership",
      "outputs": [],
      "stateMutability": "nonpayable",
      "type": "function"
    },
    {
      "inputs": [
        {
          "internalType": "address",
          "name": "signer_",
          "type": "address"
        }
      ],
      "name": "setSigner",
      "outputs": [],
      "stateMutability": "nonpayable",
      "type": "function"
    },
    {
      "inputs": [
        {
          "internalType": "address",
          "name": "newOwner",
          "type": "address"
        }
      ],
      "name": "transferOwnership",
      "outputs": [],
      "stateMutability": "nonpayable",
      "type": "function"
    },
    {
      "inputs": [
        {
          "internalType": "contract TransparentUpgradeableProxy",
          "name": "proxy",
          "type": "address"
        },
        {
          "internalType": "address",
          "name": "implementation",
          "type": "address"
        }
      ],
      "name": "upgrade",
      "outputs": [],
      "stateMutability": "nonpayable",
      "type": "function"
    },
    {
      "inputs": [
        {
          "internalType": "contract TransparentUpgradeableProxy",
          "name": "proxy",
          "type": "address"
        },
        {
          "internalType": "address",
          "name": "implementation",
          "type": "address"
        },
        {
          "internalType": "bytes",
          "name": "data",
          "type": "bytes"
        }
      ],
      "name": "upgradeAndCall",
      "outputs": [],
      "stateMutability": "payable",
      "type": "function"
    }
  ],
  "bytecode": "0x608060405234801561001057600080fd5b5061001a33610031565b600180546001600160a01b03191633179055610081565b600080546001600160a01b038381166001600160a01b0319831681178455604051919092169283917f8be0079c531659141344cd1fd0a4f28419497f9722a3daafe3b4186f6b6457e09190a35050565b610df3806100906000396000f3fe6080604052600436106100dd5760003560e01c806381bd66f71161007f5780639623609d116100595780639623609d1461026957806399a88ec41461027c578063f2fde38b1461029c578063f3b7dead146102bc57600080fd5b806381bd66f7146101f25780638369166d146102125780638da5cb5b1461024b57600080fd5b80636c19e783116100bb5780636c19e7831461017f578063715018a61461019f5780637ac3c02f146101b45780637eff275e146101d257600080fd5b8063204e1c7a146100e257806324f277d21461011f578063673448dd14610136575b600080fd5b3480156100ee57600080fd5b506101026100fd3660046107a7565b6102dc565b6040516001600160a01b0390911681526020015b60405180910390f35b34801561012b57600080fd5b5061013461036d565b005b34801561014257600080fd5b5061016f6101513660046107a7565b6001600160a01b031660009081526003602052604090205460ff1690565b6040519015158152602001610116565b34801561018b57600080fd5b5061013461019a3660046107a7565b610402565b3480156101ab57600080fd5b50610134610457565b3480156101c057600080fd5b506001546001600160a01b0316610102565b3480156101de57600080fd5b506101346101ed366004610826565b61048d565b3480156101fe57600080fd5b5061013461020d3660046107e8565b610517565b34801561021e57600080fd5b5061010261022d3660046107a7565b6001600160a01b039081166000908152600260205260409020541690565b34801561025757600080fd5b506000546001600160a01b0316610102565b610134610277366004610854565b6105a0565b34801561028857600080fd5b50610134610297366004610826565b610631565b3480156102a857600080fd5b506101346102b73660046107a7565b610689565b3480156102c857600080fd5b506101026102d73660046107a7565b610724565b6000806000836001600160a01b031660405161030290635c60da1b60e01b815260040190565b600060405180830381855afa9150503d806000811461033d576040519150601f19603f3d011682016040523d82523d6000602084013e610342565b606091505b50915091508161035157600080fd5b8080602001905181019061036591906107cb565b949350505050565b60003060405161037c9061079a565b6001600160a01b039091168152602001604051809103906000f0801580156103a8573d6000803e3d6000fd5b503360008181526002602052604080822080546001600160a01b0319166001600160a01b0386169081179091559051939450927f8bc99c7faea2057ffcbebc0713a6f001a26571cc4090ee585e95f4b86fd5b7639190a350565b6000546001600160a01b031633146104355760405162461bcd60e51b815260040161042c9061098f565b60405180910390fd5b600180546001600160a01b0319166001600160a01b0392909216919091179055565b6000546001600160a01b031633146104815760405162461bcd60e51b815260040161042c9061098f565b61048b600061074a565b565b6000546001600160a01b031633146104b75760405162461bcd60e51b815260040161042c9061098f565b6040516308f2839760e41b81526001600160a01b038281166004830152831690638f283970906024015b600060405180830381600087803b1580156104fb57600080fd5b505af115801561050f573d6000803e3d6000fd5b505050505050565b6000546001600160a01b031633146105415760405162461bcd60e51b815260040161042c9061098f565b6001600160a01b038216600081815260036020908152604091829020805460ff191685151590811790915591519182527f30cdfa408369f045f47093f83387e1d482903ed776e3427fba87afe4f213eb7f910160405180910390a25050565b6000546001600160a01b031633146105ca5760405162461bcd60e51b815260040161042c9061098f565b60405163278f794360e11b81526001600160a01b03841690634f1ef2869034906105fa908690869060040161092a565b6000604051808303818588803b15801561061357600080fd5b505af1158015610627573d6000803e3d6000fd5b5050505050505050565b6000546001600160a01b0316331461065b5760405162461bcd60e51b815260040161042c9061098f565b604051631b2ce7f360e11b81526001600160a01b038281166004830152831690633659cfe6906024016104e1565b6000546001600160a01b031633146106b35760405162461bcd60e51b815260040161042c9061098f565b6001600160a01b0381166107185760405162461bcd60e51b815260206004820152602660248201527f4f776e61626c653a206e6577206f776e657220697320746865207a65726f206160448201526564647265737360d01b606482015260840161042c565b6107218161074a565b50565b6000806000836001600160a01b0316604051610302906303e1469160e61b815260040190565b600080546001600160a01b038381166001600160a01b0319831681178455604051919092169283917f8be0079c531659141344cd1fd0a4f28419497f9722a3daafe3b4186f6b6457e09190a35050565b6103ce806109f083390190565b6000602082840312156107b957600080fd5b81356107c4816109da565b9392505050565b6000602082840312156107dd57600080fd5b81516107c4816109da565b600080604083850312156107fb57600080fd5b8235610806816109da565b91506020830135801515811461081b57600080fd5b809150509250929050565b6000806040838503121561083957600080fd5b8235610844816109da565b9150602083013561081b816109da565b60008060006060848603121561086957600080fd5b8335610874816109da565b92506020840135610884816109da565b9150604084013567ffffffffffffffff808211156108a157600080fd5b818601915086601f8301126108b557600080fd5b8135818111156108c7576108c76109c4565b604051601f8201601f19908116603f011681019083821181831017156108ef576108ef6109c4565b8160405282815289602084870101111561090857600080fd5b8260208601602083013760006020848301015280955050505050509250925092565b60018060a01b038316815260006020604081840152835180604085015260005b818110156109665785810183015185820160600152820161094a565b81811115610978576000606083870101525b50601f01601f191692909201606001949350505050565b6020808252818101527f4f776e61626c653a2063616c6c6572206973206e6f7420746865206f776e6572604082015260600190565b634e487b7160e01b600052604160045260246000fd5b6001600160a01b038116811461072157600080fdfe608060405234801561001057600080fd5b506040516103ce3803806103ce83398101604081905261002f91610054565b600080546001600160a01b0319166001600160a01b0392909216919091179055610084565b60006020828403121561006657600080fd5b81516001600160a01b038116811461007d57600080fd5b9392505050565b61033b806100936000396000f3fe608060405234801561001057600080fd5b50600436106100365760003560e01c8063be6d055a1461003b578063f77c479114610063575b600080fd5b61004e6100493660046101bb565b61008e565b60405190151581526020015b60405180910390f35b600054610076906001600160a01b031681565b6040516001600160a01b03909116815260200161005a565b6000805460405163673448dd60e01b81523360048201526001600160a01b039091169063673448dd9060240160206040518083038186803b1580156100d257600080fd5b505afa1580156100e6573d6000803e3d6000fd5b505050506040513d601f19601f8201168201806040525081019061010a919061028b565b15156001146101575760405162461bcd60e51b8152602060048201526015602482015274195e18da185b99d9481b9bdd08185c1c1c9bdd9959605a1b604482015260640160405180910390fd5b826001600160a01b03168260405161016f91906102b4565b6000604051808303816000865af19150503d80600081146101ac576040519150601f19603f3d011682016040523d82523d6000602084013e6101b1565b606091505b5090949350505050565b600080604083850312156101ce57600080fd5b82356001600160a01b03811681146101e557600080fd5b9150602083013567ffffffffffffffff8082111561020257600080fd5b818501915085601f83011261021657600080fd5b813581811115610228576102286102ef565b604051601f8201601f19908116603f01168101908382118183101715610250576102506102ef565b8160405282815288602084870101111561026957600080fd5b8260208601602083013760006020848301015280955050505050509250929050565b60006020828403121561029d57600080fd5b815180151581146102ad57600080fd5b9392505050565b6000825160005b818110156102d557602081860181015185830152016102bb565b818111156102e4576000828501525b509190910192915050565b634e487b7160e01b600052604160045260246000fdfea26469706673582212205e69eda7f146c6b4df035d6fdd38a05f7f33a9471e87e4603751f0aa731621b564736f6c63430008070033a264697066735822122030ab2c654b39efc7770f8e8f9f974b022fa4cfaa79c560c38e9c0b000528fcab64736f6c63430008070033",
  "linkReferences": {},
  "deployedLinkReferences": {}
}