{
  "_format": "hh-sol-artifact-1",
  "contractName": "Exchange",
  "sourceName": "contracts/exchange/Exchange.sol",
  "abi": [
    {
      "inputs": [
        {
          "internalType": "address",
          "name": "_address",
          "type": "address"
        }
      ],
      "stateMutability": "nonpayable",
      "type": "constructor"
    },
    {
      "anonymous": false,
      "inputs": [
        {
          "indexed": false,
          "internalType": "uint256",
          "name": "originalFee",
          "type": "uint256"
        },
        {
          "indexed": false,
          "internalType": "uint256",
          "name": "newFee",
          "type": "uint256"
        }
      ],
      "name": "FeeChanged",
      "type": "event"
    },
    {
      "anonymous": false,
      "inputs": [
        {
          "indexed": false,
          "internalType": "bytes32",
          "name": "orderHash",
          "type": "bytes32"
        },
        {
          "indexed": true,
          "internalType": "address",
          "name": "maker",
          "type": "address"
        }
      ],
      "name": "OrderCancelled",
      "type": "event"
    },
    {
      "anonymous": false,
      "inputs": [
        {
          "indexed": false,
          "internalType": "bytes32",
          "name": "buyOrderHash",
          "type": "bytes32"
        },
        {
          "indexed": false,
          "internalType": "bytes32",
          "name": "sellOrderHash",
          "type": "bytes32"
        },
        {
          "indexed": true,
          "internalType": "address",
          "name": "buyer",
          "type": "address"
        },
        {
          "indexed": true,
          "internalType": "address",
          "name": "seller",
          "type": "address"
        },
        {
          "indexed": false,
          "internalType": "address",
          "name": "paymentToken",
          "type": "address"
        },
        {
          "indexed": false,
          "internalType": "uint256",
          "name": "value",
          "type": "uint256"
        }
      ],
      "name": "OrderMatched",
      "type": "event"
    },
    {
      "anonymous": false,
      "inputs": [
        {
          "indexed": true,
          "internalType": "address",
          "name": "previousOwner",
          "type": "address"
        },
        {
          "indexed": true,
          "internalType": "address",
          "name": "newOwner",
          "type": "address"
        }
      ],
      "name": "OwnershipTransferred",
      "type": "event"
    },
    {
      "anonymous": false,
      "inputs": [
        {
          "indexed": true,
          "internalType": "address",
          "name": "originalRecipient",
          "type": "address"
        },
        {
          "indexed": true,
          "internalType": "address",
          "name": "newRecipient",
          "type": "address"
        }
      ],
      "name": "RecipientChanged",
      "type": "event"
    },
    {
      "inputs": [],
      "name": "DOMAIN_SEPARATOR",
      "outputs": [
        {
          "internalType": "bytes32",
          "name": "",
          "type": "bytes32"
        }
      ],
      "stateMutability": "view",
      "type": "function"
    },
    {
      "inputs": [
        {
          "components": [
            {
              "internalType": "bool",
              "name": "isBuySide",
              "type": "bool"
            },
            {
              "internalType": "bool",
              "name": "isAuction",
              "type": "bool"
            },
            {
              "internalType": "address",
              "name": "maker",
              "type": "address"
            },
            {
              "internalType": "address",
              "name": "paymentToken",
              "type": "address"
            },
            {
              "internalType": "uint256",
              "name": "value",
              "type": "uint256"
            },
            {
              "internalType": "address",
              "name": "royaltyRecipient",
              "type": "address"
            },
            {
              "internalType": "uint256",
              "name": "royalty",
              "type": "uint256"
            },
            {
              "internalType": "address",
              "name": "target",
              "type": "address"
            },
            {
              "internalType": "uint256",
              "name": "tokenId",
              "type": "uint256"
            },
            {
              "internalType": "bytes",
              "name": "tokenSig",
              "type": "bytes"
            },
            {
              "internalType": "uint256",
              "name": "start",
              "type": "uint256"
            },
            {
              "internalType": "uint256",
              "name": "end",
              "type": "uint256"
            },
            {
              "internalType": "uint256",
              "name": "salt",
              "type": "uint256"
            }
          ],
          "internalType": "struct OrderUtils.Order",
          "name": "order",
          "type": "tuple"
        }
      ],
      "name": "cancelOrder",
      "outputs": [],
      "stateMutability": "nonpayable",
      "type": "function"
    },
    {
      "inputs": [
        {
          "internalType": "uint256",
          "name": "fee",
          "type": "uint256"
        }
      ],
      "name": "changeFee",
      "outputs": [],
      "stateMutability": "nonpayable",
      "type": "function"
    },
    {
      "inputs": [
        {
          "internalType": "address",
          "name": "recipient",
          "type": "address"
        }
      ],
      "name": "changeRecipient",
      "outputs": [],
      "stateMutability": "nonpayable",
      "type": "function"
    },
    {
      "inputs": [
        {
          "internalType": "bytes32",
          "name": "orderHash",
          "type": "bytes32"
        }
      ],
      "name": "checkOrderStatus",
      "outputs": [
        {
          "internalType": "bool",
          "name": "",
          "type": "bool"
        }
      ],
      "stateMutability": "view",
      "type": "function"
    },
    {
      "inputs": [],
      "name": "getFee",
      "outputs": [
        {
          "internalType": "uint256",
          "name": "",
          "type": "uint256"
        }
      ],
      "stateMutability": "view",
      "type": "function"
    },
    {
      "inputs": [],
      "name": "getRecipient",
      "outputs": [
        {
          "internalType": "address",
          "name": "",
          "type": "address"
        }
      ],
      "stateMutability": "view",
      "type": "function"
    },
    {
      "inputs": [
        {
          "components": [
            {
              "internalType": "bool",
              "name": "isBuySide",
              "type": "bool"
            },
            {
              "internalType": "bool",
              "name": "isAuction",
              "type": "bool"
            },
            {
              "internalType": "address",
              "name": "maker",
              "type": "address"
            },
            {
              "internalType": "address",
              "name": "paymentToken",
              "type": "address"
            },
            {
              "internalType": "uint256",
              "name": "value",
              "type": "uint256"
            },
            {
              "internalType": "address",
              "name": "royaltyRecipient",
              "type": "address"
            },
            {
              "internalType": "uint256",
              "name": "royalty",
              "type": "uint256"
            },
            {
              "internalType": "address",
              "name": "target",
              "type": "address"
            },
            {
              "internalType": "uint256",
              "name": "tokenId",
              "type": "uint256"
            },
            {
              "internalType": "bytes",
              "name": "tokenSig",
              "type": "bytes"
            },
            {
              "internalType": "uint256",
              "name": "start",
              "type": "uint256"
            },
            {
              "internalType": "uint256",
              "name": "end",
              "type": "uint256"
            },
            {
              "internalType": "uint256",
              "name": "salt",
              "type": "uint256"
            }
          ],
          "internalType": "struct OrderUtils.Order",
          "name": "buyOrder",
          "type": "tuple"
        },
        {
          "internalType": "bytes",
          "name": "buyOrderSig",
          "type": "bytes"
        },
        {
          "components": [
            {
              "internalType": "bool",
              "name": "isBuySide",
              "type": "bool"
            },
            {
              "internalType": "bool",
              "name": "isAuction",
              "type": "bool"
            },
            {
              "internalType": "address",
              "name": "maker",
              "type": "address"
            },
            {
              "internalType": "address",
              "name": "paymentToken",
              "type": "address"
            },
            {
              "internalType": "uint256",
              "name": "value",
              "type": "uint256"
            },
            {
              "internalType": "address",
              "name": "royaltyRecipient",
              "type": "address"
            },
            {
              "internalType": "uint256",
              "name": "royalty",
              "type": "uint256"
            },
            {
              "internalType": "address",
              "name": "target",
              "type": "address"
            },
            {
              "internalType": "uint256",
              "name": "tokenId",
              "type": "uint256"
            },
            {
              "internalType": "bytes",
              "name": "tokenSig",
              "type": "bytes"
            },
            {
              "internalType": "uint256",
              "name": "start",
              "type": "uint256"
            },
            {
              "internalType": "uint256",
              "name": "end",
              "type": "uint256"
            },
            {
              "internalType": "uint256",
              "name": "salt",
              "type": "uint256"
            }
          ],
          "internalType": "struct OrderUtils.Order",
          "name": "sellOrder",
          "type": "tuple"
        },
        {
          "internalType": "bytes",
          "name": "sellOrderSig",
          "type": "bytes"
        }
      ],
      "name": "matchOrder",
      "outputs": [],
      "stateMutability": "payable",
      "type": "function"
    },
    {
      "inputs": [],
      "name": "name",
      "outputs": [
        {
          "internalType": "string",
          "name": "",
          "type": "string"
        }
      ],
      "stateMutability": "view",
      "type": "function"
    },
    {
      "inputs": [],
      "name": "owner",
      "outputs": [
        {
          "internalType": "address",
          "name": "",
          "type": "address"
        }
      ],
      "stateMutability": "view",
      "type": "function"
    },
    {
      "inputs": [],
      "name": "renounceOwnership",
      "outputs": [],
      "stateMutability": "nonpayable",
      "type": "function"
    },
    {
      "inputs": [
        {
          "internalType": "address",
          "name": "newOwner",
          "type": "address"
        }
      ],
      "name": "transferOwnership",
      "outputs": [],
      "stateMutability": "nonpayable",
      "type": "function"
    }
  ],
  "bytecode": "0x60c0604052600860808190526745786368616e676560c01b60a09081526200002b9160059190620001a3565b503480156200003957600080fd5b506040516200209d3803806200209d8339810160408190526200005c9162000249565b60016000556200006c3362000151565b60038054336001600160a01b031991821617909155600780549091166001600160a01b03831617905560405146907f8b73c3c69bb8fe3d512ecc4cf759cc79239f7b179b0ffacaa9a75d522b39400f90620000ca906005906200027b565b60408051918290038220828201825260018352603160f81b6020938401528151928301939093528101919091527fc89efdaa54c0f20c7adf612882df0950f5a951637e0307cdcb4c672f298b8bc66060820152608081018290523060a082015260c0016040516020818303038152906040528051906020012060048190555050506200035c565b600180546001600160a01b038381166001600160a01b0319831681179093556040519116919082907f8be0079c531659141344cd1fd0a4f28419497f9722a3daafe3b4186f6b6457e090600090a35050565b828054620001b1906200031f565b90600052602060002090601f016020900481019282620001d5576000855562000220565b82601f10620001f057805160ff191683800117855562000220565b8280016001018555821562000220579182015b828111156200022057825182559160200191906001019062000203565b506200022e92915062000232565b5090565b5b808211156200022e576000815560010162000233565b6000602082840312156200025c57600080fd5b81516001600160a01b03811681146200027457600080fd5b9392505050565b600080835481600182811c9150808316806200029857607f831692505b6020808410821415620002b957634e487b7160e01b86526022600452602486fd5b818015620002d05760018114620002e25762000311565b60ff1986168952848901965062000311565b60008a81526020902060005b86811015620003095781548b820152908501908301620002ee565b505084890196505b509498975050505050505050565b600181811c908216806200033457607f821691505b602082108114156200035657634e487b7160e01b600052602260045260246000fd5b50919050565b611d31806200036c6000396000f3fe6080604052600436106100c75760003560e01c80636a1db1bf1161007457806392c2bcb41161004e57806392c2bcb414610216578063ced72f8714610236578063f2fde38b1461024b57600080fd5b80636a1db1bf146101c3578063715018a6146101e35780638da5cb5b146101f857600080fd5b806335509f3d116100a557806335509f3d1461014b5780633644e5151461018c578063608d8f56146101b057600080fd5b806306fdde03146100cc5780631b88094d146100f75780633303dabd14610129575b600080fd5b3480156100d857600080fd5b506100e161026b565b6040516100ee9190611b21565b60405180910390f35b34801561010357600080fd5b506003546001600160a01b03165b6040516001600160a01b0390911681526020016100ee565b34801561013557600080fd5b5061014961014436600461190b565b6102f9565b005b34801561015757600080fd5b5061017c61016636600461187b565b60009081526006602052604090205460ff161590565b60405190151581526020016100ee565b34801561019857600080fd5b506101a260045481565b6040519081526020016100ee565b6101496101be366004611940565b6103f1565b3480156101cf57600080fd5b506101496101de36600461187b565b610585565b3480156101ef57600080fd5b5061014961069c565b34801561020457600080fd5b506001546001600160a01b0316610111565b34801561022257600080fd5b50610149610231366004611824565b610702565b34801561024257600080fd5b506002546101a2565b34801561025757600080fd5b50610149610266366004611824565b61081c565b6005805461027890611c71565b80601f01602080910402602001604051908101604052809291908181526020018280546102a490611c71565b80156102f15780601f106102c6576101008083540402835291602001916102f1565b820191906000526020600020905b8154815290600101906020018083116102d457829003601f168201915b505050505081565b60408101516001600160a01b03163314801561033357506006600061031d836108fe565b815260208101919091526040016000205460ff16155b6103845760405162461bcd60e51b815260206004820152600f60248201527f696e76616c69642072657175657374000000000000000000000000000000000060448201526064015b60405180910390fd5b600160066000610393846108fe565b81526020810191909152604001600020805460ff1916911515919091179055337fa6eb7cdc219e1518ced964e9a34e61d68a94e4f1569db3e84256ba981ba527536103dd836108fe565b60405190815260200160405180910390a250565b600260005414156104445760405162461bcd60e51b815260206004820152601f60248201527f5265656e7472616e637947756172643a207265656e7472616e742063616c6c00604482015260640161037b565b600260005561045384846109a8565b8015610464575061046482826109a8565b6104b05760405162461bcd60e51b815260206004820152601760248201527f696e76616c6964206f72646572207369676e6174757265000000000000000000604482015260640161037b565b6104ba8483610aee565b6105065760405162461bcd60e51b815260206004820152601860248201527f696e76616c6964206f7264657220706172616d65746572730000000000000000604482015260640161037b565b6105108483610c82565b61055c5760405162461bcd60e51b815260206004820152601c60248201527f6d7573742062652063616c6c6564206279206c65676974207573657200000000604482015260640161037b565b6105668483610cc1565b6105708483610d27565b61057a8483611023565b505060016000555050565b6001546001600160a01b031633146105df5760405162461bcd60e51b815260206004820181905260248201527f4f776e61626c653a2063616c6c6572206973206e6f7420746865206f776e6572604482015260640161037b565b6127108111156106575760405162461bcd60e51b815260206004820152602e60248201527f696e76616c696420706c6174666f726d206665653a206d757374206e6f206c6160448201527f72676572207468616e2031303025000000000000000000000000000000000000606482015260840161037b565b600280549082905560408051828152602081018490527f5fc463da23c1b063e66f9e352006a7fbe8db7223c455dc429e881a2dfe2f94f1910160405180910390a15050565b6001546001600160a01b031633146106f65760405162461bcd60e51b815260206004820181905260248201527f4f776e61626c653a2063616c6c6572206973206e6f7420746865206f776e6572604482015260640161037b565b6107006000611345565b565b6001546001600160a01b0316331461075c5760405162461bcd60e51b815260206004820181905260248201527f4f776e61626c653a2063616c6c6572206973206e6f7420746865206f776e6572604482015260640161037b565b6001600160a01b0381166107b25760405162461bcd60e51b815260206004820152601860248201527f7a65726f2061646472657373206e6f7420616c6c6f7765640000000000000000604482015260640161037b565b600380546001600160a01b038381167fffffffffffffffffffffffff0000000000000000000000000000000000000000831681179093556040519116919082907f4a9d367b1b0cd787be10021f1c55cb49c9f2302334e6df35c9621005eb22251490600090a35050565b6001546001600160a01b031633146108765760405162461bcd60e51b815260206004820181905260248201527f4f776e61626c653a2063616c6c6572206973206e6f7420746865206f776e6572604482015260640161037b565b6001600160a01b0381166108f25760405162461bcd60e51b815260206004820152602660248201527f4f776e61626c653a206e6577206f776e657220697320746865207a65726f206160448201527f6464726573730000000000000000000000000000000000000000000000000000606482015260840161037b565b6108fb81611345565b50565b60007f27032b6564c9c203f2bd0f0ccd36b2529e0811ecf18a68db0e2c9c09315bd252826000015183602001518460400151856060015186608001518760a001518860c001518960e001518a61010001518b6101200151805190602001208c61014001518d61016001518e610180015160405160200161098b9e9d9c9b9a99989796959493929190611a7f565b604051602081830303815290604052805190602001209050919050565b600081516041146109fb5760405162461bcd60e51b815260206004820152601f60248201527f45434453413a20696e76616c6964207369676e6174757265206c656e67746800604482015260640161037b565b602082015160408301516060840151600454600091821a9190610a1d886108fe565b6040517f190100000000000000000000000000000000000000000000000000000000000060208201526022810192909252604282015260620160408051601f1981840301815282825280516020918201208a8301516000855291840180845281905260ff86169284019290925260608301879052608083018690529092506001600160a01b03169060019060a0016020604051602081039080840390855afa158015610acd573d6000803e3d6000fd5b505050602060405103516001600160a01b0316149450505050505b92915050565b815160009015156001148015610b0357508151155b8015610b1a57508160200151151583602001511515145b8015610b3f575081606001516001600160a01b031683606001516001600160a01b0316145b8015610b6457508160a001516001600160a01b03168360a001516001600160a01b0316145b8015610b7757508160c001518360c00151145b8015610b9557506127106002548460c00151610b939190611bb7565b105b8015610bba57508160e001516001600160a01b03168360e001516001600160a01b0316145b8015610bcf5750816101000151836101000151145b8015610bee575042836101400151108015610bee575042826101400151105b8015610c0b5750428361016001511180610c0b5750610160830151155b8015610c285750428261016001511180610c285750610160820151155b8015610c7b575060066000610c3c856108fe565b815260208101919091526040016000205460ff16158015610c7b575060066000610c65846108fe565b815260208101919091526040016000205460ff16155b9392505050565b60008260200151158015610c9e57508160800151836080015110155b15610cab57506001610ae8565b5060408101516001600160a01b03163314610ae8565b600160066000610cd0856108fe565b815260200190815260200160002060006101000a81548160ff021916908315150217905550600160066000610d04846108fe565b81526020810191909152604001600020805460ff19169115159190911790555050565b60a08201516060830151600254608085015160009190610d4a9061271090611bcf565b610d549190611bf1565b905060008560c001516127108760800151610d6f9190611bcf565b610d799190611bf1565b9050600081838860800151610d8e9190611c2e565b610d989190611c2e565b90506001600160a01b038416610ed3578660200151158015610dbd5750866080015134145b610e095760405162461bcd60e51b815260206004820152600f60248201527f696e76616c6964207061796d656e740000000000000000000000000000000000604482015260640161037b565b8215610e4b576003546040516001600160a01b039091169084156108fc029085906000818181858888f19350505050158015610e49573d6000803e3d6000fd5b505b8115610e89576040516001600160a01b0386169083156108fc029084906000818181858888f19350505050158015610e87573d6000803e3d6000fd5b505b8015610ece5785604001516001600160a01b03166108fc829081150290604051600060405180830381858888f19350505050158015610ecc573d6000803e3d6000fd5b505b610f8a565b3415610f215760405162461bcd60e51b815260206004820152600f60248201527f696e76616c6964207061796d656e740000000000000000000000000000000000604482015260640161037b565b8215610f44576040870151600354610f449186916001600160a01b0316866113af565b8115801590610f5b57506001600160a01b03851615155b15610f7057610f7084886040015187856113af565b8015610f8a57610f8a8488604001518860400151846113af565b85604001516001600160a01b031687604001516001600160a01b03167ff21a8dc8c296a381cf3a95a7d3b72827b6d6c1ae993790bfe5d1851421f960a6610fd08a6108fe565b610fd98a6108fe565b8b606001518c60800151604051611012949392919093845260208401929092526001600160a01b03166040830152606082015260800190565b60405180910390a350505050505050565b600754604080517ff9bf800600000000000000000000000000000000000000000000000000000000815290516000926001600160a01b03169163f9bf8006916004808301926020929190829003018186803b15801561108157600080fd5b505afa158015611095573d6000803e3d6000fd5b505050506040513d601f19601f820116820180604052508101906110b99190611841565b90506060826101200151805190602001207fbc36789e7a1e281436464229828f817d6612f7b477d66591ff96a9e064bcc98a60001b146112105760408084015161010085015161012086015192516111149390602401611a57565b60408051601f198184030181529181526020820180517bffffffffffffffffffffffffffffffffffffffffffffffffffffffff167f94d008ef0000000000000000000000000000000000000000000000000000000017905260e085015190517fbe6d055a0000000000000000000000000000000000000000000000000000000081529192506001600160a01b0384169163be6d055a916111b8918590600401611a35565b600060405180830381600087803b1580156111d257600080fd5b505af11580156111e6573d6000803e3d6000fd5b505050506040513d6000823e601f3d908101601f1916820160405261120e9190810190611894565b505b6040838101518582015161010086015192516001600160a01b03928316602482015291166044820152606481019190915260840160408051601f198184030181529181526020820180517bffffffffffffffffffffffffffffffffffffffffffffffffffffffff167f23b872dd0000000000000000000000000000000000000000000000000000000017905260e085015190517fbe6d055a0000000000000000000000000000000000000000000000000000000081529192506001600160a01b0384169163be6d055a916112e8918590600401611a35565b600060405180830381600087803b15801561130257600080fd5b505af1158015611316573d6000803e3d6000fd5b505050506040513d6000823e601f3d908101601f1916820160405261133e9190810190611894565b5050505050565b600180546001600160a01b038381167fffffffffffffffffffffffff0000000000000000000000000000000000000000831681179093556040519116919082907f8be0079c531659141344cd1fd0a4f28419497f9722a3daafe3b4186f6b6457e090600090a35050565b604080516001600160a01b0385811660248301528416604482015260648082018490528251808303909101815260849091019091526020810180517bffffffffffffffffffffffffffffffffffffffffffffffffffffffff167f23b872dd0000000000000000000000000000000000000000000000000000000017905261143790859061143d565b50505050565b6000611492826040518060400160405280602081526020017f5361666545524332303a206c6f772d6c6576656c2063616c6c206661696c6564815250856001600160a01b03166115279092919063ffffffff16565b80519091501561152257808060200190518101906114b0919061185e565b6115225760405162461bcd60e51b815260206004820152602a60248201527f5361666545524332303a204552433230206f7065726174696f6e20646964206e60448201527f6f74207375636365656400000000000000000000000000000000000000000000606482015260840161037b565b505050565b6060611536848460008561153e565b949350505050565b6060824710156115b65760405162461bcd60e51b815260206004820152602660248201527f416464726573733a20696e73756666696369656e742062616c616e636520666f60448201527f722063616c6c0000000000000000000000000000000000000000000000000000606482015260840161037b565b6001600160a01b0385163b61160d5760405162461bcd60e51b815260206004820152601d60248201527f416464726573733a2063616c6c20746f206e6f6e2d636f6e7472616374000000604482015260640161037b565b600080866001600160a01b031685876040516116299190611a19565b60006040518083038185875af1925050503d8060008114611666576040519150601f19603f3d011682016040523d82523d6000602084013e61166b565b606091505b509150915061167b828286611686565b979650505050505050565b60608315611695575081610c7b565b8251156116a55782518084602001fd5b8160405162461bcd60e51b815260040161037b9190611b21565b80356116ca81611cd8565b919050565b80356116ca81611ced565b600082601f8301126116eb57600080fd5b81356116fe6116f982611b8f565b611b5e565b81815284602083860101111561171357600080fd5b816020850160208301376000918101602001919091529392505050565b60006101a0828403121561174357600080fd5b61174b611b34565b9050611756826116cf565b8152611764602083016116cf565b6020820152611775604083016116bf565b6040820152611786606083016116bf565b6060820152608082013560808201526117a160a083016116bf565b60a082015260c082013560c08201526117bc60e083016116bf565b60e082015261010082810135908201526101208083013567ffffffffffffffff8111156117e857600080fd5b6117f4858286016116da565b82840152505061014080830135818301525061016080830135818301525061018080830135818301525092915050565b60006020828403121561183657600080fd5b8135610c7b81611cd8565b60006020828403121561185357600080fd5b8151610c7b81611cd8565b60006020828403121561187057600080fd5b8151610c7b81611ced565b60006020828403121561188d57600080fd5b5035919050565b6000602082840312156118a657600080fd5b815167ffffffffffffffff8111156118bd57600080fd5b8201601f810184136118ce57600080fd5b80516118dc6116f982611b8f565b8181528560208385010111156118f157600080fd5b611902826020830160208601611c45565b95945050505050565b60006020828403121561191d57600080fd5b813567ffffffffffffffff81111561193457600080fd5b61153684828501611730565b6000806000806080858703121561195657600080fd5b843567ffffffffffffffff8082111561196e57600080fd5b61197a88838901611730565b9550602087013591508082111561199057600080fd5b61199c888389016116da565b945060408701359150808211156119b257600080fd5b6119be88838901611730565b935060608701359150808211156119d457600080fd5b506119e1878288016116da565b91505092959194509250565b60008151808452611a05816020860160208601611c45565b601f01601f19169290920160200192915050565b60008251611a2b818460208701611c45565b9190910192915050565b6001600160a01b038316815260406020820152600061153660408301846119ed565b6001600160a01b038416815282602082015260606040820152600061190260608301846119ed565b8e81528d151560208201528c151560408201526001600160a01b038c1660608201526101c081016001600160a01b038c1660808301528a60a0830152611ad060c083018b6001600160a01b03169052565b8860e0830152611aec6101008301896001600160a01b03169052565b6101208201969096526101408101949094526101608401929092526101808301526101a0909101529998505050505050505050565b602081526000610c7b60208301846119ed565b6040516101a0810167ffffffffffffffff81118282101715611b5857611b58611cc2565b60405290565b604051601f8201601f1916810167ffffffffffffffff81118282101715611b8757611b87611cc2565b604052919050565b600067ffffffffffffffff821115611ba957611ba9611cc2565b50601f01601f191660200190565b60008219821115611bca57611bca611cac565b500190565b600082611bec57634e487b7160e01b600052601260045260246000fd5b500490565b6000817fffffffffffffffffffffffffffffffffffffffffffffffffffffffffffffffff0483118215151615611c2957611c29611cac565b500290565b600082821015611c4057611c40611cac565b500390565b60005b83811015611c60578181015183820152602001611c48565b838111156114375750506000910152565b600181811c90821680611c8557607f821691505b60208210811415611ca657634e487b7160e01b600052602260045260246000fd5b50919050565b634e487b7160e01b600052601160045260246000fd5b634e487b7160e01b600052604160045260246000fd5b6001600160a01b03811681146108fb57600080fd5b80151581146108fb57600080fdfea26469706673582212200c48a9bb9a95e1e932388078be60e1f4c5d61e35603cab4d8efb0790daf4da0f64736f6c63430008070033",
  "linkReferences": {},
  "deployedLinkReferences": {}
}