{
  "_format": "hh-sol-artifact-1",
  "contractName": "Exchange",
  "sourceName": "contracts/exchange/Exchange.sol",
  "abi": [
    {
      "inputs": [
        {
          "internalType": "address",
          "name": "_address",
          "type": "address"
        }
      ],
      "stateMutability": "nonpayable",
      "type": "constructor"
    },
    {
      "anonymous": false,
      "inputs": [
        {
          "indexed": false,
          "internalType": "uint256",
          "name": "originalFee",
          "type": "uint256"
        },
        {
          "indexed": false,
          "internalType": "uint256",
          "name": "newFee",
          "type": "uint256"
        }
      ],
      "name": "FeeChanged",
      "type": "event"
    },
    {
      "anonymous": false,
      "inputs": [
        {
          "indexed": false,
          "internalType": "bytes32",
          "name": "orderHash",
          "type": "bytes32"
        },
        {
          "indexed": true,
          "internalType": "address",
          "name": "maker",
          "type": "address"
        }
      ],
      "name": "OrderCancelled",
      "type": "event"
    },
    {
      "anonymous": false,
      "inputs": [
        {
          "indexed": false,
          "internalType": "bytes32",
          "name": "buyOrderHash",
          "type": "bytes32"
        },
        {
          "indexed": false,
          "internalType": "bytes32",
          "name": "sellOrderHash",
          "type": "bytes32"
        },
        {
          "indexed": true,
          "internalType": "address",
          "name": "buyer",
          "type": "address"
        },
        {
          "indexed": true,
          "internalType": "address",
          "name": "seller",
          "type": "address"
        },
        {
          "indexed": false,
          "internalType": "address",
          "name": "paymentToken",
          "type": "address"
        },
        {
          "indexed": false,
          "internalType": "uint256",
          "name": "value",
          "type": "uint256"
        }
      ],
      "name": "OrderMatched",
      "type": "event"
    },
    {
      "anonymous": false,
      "inputs": [
        {
          "indexed": true,
          "internalType": "address",
          "name": "previousOwner",
          "type": "address"
        },
        {
          "indexed": true,
          "internalType": "address",
          "name": "newOwner",
          "type": "address"
        }
      ],
      "name": "OwnershipTransferred",
      "type": "event"
    },
    {
      "anonymous": false,
      "inputs": [
        {
          "indexed": true,
          "internalType": "address",
          "name": "originalRecipient",
          "type": "address"
        },
        {
          "indexed": true,
          "internalType": "address",
          "name": "newRecipient",
          "type": "address"
        }
      ],
      "name": "RecipientChanged",
      "type": "event"
    },
    {
      "inputs": [
        {
          "components": [
            {
              "internalType": "address",
              "name": "exchange",
              "type": "address"
            },
            {
              "internalType": "bool",
              "name": "isBuySide",
              "type": "bool"
            },
            {
              "internalType": "address",
              "name": "maker",
              "type": "address"
            },
            {
              "internalType": "address",
              "name": "taker",
              "type": "address"
            },
            {
              "internalType": "address",
              "name": "paymentToken",
              "type": "address"
            },
            {
              "internalType": "uint256",
              "name": "value",
              "type": "uint256"
            },
            {
              "internalType": "address",
              "name": "royaltyRecipient",
              "type": "address"
            },
            {
              "internalType": "uint256",
              "name": "royalty",
              "type": "uint256"
            },
            {
              "internalType": "address",
              "name": "target",
              "type": "address"
            },
            {
              "internalType": "bytes",
              "name": "data",
              "type": "bytes"
            },
            {
              "internalType": "bytes",
              "name": "replacementPattern",
              "type": "bytes"
            },
            {
              "internalType": "uint256",
              "name": "start",
              "type": "uint256"
            },
            {
              "internalType": "uint256",
              "name": "end",
              "type": "uint256"
            },
            {
              "internalType": "uint256",
              "name": "salt",
              "type": "uint256"
            }
          ],
          "internalType": "struct OrderUtils.Order",
          "name": "order",
          "type": "tuple"
        }
      ],
      "name": "cancelOrder",
      "outputs": [],
      "stateMutability": "nonpayable",
      "type": "function"
    },
    {
      "inputs": [
        {
          "internalType": "uint256",
          "name": "fee",
          "type": "uint256"
        }
      ],
      "name": "changeFee",
      "outputs": [],
      "stateMutability": "nonpayable",
      "type": "function"
    },
    {
      "inputs": [
        {
          "internalType": "address",
          "name": "recipient",
          "type": "address"
        }
      ],
      "name": "changeRecipient",
      "outputs": [],
      "stateMutability": "nonpayable",
      "type": "function"
    },
    {
      "inputs": [
        {
          "internalType": "bytes32",
          "name": "orderHash",
          "type": "bytes32"
        }
      ],
      "name": "checkOrderStatus",
      "outputs": [
        {
          "internalType": "bool",
          "name": "",
          "type": "bool"
        }
      ],
      "stateMutability": "view",
      "type": "function"
    },
    {
      "inputs": [
        {
          "internalType": "bytes32[]",
          "name": "orderHashs",
          "type": "bytes32[]"
        }
      ],
      "name": "checkOrderStatusBatch",
      "outputs": [
        {
          "internalType": "bool[]",
          "name": "",
          "type": "bool[]"
        }
      ],
      "stateMutability": "view",
      "type": "function"
    },
    {
      "inputs": [],
      "name": "getFee",
      "outputs": [
        {
          "internalType": "uint256",
          "name": "",
          "type": "uint256"
        }
      ],
      "stateMutability": "view",
      "type": "function"
    },
    {
      "inputs": [],
      "name": "getRecipient",
      "outputs": [
        {
          "internalType": "address",
          "name": "",
          "type": "address"
        }
      ],
      "stateMutability": "view",
      "type": "function"
    },
    {
      "inputs": [
        {
          "components": [
            {
              "internalType": "address",
              "name": "exchange",
              "type": "address"
            },
            {
              "internalType": "bool",
              "name": "isBuySide",
              "type": "bool"
            },
            {
              "internalType": "address",
              "name": "maker",
              "type": "address"
            },
            {
              "internalType": "address",
              "name": "taker",
              "type": "address"
            },
            {
              "internalType": "address",
              "name": "paymentToken",
              "type": "address"
            },
            {
              "internalType": "uint256",
              "name": "value",
              "type": "uint256"
            },
            {
              "internalType": "address",
              "name": "royaltyRecipient",
              "type": "address"
            },
            {
              "internalType": "uint256",
              "name": "royalty",
              "type": "uint256"
            },
            {
              "internalType": "address",
              "name": "target",
              "type": "address"
            },
            {
              "internalType": "bytes",
              "name": "data",
              "type": "bytes"
            },
            {
              "internalType": "bytes",
              "name": "replacementPattern",
              "type": "bytes"
            },
            {
              "internalType": "uint256",
              "name": "start",
              "type": "uint256"
            },
            {
              "internalType": "uint256",
              "name": "end",
              "type": "uint256"
            },
            {
              "internalType": "uint256",
              "name": "salt",
              "type": "uint256"
            }
          ],
          "internalType": "struct OrderUtils.Order",
          "name": "buyOrder",
          "type": "tuple"
        },
        {
          "internalType": "bytes",
          "name": "buyOrderSig",
          "type": "bytes"
        },
        {
          "components": [
            {
              "internalType": "address",
              "name": "exchange",
              "type": "address"
            },
            {
              "internalType": "bool",
              "name": "isBuySide",
              "type": "bool"
            },
            {
              "internalType": "address",
              "name": "maker",
              "type": "address"
            },
            {
              "internalType": "address",
              "name": "taker",
              "type": "address"
            },
            {
              "internalType": "address",
              "name": "paymentToken",
              "type": "address"
            },
            {
              "internalType": "uint256",
              "name": "value",
              "type": "uint256"
            },
            {
              "internalType": "address",
              "name": "royaltyRecipient",
              "type": "address"
            },
            {
              "internalType": "uint256",
              "name": "royalty",
              "type": "uint256"
            },
            {
              "internalType": "address",
              "name": "target",
              "type": "address"
            },
            {
              "internalType": "bytes",
              "name": "data",
              "type": "bytes"
            },
            {
              "internalType": "bytes",
              "name": "replacementPattern",
              "type": "bytes"
            },
            {
              "internalType": "uint256",
              "name": "start",
              "type": "uint256"
            },
            {
              "internalType": "uint256",
              "name": "end",
              "type": "uint256"
            },
            {
              "internalType": "uint256",
              "name": "salt",
              "type": "uint256"
            }
          ],
          "internalType": "struct OrderUtils.Order",
          "name": "sellOrder",
          "type": "tuple"
        },
        {
          "internalType": "bytes",
          "name": "sellOrderSig",
          "type": "bytes"
        }
      ],
      "name": "matchOrder",
      "outputs": [],
      "stateMutability": "payable",
      "type": "function"
    },
    {
      "inputs": [],
      "name": "owner",
      "outputs": [
        {
          "internalType": "address",
          "name": "",
          "type": "address"
        }
      ],
      "stateMutability": "view",
      "type": "function"
    },
    {
      "inputs": [],
      "name": "renounceOwnership",
      "outputs": [],
      "stateMutability": "nonpayable",
      "type": "function"
    },
    {
      "inputs": [
        {
          "internalType": "address",
          "name": "newOwner",
          "type": "address"
        }
      ],
      "name": "transferOwnership",
      "outputs": [],
      "stateMutability": "nonpayable",
      "type": "function"
    }
  ],
  "bytecode": "0x60806040523480156200001157600080fd5b5060405162002134380380620021348339810160408190526200003491620000ca565b6001600055620000443362000078565b60038054336001600160a01b031991821617909155600580549091166001600160a01b0392909216919091179055620000fc565b600180546001600160a01b038381166001600160a01b0319831681179093556040519116919082907f8be0079c531659141344cd1fd0a4f28419497f9722a3daafe3b4186f6b6457e090600090a35050565b600060208284031215620000dd57600080fd5b81516001600160a01b0381168114620000f557600080fd5b9392505050565b612028806200010c6000396000f3fe60806040526004361061009c5760003560e01c80638a2093ba116100645780638a2093ba1461015f5780638da5cb5b1461017257806392c2bcb414610190578063ced72f87146101b0578063d3895baa146101ce578063f2fde38b146101fb57600080fd5b80631b88094d146100a157806335509f3d146100d85780636a1db1bf14610108578063715018a61461012a57806372cf6bbd1461013f575b600080fd5b3480156100ad57600080fd5b506003546001600160a01b03165b6040516001600160a01b0390911681526020015b60405180910390f35b3480156100e457600080fd5b506100f86100f3366004611a82565b61021b565b60405190151581526020016100cf565b34801561011457600080fd5b50610128610123366004611a82565b610246565b005b34801561013657600080fd5b50610128610327565b34801561014b57600080fd5b5061012861015a366004611b09565b61035d565b61012861016d366004611b3e565b610442565b34801561017e57600080fd5b506001546001600160a01b03166100bb565b34801561019c57600080fd5b506101286101ab36600461197e565b610571565b3480156101bc57600080fd5b506002546040519081526020016100cf565b3480156101da57600080fd5b506101ee6101e93660046119b8565b6106a1565b6040516100cf9190611d25565b34801561020757600080fd5b5061012861021636600461197e565b610794565b60008181526004602052604081205460ff1661023957506001919050565b506000919050565b919050565b6001546001600160a01b031633146102795760405162461bcd60e51b815260040161027090611dc0565b60405180910390fd5b6127108111156102e25760405162461bcd60e51b815260206004820152602e60248201527f696e76616c696420706c6174666f726d206665653a206d757374206e6f206c6160448201526d72676572207468616e203130302560901b6064820152608401610270565b600280549082905560408051828152602081018490527f5fc463da23c1b063e66f9e352006a7fbe8db7223c455dc429e881a2dfe2f94f1910160405180910390a15050565b6001546001600160a01b031633146103515760405162461bcd60e51b815260040161027090611dc0565b61035b600061082f565b565b60408101516001600160a01b03163314801561039757506004600061038183610881565b815260208101919091526040016000205460ff16155b6103d55760405162461bcd60e51b815260206004820152600f60248201526e1a5b9d985b1a59081c995c5d595cdd608a1b6044820152606401610270565b6001600460006103e484610881565b81526020810191909152604001600020805460ff1916911515919091179055337fa6eb7cdc219e1518ced964e9a34e61d68a94e4f1569db3e84256ba981ba5275361042e83610881565b60405190815260200160405180910390a250565b600260005414156104955760405162461bcd60e51b815260206004820152601f60248201527f5265656e7472616e637947756172643a207265656e7472616e742063616c6c006044820152606401610270565b60026000556104a684848484610909565b6104f25760405162461bcd60e51b815260206004820152601760248201527f696e76616c6964206f72646572207369676e61747572650000000000000000006044820152606401610270565b6104fc848361097b565b6105485760405162461bcd60e51b815260206004820152601860248201527f696e76616c6964206f7264657220706172616d657465727300000000000000006044820152606401610270565b6105528483610b9c565b61055c8483610c02565b6105668483610ef5565b505060016000555050565b6001546001600160a01b0316331461059b5760405162461bcd60e51b815260040161027090611dc0565b6001600160a01b0381166105f15760405162461bcd60e51b815260206004820152601860248201527f7a65726f2061646472657373206e6f7420616c6c6f77656400000000000000006044820152606401610270565b6003546001600160a01b038281169116141561064f5760405162461bcd60e51b815260206004820152601860248201527f73616d652061646472657373206e6f7420616c6c6f77656400000000000000006044820152606401610270565b600380546001600160a01b038381166001600160a01b0319831681179093556040519116919082907f4a9d367b1b0cd787be10021f1c55cb49c9f2302334e6df35c9621005eb22251490600090a35050565b60606000825167ffffffffffffffff8111156106bf576106bf611fb9565b6040519080825280602002602001820160405280156106e8578160200160208202803683370190505b50905060005b835181101561078d576004600085838151811061070d5761070d611fa3565b60209081029190910181015182528101919091526040016000205460ff1661075857600182828151811061074357610743611fa3565b9115156020928302919091019091015261077d565b600082828151811061076c5761076c611fa3565b911515602092830291909101909101525b61078681611f5c565b90506106ee565b5092915050565b6001546001600160a01b031633146107be5760405162461bcd60e51b815260040161027090611dc0565b6001600160a01b0381166108235760405162461bcd60e51b815260206004820152602660248201527f4f776e61626c653a206e6577206f776e657220697320746865207a65726f206160448201526564647265737360d01b6064820152608401610270565b61082c8161082f565b50565b600180546001600160a01b038381166001600160a01b0319831681179093556040519116919082907f8be0079c531659141344cd1fd0a4f28419497f9722a3daafe3b4186f6b6457e090600090a35050565b6000816000015182602001518360400151846060015185608001518660a001518760c001518860e001518961010001518a61012001518b61014001518c61016001518d61018001518e6101a001516040516020016108ec9e9d9c9b9a99989796959493929190611c33565b604051602081830303815290604052805190602001209050919050565b60008061091586610881565b9050600061092285610881565b905086604001516001600160a01b031661093c83886110a7565b6001600160a01b0316148015610970575084604001516001600160a01b031661096582866110a7565b6001600160a01b0316145b979650505050505050565b81516000906001600160a01b0316301480156109a0575081516001600160a01b031630145b80156109bf57506020830151151560011480156109bf57506020820151155b80156109f9575060608301516001600160a01b031615806109f9575081604001516001600160a01b031683606001516001600160a01b0316145b8015610a33575060608201516001600160a01b03161580610a33575082604001516001600160a01b031682606001516001600160a01b0316145b8015610a58575081608001516001600160a01b031683608001516001600160a01b0316145b8015610a6c57508160a001518360a0015110155b8015610a9157508160c001516001600160a01b03168360c001516001600160a01b0316145b8015610aa457508160e001518360e00151145b8015610ac257506127106002548460e00151610ac09190611e78565b105b8015610ae957508161010001516001600160a01b03168361010001516001600160a01b0316145b8015610b08575042836101600151108015610b08575042826101600151105b8015610b255750428361018001511180610b255750610180830151155b8015610b425750428261018001511180610b425750610180820151155b8015610b95575060046000610b5685610881565b815260208101919091526040016000205460ff16158015610b95575060046000610b7f84610881565b815260208101919091526040016000205460ff16155b9392505050565b600160046000610bab85610881565b815260200190815260200160002060006101000a81548160ff021916908315150217905550600160046000610bdf84610881565b81526020810191909152604001600020805460ff19169115159190911790555050565b60c0820151608083015160025460a085015160009190610c259061271090611eb5565b610c2f9190611ed7565b905060008560e001516127108760a00151610c4a9190611eb5565b610c549190611ed7565b9050600081838860a00151610c699190611ef6565b610c739190611ef6565b90506001600160a01b038416610db35786604001516001600160a01b0316336001600160a01b0316148015610cab57508660a0015134145b610ce95760405162461bcd60e51b815260206004820152600f60248201526e1a5b9d985b1a59081c185e5b595b9d608a1b6044820152606401610270565b8215610d2b576003546040516001600160a01b039091169084156108fc029085906000818181858888f19350505050158015610d29573d6000803e3d6000fd5b505b8115610d69576040516001600160a01b0386169083156108fc029084906000818181858888f19350505050158015610d67573d6000803e3d6000fd5b505b8015610dae5785604001516001600160a01b03166108fc829081150290604051600060405180830381858888f19350505050158015610dac573d6000803e3d6000fd5b505b610e5c565b3415610df35760405162461bcd60e51b815260206004820152600f60248201526e1a5b9d985b1a59081c185e5b595b9d608a1b6044820152606401610270565b8215610e16576040870151600354610e169186916001600160a01b031686611122565b8115801590610e2d57506001600160a01b03851615155b15610e4257610e428488604001518785611122565b8015610e5c57610e5c848860400151886040015184611122565b85604001516001600160a01b031687604001516001600160a01b03167ff21a8dc8c296a381cf3a95a7d3b72827b6d6c1ae993790bfe5d1851421f960a6610ea28a610881565b610eab8a610881565b8b608001518c60a00151604051610ee4949392919093845260208401929092526001600160a01b03166040830152606082015260800190565b60405180910390a350505050505050565b6000610f11836101200151836101200151856101400151611182565b90506000610f2f836101200151856101200151856101400151611182565b90508080519060200120828051906020012014610f8e5760405162461bcd60e51b815260206004820152601860248201527f696e76616c69642064617461207265706c6163656d656e7400000000000000006044820152606401610270565b6005546040848101519051638369166d60e01b81526001600160a01b0391821660048201526000929190911690638369166d9060240160206040518083038186803b158015610fdc57600080fd5b505afa158015610ff0573d6000803e3d6000fd5b505050506040513d601f19601f82011682018060405250810190611014919061199b565b610100850151604051635f3682ad60e11b81529192506001600160a01b0383169163be6d055a91611049918690600401611d01565b600060405180830381600087803b15801561106357600080fd5b505af1158015611077573d6000803e3d6000fd5b505050506040513d6000823e601f3d908101601f1916820160405261109f9190810190611a9b565b505050505050565b600081516041146110fa5760405162461bcd60e51b815260206004820152601f60248201527f45434453413a20696e76616c6964207369676e6174757265206c656e677468006044820152606401610270565b60208201516040830151606084015160001a61111886828585611311565b9695505050505050565b604080516001600160a01b0385811660248301528416604482015260648082018490528251808303909101815260849091019091526020810180516001600160e01b03166323b872dd60e01b17905261117c908590611573565b50505050565b6060825184511461119257600080fd5b81518451146111a057600080fd5b6000602085516111b09190611eb5565b905060006111bf826020611ed7565b9050816111cd602083611eb5565b146111da576111da611f77565b60005b82811015611215578060010160200280860151818801518116828a015182191617828a015250508061120e90611f5c565b90506111dd565b8215611242578290508060010160200280860151818801518116828a015182191617828a01525050611306565b50805b86518110156113065785818151811061126057611260611fa3565b602001015160f81c60f81b85828151811061127d5761127d611fa3565b602001015160f81c60f81b1687828151811061129b5761129b611fa3565b602001015160f81c60f81b8683815181106112b8576112b8611fa3565b602001015160f81c60f81b60ff60f81b1816178782815181106112dd576112dd611fa3565b60200101906001600160f81b031916908160001a905350806112fe81611f5c565b915050611245565b509495945050505050565b60007f7fffffffffffffffffffffffffffffff5d576e7357a4501ddfe92f46681b20a082111561138e5760405162461bcd60e51b815260206004820152602260248201527f45434453413a20696e76616c6964207369676e6174757265202773272076616c604482015261756560f01b6064820152608401610270565b6000601e8560ff161115611457576113a7600486611f0d565b60ff16601b14806113c557506113be600486611f0d565b60ff16601c145b6113e15760405162461bcd60e51b815260040161027090611d7e565b60016113ec8761164a565b6113f7600488611f0d565b6040805160008152602081018083529390935260ff90911690820152606081018690526080810185905260a0016020604051602081039080840390855afa158015611446573d6000803e3d6000fd5b505050602060405103519050611514565b60ff8516158061146a57508460ff166001145b1561147d5761147a85601b611e90565b94505b8460ff16601b148061149257508460ff16601c145b6114ae5760405162461bcd60e51b815260040161027090611d7e565b60016114b98761164a565b6040805160008152602081018083529290925260ff881690820152606081018690526080810185905260a0016020604051602081039080840390855afa158015611507573d6000803e3d6000fd5b5050506020604051035190505b6001600160a01b03811661156a5760405162461bcd60e51b815260206004820152601860248201527f45434453413a20696e76616c6964207369676e617475726500000000000000006044820152606401610270565b95945050505050565b60006115c8826040518060400160405280602081526020017f5361666545524332303a206c6f772d6c6576656c2063616c6c206661696c6564815250856001600160a01b03166116859092919063ffffffff16565b80519091501561164557808060200190518101906115e69190611a65565b6116455760405162461bcd60e51b815260206004820152602a60248201527f5361666545524332303a204552433230206f7065726174696f6e20646964206e6044820152691bdd081cdd58d8d9595960b21b6064820152608401610270565b505050565b6040517f19457468657265756d205369676e6564204d6573736167653a0a3332000000006020820152603c8101829052600090605c016108ec565b6060611694848460008561169c565b949350505050565b6060824710156116fd5760405162461bcd60e51b815260206004820152602660248201527f416464726573733a20696e73756666696369656e742062616c616e636520666f6044820152651c8818d85b1b60d21b6064820152608401610270565b843b61174b5760405162461bcd60e51b815260206004820152601d60248201527f416464726573733a2063616c6c20746f206e6f6e2d636f6e74726163740000006044820152606401610270565b600080866001600160a01b031685876040516117679190611c17565b60006040518083038185875af1925050503d80600081146117a4576040519150601f19603f3d011682016040523d82523d6000602084013e6117a9565b606091505b5091509150610970828286606083156117c3575081610b95565b8251156117d35782518084602001fd5b8160405162461bcd60e51b81526004016102709190611d6b565b803561024181611fcf565b803561024181611fe4565b600082601f83011261181457600080fd5b813561182761182282611e50565b611e1f565b81815284602083860101111561183c57600080fd5b816020850160208301376000918101602001919091529392505050565b60006101c0828403121561186c57600080fd5b611874611df5565b905061187f826117ed565b815261188d602083016117f8565b602082015261189e604083016117ed565b60408201526118af606083016117ed565b60608201526118c0608083016117ed565b608082015260a082013560a08201526118db60c083016117ed565b60c082015260e082013560e08201526101006118f88184016117ed565b908201526101208281013567ffffffffffffffff8082111561191957600080fd5b61192586838701611803565b8385015261014092508285013591508082111561194157600080fd5b5061194e85828601611803565b8284015250506101608083013581830152506101808083013581830152506101a080830135818301525092915050565b60006020828403121561199057600080fd5b8135610b9581611fcf565b6000602082840312156119ad57600080fd5b8151610b9581611fcf565b600060208083850312156119cb57600080fd5b823567ffffffffffffffff808211156119e357600080fd5b818501915085601f8301126119f757600080fd5b813581811115611a0957611a09611fb9565b8060051b9150611a1a848301611e1f565b8181528481019084860184860187018a1015611a3557600080fd5b600095505b83861015611a58578035835260019590950194918601918601611a3a565b5098975050505050505050565b600060208284031215611a7757600080fd5b8151610b9581611fe4565b600060208284031215611a9457600080fd5b5035919050565b600060208284031215611aad57600080fd5b815167ffffffffffffffff811115611ac457600080fd5b8201601f81018413611ad557600080fd5b8051611ae361182282611e50565b818152856020838501011115611af857600080fd5b61156a826020830160208601611f30565b600060208284031215611b1b57600080fd5b813567ffffffffffffffff811115611b3257600080fd5b61169484828501611859565b60008060008060808587031215611b5457600080fd5b843567ffffffffffffffff80821115611b6c57600080fd5b611b7888838901611859565b95506020870135915080821115611b8e57600080fd5b611b9a88838901611803565b94506040870135915080821115611bb057600080fd5b611bbc88838901611859565b93506060870135915080821115611bd257600080fd5b50611bdf87828801611803565b91505092959194509250565b60008151808452611c03816020860160208601611f30565b601f01601f19169290920160200192915050565b60008251611c29818460208701611f30565b9190910192915050565b6001600160a01b038f1681528d151560208201526001600160a01b038d1660408201526001600160a01b038c1660608201526001600160a01b038b1660808201528960a0820152611c8f60c082018a6001600160a01b03169052565b8760e0820152611cab6101008201886001600160a01b03169052565b6101c06101208201526000611cc46101c0830188611beb565b828103610140840152611cd78188611beb565b61016084019690965250506101808101929092526101a0909101529b9a5050505050505050505050565b6001600160a01b038316815260406020820181905260009061169490830184611beb565b6020808252825182820181905260009190848201906040850190845b81811015611d5f578351151583529284019291840191600101611d41565b50909695505050505050565b602081526000610b956020830184611beb565b60208082526022908201527f45434453413a20696e76616c6964207369676e6174757265202776272076616c604082015261756560f01b606082015260800190565b6020808252818101527f4f776e61626c653a2063616c6c6572206973206e6f7420746865206f776e6572604082015260600190565b6040516101c0810167ffffffffffffffff81118282101715611e1957611e19611fb9565b60405290565b604051601f8201601f1916810167ffffffffffffffff81118282101715611e4857611e48611fb9565b604052919050565b600067ffffffffffffffff821115611e6a57611e6a611fb9565b50601f01601f191660200190565b60008219821115611e8b57611e8b611f8d565b500190565b600060ff821660ff84168060ff03821115611ead57611ead611f8d565b019392505050565b600082611ed257634e487b7160e01b600052601260045260246000fd5b500490565b6000816000190483118215151615611ef157611ef1611f8d565b500290565b600082821015611f0857611f08611f8d565b500390565b600060ff821660ff841680821015611f2757611f27611f8d565b90039392505050565b60005b83811015611f4b578181015183820152602001611f33565b8381111561117c5750506000910152565b6000600019821415611f7057611f70611f8d565b5060010190565b634e487b7160e01b600052600160045260246000fd5b634e487b7160e01b600052601160045260246000fd5b634e487b7160e01b600052603260045260246000fd5b634e487b7160e01b600052604160045260246000fd5b6001600160a01b038116811461082c57600080fd5b801515811461082c57600080fdfea2646970667358221220da3e9afec9767882d0782c15aedf611a75b7ea5c72d4160bba207fd5169af93c64736f6c63430008070033",
  "linkReferences": {},
  "deployedLinkReferences": {}
}